{
  "contractName": "ACL",
  "abi": [
    {
      "constant": true,
      "inputs": [],
      "name": "hasInitialized",
      "outputs": [
        {
          "name": "",
          "type": "bool"
        }
      ],
      "payable": false,
      "stateMutability": "view",
      "type": "function"
    },
    {
      "constant": true,
      "inputs": [],
      "name": "NO_PERMISSION",
      "outputs": [
        {
          "name": "",
          "type": "bytes32"
        }
      ],
      "payable": false,
      "stateMutability": "view",
      "type": "function"
    },
    {
      "constant": true,
      "inputs": [
        {
          "name": "_script",
          "type": "bytes"
        }
      ],
      "name": "getEVMScriptExecutor",
      "outputs": [
        {
          "name": "",
          "type": "address"
        }
      ],
      "payable": false,
      "stateMutability": "view",
      "type": "function"
    },
    {
      "constant": true,
      "inputs": [],
      "name": "getRecoveryVault",
      "outputs": [
        {
          "name": "",
          "type": "address"
        }
      ],
      "payable": false,
      "stateMutability": "view",
      "type": "function"
    },
    {
      "constant": true,
      "inputs": [],
      "name": "CREATE_PERMISSIONS_ROLE",
      "outputs": [
        {
          "name": "",
          "type": "bytes32"
        }
      ],
      "payable": false,
      "stateMutability": "view",
      "type": "function"
    },
    {
      "constant": true,
      "inputs": [
        {
          "name": "token",
          "type": "address"
        }
      ],
      "name": "allowRecoverability",
      "outputs": [
        {
          "name": "",
          "type": "bool"
        }
      ],
      "payable": false,
      "stateMutability": "view",
      "type": "function"
    },
    {
      "constant": true,
      "inputs": [],
      "name": "appId",
      "outputs": [
        {
          "name": "",
          "type": "bytes32"
        }
      ],
      "payable": false,
      "stateMutability": "view",
      "type": "function"
    },
    {
      "constant": true,
      "inputs": [],
      "name": "getInitializationBlock",
      "outputs": [
        {
          "name": "",
          "type": "uint256"
        }
      ],
      "payable": false,
      "stateMutability": "view",
      "type": "function"
    },
    {
      "constant": false,
      "inputs": [
        {
          "name": "_token",
          "type": "address"
        }
      ],
      "name": "transferToVault",
      "outputs": [],
      "payable": false,
      "stateMutability": "nonpayable",
      "type": "function"
    },
    {
      "constant": true,
      "inputs": [
        {
          "name": "_sender",
          "type": "address"
        },
        {
          "name": "_role",
          "type": "bytes32"
        },
        {
          "name": "_params",
          "type": "uint256[]"
        }
      ],
      "name": "canPerform",
      "outputs": [
        {
          "name": "",
          "type": "bool"
        }
      ],
      "payable": false,
      "stateMutability": "view",
      "type": "function"
    },
    {
      "constant": true,
      "inputs": [],
      "name": "getEVMScriptRegistry",
      "outputs": [
        {
          "name": "",
          "type": "address"
        }
      ],
      "payable": false,
      "stateMutability": "view",
      "type": "function"
    },
    {
      "constant": true,
      "inputs": [],
      "name": "ANY_ENTITY",
      "outputs": [
        {
          "name": "",
          "type": "address"
        }
      ],
      "payable": false,
      "stateMutability": "view",
      "type": "function"
    },
    {
      "constant": true,
      "inputs": [],
      "name": "EMPTY_PARAM_HASH",
      "outputs": [
        {
          "name": "",
          "type": "bytes32"
        }
      ],
      "payable": false,
      "stateMutability": "view",
      "type": "function"
    },
    {
      "constant": true,
      "inputs": [],
      "name": "kernel",
      "outputs": [
        {
          "name": "",
          "type": "address"
        }
      ],
      "payable": false,
      "stateMutability": "view",
      "type": "function"
    },
    {
      "constant": true,
      "inputs": [],
      "name": "isPetrified",
      "outputs": [
        {
          "name": "",
          "type": "bool"
        }
      ],
      "payable": false,
      "stateMutability": "view",
      "type": "function"
    },
    {
      "constant": true,
      "inputs": [],
      "name": "BURN_ENTITY",
      "outputs": [
        {
          "name": "",
          "type": "address"
        }
      ],
      "payable": false,
      "stateMutability": "view",
      "type": "function"
    },
    {
      "anonymous": false,
      "inputs": [
        {
          "indexed": true,
          "name": "entity",
          "type": "address"
        },
        {
          "indexed": true,
          "name": "app",
          "type": "address"
        },
        {
          "indexed": true,
          "name": "role",
          "type": "bytes32"
        },
        {
          "indexed": false,
          "name": "allowed",
          "type": "bool"
        }
      ],
      "name": "SetPermission",
      "type": "event"
    },
    {
      "anonymous": false,
      "inputs": [
        {
          "indexed": true,
          "name": "entity",
          "type": "address"
        },
        {
          "indexed": true,
          "name": "app",
          "type": "address"
        },
        {
          "indexed": true,
          "name": "role",
          "type": "bytes32"
        },
        {
          "indexed": false,
          "name": "paramsHash",
          "type": "bytes32"
        }
      ],
      "name": "SetPermissionParams",
      "type": "event"
    },
    {
      "anonymous": false,
      "inputs": [
        {
          "indexed": true,
          "name": "app",
          "type": "address"
        },
        {
          "indexed": true,
          "name": "role",
          "type": "bytes32"
        },
        {
          "indexed": true,
          "name": "manager",
          "type": "address"
        }
      ],
      "name": "ChangePermissionManager",
      "type": "event"
    },
    {
      "anonymous": false,
      "inputs": [
        {
          "indexed": true,
          "name": "executor",
          "type": "address"
        },
        {
          "indexed": false,
          "name": "script",
          "type": "bytes"
        },
        {
          "indexed": false,
          "name": "input",
          "type": "bytes"
        },
        {
          "indexed": false,
          "name": "returnData",
          "type": "bytes"
        }
      ],
      "name": "ScriptResult",
      "type": "event"
    },
    {
      "anonymous": false,
      "inputs": [
        {
          "indexed": true,
          "name": "vault",
          "type": "address"
        },
        {
          "indexed": true,
          "name": "token",
          "type": "address"
        },
        {
          "indexed": false,
          "name": "amount",
          "type": "uint256"
        }
      ],
      "name": "RecoverToVault",
      "type": "event"
    },
    {
      "constant": false,
      "inputs": [
        {
          "name": "_permissionsCreator",
          "type": "address"
        }
      ],
      "name": "initialize",
      "outputs": [],
      "payable": false,
      "stateMutability": "nonpayable",
      "type": "function"
    },
    {
      "constant": false,
      "inputs": [
        {
          "name": "_entity",
          "type": "address"
        },
        {
          "name": "_app",
          "type": "address"
        },
        {
          "name": "_role",
          "type": "bytes32"
        },
        {
          "name": "_manager",
          "type": "address"
        }
      ],
      "name": "createPermission",
      "outputs": [],
      "payable": false,
      "stateMutability": "nonpayable",
      "type": "function"
    },
    {
      "constant": false,
      "inputs": [
        {
          "name": "_entity",
          "type": "address"
        },
        {
          "name": "_app",
          "type": "address"
        },
        {
          "name": "_role",
          "type": "bytes32"
        }
      ],
      "name": "grantPermission",
      "outputs": [],
      "payable": false,
      "stateMutability": "nonpayable",
      "type": "function"
    },
    {
      "constant": false,
      "inputs": [
        {
          "name": "_entity",
          "type": "address"
        },
        {
          "name": "_app",
          "type": "address"
        },
        {
          "name": "_role",
          "type": "bytes32"
        },
        {
          "name": "_params",
          "type": "uint256[]"
        }
      ],
      "name": "grantPermissionP",
      "outputs": [],
      "payable": false,
      "stateMutability": "nonpayable",
      "type": "function"
    },
    {
      "constant": false,
      "inputs": [
        {
          "name": "_entity",
          "type": "address"
        },
        {
          "name": "_app",
          "type": "address"
        },
        {
          "name": "_role",
          "type": "bytes32"
        }
      ],
      "name": "revokePermission",
      "outputs": [],
      "payable": false,
      "stateMutability": "nonpayable",
      "type": "function"
    },
    {
      "constant": false,
      "inputs": [
        {
          "name": "_newManager",
          "type": "address"
        },
        {
          "name": "_app",
          "type": "address"
        },
        {
          "name": "_role",
          "type": "bytes32"
        }
      ],
      "name": "setPermissionManager",
      "outputs": [],
      "payable": false,
      "stateMutability": "nonpayable",
      "type": "function"
    },
    {
      "constant": false,
      "inputs": [
        {
          "name": "_app",
          "type": "address"
        },
        {
          "name": "_role",
          "type": "bytes32"
        }
      ],
      "name": "removePermissionManager",
      "outputs": [],
      "payable": false,
      "stateMutability": "nonpayable",
      "type": "function"
    },
    {
      "constant": false,
      "inputs": [
        {
          "name": "_app",
          "type": "address"
        },
        {
          "name": "_role",
          "type": "bytes32"
        }
      ],
      "name": "createBurnedPermission",
      "outputs": [],
      "payable": false,
      "stateMutability": "nonpayable",
      "type": "function"
    },
    {
      "constant": false,
      "inputs": [
        {
          "name": "_app",
          "type": "address"
        },
        {
          "name": "_role",
          "type": "bytes32"
        }
      ],
      "name": "burnPermissionManager",
      "outputs": [],
      "payable": false,
      "stateMutability": "nonpayable",
      "type": "function"
    },
    {
      "constant": true,
      "inputs": [
        {
          "name": "_entity",
          "type": "address"
        },
        {
          "name": "_app",
          "type": "address"
        },
        {
          "name": "_role",
          "type": "bytes32"
        }
      ],
      "name": "getPermissionParamsLength",
      "outputs": [
        {
          "name": "",
          "type": "uint256"
        }
      ],
      "payable": false,
      "stateMutability": "view",
      "type": "function"
    },
    {
      "constant": true,
      "inputs": [
        {
          "name": "_entity",
          "type": "address"
        },
        {
          "name": "_app",
          "type": "address"
        },
        {
          "name": "_role",
          "type": "bytes32"
        },
        {
          "name": "_index",
          "type": "uint256"
        }
      ],
      "name": "getPermissionParam",
      "outputs": [
        {
          "name": "",
          "type": "uint8"
        },
        {
          "name": "",
          "type": "uint8"
        },
        {
          "name": "",
          "type": "uint240"
        }
      ],
      "payable": false,
      "stateMutability": "view",
      "type": "function"
    },
    {
      "constant": true,
      "inputs": [
        {
          "name": "_app",
          "type": "address"
        },
        {
          "name": "_role",
          "type": "bytes32"
        }
      ],
      "name": "getPermissionManager",
      "outputs": [
        {
          "name": "",
          "type": "address"
        }
      ],
      "payable": false,
      "stateMutability": "view",
      "type": "function"
    },
    {
      "constant": true,
      "inputs": [
        {
          "name": "_who",
          "type": "address"
        },
        {
          "name": "_where",
          "type": "address"
        },
        {
          "name": "_what",
          "type": "bytes32"
        }
      ],
      "name": "hasPermission",
      "outputs": [
        {
          "name": "",
          "type": "bool"
        }
      ],
      "payable": false,
      "stateMutability": "view",
      "type": "function"
    },
    {
      "constant": true,
      "inputs": [
        {
          "name": "_who",
          "type": "address"
        },
        {
          "name": "_where",
          "type": "address"
        },
        {
          "name": "_what",
          "type": "bytes32"
        },
        {
          "name": "_how",
          "type": "uint256[]"
        }
      ],
      "name": "hasPermission",
      "outputs": [
        {
          "name": "",
          "type": "bool"
        }
      ],
      "payable": false,
      "stateMutability": "view",
      "type": "function"
    },
    {
      "constant": true,
      "inputs": [
        {
          "name": "_who",
          "type": "address"
        },
        {
          "name": "_where",
          "type": "address"
        },
        {
          "name": "_what",
          "type": "bytes32"
        },
        {
          "name": "_how",
          "type": "bytes"
        }
      ],
      "name": "hasPermission",
      "outputs": [
        {
          "name": "",
          "type": "bool"
        }
      ],
      "payable": false,
      "stateMutability": "view",
      "type": "function"
    },
    {
      "constant": true,
      "inputs": [
        {
          "name": "_paramsHash",
          "type": "bytes32"
        },
        {
          "name": "_who",
          "type": "address"
        },
        {
          "name": "_where",
          "type": "address"
        },
        {
          "name": "_what",
          "type": "bytes32"
        },
        {
          "name": "_how",
          "type": "uint256[]"
        }
      ],
      "name": "evalParams",
      "outputs": [
        {
          "name": "",
          "type": "bool"
        }
      ],
      "payable": false,
      "stateMutability": "view",
      "type": "function"
    }
  ],
  "bytecode": "0x60806040526200001d62000023640100000000026401000000009004565b62000309565b60006200003e6200015e640100000000026401000000009004565b146040805190810160405280601881526020017f494e49545f414c52454144595f494e495449414c495a4544000000000000000081525090151562000121576040517f08c379a00000000000000000000000000000000000000000000000000000000081526004018080602001828103825283818151815260200191508051906020019080838360005b83811015620000e5578082015181840152602081019050620000c8565b50505050905090810190601f168015620001135780820380516001836020036101000a031916815260200191505b509250505060405180910390fd5b506200015c7fffffffffffffffffffffffffffffffffffffffffffffffffffffffffffffffff620001ab640100000000026401000000009004565b565b6000620001a67febb05b386a8d34882b8711d156f463690983dc47815980fb82aeeff1aa43579e60010260001916620002f7640100000000026200336f176401000000009004565b905090565b6000620001c66200015e640100000000026401000000009004565b146040805190810160405280601881526020017f494e49545f414c52454144595f494e495449414c495a45440000000000000000815250901515620002a9576040517f08c379a00000000000000000000000000000000000000000000000000000000081526004018080602001828103825283818151815260200191508051906020019080838360005b838110156200026d57808201518184015260208101905062000250565b50505050905090810190601f1680156200029b5780820380516001836020036101000a031916815260200191505b509250505060405180910390fd5b50620002f4817febb05b386a8d34882b8711d156f463690983dc47815980fb82aeeff1aa43579e60010260001916620003026401000000000262003fba179091906401000000009004565b50565b600081549050919050565b8082555050565b61405a80620003196000396000f300608060405260043610610196576000357c0100000000000000000000000000000000000000000000000000000000900463ffffffff1680630803fac01461019b5780630808343e146101ca57806309699ff51461021b5780630a8ed3db1461026c57806315949ed7146102dd5780631b5e75be146103625780631d63ff2b1461043c5780632914b9bd1461046f57806332f0a3b5146105185780633d6ab68f1461056f5780636815c992146105a25780636d6712d8146106565780637e7db6e1146106df57806380afdea81461073a5780638b3dd7491461076d5780639d0effdb146107985780639d4941d814610809578063a03c58321461084c578063a1658fad14610935578063a479e508146109e1578063a5ed8bf814610a38578063a885508a14610a8f578063afd925df14610ae0578063b190572714610b51578063be03847814610be2578063c4d66de814610c73578063c513f66e14610cb6578063d4aae0c414610ce9578063de4796ed14610d40578063f516bc0e14610d6f578063f520b58d14610dc6578063fdef910614610e92575b600080fd5b3480156101a757600080fd5b506101b0610f61565b604051808215151515815260200191505060405180910390f35b3480156101d657600080fd5b50610219600480360381019080803573ffffffffffffffffffffffffffffffffffffffff1690602001909291908035600019169060200190929190505050610f8c565b005b34801561022757600080fd5b5061026a600480360381019080803573ffffffffffffffffffffffffffffffffffffffff16906020019092919080356000191690602001909291905050506111f7565b005b34801561027857600080fd5b506102db600480360381019080803573ffffffffffffffffffffffffffffffffffffffff169060200190929190803573ffffffffffffffffffffffffffffffffffffffff1690602001909291908035600019169060200190929190505050611322565b005b3480156102e957600080fd5b5061034c600480360381019080803573ffffffffffffffffffffffffffffffffffffffff169060200190929190803573ffffffffffffffffffffffffffffffffffffffff1690602001909291908035600019169060200190929190505050611363565b6040518082815260200191505060405180910390f35b34801561036e57600080fd5b506104226004803603810190808035600019169060200190929190803573ffffffffffffffffffffffffffffffffffffffff169060200190929190803573ffffffffffffffffffffffffffffffffffffffff1690602001909291908035600019169060200190929190803590602001908201803590602001908080602002602001604051908101604052809392919081815260200183836020028082843782019150505050505091929192905050506113b1565b604051808215151515815260200191505060405180910390f35b34801561044857600080fd5b5061045161140a565b60405180826000191660001916815260200191505060405180910390f35b34801561047b57600080fd5b506104d6600480360381019080803590602001908201803590602001908080601f0160208091040260200160405190810160405280939291908181526020018383808284378201915050505050509192919290505050611412565b604051808273ffffffffffffffffffffffffffffffffffffffff1673ffffffffffffffffffffffffffffffffffffffff16815260200191505060405180910390f35b34801561052457600080fd5b5061052d611531565b604051808273ffffffffffffffffffffffffffffffffffffffff1673ffffffffffffffffffffffffffffffffffffffff16815260200191505060405180910390f35b34801561057b57600080fd5b506105846115de565b60405180826000191660001916815260200191505060405180910390f35b3480156105ae57600080fd5b50610654600480360381019080803573ffffffffffffffffffffffffffffffffffffffff169060200190929190803573ffffffffffffffffffffffffffffffffffffffff169060200190929190803560001916906020019092919080359060200190820180359060200190808060200260200160405190810160405280939291908181526020018383602002808284378201915050505050509192919290505050611605565b005b34801561066257600080fd5b506106c5600480360381019080803573ffffffffffffffffffffffffffffffffffffffff169060200190929190803573ffffffffffffffffffffffffffffffffffffffff1690602001909291908035600019169060200190929190505050611773565b604051808215151515815260200191505060405180910390f35b3480156106eb57600080fd5b50610720600480360381019080803573ffffffffffffffffffffffffffffffffffffffff1690602001909291905050506117c0565b604051808215151515815260200191505060405180910390f35b34801561074657600080fd5b5061074f6117cb565b60405180826000191660001916815260200191505060405180910390f35b34801561077957600080fd5b50610782611802565b6040518082815260200191505060405180910390f35b3480156107a457600080fd5b50610807600480360381019080803573ffffffffffffffffffffffffffffffffffffffff169060200190929190803573ffffffffffffffffffffffffffffffffffffffff1690602001909291908035600019169060200190929190505050611839565b005b34801561081557600080fd5b5061084a600480360381019080803573ffffffffffffffffffffffffffffffffffffffff169060200190929190505050611969565b005b34801561085857600080fd5b506108c5600480360381019080803573ffffffffffffffffffffffffffffffffffffffff169060200190929190803573ffffffffffffffffffffffffffffffffffffffff169060200190929190803560001916906020019092919080359060200190929190505050611d87565b604051808460ff1660ff1681526020018360ff1660ff168152602001827dffffffffffffffffffffffffffffffffffffffffffffffffffffffffffff167dffffffffffffffffffffffffffffffffffffffffffffffffffffffffffff168152602001935050505060405180910390f35b34801561094157600080fd5b506109c7600480360381019080803573ffffffffffffffffffffffffffffffffffffffff169060200190929190803560001916906020019092919080359060200190820180359060200190808060200260200160405190810160405280939291908181526020018383602002808284378201915050505050509192919290505050611e49565b604051808215151515815260200191505060405180910390f35b3480156109ed57600080fd5b506109f6612045565b604051808273ffffffffffffffffffffffffffffffffffffffff1673ffffffffffffffffffffffffffffffffffffffff16815260200191505060405180910390f35b348015610a4457600080fd5b50610a4d612160565b604051808273ffffffffffffffffffffffffffffffffffffffff1673ffffffffffffffffffffffffffffffffffffffff16815260200191505060405180910390f35b348015610a9b57600080fd5b50610ade600480360381019080803573ffffffffffffffffffffffffffffffffffffffff1690602001909291908035600019169060200190929190505050612184565b005b348015610aec57600080fd5b50610b4f600480360381019080803573ffffffffffffffffffffffffffffffffffffffff169060200190929190803573ffffffffffffffffffffffffffffffffffffffff16906020019092919080356000191690602001909291905050506122af565b005b348015610b5d57600080fd5b50610ba0600480360381019080803573ffffffffffffffffffffffffffffffffffffffff16906020019092919080356000191690602001909291905050506123da565b604051808273ffffffffffffffffffffffffffffffffffffffff1673ffffffffffffffffffffffffffffffffffffffff16815260200191505060405180910390f35b348015610bee57600080fd5b50610c71600480360381019080803573ffffffffffffffffffffffffffffffffffffffff169060200190929190803573ffffffffffffffffffffffffffffffffffffffff1690602001909291908035600019169060200190929190803573ffffffffffffffffffffffffffffffffffffffff169060200190929190505050612429565b005b348015610c7f57600080fd5b50610cb4600480360381019080803573ffffffffffffffffffffffffffffffffffffffff169060200190929190505050612696565b005b348015610cc257600080fd5b50610ccb6128cf565b60405180826000191660001916815260200191505060405180910390f35b348015610cf557600080fd5b50610cfe6128f6565b604051808273ffffffffffffffffffffffffffffffffffffffff1673ffffffffffffffffffffffffffffffffffffffff16815260200191505060405180910390f35b348015610d4c57600080fd5b50610d5561292d565b604051808215151515815260200191505060405180910390f35b348015610d7b57600080fd5b50610d8461295e565b604051808273ffffffffffffffffffffffffffffffffffffffff1673ffffffffffffffffffffffffffffffffffffffff16815260200191505060405180910390f35b348015610dd257600080fd5b50610e78600480360381019080803573ffffffffffffffffffffffffffffffffffffffff169060200190929190803573ffffffffffffffffffffffffffffffffffffffff169060200190929190803560001916906020019092919080359060200190820180359060200190808060200260200160405190810160405280939291908181526020018383602002808284378201915050505050509192919290505050612963565b604051808215151515815260200191505060405180910390f35b348015610e9e57600080fd5b50610f47600480360381019080803573ffffffffffffffffffffffffffffffffffffffff169060200190929190803573ffffffffffffffffffffffffffffffffffffffff1690602001909291908035600019169060200190929190803590602001908201803590602001908080601f0160208091040260200160405190810160405280939291908181526020018383808284378201915050505050509192919290505050612a6b565b604051808215151515815260200191505060405180910390f35b600080610f6c611802565b905060008114158015610f86575080610f83612a8b565b10155b91505090565b7f0b719b33c83b8e5d300c521cb8b54ae9bd933996a14bef8c2f4e0285d2d2400a600102610feb33826000604051908082528060200260200182016040528015610fe55781602001602082028038833980820191505090505b50611e49565b6040805190810160405280600f81526020017f4150505f415554485f4641494c454400000000000000000000000000000000008152509015156110c9576040517f08c379a00000000000000000000000000000000000000000000000000000000081526004018080602001828103825283818151815260200191508051906020019080838360005b8381101561108e578082015181840152602081019050611073565b50505050905090810190601f1680156110bb5780820380516001836020036101000a031916815260200191505b509250505060405180910390fd5b508282600073ffffffffffffffffffffffffffffffffffffffff166110ee83836123da565b73ffffffffffffffffffffffffffffffffffffffff16146040805190810160405280601481526020017f41434c5f4558495354454e545f4d414e414745520000000000000000000000008152509015156111e3576040517f08c379a00000000000000000000000000000000000000000000000000000000081526004018080602001828103825283818151815260200191508051906020019080838360005b838110156111a857808201518184015260208101905061118d565b50505050905090810190601f1680156111d55780820380516001836020036101000a031916815260200191505b509250505060405180910390fd5b506111f060018686612a93565b5050505050565b818161120382826123da565b73ffffffffffffffffffffffffffffffffffffffff163373ffffffffffffffffffffffffffffffffffffffff16146040805190810160405280601381526020017f41434c5f415554485f4e4f5f4d414e414745520000000000000000000000000081525090151561130f576040517f08c379a00000000000000000000000000000000000000000000000000000000081526004018080602001828103825283818151815260200191508051906020019080838360005b838110156112d45780820151818401526020810190506112b9565b50505050905090810190601f1680156113015780820380516001836020036101000a031916815260200191505b509250505060405180910390fd5b5061131c60018585612a93565b50505050565b61135e83838360006040519080825280602002602001820160405280156113585781602001602082028038833980820191505090505b50611605565b505050565b600060016000806000611377888888612b5a565b6000191660001916815260200190815260200160002054600019166000191681526020019081526020016000208054905090509392505050565b60007f290decd9548b62a8d60345a988386fc84ba6bc95484008f6362f93160ef3e56360010260001916866000191614156113ef5760019050611401565b6113fe86600087878787612c9d565b90505b95945050505050565b600060010281565b600061141c612045565b73ffffffffffffffffffffffffffffffffffffffff166304bf2a7f836040518263ffffffff167c01000000000000000000000000000000000000000000000000000000000281526004018080602001828103825283818151815260200191508051906020019080838360005b838110156114a3578082015181840152602081019050611488565b50505050905090810190601f1680156114d05780820380516001836020036101000a031916815260200191505b5092505050602060405180830381600087803b1580156114ef57600080fd5b505af1158015611503573d6000803e3d6000fd5b505050506040513d602081101561151957600080fd5b81019080805190602001909291905050509050919050565b600061153b6128f6565b73ffffffffffffffffffffffffffffffffffffffff166332f0a3b56040518163ffffffff167c0100000000000000000000000000000000000000000000000000000000028152600401602060405180830381600087803b15801561159e57600080fd5b505af11580156115b2573d6000803e3d6000fd5b505050506040513d60208110156115c857600080fd5b8101908080519060200190929190505050905090565b7f0b719b33c83b8e5d300c521cb8b54ae9bd933996a14bef8c2f4e0285d2d2400a60010281565b6000838361161382826123da565b73ffffffffffffffffffffffffffffffffffffffff163373ffffffffffffffffffffffffffffffffffffffff16146040805190810160405280601381526020017f41434c5f415554485f4e4f5f4d414e414745520000000000000000000000000081525090151561171f576040517f08c379a00000000000000000000000000000000000000000000000000000000081526004018080602001828103825283818151815260200191508051906020019080838360005b838110156116e45780820151818401526020810190506116c9565b50505050905090810190601f1680156117115780820380516001836020036101000a031916815260200191505b509250505060405180910390fd5b506000845111611752577f290decd9548b62a8d60345a988386fc84ba6bc95484008f6362f93160ef3e56360010261175c565b61175b84612fae565b5b925061176a878787866131f9565b50505050505050565b6000606060006040519080825280602002602001820160405280156117a75781602001602082028038833980820191505090505b5090506117b685858584612963565b9150509392505050565b600060019050919050565b60006117fd7fd625496217aa6a3453eecb9c3489dc5a53e6c67b444329ea2b2cbc9ff547639b60010260001916613364565b905090565b60006118347febb05b386a8d34882b8711d156f463690983dc47815980fb82aeeff1aa43579e6001026000191661336f565b905090565b818161184582826123da565b73ffffffffffffffffffffffffffffffffffffffff163373ffffffffffffffffffffffffffffffffffffffff16146040805190810160405280601381526020017f41434c5f415554485f4e4f5f4d414e4147455200000000000000000000000000815250901515611951576040517f08c379a00000000000000000000000000000000000000000000000000000000081526004018080602001828103825283818151815260200191508051906020019080838360005b838110156119165780820151818401526020810190506118fb565b50505050905090810190601f1680156119435780820380516001836020036101000a031916815260200191505b509250505060405180910390fd5b5061196285858560006001026131f9565b5050505050565b6000806000611977846117c0565b6040805190810160405280601281526020017f5245434f5645525f444953414c4c4f5745440000000000000000000000000000815250901515611a55576040517f08c379a00000000000000000000000000000000000000000000000000000000081526004018080602001828103825283818151815260200191508051906020019080838360005b83811015611a1a5780820151818401526020810190506119ff565b50505050905090810190601f168015611a475780820380516001836020036101000a031916815260200191505b509250505060405180910390fd5b50611a5e611531565b9250611a698361337a565b6040805190810160405280601a81526020017f5245434f5645525f5641554c545f4e4f545f434f4e5452414354000000000000815250901515611b47576040517f08c379a00000000000000000000000000000000000000000000000000000000081526004018080602001828103825283818151815260200191508051906020019080838360005b83811015611b0c578082015181840152602081019050611af1565b50505050905090810190601f168015611b395780820380516001836020036101000a031916815260200191505b509250505060405180910390fd5b50600073ffffffffffffffffffffffffffffffffffffffff168473ffffffffffffffffffffffffffffffffffffffff161415611be3573073ffffffffffffffffffffffffffffffffffffffff163191508273ffffffffffffffffffffffffffffffffffffffff166108fc839081150290604051600060405180830381858888f19350505050158015611bdd573d6000803e3d6000fd5b50611d1c565b839050611c0f308273ffffffffffffffffffffffffffffffffffffffff166133cc90919063ffffffff16565b9150611c3c83838373ffffffffffffffffffffffffffffffffffffffff166135a69092919063ffffffff16565b6040805190810160405280601d81526020017f5245434f5645525f544f4b454e5f5452414e534645525f4641494c4544000000815250901515611d1a576040517f08c379a00000000000000000000000000000000000000000000000000000000081526004018080602001828103825283818151815260200191508051906020019080838360005b83811015611cdf578082015181840152602081019050611cc4565b50505050905090810190601f168015611d0c5780820380516001836020036101000a031916815260200191505b509250505060405180910390fd5b505b8373ffffffffffffffffffffffffffffffffffffffff168373ffffffffffffffffffffffffffffffffffffffff167f596caf56044b55fb8c4ca640089bbc2b63cae3e978b851f5745cbb7c5b288e02846040518082815260200191505060405180910390a350505050565b60008060008060016000806000611d9f8c8c8c612b5a565b60001916600019168152602001908152602001600020546000191660001916815260200190815260200160002085815481101515611dd957fe5b9060005260206000200190508060000160009054906101000a900460ff168160000160019054906101000a900460ff168260000160029054906101000a90047dffffffffffffffffffffffffffffffffffffffffffffffffffffffffffff16935093509350509450945094915050565b600080611e54610f61565b1515611e63576000915061203d565b611e6b6128f6565b9050600073ffffffffffffffffffffffffffffffffffffffff168173ffffffffffffffffffffffffffffffffffffffff161415611eab576000915061203d565b8073ffffffffffffffffffffffffffffffffffffffff1663fdef9106863087611ed388613686565b6040518563ffffffff167c0100000000000000000000000000000000000000000000000000000000028152600401808573ffffffffffffffffffffffffffffffffffffffff1673ffffffffffffffffffffffffffffffffffffffff1681526020018473ffffffffffffffffffffffffffffffffffffffff1673ffffffffffffffffffffffffffffffffffffffff168152602001836000191660001916815260200180602001828103825283818151815260200191508051906020019080838360005b83811015611fb0578082015181840152602081019050611f95565b50505050905090810190601f168015611fdd5780820380516001836020036101000a031916815260200191505b5095505050505050602060405180830381600087803b158015611fff57600080fd5b505af1158015612013573d6000803e3d6000fd5b505050506040513d602081101561202957600080fd5b810190808051906020019092919050505091505b509392505050565b6000806120506128f6565b73ffffffffffffffffffffffffffffffffffffffff1663be00bbd87fd6f028ca0e8edb4a8c9757ca4fdccab25fa1e0317da1188108f7d2dee14902fb6001027fddbcfd564f642ab5627cf68b9b7d374fb4f8a36e941a75d89c87998cef03bd616001026040518363ffffffff167c0100000000000000000000000000000000000000000000000000000000028152600401808360001916600019168152602001826000191660001916815260200192505050602060405180830381600087803b15801561211c57600080fd5b505af1158015612130573d6000803e3d6000fd5b505050506040513d602081101561214657600080fd5b810190808051906020019092919050505090508091505090565b7fffffffffffffffffffffffffffffffffffffffffffffffffffffffffffffffff81565b818161219082826123da565b73ffffffffffffffffffffffffffffffffffffffff163373ffffffffffffffffffffffffffffffffffffffff16146040805190810160405280601381526020017f41434c5f415554485f4e4f5f4d414e414745520000000000000000000000000081525090151561229c576040517f08c379a00000000000000000000000000000000000000000000000000000000081526004018080602001828103825283818151815260200191508051906020019080838360005b83811015612261578082015181840152602081019050612246565b50505050905090810190601f16801561228e5780820380516001836020036101000a031916815260200191505b509250505060405180910390fd5b506122a960008585612a93565b50505050565b81816122bb82826123da565b73ffffffffffffffffffffffffffffffffffffffff163373ffffffffffffffffffffffffffffffffffffffff16146040805190810160405280601381526020017f41434c5f415554485f4e4f5f4d414e41474552000000000000000000000000008152509015156123c7576040517f08c379a00000000000000000000000000000000000000000000000000000000081526004018080602001828103825283818151815260200191508051906020019080838360005b8381101561238c578082015181840152602081019050612371565b50505050905090810190601f1680156123b95780820380516001836020036101000a031916815260200191505b509250505060405180910390fd5b506123d3858585612a93565b5050505050565b6000600260006123ea858561369d565b6000191660001916815260200190815260200160002060009054906101000a900473ffffffffffffffffffffffffffffffffffffffff16905092915050565b7f0b719b33c83b8e5d300c521cb8b54ae9bd933996a14bef8c2f4e0285d2d2400a600102612488338260006040519080825280602002602001820160405280156124825781602001602082028038833980820191505090505b50611e49565b6040805190810160405280600f81526020017f4150505f415554485f4641494c45440000000000000000000000000000000000815250901515612566576040517f08c379a00000000000000000000000000000000000000000000000000000000081526004018080602001828103825283818151815260200191508051906020019080838360005b8381101561252b578082015181840152602081019050612510565b50505050905090810190601f1680156125585780820380516001836020036101000a031916815260200191505b509250505060405180910390fd5b508383600073ffffffffffffffffffffffffffffffffffffffff1661258b83836123da565b73ffffffffffffffffffffffffffffffffffffffff16146040805190810160405280601481526020017f41434c5f4558495354454e545f4d414e41474552000000000000000000000000815250901515612680576040517f08c379a00000000000000000000000000000000000000000000000000000000081526004018080602001828103825283818151815260200191508051906020019080838360005b8381101561264557808201518184015260208101905061262a565b50505050905090810190601f1680156126725780820380516001836020036101000a031916815260200191505b509250505060405180910390fd5b5061268d8787878761379c565b50505050505050565b60006126a0611802565b146040805190810160405280601881526020017f494e49545f414c52454144595f494e495449414c495a4544000000000000000081525090151561277f576040517f08c379a00000000000000000000000000000000000000000000000000000000081526004018080602001828103825283818151815260200191508051906020019080838360005b83811015612744578082015181840152602081019050612729565b50505050905090810190601f1680156127715780820380516001836020036101000a031916815260200191505b509250505060405180910390fd5b506127886137dc565b6127906128f6565b73ffffffffffffffffffffffffffffffffffffffff163373ffffffffffffffffffffffffffffffffffffffff16146040805190810160405280601481526020017f41434c5f415554485f494e49545f4b45524e454c00000000000000000000000081525090151561289c576040517f08c379a00000000000000000000000000000000000000000000000000000000081526004018080602001828103825283818151815260200191508051906020019080838360005b83811015612861578082015181840152602081019050612846565b50505050905090810190601f16801561288e5780820380516001836020036101000a031916815260200191505b509250505060405180910390fd5b506128cc81307f0b719b33c83b8e5d300c521cb8b54ae9bd933996a14bef8c2f4e0285d2d2400a6001028461379c565b50565b7f290decd9548b62a8d60345a988386fc84ba6bc95484008f6362f93160ef3e56360010281565b60006129287f4172f0f7d2289153072b0a6ca36959e0cbe2efc3afe50fc81636caa96338137b60010260001916613909565b905090565b60007fffffffffffffffffffffffffffffffffffffffffffffffffffffffffffffffff612958611802565b14905090565b600181565b6000806000806000612976898989612b5a565b600019166000191681526020019081526020016000205491506000600102600019168260001916141580156129b457506129b382888888886113b1565b5b156129c25760019250612a61565b6000806129f07fffffffffffffffffffffffffffffffffffffffffffffffffffffffffffffffff8989612b5a565b60001916600019168152602001908152602001600020549050600060010260001916816000191614158015612a4e5750612a4d817fffffffffffffffffffffffffffffffffffffffffffffffffffffffffffffffff8888886113b1565b5b15612a5c5760019250612a61565b600092505b5050949350505050565b6000612a81858585612a7c86613914565b612963565b9050949350505050565b600043905090565b8260026000612aa2858561369d565b6000191660001916815260200190815260200160002060006101000a81548173ffffffffffffffffffffffffffffffffffffffff021916908373ffffffffffffffffffffffffffffffffffffffff1602179055508273ffffffffffffffffffffffffffffffffffffffff1681600019168373ffffffffffffffffffffffffffffffffffffffff167ff3addc8b8e25ee11528a61b0e65092cae0666ef0ec0c64cb303993c88d689b4d60405160405180910390a4505050565b600083838360405160200180807f5045524d495353494f4e00000000000000000000000000000000000000000000815250600a018473ffffffffffffffffffffffffffffffffffffffff1673ffffffffffffffffffffffffffffffffffffffff166c010000000000000000000000000281526014018373ffffffffffffffffffffffffffffffffffffffff1673ffffffffffffffffffffffffffffffffffffffff166c01000000000000000000000000028152601401826000191660001916815260200193505050506040516020818303038152906040526040518082805190602001908083835b602083101515612c675780518252602082019150602081019050602083039250612c42565b6001836020036101000a038019825116818451168082178552505050505050905001915050604051809103902090509392505050565b6000612ca7613fe6565b600080600160008b60001916600019168152602001908152602001600020805490508963ffffffff16101515612ce05760009350612fa1565b600160008b600019166000191681526020019081526020016000208963ffffffff16815481101515612d0e57fe5b90600052602060002001606060405190810160405290816000820160009054906101000a900460ff1660ff1660ff1681526020016000820160019054906101000a900460ff1660ff1660ff1681526020016000820160029054906101000a90047dffffffffffffffffffffffffffffffffffffffffffffffffffffffffffff167dffffffffffffffffffffffffffffffffffffffffffffffffffffffffffff167dffffffffffffffffffffffffffffffffffffffffffffffffffffffffffff1681525050925060cc60ff16836000015160ff161415612dfc57612df5838b8a8a8a8a613a1a565b9350612fa1565b82604001517dffffffffffffffffffffffffffffffffffffffffffffffffffffffffffff16905060cb60ff16836000015160ff161415612e6357612e47836040015189898989613c2f565b612e52576000612e55565b60015b60ff16915060019050612f45565b60c860ff16836000015160ff161415612e8557612e7e612a8b565b9150612f44565b60c960ff16836000015160ff161415612ea757612ea0613e00565b9150612f43565b60cd60ff16836000015160ff161415612ee65782604001517dffffffffffffffffffffffffffffffffffffffffffffffffffffffffffff169150612f42565b8451836000015160ff16101515612f005760009350612fa1565b84836000015160ff16815181101515612f1557fe5b906020019060200201517dffffffffffffffffffffffffffffffffffffffffffffffffffffffffffff1691505b5b5b5b6007600c811115612f5257fe5b836020015160ff16600c811115612f6557fe5b600c811115612f7057fe5b1415612f8157600082119350612fa1565b612f9e82846020015160ff16600c811115612f9857fe5b83613e08565b93505b5050509695505050505050565b6000806000806000612fbe613fe6565b8660405160200180828051906020019060200280838360005b83811015612ff2578082015181840152602081019050612fd7565b505050509050019150506040516020818303038152906040526040518082805190602001908083835b602083101515613040578051825260208201915060208101905060208303925061301b565b6001836020036101000a0380198251168184511680821785525050505050509050019150506040518091039020945060016000866000191660001916815260200190815260200160002093506000848054905014156131ec57600092505b86518310156131eb5786838151811015156130b557fe5b9060200190602002015191506060604051908101604052806130d684613f0f565b60ff1681526020016130e784613f21565b60ff168152602001837dffffffffffffffffffffffffffffffffffffffffffffffffffffffffffff168152509050838190806001815401808255809150509060018203906000526020600020016000909192909190915060008201518160000160006101000a81548160ff021916908360ff16021790555060208201518160000160016101000a81548160ff021916908360ff16021790555060408201518160000160026101000a8154817dffffffffffffffffffffffffffffffffffffffffffffffffffffffffffff02191690837dffffffffffffffffffffffffffffffffffffffffffffffffffffffffffff160217905550505050828060010193505061309e565b5b8495505050505050919050565b6000808260008061320b898989612b5a565b60001916600019168152602001908152602001600020816000191690555060006001026000191683600019161415915081801561327357507f290decd9548b62a8d60345a988386fc84ba6bc95484008f6362f93160ef3e56360010260001916836000191614155b905083600019168573ffffffffffffffffffffffffffffffffffffffff168773ffffffffffffffffffffffffffffffffffffffff167f759b9a74d5354b5801710a0c1b283cc9f0d32b607ac8ced10c83ac8e75c77d5285604051808215151515815260200191505060405180910390a4801561335c5783600019168573ffffffffffffffffffffffffffffffffffffffff168773ffffffffffffffffffffffffffffffffffffffff167f8dfee25d92d73b8c9b868f9fa3e215cc1981033f426e53803e3da4f09a2cfc308660405180826000191660001916815260200191505060405180910390a45b505050505050565b600081549050919050565b600081549050919050565b600080600073ffffffffffffffffffffffffffffffffffffffff168373ffffffffffffffffffffffffffffffffffffffff1614156133bb57600091506133c6565b823b90506000811191505b50919050565b600060606000808573ffffffffffffffffffffffffffffffffffffffff166370a0823190507c01000000000000000000000000000000000000000000000000000000000285604051602401808273ffffffffffffffffffffffffffffffffffffffff1673ffffffffffffffffffffffffffffffffffffffff168152602001915050604051602081830303815290604052907bffffffffffffffffffffffffffffffffffffffffffffffffffffffff19166020820180517bffffffffffffffffffffffffffffffffffffffffffffffffffffffff838183161783525050505092506134b68684613f33565b91509150816040805190810160405280601c81526020017f534146455f4552435f32305f42414c414e43455f524556455254454400000000815250901515613599576040517f08c379a00000000000000000000000000000000000000000000000000000000081526004018080602001828103825283818151815260200191508051906020019080838360005b8381101561355e578082015181840152602081019050613543565b50505050905090810190601f16801561358b5780820380516001836020036101000a031916815260200191505b509250505060405180910390fd5b5080935050505092915050565b6000606063a9059cbb7c0100000000000000000000000000000000000000000000000000000000028484604051602401808373ffffffffffffffffffffffffffffffffffffffff1673ffffffffffffffffffffffffffffffffffffffff16815260200182815260200192505050604051602081830303815290604052907bffffffffffffffffffffffffffffffffffffffffffffffffffffffff19166020820180517bffffffffffffffffffffffffffffffffffffffffffffffffffffffff8381831617835250505050905061367c8582613f68565b9150509392505050565b606060006020835102905082915080825250919050565b6000828260405160200180807f524f4c45000000000000000000000000000000000000000000000000000000008152506004018373ffffffffffffffffffffffffffffffffffffffff1673ffffffffffffffffffffffffffffffffffffffff166c010000000000000000000000000281526014018260001916600019168152602001925050506040516020818303038152906040526040518082805190602001908083835b6020831015156137675780518252602082019150602081019050602083039250613742565b6001836020036101000a0380198251168184511680821785525050505050509050019150506040518091039020905092915050565b6137cb8484847f290decd9548b62a8d60345a988386fc84ba6bc95484008f6362f93160ef3e5636001026131f9565b6137d6818484612a93565b50505050565b60006137e6611802565b146040805190810160405280601881526020017f494e49545f414c52454144595f494e495449414c495a454400000000000000008152509015156138c5576040517f08c379a00000000000000000000000000000000000000000000000000000000081526004018080602001828103825283818151815260200191508051906020019080838360005b8381101561388a57808201518184015260208101905061386f565b50505050905090810190601f1680156138b75780820380516001836020036101000a031916815260200191505b509250505060405180910390fd5b506139076138d1612a8b565b7febb05b386a8d34882b8711d156f463690983dc47815980fb82aeeff1aa43579e60010260001916613fba90919063ffffffff16565b565b600081549050919050565b606060006020835181151561392557fe5b049050602081028351146040805190810160405280601a81526020017f434f4e56455253494f4e5f494d50524f5045525f4c454e475448000000000000815250901515613a0d576040517f08c379a00000000000000000000000000000000000000000000000000000000081526004018080602001828103825283818151815260200191508051906020019080838360005b838110156139d25780820151818401526020810190506139b7565b50505050905090810190601f1680156139ff5780820380516001836020036101000a031916815260200191505b509250505060405180910390fd5b5082915080825250919050565b6000806000806000806000806000600c80811115613a3457fe5b8f6020015160ff16600c811115613a4757fe5b600c811115613a5257fe5b1415613ac257613a858f604001517dffffffffffffffffffffffffffffffffffffffffffffffffffffffffffff16613fc1565b809850819950829a50505050613a9f8e898f8f8f8f612c9d565b9450613abb8e86613ab05787613ab2565b885b8f8f8f8f612c9d565b9850613c1d565b613aef8f604001517dffffffffffffffffffffffffffffffffffffffffffffffffffffffffffff16613fc1565b508094508195505050613b068e858f8f8f8f612c9d565b91506008600c811115613b1557fe5b8f6020015160ff16600c811115613b2857fe5b600c811115613b3357fe5b1415613b425781159850613c1d565b818015613b775750600a600c811115613b5757fe5b8f6020015160ff16600c811115613b6a57fe5b600c811115613b7557fe5b145b15613b855760019850613c1d565b81158015613bbb57506009600c811115613b9b57fe5b8f6020015160ff16600c811115613bae57fe5b600c811115613bb957fe5b145b15613bc95760009850613c1d565b613bd78e848f8f8f8f612c9d565b9050600b600c811115613be657fe5b8f6020015160ff16600c811115613bf957fe5b600c811115613c0457fe5b1415613c195780151582151514159850613c1d565b8098505b50505050505050509695505050505050565b60008060606000806000808b73ffffffffffffffffffffffffffffffffffffffff16632a15109090507c0100000000000000000000000000000000000000000000000000000000029550858b8b8b8b604051602401808573ffffffffffffffffffffffffffffffffffffffff1673ffffffffffffffffffffffffffffffffffffffff1681526020018473ffffffffffffffffffffffffffffffffffffffff1673ffffffffffffffffffffffffffffffffffffffff168152602001836000191660001916815260200180602001828103825283818151815260200191508051906020019060200280838360005b83811015613d36578082015181840152602081019050613d1b565b5050505090500195505050505050604051602081830303815290604052907bffffffffffffffffffffffffffffffffffffffffffffffffffffffff19166020820180517bffffffffffffffffffffffffffffffffffffffffffffffffffffffff8381831617835250505050945061753093506000808651602088018f88fa9250821515613dc65760009650613df1565b3d9150602082141515613ddc5760009650613df1565b604051826000823e8051915060008152508096505b50505050505095945050505050565b600042905090565b60006001600c811115613e1757fe5b83600c811115613e2357fe5b1415613e33578184149050613f08565b6002600c811115613e4057fe5b83600c811115613e4c57fe5b1415613e5d57818414159050613f08565b6003600c811115613e6a57fe5b83600c811115613e7657fe5b1415613e86578184119050613f08565b6004600c811115613e9357fe5b83600c811115613e9f57fe5b1415613eaf578184109050613f08565b6005600c811115613ebc57fe5b83600c811115613ec857fe5b1415613ed957818410159050613f08565b6006600c811115613ee657fe5b83600c811115613ef257fe5b1415613f0357818411159050613f08565b600090505b9392505050565b600060f8829060020a90049050919050565b600060f0829060020a90049050919050565b6000806000806040516020818751602089018a5afa92506000831115613f5857805191505b5081819350935050509250929050565b6000806040516020818551602087016000895af16000811115613fae573d60008114613f9b5760208114613fa457613fac565b60019350613fac565b600183511493505b505b50508091505092915050565b8082555050565b60008060008392506020849060020a900491506040849060020a900490509193909250565b606060405190810160405280600060ff168152602001600060ff16815260200160007dffffffffffffffffffffffffffffffffffffffffffffffffffffffffffff16815250905600a165627a7a723058205fdd82a200d8a6a08eb559515b7a72ce59e01cedd9a4c5d39f49afa56e5a9d430029",
  "source": "pragma solidity 0.4.24;\n\nimport \"../apps/AragonApp.sol\";\nimport \"../common/ConversionHelpers.sol\";\nimport \"../common/TimeHelpers.sol\";\nimport \"./ACLSyntaxSugar.sol\";\nimport \"./IACL.sol\";\nimport \"./IACLOracle.sol\";\n\n\n/* solium-disable function-order */\n// Allow public initialize() to be first\ncontract ACL is IACL, TimeHelpers, AragonApp, ACLHelpers {\n    /* Hardcoded constants to save gas\n    bytes32 public constant CREATE_PERMISSIONS_ROLE = keccak256(\"CREATE_PERMISSIONS_ROLE\");\n    */\n    bytes32 public constant CREATE_PERMISSIONS_ROLE = 0x0b719b33c83b8e5d300c521cb8b54ae9bd933996a14bef8c2f4e0285d2d2400a;\n\n    enum Op { NONE, EQ, NEQ, GT, LT, GTE, LTE, RET, NOT, AND, OR, XOR, IF_ELSE } // op types\n\n    struct Param {\n        uint8 id;\n        uint8 op;\n        uint240 value; // even though value is an uint240 it can store addresses\n        // in the case of 32 byte hashes losing 2 bytes precision isn't a huge deal\n        // op and id take less than 1 byte each so it can be kept in 1 sstore\n    }\n\n    uint8 internal constant BLOCK_NUMBER_PARAM_ID = 200;\n    uint8 internal constant TIMESTAMP_PARAM_ID    = 201;\n    // 202 is unused\n    uint8 internal constant ORACLE_PARAM_ID       = 203;\n    uint8 internal constant LOGIC_OP_PARAM_ID     = 204;\n    uint8 internal constant PARAM_VALUE_PARAM_ID  = 205;\n    // TODO: Add execution times param type?\n\n    /* Hardcoded constant to save gas\n    bytes32 public constant EMPTY_PARAM_HASH = keccak256(uint256(0));\n    */\n    bytes32 public constant EMPTY_PARAM_HASH = 0x290decd9548b62a8d60345a988386fc84ba6bc95484008f6362f93160ef3e563;\n    bytes32 public constant NO_PERMISSION = bytes32(0);\n    address public constant ANY_ENTITY = address(-1);\n    address public constant BURN_ENTITY = address(1); // address(0) is already used as \"no permission manager\"\n\n    uint256 internal constant ORACLE_CHECK_GAS = 30000;\n\n    string private constant ERROR_AUTH_INIT_KERNEL = \"ACL_AUTH_INIT_KERNEL\";\n    string private constant ERROR_AUTH_NO_MANAGER = \"ACL_AUTH_NO_MANAGER\";\n    string private constant ERROR_EXISTENT_MANAGER = \"ACL_EXISTENT_MANAGER\";\n\n    // Whether someone has a permission\n    mapping (bytes32 => bytes32) internal permissions; // permissions hash => params hash\n    mapping (bytes32 => Param[]) internal permissionParams; // params hash => params\n\n    // Who is the manager of a permission\n    mapping (bytes32 => address) internal permissionManager;\n\n    event SetPermission(address indexed entity, address indexed app, bytes32 indexed role, bool allowed);\n    event SetPermissionParams(address indexed entity, address indexed app, bytes32 indexed role, bytes32 paramsHash);\n    event ChangePermissionManager(address indexed app, bytes32 indexed role, address indexed manager);\n\n    modifier onlyPermissionManager(address _app, bytes32 _role) {\n        require(msg.sender == getPermissionManager(_app, _role), ERROR_AUTH_NO_MANAGER);\n        _;\n    }\n\n    modifier noPermissionManager(address _app, bytes32 _role) {\n        // only allow permission creation (or re-creation) when there is no manager\n        require(getPermissionManager(_app, _role) == address(0), ERROR_EXISTENT_MANAGER);\n        _;\n    }\n\n    /**\n    * @dev Initialize can only be called once. It saves the block number in which it was initialized.\n    * @notice Initialize an ACL instance and set `_permissionsCreator` as the entity that can create other permissions\n    * @param _permissionsCreator Entity that will be given permission over createPermission\n    */\n    function initialize(address _permissionsCreator) public onlyInit {\n        initialized();\n        require(msg.sender == address(kernel()), ERROR_AUTH_INIT_KERNEL);\n\n        _createPermission(_permissionsCreator, this, CREATE_PERMISSIONS_ROLE, _permissionsCreator);\n    }\n\n    /**\n    * @dev Creates a permission that wasn't previously set and managed.\n    *      If a created permission is removed it is possible to reset it with createPermission.\n    *      This is the **ONLY** way to create permissions and set managers to permissions that don't\n    *      have a manager.\n    *      In terms of the ACL being initialized, this function implicitly protects all the other\n    *      state-changing external functions, as they all require the sender to be a manager.\n    * @notice Create a new permission granting `_entity` the ability to perform actions requiring `_role` on `_app`, setting `_manager` as the permission's manager\n    * @param _entity Address of the whitelisted entity that will be able to perform the role\n    * @param _app Address of the app in which the role will be allowed (requires app to depend on kernel for ACL)\n    * @param _role Identifier for the group of actions in app given access to perform\n    * @param _manager Address of the entity that will be able to grant and revoke the permission further.\n    */\n    function createPermission(address _entity, address _app, bytes32 _role, address _manager)\n        external\n        auth(CREATE_PERMISSIONS_ROLE)\n        noPermissionManager(_app, _role)\n    {\n        _createPermission(_entity, _app, _role, _manager);\n    }\n\n    /**\n    * @dev Grants permission if allowed. This requires `msg.sender` to be the permission manager\n    * @notice Grant `_entity` the ability to perform actions requiring `_role` on `_app`\n    * @param _entity Address of the whitelisted entity that will be able to perform the role\n    * @param _app Address of the app in which the role will be allowed (requires app to depend on kernel for ACL)\n    * @param _role Identifier for the group of actions in app given access to perform\n    */\n    function grantPermission(address _entity, address _app, bytes32 _role)\n        external\n    {\n        grantPermissionP(_entity, _app, _role, new uint256[](0));\n    }\n\n    /**\n    * @dev Grants a permission with parameters if allowed. This requires `msg.sender` to be the permission manager\n    * @notice Grant `_entity` the ability to perform actions requiring `_role` on `_app`\n    * @param _entity Address of the whitelisted entity that will be able to perform the role\n    * @param _app Address of the app in which the role will be allowed (requires app to depend on kernel for ACL)\n    * @param _role Identifier for the group of actions in app given access to perform\n    * @param _params Permission parameters\n    */\n    function grantPermissionP(address _entity, address _app, bytes32 _role, uint256[] _params)\n        public\n        onlyPermissionManager(_app, _role)\n    {\n        bytes32 paramsHash = _params.length > 0 ? _saveParams(_params) : EMPTY_PARAM_HASH;\n        _setPermission(_entity, _app, _role, paramsHash);\n    }\n\n    /**\n    * @dev Revokes permission if allowed. This requires `msg.sender` to be the the permission manager\n    * @notice Revoke from `_entity` the ability to perform actions requiring `_role` on `_app`\n    * @param _entity Address of the whitelisted entity to revoke access from\n    * @param _app Address of the app in which the role will be revoked\n    * @param _role Identifier for the group of actions in app being revoked\n    */\n    function revokePermission(address _entity, address _app, bytes32 _role)\n        external\n        onlyPermissionManager(_app, _role)\n    {\n        _setPermission(_entity, _app, _role, NO_PERMISSION);\n    }\n\n    /**\n    * @notice Set `_newManager` as the manager of `_role` in `_app`\n    * @param _newManager Address for the new manager\n    * @param _app Address of the app in which the permission management is being transferred\n    * @param _role Identifier for the group of actions being transferred\n    */\n    function setPermissionManager(address _newManager, address _app, bytes32 _role)\n        external\n        onlyPermissionManager(_app, _role)\n    {\n        _setPermissionManager(_newManager, _app, _role);\n    }\n\n    /**\n    * @notice Remove the manager of `_role` in `_app`\n    * @param _app Address of the app in which the permission is being unmanaged\n    * @param _role Identifier for the group of actions being unmanaged\n    */\n    function removePermissionManager(address _app, bytes32 _role)\n        external\n        onlyPermissionManager(_app, _role)\n    {\n        _setPermissionManager(address(0), _app, _role);\n    }\n\n    /**\n    * @notice Burn non-existent `_role` in `_app`, so no modification can be made to it (grant, revoke, permission manager)\n    * @param _app Address of the app in which the permission is being burned\n    * @param _role Identifier for the group of actions being burned\n    */\n    function createBurnedPermission(address _app, bytes32 _role)\n        external\n        auth(CREATE_PERMISSIONS_ROLE)\n        noPermissionManager(_app, _role)\n    {\n        _setPermissionManager(BURN_ENTITY, _app, _role);\n    }\n\n    /**\n    * @notice Burn `_role` in `_app`, so no modification can be made to it (grant, revoke, permission manager)\n    * @param _app Address of the app in which the permission is being burned\n    * @param _role Identifier for the group of actions being burned\n    */\n    function burnPermissionManager(address _app, bytes32 _role)\n        external\n        onlyPermissionManager(_app, _role)\n    {\n        _setPermissionManager(BURN_ENTITY, _app, _role);\n    }\n\n    /**\n     * @notice Get parameters for permission array length\n     * @param _entity Address of the whitelisted entity that will be able to perform the role\n     * @param _app Address of the app\n     * @param _role Identifier for a group of actions in app\n     * @return Length of the array\n     */\n    function getPermissionParamsLength(address _entity, address _app, bytes32 _role) external view returns (uint) {\n        return permissionParams[permissions[permissionHash(_entity, _app, _role)]].length;\n    }\n\n    /**\n    * @notice Get parameter for permission\n    * @param _entity Address of the whitelisted entity that will be able to perform the role\n    * @param _app Address of the app\n    * @param _role Identifier for a group of actions in app\n    * @param _index Index of parameter in the array\n    * @return Parameter (id, op, value)\n    */\n    function getPermissionParam(address _entity, address _app, bytes32 _role, uint _index)\n        external\n        view\n        returns (uint8, uint8, uint240)\n    {\n        Param storage param = permissionParams[permissions[permissionHash(_entity, _app, _role)]][_index];\n        return (param.id, param.op, param.value);\n    }\n\n    /**\n    * @dev Get manager for permission\n    * @param _app Address of the app\n    * @param _role Identifier for a group of actions in app\n    * @return address of the manager for the permission\n    */\n    function getPermissionManager(address _app, bytes32 _role) public view returns (address) {\n        return permissionManager[roleHash(_app, _role)];\n    }\n\n    /**\n    * @dev Function called by apps to check ACL on kernel or to check permission statu\n    * @param _who Sender of the original call\n    * @param _where Address of the app\n    * @param _where Identifier for a group of actions in app\n    * @param _how Permission parameters\n    * @return boolean indicating whether the ACL allows the role or not\n    */\n    function hasPermission(address _who, address _where, bytes32 _what, bytes memory _how) public view returns (bool) {\n        return hasPermission(_who, _where, _what, ConversionHelpers.dangerouslyCastBytesToUintArray(_how));\n    }\n\n    function hasPermission(address _who, address _where, bytes32 _what, uint256[] memory _how) public view returns (bool) {\n        bytes32 whoParams = permissions[permissionHash(_who, _where, _what)];\n        if (whoParams != NO_PERMISSION && evalParams(whoParams, _who, _where, _what, _how)) {\n            return true;\n        }\n\n        bytes32 anyParams = permissions[permissionHash(ANY_ENTITY, _where, _what)];\n        if (anyParams != NO_PERMISSION && evalParams(anyParams, ANY_ENTITY, _where, _what, _how)) {\n            return true;\n        }\n\n        return false;\n    }\n\n    function hasPermission(address _who, address _where, bytes32 _what) public view returns (bool) {\n        uint256[] memory empty = new uint256[](0);\n        return hasPermission(_who, _where, _what, empty);\n    }\n\n    function evalParams(\n        bytes32 _paramsHash,\n        address _who,\n        address _where,\n        bytes32 _what,\n        uint256[] _how\n    ) public view returns (bool)\n    {\n        if (_paramsHash == EMPTY_PARAM_HASH) {\n            return true;\n        }\n\n        return _evalParam(_paramsHash, 0, _who, _where, _what, _how);\n    }\n\n    /**\n    * @dev Internal createPermission for access inside the kernel (on instantiation)\n    */\n    function _createPermission(address _entity, address _app, bytes32 _role, address _manager) internal {\n        _setPermission(_entity, _app, _role, EMPTY_PARAM_HASH);\n        _setPermissionManager(_manager, _app, _role);\n    }\n\n    /**\n    * @dev Internal function called to actually save the permission\n    */\n    function _setPermission(address _entity, address _app, bytes32 _role, bytes32 _paramsHash) internal {\n        permissions[permissionHash(_entity, _app, _role)] = _paramsHash;\n        bool entityHasPermission = _paramsHash != NO_PERMISSION;\n        bool permissionHasParams = entityHasPermission && _paramsHash != EMPTY_PARAM_HASH;\n\n        emit SetPermission(_entity, _app, _role, entityHasPermission);\n        if (permissionHasParams) {\n            emit SetPermissionParams(_entity, _app, _role, _paramsHash);\n        }\n    }\n\n    function _saveParams(uint256[] _encodedParams) internal returns (bytes32) {\n        bytes32 paramHash = keccak256(abi.encodePacked(_encodedParams));\n        Param[] storage params = permissionParams[paramHash];\n\n        if (params.length == 0) { // params not saved before\n            for (uint256 i = 0; i < _encodedParams.length; i++) {\n                uint256 encodedParam = _encodedParams[i];\n                Param memory param = Param(decodeParamId(encodedParam), decodeParamOp(encodedParam), uint240(encodedParam));\n                params.push(param);\n            }\n        }\n\n        return paramHash;\n    }\n\n    function _evalParam(\n        bytes32 _paramsHash,\n        uint32 _paramId,\n        address _who,\n        address _where,\n        bytes32 _what,\n        uint256[] _how\n    ) internal view returns (bool)\n    {\n        if (_paramId >= permissionParams[_paramsHash].length) {\n            return false; // out of bounds\n        }\n\n        Param memory param = permissionParams[_paramsHash][_paramId];\n\n        if (param.id == LOGIC_OP_PARAM_ID) {\n            return _evalLogic(param, _paramsHash, _who, _where, _what, _how);\n        }\n\n        uint256 value;\n        uint256 comparedTo = uint256(param.value);\n\n        // get value\n        if (param.id == ORACLE_PARAM_ID) {\n            value = checkOracle(IACLOracle(param.value), _who, _where, _what, _how) ? 1 : 0;\n            comparedTo = 1;\n        } else if (param.id == BLOCK_NUMBER_PARAM_ID) {\n            value = getBlockNumber();\n        } else if (param.id == TIMESTAMP_PARAM_ID) {\n            value = getTimestamp();\n        } else if (param.id == PARAM_VALUE_PARAM_ID) {\n            value = uint256(param.value);\n        } else {\n            if (param.id >= _how.length) {\n                return false;\n            }\n            value = uint256(uint240(_how[param.id])); // force lost precision\n        }\n\n        if (Op(param.op) == Op.RET) {\n            return uint256(value) > 0;\n        }\n\n        return compare(value, Op(param.op), comparedTo);\n    }\n\n    function _evalLogic(Param _param, bytes32 _paramsHash, address _who, address _where, bytes32 _what, uint256[] _how)\n        internal\n        view\n        returns (bool)\n    {\n        if (Op(_param.op) == Op.IF_ELSE) {\n            uint32 conditionParam;\n            uint32 successParam;\n            uint32 failureParam;\n\n            (conditionParam, successParam, failureParam) = decodeParamsList(uint256(_param.value));\n            bool result = _evalParam(_paramsHash, conditionParam, _who, _where, _what, _how);\n\n            return _evalParam(_paramsHash, result ? successParam : failureParam, _who, _where, _what, _how);\n        }\n\n        uint32 param1;\n        uint32 param2;\n\n        (param1, param2,) = decodeParamsList(uint256(_param.value));\n        bool r1 = _evalParam(_paramsHash, param1, _who, _where, _what, _how);\n\n        if (Op(_param.op) == Op.NOT) {\n            return !r1;\n        }\n\n        if (r1 && Op(_param.op) == Op.OR) {\n            return true;\n        }\n\n        if (!r1 && Op(_param.op) == Op.AND) {\n            return false;\n        }\n\n        bool r2 = _evalParam(_paramsHash, param2, _who, _where, _what, _how);\n\n        if (Op(_param.op) == Op.XOR) {\n            return r1 != r2;\n        }\n\n        return r2; // both or and and depend on result of r2 after checks\n    }\n\n    function compare(uint256 _a, Op _op, uint256 _b) internal pure returns (bool) {\n        if (_op == Op.EQ)  return _a == _b;                              // solium-disable-line lbrace\n        if (_op == Op.NEQ) return _a != _b;                              // solium-disable-line lbrace\n        if (_op == Op.GT)  return _a > _b;                               // solium-disable-line lbrace\n        if (_op == Op.LT)  return _a < _b;                               // solium-disable-line lbrace\n        if (_op == Op.GTE) return _a >= _b;                              // solium-disable-line lbrace\n        if (_op == Op.LTE) return _a <= _b;                              // solium-disable-line lbrace\n        return false;\n    }\n\n    function checkOracle(IACLOracle _oracleAddr, address _who, address _where, bytes32 _what, uint256[] _how) internal view returns (bool) {\n        bytes4 sig = _oracleAddr.canPerform.selector;\n\n        // a raw call is required so we can return false if the call reverts, rather than reverting\n        bytes memory checkCalldata = abi.encodeWithSelector(sig, _who, _where, _what, _how);\n        uint256 oracleCheckGas = ORACLE_CHECK_GAS;\n\n        bool ok;\n        assembly {\n            ok := staticcall(oracleCheckGas, _oracleAddr, add(checkCalldata, 0x20), mload(checkCalldata), 0, 0)\n        }\n\n        if (!ok) {\n            return false;\n        }\n\n        uint256 size;\n        assembly { size := returndatasize }\n        if (size != 32) {\n            return false;\n        }\n\n        bool result;\n        assembly {\n            let ptr := mload(0x40)       // get next free memory ptr\n            returndatacopy(ptr, 0, size) // copy return from above `staticcall`\n            result := mload(ptr)         // read data at ptr and set it to result\n            mstore(ptr, 0)               // set pointer memory to 0 so it still is the next free ptr\n        }\n\n        return result;\n    }\n\n    /**\n    * @dev Internal function that sets management\n    */\n    function _setPermissionManager(address _newManager, address _app, bytes32 _role) internal {\n        permissionManager[roleHash(_app, _role)] = _newManager;\n        emit ChangePermissionManager(_app, _role, _newManager);\n    }\n\n    function roleHash(address _where, bytes32 _what) internal pure returns (bytes32) {\n        return keccak256(abi.encodePacked(\"ROLE\", _where, _what));\n    }\n\n    function permissionHash(address _who, address _where, bytes32 _what) internal pure returns (bytes32) {\n        return keccak256(abi.encodePacked(\"PERMISSION\", _who, _where, _what));\n    }\n}\n",
  "sourcePath": "@aragon/os/contracts/acl/ACL.sol",
  "compiler": {
    "name": "solc",
    "version": "0.4.24+commit.e67f0147.Emscripten.clang"
  },
  "schemaVersion": "2.0.1",
  "updatedAt": "2019-04-22T19:37:14.338Z"
}