{
  "contractName": "EVMScriptRunner",
  "abi": [
    {
      "constant": true,
      "inputs": [],
      "name": "hasInitialized",
      "outputs": [
        {
          "name": "",
          "type": "bool"
        }
      ],
      "payable": false,
      "stateMutability": "view",
      "type": "function"
    },
    {
      "constant": true,
      "inputs": [],
      "name": "appId",
      "outputs": [
        {
          "name": "",
          "type": "bytes32"
        }
      ],
      "payable": false,
      "stateMutability": "view",
      "type": "function"
    },
    {
      "constant": true,
      "inputs": [],
      "name": "getInitializationBlock",
      "outputs": [
        {
          "name": "",
          "type": "uint256"
        }
      ],
      "payable": false,
      "stateMutability": "view",
      "type": "function"
    },
    {
      "constant": true,
      "inputs": [],
      "name": "kernel",
      "outputs": [
        {
          "name": "",
          "type": "address"
        }
      ],
      "payable": false,
      "stateMutability": "view",
      "type": "function"
    },
    {
      "anonymous": false,
      "inputs": [
        {
          "indexed": true,
          "name": "executor",
          "type": "address"
        },
        {
          "indexed": false,
          "name": "script",
          "type": "bytes"
        },
        {
          "indexed": false,
          "name": "input",
          "type": "bytes"
        },
        {
          "indexed": false,
          "name": "returnData",
          "type": "bytes"
        }
      ],
      "name": "ScriptResult",
      "type": "event"
    },
    {
      "constant": true,
      "inputs": [
        {
          "name": "_script",
          "type": "bytes"
        }
      ],
      "name": "getEVMScriptExecutor",
      "outputs": [
        {
          "name": "",
          "type": "address"
        }
      ],
      "payable": false,
      "stateMutability": "view",
      "type": "function"
    },
    {
      "constant": true,
      "inputs": [],
      "name": "getEVMScriptRegistry",
      "outputs": [
        {
          "name": "",
          "type": "address"
        }
      ],
      "payable": false,
      "stateMutability": "view",
      "type": "function"
    }
  ],
  "bytecode": "0x608060405234801561001057600080fd5b506105c0806100206000396000f300608060405260043610610078576000357c0100000000000000000000000000000000000000000000000000000000900463ffffffff1680630803fac01461007d5780632914b9bd146100ac57806380afdea8146101555780638b3dd74914610188578063a479e508146101b3578063d4aae0c41461020a575b600080fd5b34801561008957600080fd5b50610092610261565b604051808215151515815260200191505060405180910390f35b3480156100b857600080fd5b50610113600480360381019080803590602001908201803590602001908080601f016020809104026020016040519081016040528093929190818152602001838380828437820191505050505050919291929050505061028c565b604051808273ffffffffffffffffffffffffffffffffffffffff1673ffffffffffffffffffffffffffffffffffffffff16815260200191505060405180910390f35b34801561016157600080fd5b5061016a6103ab565b60405180826000191660001916815260200191505060405180910390f35b34801561019457600080fd5b5061019d6103e2565b6040518082815260200191505060405180910390f35b3480156101bf57600080fd5b506101c8610419565b604051808273ffffffffffffffffffffffffffffffffffffffff1673ffffffffffffffffffffffffffffffffffffffff16815260200191505060405180910390f35b34801561021657600080fd5b5061021f610534565b604051808273ffffffffffffffffffffffffffffffffffffffff1673ffffffffffffffffffffffffffffffffffffffff16815260200191505060405180910390f35b60008061026c6103e2565b90506000811415801561028657508061028361056b565b10155b91505090565b6000610296610419565b73ffffffffffffffffffffffffffffffffffffffff166304bf2a7f836040518263ffffffff167c01000000000000000000000000000000000000000000000000000000000281526004018080602001828103825283818151815260200191508051906020019080838360005b8381101561031d578082015181840152602081019050610302565b50505050905090810190601f16801561034a5780820380516001836020036101000a031916815260200191505b5092505050602060405180830381600087803b15801561036957600080fd5b505af115801561037d573d6000803e3d6000fd5b505050506040513d602081101561039357600080fd5b81019080805190602001909291905050509050919050565b60006103dd7fd625496217aa6a3453eecb9c3489dc5a53e6c67b444329ea2b2cbc9ff547639b60010260001916610573565b905090565b60006104147febb05b386a8d34882b8711d156f463690983dc47815980fb82aeeff1aa43579e6001026000191661057e565b905090565b600080610424610534565b73ffffffffffffffffffffffffffffffffffffffff1663be00bbd87fd6f028ca0e8edb4a8c9757ca4fdccab25fa1e0317da1188108f7d2dee14902fb6001027fddbcfd564f642ab5627cf68b9b7d374fb4f8a36e941a75d89c87998cef03bd616001026040518363ffffffff167c0100000000000000000000000000000000000000000000000000000000028152600401808360001916600019168152602001826000191660001916815260200192505050602060405180830381600087803b1580156104f057600080fd5b505af1158015610504573d6000803e3d6000fd5b505050506040513d602081101561051a57600080fd5b810190808051906020019092919050505090508091505090565b60006105667f4172f0f7d2289153072b0a6ca36959e0cbe2efc3afe50fc81636caa96338137b60010260001916610589565b905090565b600043905090565b600081549050919050565b600081549050919050565b6000815490509190505600a165627a7a72305820caab152d908baf9d8c7f99ac1651c73276a25a10997d6396d0a300b58061f7940029",
  "source": "/*\n * SPDX-License-Identitifer:    MIT\n */\n\npragma solidity ^0.4.24;\n\nimport \"./IEVMScriptExecutor.sol\";\nimport \"./IEVMScriptRegistry.sol\";\n\nimport \"../apps/AppStorage.sol\";\nimport \"../kernel/KernelConstants.sol\";\nimport \"../common/Initializable.sol\";\n\n\ncontract EVMScriptRunner is AppStorage, Initializable, EVMScriptRegistryConstants, KernelNamespaceConstants {\n    string private constant ERROR_EXECUTOR_UNAVAILABLE = \"EVMRUN_EXECUTOR_UNAVAILABLE\";\n    string private constant ERROR_PROTECTED_STATE_MODIFIED = \"EVMRUN_PROTECTED_STATE_MODIFIED\";\n\n    /* This is manually crafted in assembly\n    string private constant ERROR_EXECUTOR_INVALID_RETURN = \"EVMRUN_EXECUTOR_INVALID_RETURN\";\n    */\n\n    event ScriptResult(address indexed executor, bytes script, bytes input, bytes returnData);\n\n    function getEVMScriptExecutor(bytes _script) public view returns (IEVMScriptExecutor) {\n        return IEVMScriptExecutor(getEVMScriptRegistry().getScriptExecutor(_script));\n    }\n\n    function getEVMScriptRegistry() public view returns (IEVMScriptRegistry) {\n        address registryAddr = kernel().getApp(KERNEL_APP_ADDR_NAMESPACE, EVMSCRIPT_REGISTRY_APP_ID);\n        return IEVMScriptRegistry(registryAddr);\n    }\n\n    function runScript(bytes _script, bytes _input, address[] _blacklist)\n        internal\n        isInitialized\n        protectState\n        returns (bytes)\n    {\n        IEVMScriptExecutor executor = getEVMScriptExecutor(_script);\n        require(address(executor) != address(0), ERROR_EXECUTOR_UNAVAILABLE);\n\n        bytes4 sig = executor.execScript.selector;\n        bytes memory data = abi.encodeWithSelector(sig, _script, _input, _blacklist);\n\n        bytes memory output;\n        assembly {\n            let success := delegatecall(\n                gas,                // forward all gas\n                executor,           // address\n                add(data, 0x20),    // calldata start\n                mload(data),        // calldata length\n                0,                  // don't write output (we'll handle this ourselves)\n                0                   // don't write output\n            )\n\n            output := mload(0x40) // free mem ptr get\n\n            switch success\n            case 0 {\n                // If the call errored, forward its full error data\n                returndatacopy(output, 0, returndatasize)\n                revert(output, returndatasize)\n            }\n            default {\n                switch gt(returndatasize, 0x3f)\n                case 0 {\n                    // Need at least 0x40 bytes returned for properly ABI-encoded bytes values,\n                    // revert with \"EVMRUN_EXECUTOR_INVALID_RETURN\"\n                    // See remix: doing a `revert(\"EVMRUN_EXECUTOR_INVALID_RETURN\")` always results in\n                    // this memory layout\n                    mstore(output, 0x08c379a000000000000000000000000000000000000000000000000000000000)         // error identifier\n                    mstore(add(output, 0x04), 0x0000000000000000000000000000000000000000000000000000000000000020) // starting offset\n                    mstore(add(output, 0x24), 0x000000000000000000000000000000000000000000000000000000000000001e) // reason length\n                    mstore(add(output, 0x44), 0x45564d52554e5f4558454355544f525f494e56414c49445f52455455524e0000) // reason\n\n                    revert(output, 100) // 100 = 4 + 3 * 32 (error identifier + 3 words for the ABI encoded error)\n                }\n                default {\n                    // Copy result\n                    //\n                    // Needs to perform an ABI decode for the expected `bytes` return type of\n                    // `executor.execScript()` as solidity will automatically ABI encode the returned bytes as:\n                    //    [ position of the first dynamic length return value = 0x20 (32 bytes) ]\n                    //    [ output length (32 bytes) ]\n                    //    [ output content (N bytes) ]\n                    //\n                    // Perform the ABI decode by ignoring the first 32 bytes of the return data\n                    let copysize := sub(returndatasize, 0x20)\n                    returndatacopy(output, 0x20, copysize)\n\n                    mstore(0x40, add(output, copysize)) // free mem ptr set\n                }\n            }\n        }\n\n        emit ScriptResult(address(executor), _script, _input, output);\n\n        return output;\n    }\n\n    modifier protectState {\n        address preKernel = address(kernel());\n        bytes32 preAppId = appId();\n        _; // exec\n        require(address(kernel()) == preKernel, ERROR_PROTECTED_STATE_MODIFIED);\n        require(appId() == preAppId, ERROR_PROTECTED_STATE_MODIFIED);\n    }\n}\n",
  "sourcePath": "@aragon/os/contracts/evmscript/EVMScriptRunner.sol",
  "compiler": {
    "name": "solc",
    "version": "0.4.24+commit.e67f0147.Emscripten.clang"
  },
  "schemaVersion": "2.0.1",
  "updatedAt": "2019-04-22T19:37:14.359Z"
}