{
  "contractName": "Finance",
  "abi": [
    {
      "constant": true,
      "inputs": [],
      "name": "hasInitialized",
      "outputs": [
        {
          "name": "",
          "type": "bool"
        }
      ],
      "payable": false,
      "stateMutability": "view",
      "type": "function"
    },
    {
      "constant": true,
      "inputs": [],
      "name": "CREATE_PAYMENTS_ROLE",
      "outputs": [
        {
          "name": "",
          "type": "bytes32"
        }
      ],
      "payable": false,
      "stateMutability": "view",
      "type": "function"
    },
    {
      "constant": true,
      "inputs": [
        {
          "name": "_script",
          "type": "bytes"
        }
      ],
      "name": "getEVMScriptExecutor",
      "outputs": [
        {
          "name": "",
          "type": "address"
        }
      ],
      "payable": false,
      "stateMutability": "view",
      "type": "function"
    },
    {
      "constant": true,
      "inputs": [],
      "name": "getRecoveryVault",
      "outputs": [
        {
          "name": "",
          "type": "address"
        }
      ],
      "payable": false,
      "stateMutability": "view",
      "type": "function"
    },
    {
      "constant": true,
      "inputs": [],
      "name": "CHANGE_PERIOD_ROLE",
      "outputs": [
        {
          "name": "",
          "type": "bytes32"
        }
      ],
      "payable": false,
      "stateMutability": "view",
      "type": "function"
    },
    {
      "constant": true,
      "inputs": [],
      "name": "CHANGE_BUDGETS_ROLE",
      "outputs": [
        {
          "name": "",
          "type": "bytes32"
        }
      ],
      "payable": false,
      "stateMutability": "view",
      "type": "function"
    },
    {
      "constant": true,
      "inputs": [],
      "name": "periodsLength",
      "outputs": [
        {
          "name": "",
          "type": "uint64"
        }
      ],
      "payable": false,
      "stateMutability": "view",
      "type": "function"
    },
    {
      "constant": true,
      "inputs": [],
      "name": "appId",
      "outputs": [
        {
          "name": "",
          "type": "bytes32"
        }
      ],
      "payable": false,
      "stateMutability": "view",
      "type": "function"
    },
    {
      "constant": true,
      "inputs": [],
      "name": "getInitializationBlock",
      "outputs": [
        {
          "name": "",
          "type": "uint256"
        }
      ],
      "payable": false,
      "stateMutability": "view",
      "type": "function"
    },
    {
      "constant": true,
      "inputs": [],
      "name": "EXECUTE_PAYMENTS_ROLE",
      "outputs": [
        {
          "name": "",
          "type": "bytes32"
        }
      ],
      "payable": false,
      "stateMutability": "view",
      "type": "function"
    },
    {
      "constant": false,
      "inputs": [
        {
          "name": "_token",
          "type": "address"
        }
      ],
      "name": "transferToVault",
      "outputs": [],
      "payable": false,
      "stateMutability": "nonpayable",
      "type": "function"
    },
    {
      "constant": true,
      "inputs": [
        {
          "name": "_sender",
          "type": "address"
        },
        {
          "name": "_role",
          "type": "bytes32"
        },
        {
          "name": "_params",
          "type": "uint256[]"
        }
      ],
      "name": "canPerform",
      "outputs": [
        {
          "name": "",
          "type": "bool"
        }
      ],
      "payable": false,
      "stateMutability": "view",
      "type": "function"
    },
    {
      "constant": true,
      "inputs": [],
      "name": "getEVMScriptRegistry",
      "outputs": [
        {
          "name": "",
          "type": "address"
        }
      ],
      "payable": false,
      "stateMutability": "view",
      "type": "function"
    },
    {
      "constant": true,
      "inputs": [],
      "name": "kernel",
      "outputs": [
        {
          "name": "",
          "type": "address"
        }
      ],
      "payable": false,
      "stateMutability": "view",
      "type": "function"
    },
    {
      "constant": true,
      "inputs": [],
      "name": "paymentsNextIndex",
      "outputs": [
        {
          "name": "",
          "type": "uint256"
        }
      ],
      "payable": false,
      "stateMutability": "view",
      "type": "function"
    },
    {
      "constant": true,
      "inputs": [],
      "name": "isPetrified",
      "outputs": [
        {
          "name": "",
          "type": "bool"
        }
      ],
      "payable": false,
      "stateMutability": "view",
      "type": "function"
    },
    {
      "constant": true,
      "inputs": [],
      "name": "MANAGE_PAYMENTS_ROLE",
      "outputs": [
        {
          "name": "",
          "type": "bytes32"
        }
      ],
      "payable": false,
      "stateMutability": "view",
      "type": "function"
    },
    {
      "constant": true,
      "inputs": [],
      "name": "transactionsNextIndex",
      "outputs": [
        {
          "name": "",
          "type": "uint256"
        }
      ],
      "payable": false,
      "stateMutability": "view",
      "type": "function"
    },
    {
      "constant": true,
      "inputs": [],
      "name": "vault",
      "outputs": [
        {
          "name": "",
          "type": "address"
        }
      ],
      "payable": false,
      "stateMutability": "view",
      "type": "function"
    },
    {
      "payable": true,
      "stateMutability": "payable",
      "type": "fallback"
    },
    {
      "anonymous": false,
      "inputs": [
        {
          "indexed": true,
          "name": "periodId",
          "type": "uint64"
        },
        {
          "indexed": false,
          "name": "periodStarts",
          "type": "uint64"
        },
        {
          "indexed": false,
          "name": "periodEnds",
          "type": "uint64"
        }
      ],
      "name": "NewPeriod",
      "type": "event"
    },
    {
      "anonymous": false,
      "inputs": [
        {
          "indexed": true,
          "name": "token",
          "type": "address"
        },
        {
          "indexed": false,
          "name": "amount",
          "type": "uint256"
        },
        {
          "indexed": false,
          "name": "hasBudget",
          "type": "bool"
        }
      ],
      "name": "SetBudget",
      "type": "event"
    },
    {
      "anonymous": false,
      "inputs": [
        {
          "indexed": true,
          "name": "paymentId",
          "type": "uint256"
        },
        {
          "indexed": true,
          "name": "recipient",
          "type": "address"
        },
        {
          "indexed": false,
          "name": "maxExecutions",
          "type": "uint64"
        },
        {
          "indexed": false,
          "name": "reference",
          "type": "string"
        }
      ],
      "name": "NewPayment",
      "type": "event"
    },
    {
      "anonymous": false,
      "inputs": [
        {
          "indexed": true,
          "name": "transactionId",
          "type": "uint256"
        },
        {
          "indexed": false,
          "name": "incoming",
          "type": "bool"
        },
        {
          "indexed": true,
          "name": "entity",
          "type": "address"
        },
        {
          "indexed": false,
          "name": "amount",
          "type": "uint256"
        },
        {
          "indexed": false,
          "name": "reference",
          "type": "string"
        }
      ],
      "name": "NewTransaction",
      "type": "event"
    },
    {
      "anonymous": false,
      "inputs": [
        {
          "indexed": true,
          "name": "paymentId",
          "type": "uint256"
        },
        {
          "indexed": false,
          "name": "active",
          "type": "bool"
        }
      ],
      "name": "ChangePaymentState",
      "type": "event"
    },
    {
      "anonymous": false,
      "inputs": [
        {
          "indexed": false,
          "name": "newDuration",
          "type": "uint64"
        }
      ],
      "name": "ChangePeriodDuration",
      "type": "event"
    },
    {
      "anonymous": false,
      "inputs": [
        {
          "indexed": false,
          "name": "paymentId",
          "type": "uint256"
        }
      ],
      "name": "PaymentFailure",
      "type": "event"
    },
    {
      "anonymous": false,
      "inputs": [
        {
          "indexed": true,
          "name": "executor",
          "type": "address"
        },
        {
          "indexed": false,
          "name": "script",
          "type": "bytes"
        },
        {
          "indexed": false,
          "name": "input",
          "type": "bytes"
        },
        {
          "indexed": false,
          "name": "returnData",
          "type": "bytes"
        }
      ],
      "name": "ScriptResult",
      "type": "event"
    },
    {
      "anonymous": false,
      "inputs": [
        {
          "indexed": true,
          "name": "vault",
          "type": "address"
        },
        {
          "indexed": true,
          "name": "token",
          "type": "address"
        },
        {
          "indexed": false,
          "name": "amount",
          "type": "uint256"
        }
      ],
      "name": "RecoverToVault",
      "type": "event"
    },
    {
      "constant": false,
      "inputs": [
        {
          "name": "_vault",
          "type": "address"
        },
        {
          "name": "_periodDuration",
          "type": "uint64"
        }
      ],
      "name": "initialize",
      "outputs": [],
      "payable": false,
      "stateMutability": "nonpayable",
      "type": "function"
    },
    {
      "constant": false,
      "inputs": [
        {
          "name": "_token",
          "type": "address"
        },
        {
          "name": "_amount",
          "type": "uint256"
        },
        {
          "name": "_reference",
          "type": "string"
        }
      ],
      "name": "deposit",
      "outputs": [],
      "payable": true,
      "stateMutability": "payable",
      "type": "function"
    },
    {
      "constant": false,
      "inputs": [
        {
          "name": "_token",
          "type": "address"
        },
        {
          "name": "_receiver",
          "type": "address"
        },
        {
          "name": "_amount",
          "type": "uint256"
        },
        {
          "name": "_reference",
          "type": "string"
        }
      ],
      "name": "newImmediatePayment",
      "outputs": [],
      "payable": false,
      "stateMutability": "nonpayable",
      "type": "function"
    },
    {
      "constant": false,
      "inputs": [
        {
          "name": "_token",
          "type": "address"
        },
        {
          "name": "_receiver",
          "type": "address"
        },
        {
          "name": "_amount",
          "type": "uint256"
        },
        {
          "name": "_initialPaymentTime",
          "type": "uint64"
        },
        {
          "name": "_interval",
          "type": "uint64"
        },
        {
          "name": "_maxExecutions",
          "type": "uint64"
        },
        {
          "name": "_reference",
          "type": "string"
        }
      ],
      "name": "newScheduledPayment",
      "outputs": [
        {
          "name": "paymentId",
          "type": "uint256"
        }
      ],
      "payable": false,
      "stateMutability": "nonpayable",
      "type": "function"
    },
    {
      "constant": false,
      "inputs": [
        {
          "name": "_periodDuration",
          "type": "uint64"
        }
      ],
      "name": "setPeriodDuration",
      "outputs": [],
      "payable": false,
      "stateMutability": "nonpayable",
      "type": "function"
    },
    {
      "constant": false,
      "inputs": [
        {
          "name": "_token",
          "type": "address"
        },
        {
          "name": "_amount",
          "type": "uint256"
        }
      ],
      "name": "setBudget",
      "outputs": [],
      "payable": false,
      "stateMutability": "nonpayable",
      "type": "function"
    },
    {
      "constant": false,
      "inputs": [
        {
          "name": "_token",
          "type": "address"
        }
      ],
      "name": "removeBudget",
      "outputs": [],
      "payable": false,
      "stateMutability": "nonpayable",
      "type": "function"
    },
    {
      "constant": false,
      "inputs": [
        {
          "name": "_paymentId",
          "type": "uint256"
        }
      ],
      "name": "executePayment",
      "outputs": [],
      "payable": false,
      "stateMutability": "nonpayable",
      "type": "function"
    },
    {
      "constant": false,
      "inputs": [
        {
          "name": "_paymentId",
          "type": "uint256"
        }
      ],
      "name": "receiverExecutePayment",
      "outputs": [],
      "payable": false,
      "stateMutability": "nonpayable",
      "type": "function"
    },
    {
      "constant": false,
      "inputs": [
        {
          "name": "_paymentId",
          "type": "uint256"
        },
        {
          "name": "_active",
          "type": "bool"
        }
      ],
      "name": "setPaymentStatus",
      "outputs": [],
      "payable": false,
      "stateMutability": "nonpayable",
      "type": "function"
    },
    {
      "constant": false,
      "inputs": [
        {
          "name": "_token",
          "type": "address"
        }
      ],
      "name": "recoverToVault",
      "outputs": [],
      "payable": false,
      "stateMutability": "nonpayable",
      "type": "function"
    },
    {
      "constant": false,
      "inputs": [
        {
          "name": "_maxTransitions",
          "type": "uint64"
        }
      ],
      "name": "tryTransitionAccountingPeriod",
      "outputs": [
        {
          "name": "success",
          "type": "bool"
        }
      ],
      "payable": false,
      "stateMutability": "nonpayable",
      "type": "function"
    },
    {
      "constant": true,
      "inputs": [
        {
          "name": "",
          "type": "address"
        }
      ],
      "name": "allowRecoverability",
      "outputs": [
        {
          "name": "",
          "type": "bool"
        }
      ],
      "payable": false,
      "stateMutability": "view",
      "type": "function"
    },
    {
      "constant": true,
      "inputs": [
        {
          "name": "_paymentId",
          "type": "uint256"
        }
      ],
      "name": "getPayment",
      "outputs": [
        {
          "name": "token",
          "type": "address"
        },
        {
          "name": "receiver",
          "type": "address"
        },
        {
          "name": "amount",
          "type": "uint256"
        },
        {
          "name": "initialPaymentTime",
          "type": "uint64"
        },
        {
          "name": "interval",
          "type": "uint64"
        },
        {
          "name": "maxExecutions",
          "type": "uint64"
        },
        {
          "name": "inactive",
          "type": "bool"
        },
        {
          "name": "executions",
          "type": "uint64"
        },
        {
          "name": "createdBy",
          "type": "address"
        }
      ],
      "payable": false,
      "stateMutability": "view",
      "type": "function"
    },
    {
      "constant": true,
      "inputs": [
        {
          "name": "_transactionId",
          "type": "uint256"
        }
      ],
      "name": "getTransaction",
      "outputs": [
        {
          "name": "periodId",
          "type": "uint64"
        },
        {
          "name": "amount",
          "type": "uint256"
        },
        {
          "name": "paymentId",
          "type": "uint256"
        },
        {
          "name": "paymentExecutionNumber",
          "type": "uint64"
        },
        {
          "name": "token",
          "type": "address"
        },
        {
          "name": "entity",
          "type": "address"
        },
        {
          "name": "isIncoming",
          "type": "bool"
        },
        {
          "name": "date",
          "type": "uint64"
        }
      ],
      "payable": false,
      "stateMutability": "view",
      "type": "function"
    },
    {
      "constant": true,
      "inputs": [
        {
          "name": "_periodId",
          "type": "uint64"
        }
      ],
      "name": "getPeriod",
      "outputs": [
        {
          "name": "isCurrent",
          "type": "bool"
        },
        {
          "name": "startTime",
          "type": "uint64"
        },
        {
          "name": "endTime",
          "type": "uint64"
        },
        {
          "name": "firstTransactionId",
          "type": "uint256"
        },
        {
          "name": "lastTransactionId",
          "type": "uint256"
        }
      ],
      "payable": false,
      "stateMutability": "view",
      "type": "function"
    },
    {
      "constant": true,
      "inputs": [
        {
          "name": "_periodId",
          "type": "uint64"
        },
        {
          "name": "_token",
          "type": "address"
        }
      ],
      "name": "getPeriodTokenStatement",
      "outputs": [
        {
          "name": "expenses",
          "type": "uint256"
        },
        {
          "name": "income",
          "type": "uint256"
        }
      ],
      "payable": false,
      "stateMutability": "view",
      "type": "function"
    },
    {
      "constant": true,
      "inputs": [],
      "name": "currentPeriodId",
      "outputs": [
        {
          "name": "",
          "type": "uint64"
        }
      ],
      "payable": false,
      "stateMutability": "view",
      "type": "function"
    },
    {
      "constant": true,
      "inputs": [],
      "name": "getPeriodDuration",
      "outputs": [
        {
          "name": "",
          "type": "uint64"
        }
      ],
      "payable": false,
      "stateMutability": "view",
      "type": "function"
    },
    {
      "constant": true,
      "inputs": [
        {
          "name": "_token",
          "type": "address"
        }
      ],
      "name": "getBudget",
      "outputs": [
        {
          "name": "budget",
          "type": "uint256"
        },
        {
          "name": "hasBudget",
          "type": "bool"
        }
      ],
      "payable": false,
      "stateMutability": "view",
      "type": "function"
    },
    {
      "constant": true,
      "inputs": [
        {
          "name": "_token",
          "type": "address"
        }
      ],
      "name": "getRemainingBudget",
      "outputs": [
        {
          "name": "",
          "type": "uint256"
        }
      ],
      "payable": false,
      "stateMutability": "view",
      "type": "function"
    },
    {
      "constant": true,
      "inputs": [
        {
          "name": "_token",
          "type": "address"
        },
        {
          "name": "_amount",
          "type": "uint256"
        }
      ],
      "name": "canMakePayment",
      "outputs": [
        {
          "name": "",
          "type": "bool"
        }
      ],
      "payable": false,
      "stateMutability": "view",
      "type": "function"
    },
    {
      "constant": true,
      "inputs": [
        {
          "name": "_paymentId",
          "type": "uint256"
        }
      ],
      "name": "nextPaymentTime",
      "outputs": [
        {
          "name": "",
          "type": "uint64"
        }
      ],
      "payable": false,
      "stateMutability": "view",
      "type": "function"
    }
  ],
  "bytecode": "0x60806040526200001d62000023640100000000026401000000009004565b62000309565b60006200003e6200015e640100000000026401000000009004565b146040805190810160405280601881526020017f494e49545f414c52454144595f494e495449414c495a4544000000000000000081525090151562000121576040517f08c379a00000000000000000000000000000000000000000000000000000000081526004018080602001828103825283818151815260200191508051906020019080838360005b83811015620000e5578082015181840152602081019050620000c8565b50505050905090810190601f168015620001135780820380516001836020036101000a031916815260200191505b509250505060405180910390fd5b506200015c7fffffffffffffffffffffffffffffffffffffffffffffffffffffffffffffffff620001ab640100000000026401000000009004565b565b6000620001a67febb05b386a8d34882b8711d156f463690983dc47815980fb82aeeff1aa43579e60010260001916620002f76401000000000262006ee7176401000000009004565b905090565b6000620001c66200015e640100000000026401000000009004565b146040805190810160405280601881526020017f494e49545f414c52454144595f494e495449414c495a45440000000000000000815250901515620002a9576040517f08c379a00000000000000000000000000000000000000000000000000000000081526004018080602001828103825283818151815260200191508051906020019080838360005b838110156200026d57808201518184015260208101905062000250565b50505050905090810190601f1680156200029b5780820380516001836020036101000a031916815260200191505b509250505060405180910390fd5b50620002f4817febb05b386a8d34882b8711d156f463690983dc47815980fb82aeeff1aa43579e60010260001916620003026401000000000262007c3b179091906401000000009004565b50565b600081549050919050565b8082555050565b617f5e80620003196000396000f300608060405260043610610204576000357c0100000000000000000000000000000000000000000000000000000000900463ffffffff1680630803fac0146105095780630842ace414610538578063149204381461056b578063162a0cf8146106405780631798de811461066d57806318f053da146106c457806319b7d7bd146107075780632914b9bd146107695780632d00cad3146108125780633280a8361461084b57806332f0a3b51461099c57806333ea3dc8146109f35780635985feec14610afd5780635b14dbc814610b305780636436f18914610b6357806367047c4a14610b90578063671273f414610c235780636abe602d14610c5a57806374bfb42614610c995780637e7db6e114610ce657806380afdea814610d415780638b3dd74914610d745780639297d86014610d9f578063981cc34214610de2578063988e659514610e155780639d4941d814610e54578063a1658fad14610e97578063a479e50814610f43578063a662944114610f9a578063b36fec5714610fe9578063bfe07da614611028578063cb045a9614611080578063d2d27b41146110d5578063d4aae0c414611147578063de048a7b1461119e578063de4796ed146111c9578063e90a1b6e146111f8578063e94ebac51461125d578063eaa7ec6814611290578063eca81817146112bb578063f636484614611312578063fbfa77cf14611397575b61020c6113ee565b6040805190810160405280601481526020017f494e49545f4e4f545f494e495449414c495a45440000000000000000000000008152509015156102ea576040517f08c379a00000000000000000000000000000000000000000000000000000000081526004018080602001828103825283818151815260200191508051906020019080838360005b838110156102af578082015181840152602081019050610294565b50505050905090810190601f1680156102dc5780820380516001836020036101000a031916815260200191505b509250505060405180910390fd5b5060006102fd6102f8611419565b611441565b9050806040805190810160405280601b81526020017f46494e414e43455f434f4d504c4554455f5452414e534954494f4e00000000008152509015156103de576040517f08c379a00000000000000000000000000000000000000000000000000000000081526004018080602001828103825283818151815260200191508051906020019080838360005b838110156103a3578082015181840152602081019050610388565b50505050905090810190601f1680156103d05780820380516001836020036101000a031916815260200191505b509250505060405180910390fd5b50600034116040805190810160405280601b81526020017f46494e414e43455f4445504f5349545f414d4f554e545f5a45524f00000000008152509015156104c1576040517f08c379a00000000000000000000000000000000000000000000000000000000081526004018080602001828103825283818151815260200191508051906020019080838360005b8381101561048657808201518184015260208101905061046b565b50505050905090810190601f1680156104b35780820380516001836020036101000a031916815260200191505b509250505060405180910390fd5b506105066000346040805190810160405280601d81526020017f4574686572207472616e7366657220746f2046696e616e636520617070000000815250336001611555565b50005b34801561051557600080fd5b5061051e6113ee565b604051808215151515815260200191505060405180910390f35b34801561054457600080fd5b5061054d61199b565b60405180826000191660001916815260200191505060405180910390f35b34801561057757600080fd5b5061062a600480360381019080803573ffffffffffffffffffffffffffffffffffffffff169060200190929190803573ffffffffffffffffffffffffffffffffffffffff16906020019092919080359060200190929190803567ffffffffffffffff169060200190929190803567ffffffffffffffff169060200190929190803567ffffffffffffffff1690602001909291908035906020019082018035906020019190919293919293905050506119d4565b6040518082815260200191505060405180910390f35b34801561064c57600080fd5b5061066b6004803603810190808035906020019092919050505061237b565b005b34801561067957600080fd5b506106c2600480360381019080803573ffffffffffffffffffffffffffffffffffffffff169060200190929190803567ffffffffffffffff1690602001909291905050506126b0565b005b3480156106d057600080fd5b50610705600480360381019080803573ffffffffffffffffffffffffffffffffffffffff169060200190929190505050612a44565b005b34801561071357600080fd5b50610748600480360381019080803573ffffffffffffffffffffffffffffffffffffffff169060200190929190505050612e09565b60405180838152602001821515151581526020019250505060405180910390f35b34801561077557600080fd5b506107d0600480360381019080803590602001908201803590602001908080601f0160208091040260200160405190810160405280939291908181526020018383808284378201915050505050509192919290505050612f8e565b604051808273ffffffffffffffffffffffffffffffffffffffff1673ffffffffffffffffffffffffffffffffffffffff16815260200191505060405180910390f35b34801561081e57600080fd5b50610849600480360381019080803590602001909291908035151590602001909291905050506130ad565b005b34801561085757600080fd5b506108766004803603810190808035906020019092919050505061334b565b604051808a73ffffffffffffffffffffffffffffffffffffffff1673ffffffffffffffffffffffffffffffffffffffff1681526020018973ffffffffffffffffffffffffffffffffffffffff1673ffffffffffffffffffffffffffffffffffffffff1681526020018881526020018767ffffffffffffffff1667ffffffffffffffff1681526020018667ffffffffffffffff1667ffffffffffffffff1681526020018567ffffffffffffffff1667ffffffffffffffff168152602001841515151581526020018367ffffffffffffffff1667ffffffffffffffff1681526020018273ffffffffffffffffffffffffffffffffffffffff1673ffffffffffffffffffffffffffffffffffffffff168152602001995050505050505050505060405180910390f35b3480156109a857600080fd5b506109b161356b565b604051808273ffffffffffffffffffffffffffffffffffffffff1673ffffffffffffffffffffffffffffffffffffffff16815260200191505060405180910390f35b3480156109ff57600080fd5b50610a1e60048036038101908080359060200190929190505050613618565b604051808967ffffffffffffffff1667ffffffffffffffff1681526020018881526020018781526020018667ffffffffffffffff1667ffffffffffffffff1681526020018573ffffffffffffffffffffffffffffffffffffffff1673ffffffffffffffffffffffffffffffffffffffff1681526020018473ffffffffffffffffffffffffffffffffffffffff1673ffffffffffffffffffffffffffffffffffffffff168152602001831515151581526020018267ffffffffffffffff1667ffffffffffffffff1681526020019850505050505050505060405180910390f35b348015610b0957600080fd5b50610b126137fa565b60405180826000191660001916815260200191505060405180910390f35b348015610b3c57600080fd5b50610b45613833565b60405180826000191660001916815260200191505060405180910390f35b348015610b6f57600080fd5b50610b8e6004803603810190808035906020019092919050505061386c565b005b348015610b9c57600080fd5b50610bc5600480360381019080803567ffffffffffffffff169060200190929190505050613ba3565b60405180861515151581526020018567ffffffffffffffff1667ffffffffffffffff1681526020018467ffffffffffffffff1667ffffffffffffffff1681526020018381526020018281526020019550505050505060405180910390f35b348015610c2f57600080fd5b50610c58600480360381019080803567ffffffffffffffff169060200190929190505050613d51565b005b348015610c6657600080fd5b50610c6f614113565b604051808267ffffffffffffffff1667ffffffffffffffff16815260200191505060405180910390f35b348015610ca557600080fd5b50610ce4600480360381019080803573ffffffffffffffffffffffffffffffffffffffff1690602001909291908035906020019092919050505061412d565b005b348015610cf257600080fd5b50610d27600480360381019080803573ffffffffffffffffffffffffffffffffffffffff169060200190929190505050614547565b604051808215151515815260200191505060405180910390f35b348015610d4d57600080fd5b50610d56614559565b60405180826000191660001916815260200191505060405180910390f35b348015610d8057600080fd5b50610d89614590565b6040518082815260200191505060405180910390f35b348015610dab57600080fd5b50610de0600480360381019080803573ffffffffffffffffffffffffffffffffffffffff1690602001909291905050506145c7565b005b348015610dee57600080fd5b50610df761494c565b60405180826000191660001916815260200191505060405180910390f35b348015610e2157600080fd5b50610e2a614985565b604051808267ffffffffffffffff1667ffffffffffffffff16815260200191505060405180910390f35b348015610e6057600080fd5b50610e95600480360381019080803573ffffffffffffffffffffffffffffffffffffffff169060200190929190505050614a7b565b005b348015610ea357600080fd5b50610f29600480360381019080803573ffffffffffffffffffffffffffffffffffffffff169060200190929190803560001916906020019092919080359060200190820180359060200190808060200260200160405190810160405280939291908181526020018383602002808284378201915050505050509192919290505050614e99565b604051808215151515815260200191505060405180910390f35b348015610f4f57600080fd5b50610f58615095565b604051808273ffffffffffffffffffffffffffffffffffffffff1673ffffffffffffffffffffffffffffffffffffffff16815260200191505060405180910390f35b348015610fa657600080fd5b50610fcf600480360381019080803567ffffffffffffffff1690602001909291905050506151b0565b604051808215151515815260200191505060405180910390f35b348015610ff557600080fd5b50610ffe6152a9565b604051808267ffffffffffffffff1667ffffffffffffffff16815260200191505060405180910390f35b61107e600480360381019080803573ffffffffffffffffffffffffffffffffffffffff169060200190929190803590602001909291908035906020019082018035906020019190919293919293905050506153b1565b005b34801561108c57600080fd5b506110ab600480360381019080803590602001909291905050506157ce565b604051808267ffffffffffffffff1667ffffffffffffffff16815260200191505060405180910390f35b3480156110e157600080fd5b5061112a600480360381019080803567ffffffffffffffff169060200190929190803573ffffffffffffffffffffffffffffffffffffffff1690602001909291905050506158d2565b604051808381526020018281526020019250505060405180910390f35b34801561115357600080fd5b5061115c615a64565b604051808273ffffffffffffffffffffffffffffffffffffffff1673ffffffffffffffffffffffffffffffffffffffff16815260200191505060405180910390f35b3480156111aa57600080fd5b506111b3615a9b565b6040518082815260200191505060405180910390f35b3480156111d557600080fd5b506111de615aa1565b604051808215151515815260200191505060405180910390f35b34801561120457600080fd5b50611243600480360381019080803573ffffffffffffffffffffffffffffffffffffffff16906020019092919080359060200190929190505050615ad2565b604051808215151515815260200191505060405180910390f35b34801561126957600080fd5b50611272615bcd565b60405180826000191660001916815260200191505060405180910390f35b34801561129c57600080fd5b506112a5615c06565b6040518082815260200191505060405180910390f35b3480156112c757600080fd5b506112fc600480360381019080803573ffffffffffffffffffffffffffffffffffffffff169060200190929190505050615c0c565b6040518082815260200191505060405180910390f35b34801561131e57600080fd5b50611395600480360381019080803573ffffffffffffffffffffffffffffffffffffffff169060200190929190803573ffffffffffffffffffffffffffffffffffffffff16906020019092919080359060200190929190803590602001908201803590602001919091929391929390505050615d05565b005b3480156113a357600080fd5b506113ac61607d565b604051808273ffffffffffffffffffffffffffffffffffffffff1673ffffffffffffffffffffffffffffffffffffffff16815260200191505060405180910390f35b6000806113f9614590565b9050600081141580156114135750806114106160a2565b10155b91505090565b60007fffffffffffffffffffffffffffffffffffffffffffffffffffffffffffffffff905090565b6000806000600860006114526160aa565b67ffffffffffffffff1667ffffffffffffffff168152602001908152602001600020915061147e6160cb565b90505b8160000160089054906101000a900467ffffffffffffffff1667ffffffffffffffff168167ffffffffffffffff1611156115495760008467ffffffffffffffff1614156114d1576000925061154e565b60018403935060008260010154141515611504576114fb60016007546160e290919063ffffffff16565b82600201819055505b61154261153d60018460000160089054906101000a900467ffffffffffffffff1667ffffffffffffffff166161d790919063ffffffff16565b6162e0565b9150611481565b600192505b5050919050565b611561858386866164ba565b600073ffffffffffffffffffffffffffffffffffffffff168573ffffffffffffffffffffffffffffffffffffffff161415611679576000809054906101000a900473ffffffffffffffffffffffffffffffffffffffff1673ffffffffffffffffffffffffffffffffffffffff166347e7ef24856000876040518463ffffffff167c0100000000000000000000000000000000000000000000000000000000028152600401808373ffffffffffffffffffffffffffffffffffffffff1673ffffffffffffffffffffffffffffffffffffffff168152602001828152602001925050506000604051808303818588803b15801561165b57600080fd5b505af115801561166f573d6000803e3d6000fd5b5050505050611994565b801561178c576116ac3330868873ffffffffffffffffffffffffffffffffffffffff166164d1909392919063ffffffff16565b6040805190810160405280602081526020017f46494e414e43455f544b4e5f5452414e534645525f46524f4d5f52455645525481525090151561178a576040517f08c379a00000000000000000000000000000000000000000000000000000000081526004018080602001828103825283818151815260200191508051906020019080838360005b8381101561174f578082015181840152602081019050611734565b50505050905090810190601f16801561177c5780820380516001836020036101000a031916815260200191505b509250505060405180910390fd5b505b6117d86000809054906101000a900473ffffffffffffffffffffffffffffffffffffffff16858773ffffffffffffffffffffffffffffffffffffffff166165ff9092919063ffffffff16565b6040805190810160405280601a81526020017f46494e414e43455f544b4e5f415050524f56455f4641494c45440000000000008152509015156118b6576040517f08c379a00000000000000000000000000000000000000000000000000000000081526004018080602001828103825283818151815260200191508051906020019080838360005b8381101561187b578082015181840152602081019050611860565b50505050905090810190601f1680156118a85780820380516001836020036101000a031916815260200191505b509250505060405180910390fd5b506000809054906101000a900473ffffffffffffffffffffffffffffffffffffffff1673ffffffffffffffffffffffffffffffffffffffff166347e7ef2486866040518363ffffffff167c0100000000000000000000000000000000000000000000000000000000028152600401808373ffffffffffffffffffffffffffffffffffffffff1673ffffffffffffffffffffffffffffffffffffffff16815260200182815260200192505050600060405180830381600087803b15801561197b57600080fd5b505af115801561198f573d6000803e3d6000fd5b505050505b5050505050565b60405180807f4352454154455f5041594d454e54535f524f4c450000000000000000000000008152506014019050604051809103902081565b60008060405180807f4352454154455f5041594d454e54535f524f4c4500000000000000000000000081525060140190506040518091039020611a398b8b8b8a67ffffffffffffffff168a67ffffffffffffffff168d67ffffffffffffffff166166f8565b611a44338383614e99565b6040805190810160405280600f81526020017f4150505f415554485f4641494c45440000000000000000000000000000000000815250901515611b22576040517f08c379a00000000000000000000000000000000000000000000000000000000081526004018080602001828103825283818151815260200191508051906020019080838360005b83811015611ae7578082015181840152602081019050611acc565b50505050905090810190601f168015611b145780820380516001836020036101000a031916815260200191505b509250505060405180910390fd5b506000611b35611b30611419565b611441565b9050806040805190810160405280601b81526020017f46494e414e43455f434f4d504c4554455f5452414e534954494f4e0000000000815250901515611c16576040517f08c379a00000000000000000000000000000000000000000000000000000000081526004018080602001828103825283818151815260200191508051906020019080838360005b83811015611bdb578082015181840152602081019050611bc0565b50505050905090810190601f168015611c085780820380516001836020036101000a031916815260200191505b509250505060405180910390fd5b5060008b116040805190810160405280601f81526020017f46494e414e43455f4e45575f5041594d454e545f414d4f554e545f5a45524f00815250901515611cf9576040517f08c379a00000000000000000000000000000000000000000000000000000000081526004018080602001828103825283818151815260200191508051906020019080838360005b83811015611cbe578082015181840152602081019050611ca3565b50505050905090810190601f168015611ceb5780820380516001836020036101000a031916815260200191505b509250505060405180910390fd5b5060008967ffffffffffffffff16116040805190810160405280601f81526020017f46494e414e43455f4e45575f5041594d454e545f494e5452564c5f5a45524f00815250901515611de6576040517f08c379a00000000000000000000000000000000000000000000000000000000081526004018080602001828103825283818151815260200191508051906020019080838360005b83811015611dab578082015181840152602081019050611d90565b50505050905090810190601f168015611dd85780820380516001836020036101000a031916815260200191505b509250505060405180910390fd5b5060008867ffffffffffffffff16116040805190810160405280601e81526020017f46494e414e43455f4e45575f5041594d454e545f45584543535f5a45524f0000815250901515611ed3576040517f08c379a00000000000000000000000000000000000000000000000000000000081526004018080602001828103825283818151815260200191508051906020019080838360005b83811015611e98578082015181840152602081019050611e7d565b50505050905090810190601f168015611ec55780820380516001836020036101000a031916815260200191505b509250505060405180910390fd5b50600160020160008e73ffffffffffffffffffffffffffffffffffffffff1673ffffffffffffffffffffffffffffffffffffffff16815260200190815260200160002060009054906101000a900460ff161580611f7157508a6001800160008f73ffffffffffffffffffffffffffffffffffffffff1673ffffffffffffffffffffffffffffffffffffffff1681526020019081526020016000205410155b6040805190810160405280600e81526020017f46494e414e43455f42554447455400000000000000000000000000000000000081525090151561204f576040517f08c379a00000000000000000000000000000000000000000000000000000000081526004018080602001828103825283818151815260200191508051906020019080838360005b83811015612014578082015181840152602081019050611ff9565b50505050905090810190601f1680156120415780820380516001836020036101000a031916815260200191505b509250505060405180910390fd5b5060018867ffffffffffffffff1614156121615761206b6160cb565b67ffffffffffffffff168a67ffffffffffffffff16116040805190810160405280601d81526020017f46494e414e43455f4e45575f5041594d454e545f494d4d45444941544500000081525090151561215f576040517f08c379a00000000000000000000000000000000000000000000000000000000081526004018080602001828103825283818151815260200191508051906020019080838360005b83811015612124578082015181840152602081019050612109565b50505050905090810190601f1680156121515780820380516001836020036101000a031916815260200191505b509250505060405180910390fd5b505b600560008154809291906001019190505594508b73ffffffffffffffffffffffffffffffffffffffff16857f41e8c14bdf2b044354d788d944b364e1de0b64aeddeba755b8ef69ab68bd90838a8a8a604051808467ffffffffffffffff1667ffffffffffffffff168152602001806020018281038252848482818152602001925080828437820191505094505050505060405180910390a36004600086815260200190815260200160002093508c8460000160006101000a81548173ffffffffffffffffffffffffffffffffffffffff021916908373ffffffffffffffffffffffffffffffffffffffff1602179055508b8460010160006101000a81548173ffffffffffffffffffffffffffffffffffffffff021916908373ffffffffffffffffffffffffffffffffffffffff1602179055508a8460030181905550898460040160006101000a81548167ffffffffffffffff021916908367ffffffffffffffff160217905550888460040160086101000a81548167ffffffffffffffff021916908367ffffffffffffffff160217905550878460040160106101000a81548167ffffffffffffffff021916908367ffffffffffffffff160217905550338460020160006101000a81548173ffffffffffffffffffffffffffffffffffffffff021916908373ffffffffffffffffffffffffffffffffffffffff16021790555061236a85616817565b505050505098975050505050505050565b60405180807f455845435554455f5041594d454e54535f524f4c450000000000000000000000815250601501905060405180910390206123d1826004600085815260200190815260200160002060030154616ac4565b6123dc338383614e99565b6040805190810160405280600f81526020017f4150505f415554485f4641494c454400000000000000000000000000000000008152509015156124ba576040517f08c379a00000000000000000000000000000000000000000000000000000000081526004018080602001828103825283818151815260200191508051906020019080838360005b8381101561247f578082015181840152602081019050612464565b50505050905090810190601f1680156124ac5780820380516001836020036101000a031916815260200191505b509250505060405180910390fd5b50826000811180156124cd575060055481105b6040805190810160405280601c81526020017f46494e414e43455f4e4f5f5343484544554c45445f5041594d454e54000000008152509015156125ab576040517f08c379a00000000000000000000000000000000000000000000000000000000081526004018080602001828103825283818151815260200191508051906020019080838360005b83811015612570578082015181840152602081019050612555565b50505050905090810190601f16801561259d5780820380516001836020036101000a031916815260200191505b509250505060405180910390fd5b5060006125be6125b9611419565b611441565b9050806040805190810160405280601b81526020017f46494e414e43455f434f4d504c4554455f5452414e534954494f4e000000000081525090151561269f576040517f08c379a00000000000000000000000000000000000000000000000000000000081526004018080602001828103825283818151815260200191508051906020019080838360005b83811015612664578082015181840152602081019050612649565b50505050905090810190601f1680156126915780820380516001836020036101000a031916815260200191505b509250505060405180910390fd5b506126a985616b3b565b5050505050565b60006126ba614590565b146040805190810160405280601881526020017f494e49545f414c52454144595f494e495449414c495a45440000000000000000815250901515612799576040517f08c379a00000000000000000000000000000000000000000000000000000000081526004018080602001828103825283818151815260200191508051906020019080838360005b8381101561275e578082015181840152602081019050612743565b50505050905090810190601f16801561278b5780820380516001836020036101000a031916815260200191505b509250505060405180910390fd5b506127a2616d2f565b6127ab82616e5c565b6040805190810160405280601a81526020017f46494e414e43455f5641554c545f4e4f545f434f4e5452414354000000000000815250901515612889576040517f08c379a00000000000000000000000000000000000000000000000000000000081526004018080602001828103825283818151815260200191508051906020019080838360005b8381101561284e578082015181840152602081019050612833565b50505050905090810190601f16801561287b5780820380516001836020036101000a031916815260200191505b509250505060405180910390fd5b50816000806101000a81548173ffffffffffffffffffffffffffffffffffffffff021916908373ffffffffffffffffffffffffffffffffffffffff1602179055506201518067ffffffffffffffff168167ffffffffffffffff1610156040805190810160405280601c81526020017f46494e414e43455f5345545f504552494f445f544f4f5f53484f5254000000008152509015156129c3576040517f08c379a00000000000000000000000000000000000000000000000000000000081526004018080602001828103825283818151815260200191508051906020019080838360005b8381101561298857808201518184015260208101905061296d565b50505050905090810190601f1680156129b55780820380516001836020036101000a031916815260200191505b509250505060405180910390fd5b5080600160000160006101000a81548167ffffffffffffffff021916908367ffffffffffffffff16021790555060016004600080815260200190815260200160002060020160146101000a81548160ff02191690831515021790555060016005819055506001600781905550612a3f612a3a6160cb565b6162e0565b505050565b60405180807f4348414e47455f425544474554535f524f4c450000000000000000000000000081525060130190506040518091039020612b288260006001800160008673ffffffffffffffffffffffffffffffffffffffff1673ffffffffffffffffffffffffffffffffffffffff16815260200190815260200160002054600160020160008773ffffffffffffffffffffffffffffffffffffffff1673ffffffffffffffffffffffffffffffffffffffff16815260200190815260200160002060009054906101000a900460ff16612b1d576000612b20565b60015b60ff16616eae565b612b33338383614e99565b6040805190810160405280600f81526020017f4150505f415554485f4641494c45440000000000000000000000000000000000815250901515612c11576040517f08c379a00000000000000000000000000000000000000000000000000000000081526004018080602001828103825283818151815260200191508051906020019080838360005b83811015612bd6578082015181840152602081019050612bbb565b50505050905090810190601f168015612c035780820380516001836020036101000a031916815260200191505b509250505060405180910390fd5b506000612c24612c1f611419565b611441565b9050806040805190810160405280601b81526020017f46494e414e43455f434f4d504c4554455f5452414e534954494f4e0000000000815250901515612d05576040517f08c379a00000000000000000000000000000000000000000000000000000000081526004018080602001828103825283818151815260200191508051906020019080838360005b83811015612cca578082015181840152602081019050612caf565b50505050905090810190601f168015612cf75780820380516001836020036101000a031916815260200191505b509250505060405180910390fd5b5060006001800160008673ffffffffffffffffffffffffffffffffffffffff1673ffffffffffffffffffffffffffffffffffffffff168152602001908152602001600020819055506000600160020160008673ffffffffffffffffffffffffffffffffffffffff1673ffffffffffffffffffffffffffffffffffffffff16815260200190815260200160002060006101000a81548160ff0219169083151502179055508373ffffffffffffffffffffffffffffffffffffffff167f6e768d8fe4a1460cae6d5af9382c3e9abbc41f66f2ec91fda24b12e3c2796f0360008060405180838152602001821515151581526020019250505060405180910390a250505050565b600080612e146113ee565b6040805190810160405280601481526020017f494e49545f4e4f545f494e495449414c495a4544000000000000000000000000815250901515612ef2576040517f08c379a00000000000000000000000000000000000000000000000000000000081526004018080602001828103825283818151815260200191508051906020019080838360005b83811015612eb7578082015181840152602081019050612e9c565b50505050905090810190601f168015612ee45780820380516001836020036101000a031916815260200191505b509250505060405180910390fd5b506001800160008473ffffffffffffffffffffffffffffffffffffffff1673ffffffffffffffffffffffffffffffffffffffff168152602001908152602001600020549150600160020160008473ffffffffffffffffffffffffffffffffffffffff1673ffffffffffffffffffffffffffffffffffffffff16815260200190815260200160002060009054906101000a900460ff169050915091565b6000612f98615095565b73ffffffffffffffffffffffffffffffffffffffff166304bf2a7f836040518263ffffffff167c01000000000000000000000000000000000000000000000000000000000281526004018080602001828103825283818151815260200191508051906020019080838360005b8381101561301f578082015181840152602081019050613004565b50505050905090810190601f16801561304c5780820380516001836020036101000a031916815260200191505b5092505050602060405180830381600087803b15801561306b57600080fd5b505af115801561307f573d6000803e3d6000fd5b505050506040513d602081101561309557600080fd5b81019080805190602001909291905050509050919050565b60405180807f4d414e4147455f5041594d454e54535f524f4c45000000000000000000000000815250601401905060405180910390206130fe83836130f35760006130f6565b60015b60ff16616ac4565b613109338383614e99565b6040805190810160405280600f81526020017f4150505f415554485f4641494c454400000000000000000000000000000000008152509015156131e7576040517f08c379a00000000000000000000000000000000000000000000000000000000081526004018080602001828103825283818151815260200191508051906020019080838360005b838110156131ac578082015181840152602081019050613191565b50505050905090810190601f1680156131d95780820380516001836020036101000a031916815260200191505b509250505060405180910390fd5b50836000811180156131fa575060055481105b6040805190810160405280601c81526020017f46494e414e43455f4e4f5f5343484544554c45445f5041594d454e54000000008152509015156132d8576040517f08c379a00000000000000000000000000000000000000000000000000000000081526004018080602001828103825283818151815260200191508051906020019080838360005b8381101561329d578082015181840152602081019050613282565b50505050905090810190601f1680156132ca5780820380516001836020036101000a031916815260200191505b509250505060405180910390fd5b5083156004600087815260200190815260200160002060020160146101000a81548160ff021916908315150217905550847faca91836ee6e44bf1c422f7ee89afb243a4fb775d9fe87150ff5f8e566dc161285604051808215151515815260200191505060405180910390a25050505050565b6000806000806000806000806000808a60008111801561336c575060055481105b6040805190810160405280601c81526020017f46494e414e43455f4e4f5f5343484544554c45445f5041594d454e540000000081525090151561344a576040517f08c379a00000000000000000000000000000000000000000000000000000000081526004018080602001828103825283818151815260200191508051906020019080838360005b8381101561340f5780820151818401526020810190506133f4565b50505050905090810190601f16801561343c5780820380516001836020036101000a031916815260200191505b509250505060405180910390fd5b50600460008d815260200190815260200160002091508160000160009054906101000a900473ffffffffffffffffffffffffffffffffffffffff169a508160010160009054906101000a900473ffffffffffffffffffffffffffffffffffffffff169950816003015498508160040160009054906101000a900467ffffffffffffffff1697508160040160089054906101000a900467ffffffffffffffff1696508160040160109054906101000a900467ffffffffffffffff1695508160040160189054906101000a900467ffffffffffffffff1693508160020160149054906101000a900460ff1694508160020160009054906101000a900473ffffffffffffffffffffffffffffffffffffffff16925050509193959799909294969850565b6000613575615a64565b73ffffffffffffffffffffffffffffffffffffffff166332f0a3b56040518163ffffffff167c0100000000000000000000000000000000000000000000000000000000028152600401602060405180830381600087803b1580156135d857600080fd5b505af11580156135ec573d6000803e3d6000fd5b505050506040513d602081101561360257600080fd5b8101908080519060200190929190505050905090565b600080600080600080600080600089600081118015613638575060075481105b6040805190810160405280601681526020017f46494e414e43455f4e4f5f5452414e53414354494f4e00000000000000000000815250901515613716576040517f08c379a00000000000000000000000000000000000000000000000000000000081526004018080602001828103825283818151815260200191508051906020019080838360005b838110156136db5780820151818401526020810190506136c0565b50505050905090810190601f1680156137085780820380516001836020036101000a031916815260200191505b509250505060405180910390fd5b50600660008c815260200190815260200160002091508160000160009054906101000a900473ffffffffffffffffffffffffffffffffffffffff1695508160010160009054906101000a900473ffffffffffffffffffffffffffffffffffffffff1694508160010160149054906101000a900460ff1693508160040160089054906101000a900467ffffffffffffffff1692508160040160109054906101000a900467ffffffffffffffff16995081600201549850816003015497508160040160009054906101000a900467ffffffffffffffff1696505050919395975091939597565b60405180807f4348414e47455f504552494f445f524f4c4500000000000000000000000000008152506012019050604051809103902081565b60405180807f4348414e47455f425544474554535f524f4c45000000000000000000000000008152506013019050604051809103902081565b8060008111801561387e575060055481105b6040805190810160405280601c81526020017f46494e414e43455f4e4f5f5343484544554c45445f5041594d454e540000000081525090151561395c576040517f08c379a00000000000000000000000000000000000000000000000000000000081526004018080602001828103825283818151815260200191508051906020019080838360005b83811015613921578082015181840152602081019050613906565b50505050905090810190601f16801561394e5780820380516001836020036101000a031916815260200191505b509250505060405180910390fd5b50600061396f61396a611419565b611441565b9050806040805190810160405280601b81526020017f46494e414e43455f434f4d504c4554455f5452414e534954494f4e0000000000815250901515613a50576040517f08c379a00000000000000000000000000000000000000000000000000000000081526004018080602001828103825283818151815260200191508051906020019080838360005b83811015613a155780820151818401526020810190506139fa565b50505050905090810190601f168015613a425780820380516001836020036101000a031916815260200191505b509250505060405180910390fd5b503373ffffffffffffffffffffffffffffffffffffffff166004600085815260200190815260200160002060010160009054906101000a900473ffffffffffffffffffffffffffffffffffffffff1673ffffffffffffffffffffffffffffffffffffffff16146040805190810160405280601881526020017f46494e414e43455f5041594d454e545f52454345495645520000000000000000815250901515613b94576040517f08c379a00000000000000000000000000000000000000000000000000000000081526004018080602001828103825283818151815260200191508051906020019080838360005b83811015613b59578082015181840152602081019050613b3e565b50505050905090810190601f168015613b865780820380516001836020036101000a031916815260200191505b509250505060405180910390fd5b50613b9e83616b3b565b505050565b60008060008060008086600960009054906101000a900467ffffffffffffffff1667ffffffffffffffff168167ffffffffffffffff16106040805190810160405280601181526020017f46494e414e43455f4e4f5f504552494f44000000000000000000000000000000815250901515613cb8576040517f08c379a00000000000000000000000000000000000000000000000000000000081526004018080602001828103825283818151815260200191508051906020019080838360005b83811015613c7d578082015181840152602081019050613c62565b50505050905090810190601f168015613caa5780820380516001836020036101000a031916815260200191505b509250505060405180910390fd5b50600860008967ffffffffffffffff1667ffffffffffffffff16815260200190815260200160002091508767ffffffffffffffff16613cf56160aa565b67ffffffffffffffff161496508160000160009054906101000a900467ffffffffffffffff1695508160000160089054906101000a900467ffffffffffffffff1694508160010154935081600201549250505091939590929450565b60405180807f4348414e47455f504552494f445f524f4c45000000000000000000000000000081525060120190506040518091039020613dbe8267ffffffffffffffff16600160000160009054906101000a900467ffffffffffffffff1667ffffffffffffffff16616ac4565b613dc9338383614e99565b6040805190810160405280600f81526020017f4150505f415554485f4641494c45440000000000000000000000000000000000815250901515613ea7576040517f08c379a00000000000000000000000000000000000000000000000000000000081526004018080602001828103825283818151815260200191508051906020019080838360005b83811015613e6c578082015181840152602081019050613e51565b50505050905090810190601f168015613e995780820380516001836020036101000a031916815260200191505b509250505060405180910390fd5b506000613eba613eb5611419565b611441565b9050806040805190810160405280601b81526020017f46494e414e43455f434f4d504c4554455f5452414e534954494f4e0000000000815250901515613f9b576040517f08c379a00000000000000000000000000000000000000000000000000000000081526004018080602001828103825283818151815260200191508051906020019080838360005b83811015613f60578082015181840152602081019050613f45565b50505050905090810190601f168015613f8d5780820380516001836020036101000a031916815260200191505b509250505060405180910390fd5b506201518067ffffffffffffffff168467ffffffffffffffff1610156040805190810160405280601c81526020017f46494e414e43455f5345545f504552494f445f544f4f5f53484f525400000000815250901515614095576040517f08c379a00000000000000000000000000000000000000000000000000000000081526004018080602001828103825283818151815260200191508051906020019080838360005b8381101561405a57808201518184015260208101905061403f565b50505050905090810190601f1680156140875780820380516001836020036101000a031916815260200191505b509250505060405180910390fd5b5083600160000160006101000a81548167ffffffffffffffff021916908367ffffffffffffffff1602179055507fa32389dd0d5a3bf7cc635f8c30fee3b70d06a6c547d6dbf31628378ee267bfc984604051808267ffffffffffffffff1667ffffffffffffffff16815260200191505060405180910390a150505050565b600960009054906101000a900467ffffffffffffffff1681565b60405180807f4348414e47455f425544474554535f524f4c45000000000000000000000000008152506013019050604051809103902061421083836001800160008773ffffffffffffffffffffffffffffffffffffffff1673ffffffffffffffffffffffffffffffffffffffff16815260200190815260200160002054600160020160008873ffffffffffffffffffffffffffffffffffffffff1673ffffffffffffffffffffffffffffffffffffffff16815260200190815260200160002060009054906101000a900460ff16614205576000614208565b60015b60ff16616eae565b61421b338383614e99565b6040805190810160405280600f81526020017f4150505f415554485f4641494c454400000000000000000000000000000000008152509015156142f9576040517f08c379a00000000000000000000000000000000000000000000000000000000081526004018080602001828103825283818151815260200191508051906020019080838360005b838110156142be5780820151818401526020810190506142a3565b50505050905090810190601f1680156142eb5780820380516001836020036101000a031916815260200191505b509250505060405180910390fd5b50600061430c614307611419565b611441565b9050806040805190810160405280601b81526020017f46494e414e43455f434f4d504c4554455f5452414e534954494f4e00000000008152509015156143ed576040517f08c379a00000000000000000000000000000000000000000000000000000000081526004018080602001828103825283818151815260200191508051906020019080838360005b838110156143b2578082015181840152602081019050614397565b50505050905090810190601f1680156143df5780820380516001836020036101000a031916815260200191505b509250505060405180910390fd5b50836001800160008773ffffffffffffffffffffffffffffffffffffffff1673ffffffffffffffffffffffffffffffffffffffff16815260200190815260200160002081905550600160020160008673ffffffffffffffffffffffffffffffffffffffff1673ffffffffffffffffffffffffffffffffffffffff16815260200190815260200160002060009054906101000a900460ff1615156144e55760018060020160008773ffffffffffffffffffffffffffffffffffffffff1673ffffffffffffffffffffffffffffffffffffffff16815260200190815260200160002060006101000a81548160ff0219169083151502179055505b8473ffffffffffffffffffffffffffffffffffffffff167f6e768d8fe4a1460cae6d5af9382c3e9abbc41f66f2ec91fda24b12e3c2796f0385600160405180838152602001821515151581526020019250505060405180910390a25050505050565b60006145516113ee565b159050919050565b600061458b7fd625496217aa6a3453eecb9c3489dc5a53e6c67b444329ea2b2cbc9ff547639b60010260001916616edc565b905090565b60006145c27febb05b386a8d34882b8711d156f463690983dc47815980fb82aeeff1aa43579e60010260001916616ee7565b905090565b60006145d16113ee565b6040805190810160405280601481526020017f494e49545f4e4f545f494e495449414c495a45440000000000000000000000008152509015156146af576040517f08c379a00000000000000000000000000000000000000000000000000000000081526004018080602001828103825283818151815260200191508051906020019080838360005b83811015614674578082015181840152602081019050614659565b50505050905090810190601f1680156146a15780820380516001836020036101000a031916815260200191505b509250505060405180910390fd5b5060006146c26146bd611419565b611441565b9050806040805190810160405280601b81526020017f46494e414e43455f434f4d504c4554455f5452414e534954494f4e00000000008152509015156147a3576040517f08c379a00000000000000000000000000000000000000000000000000000000081526004018080602001828103825283818151815260200191508051906020019080838360005b8381101561476857808201518184015260208101905061474d565b50505050905090810190601f1680156147955780820380516001836020036101000a031916815260200191505b509250505060405180910390fd5b50600073ffffffffffffffffffffffffffffffffffffffff168373ffffffffffffffffffffffffffffffffffffffff161461480657614801308473ffffffffffffffffffffffffffffffffffffffff16616ef290919063ffffffff16565b61481f565b3073ffffffffffffffffffffffffffffffffffffffff16315b9150600082116040805190810160405280601b81526020017f46494e414e43455f5245434f5645525f414d4f554e545f5a45524f0000000000815250901515614903576040517f08c379a00000000000000000000000000000000000000000000000000000000081526004018080602001828103825283818151815260200191508051906020019080838360005b838110156148c85780820151818401526020810190506148ad565b50505050905090810190601f1680156148f55780820380516001836020036101000a031916815260200191505b509250505060405180910390fd5b5061494783836040805190810160405280601081526020017f5265636f76657220746f205661756c7400000000000000000000000000000000815250306000611555565b505050565b60405180807f455845435554455f5041594d454e54535f524f4c4500000000000000000000008152506015019050604051809103902081565b600061498f6113ee565b6040805190810160405280601481526020017f494e49545f4e4f545f494e495449414c495a4544000000000000000000000000815250901515614a6d576040517f08c379a00000000000000000000000000000000000000000000000000000000081526004018080602001828103825283818151815260200191508051906020019080838360005b83811015614a32578082015181840152602081019050614a17565b50505050905090810190601f168015614a5f5780820380516001836020036101000a031916815260200191505b509250505060405180910390fd5b50614a766160aa565b905090565b6000806000614a8984614547565b6040805190810160405280601281526020017f5245434f5645525f444953414c4c4f5745440000000000000000000000000000815250901515614b67576040517f08c379a00000000000000000000000000000000000000000000000000000000081526004018080602001828103825283818151815260200191508051906020019080838360005b83811015614b2c578082015181840152602081019050614b11565b50505050905090810190601f168015614b595780820380516001836020036101000a031916815260200191505b509250505060405180910390fd5b50614b7061356b565b9250614b7b83616e5c565b6040805190810160405280601a81526020017f5245434f5645525f5641554c545f4e4f545f434f4e5452414354000000000000815250901515614c59576040517f08c379a00000000000000000000000000000000000000000000000000000000081526004018080602001828103825283818151815260200191508051906020019080838360005b83811015614c1e578082015181840152602081019050614c03565b50505050905090810190601f168015614c4b5780820380516001836020036101000a031916815260200191505b509250505060405180910390fd5b50600073ffffffffffffffffffffffffffffffffffffffff168473ffffffffffffffffffffffffffffffffffffffff161415614cf5573073ffffffffffffffffffffffffffffffffffffffff163191508273ffffffffffffffffffffffffffffffffffffffff166108fc839081150290604051600060405180830381858888f19350505050158015614cef573d6000803e3d6000fd5b50614e2e565b839050614d21308273ffffffffffffffffffffffffffffffffffffffff16616ef290919063ffffffff16565b9150614d4e83838373ffffffffffffffffffffffffffffffffffffffff166170cc9092919063ffffffff16565b6040805190810160405280601d81526020017f5245434f5645525f544f4b454e5f5452414e534645525f4641494c4544000000815250901515614e2c576040517f08c379a00000000000000000000000000000000000000000000000000000000081526004018080602001828103825283818151815260200191508051906020019080838360005b83811015614df1578082015181840152602081019050614dd6565b50505050905090810190601f168015614e1e5780820380516001836020036101000a031916815260200191505b509250505060405180910390fd5b505b8373ffffffffffffffffffffffffffffffffffffffff168373ffffffffffffffffffffffffffffffffffffffff167f596caf56044b55fb8c4ca640089bbc2b63cae3e978b851f5745cbb7c5b288e02846040518082815260200191505060405180910390a350505050565b600080614ea46113ee565b1515614eb3576000915061508d565b614ebb615a64565b9050600073ffffffffffffffffffffffffffffffffffffffff168173ffffffffffffffffffffffffffffffffffffffff161415614efb576000915061508d565b8073ffffffffffffffffffffffffffffffffffffffff1663fdef9106863087614f23886171ac565b6040518563ffffffff167c0100000000000000000000000000000000000000000000000000000000028152600401808573ffffffffffffffffffffffffffffffffffffffff1673ffffffffffffffffffffffffffffffffffffffff1681526020018473ffffffffffffffffffffffffffffffffffffffff1673ffffffffffffffffffffffffffffffffffffffff168152602001836000191660001916815260200180602001828103825283818151815260200191508051906020019080838360005b83811015615000578082015181840152602081019050614fe5565b50505050905090810190601f16801561502d5780820380516001836020036101000a031916815260200191505b5095505050505050602060405180830381600087803b15801561504f57600080fd5b505af1158015615063573d6000803e3d6000fd5b505050506040513d602081101561507957600080fd5b810190808051906020019092919050505091505b509392505050565b6000806150a0615a64565b73ffffffffffffffffffffffffffffffffffffffff1663be00bbd87fd6f028ca0e8edb4a8c9757ca4fdccab25fa1e0317da1188108f7d2dee14902fb6001027fddbcfd564f642ab5627cf68b9b7d374fb4f8a36e941a75d89c87998cef03bd616001026040518363ffffffff167c0100000000000000000000000000000000000000000000000000000000028152600401808360001916600019168152602001826000191660001916815260200192505050602060405180830381600087803b15801561516c57600080fd5b505af1158015615180573d6000803e3d6000fd5b505050506040513d602081101561519657600080fd5b810190808051906020019092919050505090508091505090565b60006151ba6113ee565b6040805190810160405280601481526020017f494e49545f4e4f545f494e495449414c495a4544000000000000000000000000815250901515615298576040517f08c379a00000000000000000000000000000000000000000000000000000000081526004018080602001828103825283818151815260200191508051906020019080838360005b8381101561525d578082015181840152602081019050615242565b50505050905090810190601f16801561528a5780820380516001836020036101000a031916815260200191505b509250505060405180910390fd5b506152a282611441565b9050919050565b60006152b36113ee565b6040805190810160405280601481526020017f494e49545f4e4f545f494e495449414c495a4544000000000000000000000000815250901515615391576040517f08c379a00000000000000000000000000000000000000000000000000000000081526004018080602001828103825283818151815260200191508051906020019080838360005b8381101561535657808201518184015260208101905061533b565b50505050905090810190601f1680156153835780820380516001836020036101000a031916815260200191505b509250505060405180910390fd5b50600160000160009054906101000a900467ffffffffffffffff16905090565b6153b96113ee565b6040805190810160405280601481526020017f494e49545f4e4f545f494e495449414c495a4544000000000000000000000000815250901515615497576040517f08c379a00000000000000000000000000000000000000000000000000000000081526004018080602001828103825283818151815260200191508051906020019080838360005b8381101561545c578082015181840152602081019050615441565b50505050905090810190601f1680156154895780820380516001836020036101000a031916815260200191505b509250505060405180910390fd5b5060006154aa6154a5611419565b611441565b9050806040805190810160405280601b81526020017f46494e414e43455f434f4d504c4554455f5452414e534954494f4e000000000081525090151561558b576040517f08c379a00000000000000000000000000000000000000000000000000000000081526004018080602001828103825283818151815260200191508051906020019080838360005b83811015615550578082015181840152602081019050615535565b50505050905090810190601f16801561557d5780820380516001836020036101000a031916815260200191505b509250505060405180910390fd5b50600084116040805190810160405280601b81526020017f46494e414e43455f4445504f5349545f414d4f554e545f5a45524f000000000081525090151561566e576040517f08c379a00000000000000000000000000000000000000000000000000000000081526004018080602001828103825283818151815260200191508051906020019080838360005b83811015615633578082015181840152602081019050615618565b50505050905090810190601f1680156156605780820380516001836020036101000a031916815260200191505b509250505060405180910390fd5b50600073ffffffffffffffffffffffffffffffffffffffff168573ffffffffffffffffffffffffffffffffffffffff161415615787578334146040805190810160405280601a81526020017f46494e414e43455f4554485f56414c55455f4d49534d41544348000000000000815250901515615785576040517f08c379a00000000000000000000000000000000000000000000000000000000081526004018080602001828103825283818151815260200191508051906020019080838360005b8381101561574a57808201518184015260208101905061572f565b50505050905090810190601f1680156157775780820380516001836020036101000a031916815260200191505b509250505060405180910390fd5b505b6157c7858585858080601f016020809104026020016040519081016040528093929190818152602001838380828437820191505050505050336001611555565b5050505050565b6000816000811180156157e2575060055481105b6040805190810160405280601c81526020017f46494e414e43455f4e4f5f5343484544554c45445f5041594d454e54000000008152509015156158c0576040517f08c379a00000000000000000000000000000000000000000000000000000000081526004018080602001828103825283818151815260200191508051906020019080838360005b8381101561588557808201518184015260208101905061586a565b50505050905090810190601f1680156158b25780820380516001836020036101000a031916815260200191505b509250505060405180910390fd5b506158ca836171c3565b915050919050565b600080600084600960009054906101000a900467ffffffffffffffff1667ffffffffffffffff168167ffffffffffffffff16106040805190810160405280601181526020017f46494e414e43455f4e4f5f504552494f440000000000000000000000000000008152509015156159e3576040517f08c379a00000000000000000000000000000000000000000000000000000000081526004018080602001828103825283818151815260200191508051906020019080838360005b838110156159a857808201518184015260208101905061598d565b50505050905090810190601f1680156159d55780820380516001836020036101000a031916815260200191505b509250505060405180910390fd5b50600860008767ffffffffffffffff1667ffffffffffffffff16815260200190815260200160002060030160008673ffffffffffffffffffffffffffffffffffffffff1673ffffffffffffffffffffffffffffffffffffffff1681526020019081526020016000209150816000015493508160010154925050509250929050565b6000615a967f4172f0f7d2289153072b0a6ca36959e0cbe2efc3afe50fc81636caa96338137b600102600019166172e5565b905090565b60055481565b60007fffffffffffffffffffffffffffffffffffffffffffffffffffffffffffffffff615acc614590565b14905090565b6000615adc6113ee565b6040805190810160405280601481526020017f494e49545f4e4f545f494e495449414c495a4544000000000000000000000000815250901515615bba576040517f08c379a00000000000000000000000000000000000000000000000000000000081526004018080602001828103825283818151815260200191508051906020019080838360005b83811015615b7f578082015181840152602081019050615b64565b50505050905090810190601f168015615bac5780820380516001836020036101000a031916815260200191505b509250505060405180910390fd5b50615bc583836172f0565b905092915050565b60405180807f4d414e4147455f5041594d454e54535f524f4c450000000000000000000000008152506014019050604051809103902081565b60075481565b6000615c166113ee565b6040805190810160405280601481526020017f494e49545f4e4f545f494e495449414c495a4544000000000000000000000000815250901515615cf4576040517f08c379a00000000000000000000000000000000000000000000000000000000081526004018080602001828103825283818151815260200191508051906020019080838360005b83811015615cb9578082015181840152602081019050615c9e565b50505050905090810190601f168015615ce65780820380516001836020036101000a031916815260200191505b509250505060405180910390fd5b50615cfe82617408565b9050919050565b60405180807f4352454154455f5041594d454e54535f524f4c4500000000000000000000000081525060140190506040518091039020615d718686867fffffffffffffffffffffffffffffffffffffffffffffffffffffffffffffffff6001615d6c617562565b6166f8565b615d7c338383614e99565b6040805190810160405280600f81526020017f4150505f415554485f4641494c45440000000000000000000000000000000000815250901515615e5a576040517f08c379a00000000000000000000000000000000000000000000000000000000081526004018080602001828103825283818151815260200191508051906020019080838360005b83811015615e1f578082015181840152602081019050615e04565b50505050905090810190601f168015615e4c5780820380516001836020036101000a031916815260200191505b509250505060405180910390fd5b506000615e6d615e68611419565b611441565b9050806040805190810160405280601b81526020017f46494e414e43455f434f4d504c4554455f5452414e534954494f4e0000000000815250901515615f4e576040517f08c379a00000000000000000000000000000000000000000000000000000000081526004018080602001828103825283818151815260200191508051906020019080838360005b83811015615f13578082015181840152602081019050615ef8565b50505050905090810190601f168015615f405780820380516001836020036101000a031916815260200191505b509250505060405180910390fd5b50600086116040805190810160405280601f81526020017f46494e414e43455f4e45575f5041594d454e545f414d4f554e545f5a45524f00815250901515616031576040517f08c379a00000000000000000000000000000000000000000000000000000000081526004018080602001828103825283818151815260200191508051906020019080838360005b83811015615ff6578082015181840152602081019050615fdb565b50505050905090810190601f1680156160235780820380516001836020036101000a031916815260200191505b509250505060405180910390fd5b506160738888886000808a8a8080601f01602080910402602001604051908101604052809392919081815260200183838082843782019150505050505061756a565b5050505050505050565b6000809054906101000a900473ffffffffffffffffffffffffffffffffffffffff1681565b600043905090565b60006001600960009054906101000a900467ffffffffffffffff1603905090565b60006160dd6160d8617562565b61766b565b905090565b600080838311156040805190810160405280601281526020017f4d4154485f5355425f554e444552464c4f5700000000000000000000000000008152509015156161c7576040517f08c379a00000000000000000000000000000000000000000000000000000000081526004018080602001828103825283818151815260200191508051906020019080838360005b8381101561618c578082015181840152602081019050616171565b50505050905090810190601f1680156161b95780820380516001836020036101000a031916815260200191505b509250505060405180910390fd5b5082840390508091505092915050565b60008082840190508367ffffffffffffffff168167ffffffffffffffff1610156040805190810160405280601381526020017f4d41544836345f4144445f4f564552464c4f57000000000000000000000000008152509015156162d5576040517f08c379a00000000000000000000000000000000000000000000000000000000081526004018080602001828103825283818151815260200191508051906020019080838360005b8381101561629a57808201518184015260208101905061627f565b50505050905090810190601f1680156162c75780820380516001836020036101000a031916815260200191505b509250505060405180910390fd5b508091505092915050565b6000806000806009600081819054906101000a900467ffffffffffffffff168092919060010191906101000a81548167ffffffffffffffff021916908367ffffffffffffffff1602179055509250600860008467ffffffffffffffff1667ffffffffffffffff1681526020019081526020016000209150848260000160006101000a81548167ffffffffffffffff021916908367ffffffffffffffff16021790555060018060000160009054906101000a900467ffffffffffffffff1686010390508467ffffffffffffffff168167ffffffffffffffff1610156163e2577fffffffffffffffffffffffffffffffffffffffffffffffffffffffffffffffff90505b808260000160086101000a81548167ffffffffffffffff021916908367ffffffffffffffff1602179055508267ffffffffffffffff167fe183df4530c4b573af76d47f020d4b86e418cef40ed4c9ce924b563e791b832c8360000160009054906101000a900467ffffffffffffffff168460000160089054906101000a900467ffffffffffffffff16604051808367ffffffffffffffff1667ffffffffffffffff1681526020018267ffffffffffffffff1667ffffffffffffffff1681526020019250505060405180910390a2819350505050919050565b6164cb600185858560008087617782565b50505050565b600060608573ffffffffffffffffffffffffffffffffffffffff166323b872dd90507c010000000000000000000000000000000000000000000000000000000002858585604051602401808473ffffffffffffffffffffffffffffffffffffffff1673ffffffffffffffffffffffffffffffffffffffff1681526020018373ffffffffffffffffffffffffffffffffffffffff1673ffffffffffffffffffffffffffffffffffffffff1681526020018281526020019350505050604051602081830303815290604052907bffffffffffffffffffffffffffffffffffffffffffffffffffffffff19166020820180517bffffffffffffffffffffffffffffffffffffffffffffffffffffffff838183161783525050505090506165f48682617ac1565b915050949350505050565b600060608473ffffffffffffffffffffffffffffffffffffffff1663095ea7b390507c0100000000000000000000000000000000000000000000000000000000028484604051602401808373ffffffffffffffffffffffffffffffffffffffff1673ffffffffffffffffffffffffffffffffffffffff16815260200182815260200192505050604051602081830303815290604052907bffffffffffffffffffffffffffffffffffffffffffffffffffffffff19166020820180517bffffffffffffffffffffffffffffffffffffffffffffffffffffffff838183161783525050505090506166ee8582617ac1565b9150509392505050565b6060600660405190808252806020026020018201604052801561672a5781602001602082028038833980820191505090505b5090508673ffffffffffffffffffffffffffffffffffffffff1681600081518110151561675357fe5b90602001906020020181815250508573ffffffffffffffffffffffffffffffffffffffff1681600181518110151561678757fe5b9060200190602002018181525050848160028151811015156167a557fe5b9060200190602002018181525050838160038151811015156167c357fe5b9060200190602002018181525050828160048151811015156167e157fe5b9060200190602002018181525050818160058151811015156167ff57fe5b90602001906020020181815250509695505050505050565b60008060006004600085815260200190815260200160002091508160020160149054906101000a900460ff16156040805190810160405280601881526020017f46494e414e43455f5041594d454e545f494e4143544956450000000000000000815250901515616922576040517f08c379a00000000000000000000000000000000000000000000000000000000081526004018080602001828103825283818151815260200191508051906020019080838360005b838110156168e75780820151818401526020810190506168cc565b50505050905090810190601f1680156169145780820380516001836020036101000a031916815260200191505b509250505060405180910390fd5b50600090505b6169306160cb565b67ffffffffffffffff16616943856171c3565b67ffffffffffffffff1611158015616965575060148167ffffffffffffffff16105b15616ab05761699c8260000160009054906101000a900473ffffffffffffffffffffffffffffffffffffffff1683600301546172f0565b15156169de577f5f352e4123f4620cacbb8eb0dd683705aaa3e1f9384adbbd85b665b205097f51846040518082815260200191505060405180910390a1616ab0565b60018260040160188282829054906101000a900467ffffffffffffffff160192506101000a81548167ffffffffffffffff021916908367ffffffffffffffff160217905550600181019050616aab8260000160009054906101000a900473ffffffffffffffffffffffffffffffffffffffff168360010160009054906101000a900473ffffffffffffffffffffffffffffffffffffffff168460030154878660040160189054906101000a900467ffffffffffffffff166020604051908101604052806000815250617b13565b616928565b8067ffffffffffffffff1692505050919050565b60606002604051908082528060200260200182016040528015616af65781602001602082028038833980820191505090505b50905082816000815181101515616b0957fe5b906020019060200201818152505081816001815181101515616b2757fe5b906020019060200201818152505092915050565b6000616b4682616817565b90506000811415616d2b57616b596160cb565b67ffffffffffffffff16616b6c836171c3565b67ffffffffffffffff16111515616c54576040805190810160405280601b81526020017f46494e414e43455f455845435554455f5041594d454e545f4e554d00000000008152506040517f08c379a00000000000000000000000000000000000000000000000000000000081526004018080602001828103825283818151815260200191508051906020019080838360005b83811015616c19578082015181840152602081019050616bfe565b50505050905090810190601f168015616c465780820380516001836020036101000a031916815260200191505b509250505060405180910390fd5b6040805190810160405280601c81526020017f46494e414e43455f455845435554455f5041594d454e545f54494d45000000008152506040517f08c379a00000000000000000000000000000000000000000000000000000000081526004018080602001828103825283818151815260200191508051906020019080838360005b83811015616cf0578082015181840152602081019050616cd5565b50505050905090810190601f168015616d1d5780820380516001836020036101000a031916815260200191505b509250505060405180910390fd5b5050565b6000616d39614590565b146040805190810160405280601881526020017f494e49545f414c52454144595f494e495449414c495a45440000000000000000815250901515616e18576040517f08c379a00000000000000000000000000000000000000000000000000000000081526004018080602001828103825283818151815260200191508051906020019080838360005b83811015616ddd578082015181840152602081019050616dc2565b50505050905090810190601f168015616e0a5780820380516001836020036101000a031916815260200191505b509250505060405180910390fd5b50616e5a616e246160a2565b7febb05b386a8d34882b8711d156f463690983dc47815980fb82aeeff1aa43579e60010260001916617c3b90919063ffffffff16565b565b600080600073ffffffffffffffffffffffffffffffffffffffff168373ffffffffffffffffffffffffffffffffffffffff161415616e9d5760009150616ea8565b823b90506000811191505b50919050565b6060616ed28573ffffffffffffffffffffffffffffffffffffffff16858585617c42565b9050949350505050565b600081549050919050565b600081549050919050565b600060606000808573ffffffffffffffffffffffffffffffffffffffff166370a0823190507c01000000000000000000000000000000000000000000000000000000000285604051602401808273ffffffffffffffffffffffffffffffffffffffff1673ffffffffffffffffffffffffffffffffffffffff168152602001915050604051602081830303815290604052907bffffffffffffffffffffffffffffffffffffffffffffffffffffffff19166020820180517bffffffffffffffffffffffffffffffffffffffffffffffffffffffff83818316178352505050509250616fdc8684617cf7565b91509150816040805190810160405280601c81526020017f534146455f4552435f32305f42414c414e43455f5245564552544544000000008152509015156170bf576040517f08c379a00000000000000000000000000000000000000000000000000000000081526004018080602001828103825283818151815260200191508051906020019080838360005b83811015617084578082015181840152602081019050617069565b50505050905090810190601f1680156170b15780820380516001836020036101000a031916815260200191505b509250505060405180910390fd5b5080935050505092915050565b6000606063a9059cbb7c0100000000000000000000000000000000000000000000000000000000028484604051602401808373ffffffffffffffffffffffffffffffffffffffff1673ffffffffffffffffffffffffffffffffffffffff16815260200182815260200192505050604051602081830303815290604052907bffffffffffffffffffffffffffffffffffffffffffffffffffffffff19166020820180517bffffffffffffffffffffffffffffffffffffffffffffffffffffffff838183161783525050505090506171a28582617ac1565b9150509392505050565b606060006020835102905082915080825250919050565b6000806000806004600086815260200190815260200160002092508260040160109054906101000a900467ffffffffffffffff1667ffffffffffffffff168360040160189054906101000a900467ffffffffffffffff1667ffffffffffffffff16101515617253577fffffffffffffffffffffffffffffffffffffffffffffffffffffffffffffffff93506172dd565b6172a08360040160089054906101000a900467ffffffffffffffff168460040160189054906101000a900467ffffffffffffffff1667ffffffffffffffff16617d2c90919063ffffffff16565b91506172d7828460040160009054906101000a900467ffffffffffffffff1667ffffffffffffffff166161d790919063ffffffff16565b90508093505b505050919050565b600081549050919050565b6000816172fc84617408565b101580156174005750816000809054906101000a900473ffffffffffffffffffffffffffffffffffffffff1673ffffffffffffffffffffffffffffffffffffffff1663e3d670d7856040518263ffffffff167c0100000000000000000000000000000000000000000000000000000000028152600401808273ffffffffffffffffffffffffffffffffffffffff1673ffffffffffffffffffffffffffffffffffffffff168152602001915050602060405180830381600087803b1580156173c257600080fd5b505af11580156173d6573d6000803e3d6000fd5b505050506040513d60208110156173ec57600080fd5b810190808051906020019092919050505010155b905092915050565b6000806000600160020160008573ffffffffffffffffffffffffffffffffffffffff1673ffffffffffffffffffffffffffffffffffffffff16815260200190815260200160002060009054906101000a900460ff16151561748b577fffffffffffffffffffffffffffffffffffffffffffffffffffffffffffffffff925061755b565b6001800160008573ffffffffffffffffffffffffffffffffffffffff1673ffffffffffffffffffffffffffffffffffffffff168152602001908152602001600020549150600860006174db6160aa565b67ffffffffffffffff1667ffffffffffffffff16815260200190815260200160002060030160008573ffffffffffffffffffffffffffffffffffffffff1673ffffffffffffffffffffffffffffffffffffffff1681526020019081526020016000206000015490508181101515617555576000925061755b565b80820392505b5050919050565b600042905090565b8361757487617408565b10156040805190810160405280601881526020017f46494e414e43455f52454d41494e494e475f4255444745540000000000000000815250901515617654576040517f08c379a00000000000000000000000000000000000000000000000000000000081526004018080602001828103825283818151815260200191508051906020019080838360005b838110156176195780820151818401526020810190506175fe565b50505050905090810190601f1680156176465780820380516001836020036101000a031916815260200191505b509250505060405180910390fd5b50617663868686868686617b13565b505050505050565b60007fffffffffffffffffffffffffffffffffffffffffffffffffffffffffffffffff67ffffffffffffffff168211156040805190810160405280601581526020017f55494e5436345f4e554d4245525f544f4f5f4249470000000000000000000000815250901515617779576040517f08c379a00000000000000000000000000000000000000000000000000000000081526004018080602001828103825283818151815260200191508051906020019080838360005b8381101561773e578082015181840152602081019050617723565b50505050905090810190601f16801561776b5780820380516001836020036101000a031916815260200191505b509250505060405180910390fd5b50819050919050565b60008060008060006177926160aa565b9450600860008667ffffffffffffffff1667ffffffffffffffff16815260200190815260200160002060030160008c73ffffffffffffffffffffffffffffffffffffffff1673ffffffffffffffffffffffffffffffffffffffff16815260200190815260200160002093508b156178275761781a898560010154617e3d90919063ffffffff16565b8460010181905550617847565b61783e898560000154617e3d90919063ffffffff16565b84600001819055505b600760008154809291906001019190505592506006600084815260200190815260200160002091508a8260000160006101000a81548173ffffffffffffffffffffffffffffffffffffffff021916908373ffffffffffffffffffffffffffffffffffffffff160217905550898260010160006101000a81548173ffffffffffffffffffffffffffffffffffffffff021916908373ffffffffffffffffffffffffffffffffffffffff1602179055508b8260010160146101000a81548160ff021916908315150217905550888260020181905550878260030181905550868260040160006101000a81548167ffffffffffffffff021916908367ffffffffffffffff1602179055506179566160cb565b8260040160086101000a81548167ffffffffffffffff021916908367ffffffffffffffff160217905550848260040160106101000a81548167ffffffffffffffff021916908367ffffffffffffffff160217905550600860008667ffffffffffffffff1667ffffffffffffffff16815260200190815260200160002090506000816001015414156179eb578281600101819055505b8973ffffffffffffffffffffffffffffffffffffffff16837f5b2c6f4cb53711ae51d600df17fa68f8239b4a704f766c99642f667d1d7bd40e8e8c8a604051808415151515815260200183815260200180602001828103825283818151815260200191508051906020019080838360005b83811015617a77578082015181840152602081019050617a5c565b50505050905090810190601f168015617aa45780820380516001836020036101000a031916815260200191505b5094505050505060405180910390a3505050505050505050505050565b6000806040516020818551602087016000895af16000811115617b07573d60008114617af45760208114617afd57617b05565b60019350617b05565b600183511493505b505b50508091505092915050565b617b236000878787878787617782565b6000809054906101000a900473ffffffffffffffffffffffffffffffffffffffff1673ffffffffffffffffffffffffffffffffffffffff1663beabacc88787876040518463ffffffff167c0100000000000000000000000000000000000000000000000000000000028152600401808473ffffffffffffffffffffffffffffffffffffffff1673ffffffffffffffffffffffffffffffffffffffff1681526020018373ffffffffffffffffffffffffffffffffffffffff1673ffffffffffffffffffffffffffffffffffffffff1681526020018281526020019350505050600060405180830381600087803b158015617c1b57600080fd5b505af1158015617c2f573d6000803e3d6000fd5b50505050505050505050565b8082555050565b60606004604051908082528060200260200182016040528015617c745781602001602082028038833980820191505090505b50905084816000815181101515617c8757fe5b906020019060200201818152505083816001815181101515617ca557fe5b906020019060200201818152505082816002815181101515617cc357fe5b906020019060200201818152505081816003815181101515617ce157fe5b9060200190602002018181525050949350505050565b6000806000806040516020818751602089018a5afa92506000831115617d1c57805191505b5081819350935050509250929050565b6000808267ffffffffffffffff168467ffffffffffffffff160290506801000000000000000081106040805190810160405280601381526020017f4d41544836345f4d554c5f4f564552464c4f5700000000000000000000000000815250901515617e32576040517f08c379a00000000000000000000000000000000000000000000000000000000081526004018080602001828103825283818151815260200191508051906020019080838360005b83811015617df7578082015181840152602081019050617ddc565b50505050905090810190601f168015617e245780820380516001836020036101000a031916815260200191505b509250505060405180910390fd5b508091505092915050565b6000808284019050838110156040805190810160405280601181526020017f4d4154485f4144445f4f564552464c4f57000000000000000000000000000000815250901515617f27576040517f08c379a00000000000000000000000000000000000000000000000000000000081526004018080602001828103825283818151815260200191508051906020019080838360005b83811015617eec578082015181840152602081019050617ed1565b50505050905090810190601f168015617f195780820380516001836020036101000a031916815260200191505b509250505060405180910390fd5b5080915050929150505600a165627a7a72305820270783a9b6657d73519fc615d7f68a050653105fa9aa0f78a6bf3a82c3a97a130029",
  "source": "/*\n * SPDX-License-Identitifer:    GPL-3.0-or-later\n */\n\npragma solidity 0.4.24;\n\nimport \"@aragon/os/contracts/apps/AragonApp.sol\";\nimport \"@aragon/os/contracts/common/EtherTokenConstant.sol\";\nimport \"@aragon/os/contracts/common/IsContract.sol\";\nimport \"@aragon/os/contracts/common/SafeERC20.sol\";\n\nimport \"@aragon/os/contracts/lib/token/ERC20.sol\";\nimport \"@aragon/os/contracts/lib/math/SafeMath.sol\";\nimport \"@aragon/os/contracts/lib/math/SafeMath64.sol\";\n\nimport \"@aragon/apps-vault/contracts/Vault.sol\";\n\n\ncontract Finance is EtherTokenConstant, IsContract, AragonApp {\n    using SafeMath for uint256;\n    using SafeMath64 for uint64;\n    using SafeERC20 for ERC20;\n\n    bytes32 public constant CREATE_PAYMENTS_ROLE = keccak256(\"CREATE_PAYMENTS_ROLE\");\n    bytes32 public constant CHANGE_PERIOD_ROLE = keccak256(\"CHANGE_PERIOD_ROLE\");\n    bytes32 public constant CHANGE_BUDGETS_ROLE = keccak256(\"CHANGE_BUDGETS_ROLE\");\n    bytes32 public constant EXECUTE_PAYMENTS_ROLE = keccak256(\"EXECUTE_PAYMENTS_ROLE\");\n    bytes32 public constant MANAGE_PAYMENTS_ROLE = keccak256(\"MANAGE_PAYMENTS_ROLE\");\n\n    uint256 internal constant NO_SCHEDULED_PAYMENT = 0;\n    uint256 internal constant NO_TRANSACTION = 0;\n    uint256 internal constant MAX_SCHEDULED_PAYMENTS_PER_TX = 20;\n    uint256 internal constant MAX_UINT256 = uint256(-1);\n    uint64 internal constant MAX_UINT64 = uint64(-1);\n    uint64 internal constant MINIMUM_PERIOD = uint64(1 days);\n\n    string private constant ERROR_COMPLETE_TRANSITION = \"FINANCE_COMPLETE_TRANSITION\";\n    string private constant ERROR_NO_SCHEDULED_PAYMENT = \"FINANCE_NO_SCHEDULED_PAYMENT\";\n    string private constant ERROR_NO_TRANSACTION = \"FINANCE_NO_TRANSACTION\";\n    string private constant ERROR_NO_PERIOD = \"FINANCE_NO_PERIOD\";\n    string private constant ERROR_VAULT_NOT_CONTRACT = \"FINANCE_VAULT_NOT_CONTRACT\";\n    string private constant ERROR_SET_PERIOD_TOO_SHORT = \"FINANCE_SET_PERIOD_TOO_SHORT\";\n    string private constant ERROR_NEW_PAYMENT_AMOUNT_ZERO = \"FINANCE_NEW_PAYMENT_AMOUNT_ZERO\";\n    string private constant ERROR_NEW_PAYMENT_INTERVAL_ZERO = \"FINANCE_NEW_PAYMENT_INTRVL_ZERO\";\n    string private constant ERROR_NEW_PAYMENT_EXECS_ZERO = \"FINANCE_NEW_PAYMENT_EXECS_ZERO\";\n    string private constant ERROR_NEW_PAYMENT_IMMEDIATE = \"FINANCE_NEW_PAYMENT_IMMEDIATE\";\n    string private constant ERROR_RECOVER_AMOUNT_ZERO = \"FINANCE_RECOVER_AMOUNT_ZERO\";\n    string private constant ERROR_DEPOSIT_AMOUNT_ZERO = \"FINANCE_DEPOSIT_AMOUNT_ZERO\";\n    string private constant ERROR_ETH_VALUE_MISMATCH = \"FINANCE_ETH_VALUE_MISMATCH\";\n    string private constant ERROR_BUDGET = \"FINANCE_BUDGET\";\n    string private constant ERROR_EXECUTE_PAYMENT_NUM = \"FINANCE_EXECUTE_PAYMENT_NUM\";\n    string private constant ERROR_EXECUTE_PAYMENT_TIME = \"FINANCE_EXECUTE_PAYMENT_TIME\";\n    string private constant ERROR_PAYMENT_RECEIVER = \"FINANCE_PAYMENT_RECEIVER\";\n    string private constant ERROR_TOKEN_TRANSFER_FROM_REVERTED = \"FINANCE_TKN_TRANSFER_FROM_REVERT\";\n    string private constant ERROR_TOKEN_APPROVE_FAILED = \"FINANCE_TKN_APPROVE_FAILED\";\n    string private constant ERROR_PAYMENT_INACTIVE = \"FINANCE_PAYMENT_INACTIVE\";\n    string private constant ERROR_REMAINING_BUDGET = \"FINANCE_REMAINING_BUDGET\";\n\n    // Order optimized for storage\n    struct ScheduledPayment {\n        address token;\n        address receiver;\n        address createdBy;\n        bool inactive;\n        uint256 amount;\n        uint64 initialPaymentTime;\n        uint64 interval;\n        uint64 maxExecutions;\n        uint64 executions;\n    }\n\n    // Order optimized for storage\n    struct Transaction {\n        address token;\n        address entity;\n        bool isIncoming;\n        uint256 amount;\n        uint256 paymentId;\n        uint64 paymentExecutionNumber;\n        uint64 date;\n        uint64 periodId;\n    }\n\n    struct TokenStatement {\n        uint256 expenses;\n        uint256 income;\n    }\n\n    struct Period {\n        uint64 startTime;\n        uint64 endTime;\n        uint256 firstTransactionId;\n        uint256 lastTransactionId;\n        mapping (address => TokenStatement) tokenStatement;\n    }\n\n    struct Settings {\n        uint64 periodDuration;\n        mapping (address => uint256) budgets;\n        mapping (address => bool) hasBudget;\n    }\n\n    Vault public vault;\n    Settings internal settings;\n\n    // We are mimicing arrays, we use mappings instead to make app upgrade more graceful\n    mapping (uint256 => ScheduledPayment) internal scheduledPayments;\n    // Payments start at index 1, to allow us to use scheduledPayments[0] for transactions that are not\n    // linked to a scheduled payment\n    uint256 public paymentsNextIndex;\n\n    mapping (uint256 => Transaction) internal transactions;\n    uint256 public transactionsNextIndex;\n\n    mapping (uint64 => Period) internal periods;\n    uint64 public periodsLength;\n\n    event NewPeriod(uint64 indexed periodId, uint64 periodStarts, uint64 periodEnds);\n    event SetBudget(address indexed token, uint256 amount, bool hasBudget);\n    event NewPayment(uint256 indexed paymentId, address indexed recipient, uint64 maxExecutions, string reference);\n    event NewTransaction(uint256 indexed transactionId, bool incoming, address indexed entity, uint256 amount, string reference);\n    event ChangePaymentState(uint256 indexed paymentId, bool active);\n    event ChangePeriodDuration(uint64 newDuration);\n    event PaymentFailure(uint256 paymentId);\n\n    // Modifier used by all methods that impact accounting to make sure accounting period\n    // is changed before the operation if needed\n    // NOTE: its use **MUST** be accompanied by an initialization check\n    modifier transitionsPeriod {\n        bool completeTransition = _tryTransitionAccountingPeriod(getMaxPeriodTransitions());\n        require(completeTransition, ERROR_COMPLETE_TRANSITION);\n        _;\n    }\n\n    modifier scheduledPaymentExists(uint256 _paymentId) {\n        require(_paymentId > 0 && _paymentId < paymentsNextIndex, ERROR_NO_SCHEDULED_PAYMENT);\n        _;\n    }\n\n    modifier transactionExists(uint256 _transactionId) {\n        require(_transactionId > 0 && _transactionId < transactionsNextIndex, ERROR_NO_TRANSACTION);\n        _;\n    }\n\n    modifier periodExists(uint64 _periodId) {\n        require(_periodId < periodsLength, ERROR_NO_PERIOD);\n        _;\n    }\n\n    /**\n     * @notice Deposit ETH to the Vault, to avoid locking them in this Finance app forever\n     * @dev Send ETH to Vault. Send all the available balance.\n     */\n    function () external payable isInitialized transitionsPeriod {\n        require(msg.value > 0, ERROR_DEPOSIT_AMOUNT_ZERO);\n        _deposit(\n            ETH,\n            msg.value,\n            \"Ether transfer to Finance app\",\n            msg.sender,\n            true\n        );\n    }\n\n    /**\n    * @notice Initialize Finance app for Vault at `_vault` with period length of `@transformTime(_periodDuration)`\n    * @param _vault Address of the vault Finance will rely on (non changeable)\n    * @param _periodDuration Duration in seconds of each period\n    */\n    function initialize(Vault _vault, uint64 _periodDuration) external onlyInit {\n        initialized();\n\n        require(isContract(_vault), ERROR_VAULT_NOT_CONTRACT);\n        vault = _vault;\n\n        require(_periodDuration >= MINIMUM_PERIOD, ERROR_SET_PERIOD_TOO_SHORT);\n        settings.periodDuration = _periodDuration;\n\n        // Reserve the first scheduled payment index as an unused index for transactions not linked\n        // to a scheduled payment\n        scheduledPayments[0].inactive = true;\n        paymentsNextIndex = 1;\n\n        // Reserve the first transaction index as an unused index for periods with no transactions\n        transactionsNextIndex = 1;\n\n        // Start the first period\n        _newPeriod(getTimestamp64());\n    }\n\n    /**\n    * @notice Deposit `@tokenAmount(_token, _amount)`\n    * @dev Deposit for approved ERC20 tokens or ETH\n    * @param _token Address of deposited token\n    * @param _amount Amount of tokens sent\n    * @param _reference Reason for payment\n    */\n    function deposit(address _token, uint256 _amount, string _reference) external payable isInitialized transitionsPeriod {\n        require(_amount > 0, ERROR_DEPOSIT_AMOUNT_ZERO);\n        if (_token == ETH) {\n            // Ensure that the ETH sent with the transaction equals the amount in the deposit\n            require(msg.value == _amount, ERROR_ETH_VALUE_MISMATCH);\n        }\n\n        _deposit(\n            _token,\n            _amount,\n            _reference,\n            msg.sender,\n            true\n        );\n    }\n\n    /**\n    * @notice Create a new payment of `@tokenAmount(_token, _amount)` to `_receiver` for '`_reference`'\n    * @dev Note that this function is protected by the `CREATE_PAYMENTS_ROLE` but uses `MAX_UINT256`\n    *      as its interval auth parameter (as a sentinel value for \"never repeating\").\n    *      While this protects against most cases (you typically want to set a baseline requirement\n    *      for interval time), it does mean users will have to explicitly check for this case when\n    *      granting a permission that includes a upperbound requirement on the interval time.\n    * @param _token Address of token for payment\n    * @param _receiver Address that will receive payment\n    * @param _amount Tokens that are paid every time the payment is due\n    * @param _reference String detailing payment reason\n    */\n    function newImmediatePayment(address _token, address _receiver, uint256 _amount, string _reference)\n        external\n        // Use MAX_UINT256 as the interval parameter, as this payment will never repeat\n        // Payment time parameter is left as the last param as it was added later\n        authP(CREATE_PAYMENTS_ROLE, _arr(_token, _receiver, _amount, MAX_UINT256, uint256(1), getTimestamp()))\n        transitionsPeriod\n    {\n        require(_amount > 0, ERROR_NEW_PAYMENT_AMOUNT_ZERO);\n\n        _makePaymentTransaction(\n            _token,\n            _receiver,\n            _amount,\n            NO_SCHEDULED_PAYMENT,   // unrelated to any payment id; it isn't created\n            0,   // also unrelated to any payment executions\n            _reference\n        );\n    }\n\n    /**\n    * @notice Create a new payment of `@tokenAmount(_token, _amount)` to `_receiver` for `_reference`, executing `_maxExecutions` times at intervals of `@transformTime(_interval)`\n    * @dev See `newImmediatePayment()` for limitations on how the interval auth parameter can be used\n    * @param _token Address of token for payment\n    * @param _receiver Address that will receive payment\n    * @param _amount Tokens that are paid every time the payment is due\n    * @param _initialPaymentTime Timestamp for when the first payment is done\n    * @param _interval Number of seconds that need to pass between payment transactions\n    * @param _maxExecutions Maximum instances a payment can be executed\n    * @param _reference String detailing payment reason\n    */\n    function newScheduledPayment(\n        address _token,\n        address _receiver,\n        uint256 _amount,\n        uint64 _initialPaymentTime,\n        uint64 _interval,\n        uint64 _maxExecutions,\n        string _reference\n    )\n        external\n        // Payment time parameter is left as the last param as it was added later\n        authP(CREATE_PAYMENTS_ROLE, _arr(_token, _receiver, _amount, uint256(_interval), uint256(_maxExecutions), uint256(_initialPaymentTime)))\n        transitionsPeriod\n        returns (uint256 paymentId)\n    {\n        require(_amount > 0, ERROR_NEW_PAYMENT_AMOUNT_ZERO);\n        require(_interval > 0, ERROR_NEW_PAYMENT_INTERVAL_ZERO);\n        require(_maxExecutions > 0, ERROR_NEW_PAYMENT_EXECS_ZERO);\n\n        // Token budget must not be set at all or allow at least one instance of this payment each period\n        require(!settings.hasBudget[_token] || settings.budgets[_token] >= _amount, ERROR_BUDGET);\n\n        // Don't allow creating single payments that are immediately executable, use `newImmediatePayment()` instead\n        if (_maxExecutions == 1) {\n            require(_initialPaymentTime > getTimestamp64(), ERROR_NEW_PAYMENT_IMMEDIATE);\n        }\n\n        paymentId = paymentsNextIndex++;\n        emit NewPayment(paymentId, _receiver, _maxExecutions, _reference);\n\n        ScheduledPayment storage payment = scheduledPayments[paymentId];\n        payment.token = _token;\n        payment.receiver = _receiver;\n        payment.amount = _amount;\n        payment.initialPaymentTime = _initialPaymentTime;\n        payment.interval = _interval;\n        payment.maxExecutions = _maxExecutions;\n        payment.createdBy = msg.sender;\n\n        // We skip checking how many times the new payment was executed to allow creating new\n        // scheduled payments before having enough vault balance\n        _executePayment(paymentId);\n    }\n\n    /**\n    * @notice Change period duration to `@transformTime(_periodDuration)`, effective for next accounting period\n    * @param _periodDuration Duration in seconds for accounting periods\n    */\n    function setPeriodDuration(uint64 _periodDuration)\n        external\n        authP(CHANGE_PERIOD_ROLE, arr(uint256(_periodDuration), uint256(settings.periodDuration)))\n        transitionsPeriod\n    {\n        require(_periodDuration >= MINIMUM_PERIOD, ERROR_SET_PERIOD_TOO_SHORT);\n        settings.periodDuration = _periodDuration;\n        emit ChangePeriodDuration(_periodDuration);\n    }\n\n    /**\n    * @notice Set budget for `_token.symbol(): string` to `@tokenAmount(_token, _amount, false)`, effective immediately\n    * @param _token Address for token\n    * @param _amount New budget amount\n    */\n    function setBudget(\n        address _token,\n        uint256 _amount\n    )\n        external\n        authP(CHANGE_BUDGETS_ROLE, arr(_token, _amount, settings.budgets[_token], uint256(settings.hasBudget[_token] ? 1 : 0)))\n        transitionsPeriod\n    {\n        settings.budgets[_token] = _amount;\n        if (!settings.hasBudget[_token]) {\n            settings.hasBudget[_token] = true;\n        }\n        emit SetBudget(_token, _amount, true);\n    }\n\n    /**\n    * @notice Remove spending limit for `_token.symbol(): string`, effective immediately\n    * @param _token Address for token\n    */\n    function removeBudget(address _token)\n        external\n        authP(CHANGE_BUDGETS_ROLE, arr(_token, uint256(0), settings.budgets[_token], uint256(settings.hasBudget[_token] ? 1 : 0)))\n        transitionsPeriod\n    {\n        settings.budgets[_token] = 0;\n        settings.hasBudget[_token] = false;\n        emit SetBudget(_token, 0, false);\n    }\n\n    /**\n    * @notice Execute pending payment #`_paymentId`\n    * @dev Executes any payment (requires role)\n    * @param _paymentId Identifier for payment\n    */\n    function executePayment(uint256 _paymentId)\n        external\n        authP(EXECUTE_PAYMENTS_ROLE, arr(_paymentId, scheduledPayments[_paymentId].amount))\n        scheduledPaymentExists(_paymentId)\n        transitionsPeriod\n    {\n        _executePaymentAtLeastOnce(_paymentId);\n    }\n\n    /**\n    * @notice Execute pending payment #`_paymentId`\n    * @dev Always allow receiver of a payment to trigger execution\n    *      Initialization check is implicitly provided by `scheduledPaymentExists()` as new\n    *      scheduled payments can only be created via `newScheduledPayment(),` which requires initialization\n    * @param _paymentId Identifier for payment\n    */\n    function receiverExecutePayment(uint256 _paymentId) external scheduledPaymentExists(_paymentId) transitionsPeriod {\n        require(scheduledPayments[_paymentId].receiver == msg.sender, ERROR_PAYMENT_RECEIVER);\n        _executePaymentAtLeastOnce(_paymentId);\n    }\n\n    /**\n    * @notice `_active ? 'Activate' : 'Disable'` payment #`_paymentId`\n    * @dev Note that we do not require this action to transition periods, as it doesn't directly\n    *      impact any accounting periods.\n    *      Not having to transition periods also makes disabling payments easier to prevent funds\n    *      from being pulled out in the event of a breach.\n    * @param _paymentId Identifier for payment\n    * @param _active Whether it will be active or inactive\n    */\n    function setPaymentStatus(uint256 _paymentId, bool _active)\n        external\n        authP(MANAGE_PAYMENTS_ROLE, arr(_paymentId, uint256(_active ? 1 : 0)))\n        scheduledPaymentExists(_paymentId)\n    {\n        scheduledPayments[_paymentId].inactive = !_active;\n        emit ChangePaymentState(_paymentId, _active);\n    }\n\n    /**\n     * @notice Send tokens held in this contract to the Vault\n     * @dev Allows making a simple payment from this contract to the Vault, to avoid locked tokens.\n     *      This contract should never receive tokens with a simple transfer call, but in case it\n     *      happens, this function allows for their recovery.\n     * @param _token Token whose balance is going to be transferred.\n     */\n    function recoverToVault(address _token) external isInitialized transitionsPeriod {\n        uint256 amount = _token == ETH ? address(this).balance : ERC20(_token).staticBalanceOf(address(this));\n        require(amount > 0, ERROR_RECOVER_AMOUNT_ZERO);\n\n        _deposit(\n            _token,\n            amount,\n            \"Recover to Vault\",\n            address(this),\n            false\n        );\n    }\n\n    /**\n    * @notice Transition accounting period if needed\n    * @dev Transitions accounting periods if needed. For preventing OOG attacks, a maxTransitions\n    *      param is provided. If more than the specified number of periods need to be transitioned,\n    *      it will return false.\n    * @param _maxTransitions Maximum periods that can be transitioned\n    * @return success Boolean indicating whether the accounting period is the correct one (if false,\n    *                 maxTransitions was surpased and another call is needed)\n    */\n    function tryTransitionAccountingPeriod(uint64 _maxTransitions) external isInitialized returns (bool success) {\n        return _tryTransitionAccountingPeriod(_maxTransitions);\n    }\n\n    // Getter fns\n\n    /**\n    * @dev Disable recovery escape hatch if the app has been initialized, as it could be used\n    *      maliciously to transfer funds in the Finance app to another Vault\n    *      finance#recoverToVault() should be used to recover funds to the Finance's vault\n    */\n    function allowRecoverability(address) public view returns (bool) {\n        return !hasInitialized();\n    }\n\n    function getPayment(uint256 _paymentId)\n        public\n        view\n        scheduledPaymentExists(_paymentId)\n        returns (\n            address token,\n            address receiver,\n            uint256 amount,\n            uint64 initialPaymentTime,\n            uint64 interval,\n            uint64 maxExecutions,\n            bool inactive,\n            uint64 executions,\n            address createdBy\n        )\n    {\n        ScheduledPayment storage payment = scheduledPayments[_paymentId];\n\n        token = payment.token;\n        receiver = payment.receiver;\n        amount = payment.amount;\n        initialPaymentTime = payment.initialPaymentTime;\n        interval = payment.interval;\n        maxExecutions = payment.maxExecutions;\n        executions = payment.executions;\n        inactive = payment.inactive;\n        createdBy = payment.createdBy;\n    }\n\n    function getTransaction(uint256 _transactionId)\n        public\n        view\n        transactionExists(_transactionId)\n        returns (\n            uint64 periodId,\n            uint256 amount,\n            uint256 paymentId,\n            uint64 paymentExecutionNumber,\n            address token,\n            address entity,\n            bool isIncoming,\n            uint64 date\n        )\n    {\n        Transaction storage transaction = transactions[_transactionId];\n\n        token = transaction.token;\n        entity = transaction.entity;\n        isIncoming = transaction.isIncoming;\n        date = transaction.date;\n        periodId = transaction.periodId;\n        amount = transaction.amount;\n        paymentId = transaction.paymentId;\n        paymentExecutionNumber = transaction.paymentExecutionNumber;\n    }\n\n    function getPeriod(uint64 _periodId)\n        public\n        view\n        periodExists(_periodId)\n        returns (\n            bool isCurrent,\n            uint64 startTime,\n            uint64 endTime,\n            uint256 firstTransactionId,\n            uint256 lastTransactionId\n        )\n    {\n        Period storage period = periods[_periodId];\n\n        isCurrent = _currentPeriodId() == _periodId;\n\n        startTime = period.startTime;\n        endTime = period.endTime;\n        firstTransactionId = period.firstTransactionId;\n        lastTransactionId = period.lastTransactionId;\n    }\n\n    function getPeriodTokenStatement(uint64 _periodId, address _token)\n        public\n        view\n        periodExists(_periodId)\n        returns (uint256 expenses, uint256 income)\n    {\n        TokenStatement storage tokenStatement = periods[_periodId].tokenStatement[_token];\n        expenses = tokenStatement.expenses;\n        income = tokenStatement.income;\n    }\n\n    /**\n    * @dev We have to check for initialization as periods are only valid after initializing\n    */\n    function currentPeriodId() public view isInitialized returns (uint64) {\n        return _currentPeriodId();\n    }\n\n    /**\n    * @dev We have to check for initialization as periods are only valid after initializing\n    */\n    function getPeriodDuration() public view isInitialized returns (uint64) {\n        return settings.periodDuration;\n    }\n\n    /**\n    * @dev We have to check for initialization as budgets are only valid after initializing\n    */\n    function getBudget(address _token) public view isInitialized returns (uint256 budget, bool hasBudget) {\n        budget = settings.budgets[_token];\n        hasBudget = settings.hasBudget[_token];\n    }\n\n    /**\n    * @dev We have to check for initialization as budgets are only valid after initializing\n    */\n    function getRemainingBudget(address _token) public view isInitialized returns (uint256) {\n        return _getRemainingBudget(_token);\n    }\n\n    /**\n    * @dev We have to check for initialization as budgets are only valid after initializing\n    */\n    function canMakePayment(address _token, uint256 _amount) public view isInitialized returns (bool) {\n        return _canMakePayment(_token, _amount);\n    }\n\n    /**\n    * @dev Initialization check is implicitly provided by `scheduledPaymentExists()` as new\n    *      scheduled payments can only be created via `newScheduledPayment(),` which requires initialization\n    */\n    function nextPaymentTime(uint256 _paymentId) public view scheduledPaymentExists(_paymentId) returns (uint64) {\n        return _nextPaymentTime(_paymentId);\n    }\n\n    // Internal fns\n\n    function _deposit(address _token, uint256 _amount, string _reference, address _sender, bool _isExternalDeposit) internal {\n        _recordIncomingTransaction(\n            _token,\n            _sender,\n            _amount,\n            _reference\n        );\n\n        if (_token == ETH) {\n            vault.deposit.value(_amount)(ETH, _amount);\n        } else {\n            // First, transfer the tokens to Finance if necessary\n            // External deposit will be false when the assets were already in the Finance app\n            // and just need to be transferred to the Vault\n            if (_isExternalDeposit) {\n                // This assumes the sender has approved the tokens for Finance\n                require(\n                    ERC20(_token).safeTransferFrom(msg.sender, address(this), _amount),\n                    ERROR_TOKEN_TRANSFER_FROM_REVERTED\n                );\n            }\n            // Approve the tokens for the Vault (it does the actual transferring)\n            require(ERC20(_token).safeApprove(vault, _amount), ERROR_TOKEN_APPROVE_FAILED);\n            // Finally, initiate the deposit\n            vault.deposit(_token, _amount);\n        }\n    }\n\n    function _executePayment(uint256 _paymentId) internal returns (uint256) {\n        ScheduledPayment storage payment = scheduledPayments[_paymentId];\n        require(!payment.inactive, ERROR_PAYMENT_INACTIVE);\n\n        uint64 paid = 0;\n        while (_nextPaymentTime(_paymentId) <= getTimestamp64() && paid < MAX_SCHEDULED_PAYMENTS_PER_TX) {\n            if (!_canMakePayment(payment.token, payment.amount)) {\n                emit PaymentFailure(_paymentId);\n                break;\n            }\n\n            // The while() predicate prevents these two from ever overflowing\n            payment.executions += 1;\n            paid += 1;\n\n            // We've already checked the remaining budget with `_canMakePayment()`\n            _unsafeMakePaymentTransaction(\n                payment.token,\n                payment.receiver,\n                payment.amount,\n                _paymentId,\n                payment.executions,\n                \"\"\n            );\n        }\n\n        return paid;\n    }\n\n    function _executePaymentAtLeastOnce(uint256 _paymentId) internal {\n        uint256 paid = _executePayment(_paymentId);\n        if (paid == 0) {\n            if (_nextPaymentTime(_paymentId) <= getTimestamp64()) {\n                revert(ERROR_EXECUTE_PAYMENT_NUM);\n            } else {\n                revert(ERROR_EXECUTE_PAYMENT_TIME);\n            }\n        }\n    }\n\n    function _makePaymentTransaction(\n        address _token,\n        address _receiver,\n        uint256 _amount,\n        uint256 _paymentId,\n        uint64 _paymentExecutionNumber,\n        string _reference\n    )\n        internal\n    {\n        require(_getRemainingBudget(_token) >= _amount, ERROR_REMAINING_BUDGET);\n        _unsafeMakePaymentTransaction(_token, _receiver, _amount, _paymentId, _paymentExecutionNumber, _reference);\n    }\n\n    /**\n    * @dev Unsafe version of _makePaymentTransaction that assumes you have already checked the\n    *      remaining budget\n    */\n    function _unsafeMakePaymentTransaction(\n        address _token,\n        address _receiver,\n        uint256 _amount,\n        uint256 _paymentId,\n        uint64 _paymentExecutionNumber,\n        string _reference\n    )\n        internal\n    {\n        _recordTransaction(\n            false,\n            _token,\n            _receiver,\n            _amount,\n            _paymentId,\n            _paymentExecutionNumber,\n            _reference\n        );\n\n        vault.transfer(_token, _receiver, _amount);\n    }\n\n    function _newPeriod(uint64 _startTime) internal returns (Period storage) {\n        // There should be no way for this to overflow since each period is at least one day\n        uint64 newPeriodId = periodsLength++;\n\n        Period storage period = periods[newPeriodId];\n        period.startTime = _startTime;\n\n        // Be careful here to not overflow; if startTime + periodDuration overflows, we set endTime\n        // to MAX_UINT64 (let's assume that's the end of time for now).\n        uint64 endTime = _startTime + settings.periodDuration - 1;\n        if (endTime < _startTime) { // overflowed\n            endTime = MAX_UINT64;\n        }\n        period.endTime = endTime;\n\n        emit NewPeriod(newPeriodId, period.startTime, period.endTime);\n\n        return period;\n    }\n\n    function _recordIncomingTransaction(\n        address _token,\n        address _sender,\n        uint256 _amount,\n        string _reference\n    )\n        internal\n    {\n        _recordTransaction(\n            true, // incoming transaction\n            _token,\n            _sender,\n            _amount,\n            NO_SCHEDULED_PAYMENT, // unrelated to any existing payment\n            0, // and no payment executions\n            _reference\n        );\n    }\n\n    function _recordTransaction(\n        bool _incoming,\n        address _token,\n        address _entity,\n        uint256 _amount,\n        uint256 _paymentId,\n        uint64 _paymentExecutionNumber,\n        string _reference\n    )\n        internal\n    {\n        uint64 periodId = _currentPeriodId();\n        TokenStatement storage tokenStatement = periods[periodId].tokenStatement[_token];\n        if (_incoming) {\n            tokenStatement.income = tokenStatement.income.add(_amount);\n        } else {\n            tokenStatement.expenses = tokenStatement.expenses.add(_amount);\n        }\n\n        uint256 transactionId = transactionsNextIndex++;\n\n        Transaction storage transaction = transactions[transactionId];\n        transaction.token = _token;\n        transaction.entity = _entity;\n        transaction.isIncoming = _incoming;\n        transaction.amount = _amount;\n        transaction.paymentId = _paymentId;\n        transaction.paymentExecutionNumber = _paymentExecutionNumber;\n        transaction.date = getTimestamp64();\n        transaction.periodId = periodId;\n\n        Period storage period = periods[periodId];\n        if (period.firstTransactionId == NO_TRANSACTION) {\n            period.firstTransactionId = transactionId;\n        }\n\n        emit NewTransaction(transactionId, _incoming, _entity, _amount, _reference);\n    }\n\n    function _tryTransitionAccountingPeriod(uint64 _maxTransitions) internal returns (bool success) {\n        Period storage currentPeriod = periods[_currentPeriodId()];\n        uint64 timestamp = getTimestamp64();\n\n        // Transition periods if necessary\n        while (timestamp > currentPeriod.endTime) {\n            if (_maxTransitions == 0) {\n                // Required number of transitions is over allowed number, return false indicating\n                // it didn't fully transition\n                return false;\n            }\n            // We're already protected from underflowing above\n            _maxTransitions -= 1;\n\n            // If there were any transactions in period, record which was the last\n            // In case 0 transactions occured, first and last tx id will be 0\n            if (currentPeriod.firstTransactionId != NO_TRANSACTION) {\n                currentPeriod.lastTransactionId = transactionsNextIndex.sub(1);\n            }\n\n            // New period starts at end time + 1\n            currentPeriod = _newPeriod(currentPeriod.endTime.add(1));\n        }\n\n        return true;\n    }\n\n    function _canMakePayment(address _token, uint256 _amount) internal view returns (bool) {\n        return _getRemainingBudget(_token) >= _amount && vault.balance(_token) >= _amount;\n    }\n\n    function _currentPeriodId() internal view returns (uint64) {\n        // There is no way for this to overflow if protected by an initialization check\n        return periodsLength - 1;\n    }\n\n    function _getRemainingBudget(address _token) internal view returns (uint256) {\n        if (!settings.hasBudget[_token]) {\n            return MAX_UINT256;\n        }\n\n        uint256 budget = settings.budgets[_token];\n        uint256 spent = periods[_currentPeriodId()].tokenStatement[_token].expenses;\n\n        // A budget decrease can cause the spent amount to be greater than period budget\n        // If so, return 0 to not allow more spending during period\n        if (spent >= budget) {\n            return 0;\n        }\n\n        // We're already protected from the overflow above\n        return budget - spent;\n    }\n\n    function _nextPaymentTime(uint256 _paymentId) internal view returns (uint64) {\n        ScheduledPayment storage payment = scheduledPayments[_paymentId];\n\n        if (payment.executions >= payment.maxExecutions) {\n            return MAX_UINT64; // re-executes in some billions of years time... should not need to worry\n        }\n\n        // Split in multiple lines to circumvent linter warning\n        uint64 increase = payment.executions.mul(payment.interval);\n        uint64 nextPayment = payment.initialPaymentTime.add(increase);\n        return nextPayment;\n    }\n\n    // Syntax sugar\n\n    function _arr(address _a, address _b, uint256 _c, uint256 _d, uint256 _e, uint256 _f) internal pure returns (uint256[] r) {\n        r = new uint256[](6);\n        r[0] = uint256(_a);\n        r[1] = uint256(_b);\n        r[2] = _c;\n        r[3] = _d;\n        r[4] = _e;\n        r[5] = _f;\n    }\n\n    // Mocked fns (overrided during testing)\n    // Must be view for mocking purposes\n\n    function getMaxPeriodTransitions() internal view returns (uint64) { return MAX_UINT64; }\n}\n",
  "sourcePath": "@aragon/apps-finance/contracts/Finance.sol",
  "compiler": {
    "name": "solc",
    "version": "0.4.24+commit.e67f0147.Emscripten.clang"
  },
  "schemaVersion": "2.0.1",
  "updatedAt": "2019-04-23T00:32:27.846Z"
}