{
  "contractName": "MyBitTemplate",
  "abi": [
    {
      "constant": true,
      "inputs": [],
      "name": "ens",
      "outputs": [
        {
          "name": "",
          "type": "address"
        }
      ],
      "payable": false,
      "stateMutability": "view",
      "type": "function"
    },
    {
      "constant": true,
      "inputs": [],
      "name": "fac",
      "outputs": [
        {
          "name": "",
          "type": "address"
        }
      ],
      "payable": false,
      "stateMutability": "view",
      "type": "function"
    },
    {
      "constant": true,
      "inputs": [
        {
          "name": "appId",
          "type": "bytes32"
        }
      ],
      "name": "latestVersionAppBase",
      "outputs": [
        {
          "name": "base",
          "type": "address"
        }
      ],
      "payable": false,
      "stateMutability": "view",
      "type": "function"
    },
    {
      "inputs": [
        {
          "name": "ens",
          "type": "address"
        },
        {
          "name": "_token",
          "type": "address"
        },
        {
          "name": "_tokensale",
          "type": "address"
        }
      ],
      "payable": false,
      "stateMutability": "nonpayable",
      "type": "constructor"
    },
    {
      "anonymous": false,
      "inputs": [
        {
          "indexed": false,
          "name": "dao",
          "type": "address"
        }
      ],
      "name": "DeployInstance",
      "type": "event"
    },
    {
      "anonymous": false,
      "inputs": [
        {
          "indexed": false,
          "name": "appProxy",
          "type": "address"
        },
        {
          "indexed": false,
          "name": "appId",
          "type": "bytes32"
        }
      ],
      "name": "InstalledApp",
      "type": "event"
    },
    {
      "constant": false,
      "inputs": [],
      "name": "newInstance",
      "outputs": [],
      "payable": false,
      "stateMutability": "nonpayable",
      "type": "function"
    }
  ],
  "bytecode": "0x608060405260a060405190810160405280670de0b6b3a764000069ffffffffffffffffffff16815260200169152d02c7e14af680000069ffffffffffffffffffff16815260200169152d02c7e14af680000069ffffffffffffffffffff16815260200169152d02c7e14af680000069ffffffffffffffffffff16815260200169152d02c7e14af680000069ffffffffffffffffffff168152506005906005620000aa9291906200086a565b5060a060405190810160405280600060ff168152602001600360ff168152602001600c60ff168152602001601860ff168152602001602460ff168152506006906005620000f9929190620008ca565b5060a060405190810160405280600a60ff168152602001601460ff168152602001603260ff168152602001605060ff168152602001608260ff16815250600790600562000148929190620008ca565b503480156200015657600080fd5b5060405160608062006d338339810180604052810190808051906020019092919080519060200190929190805190602001909291905050506000836000816000806101000a81548173ffffffffffffffffffffffffffffffffffffffff021916908373ffffffffffffffffffffffffffffffffffffffff160217905550600073ffffffffffffffffffffffffffffffffffffffff168373ffffffffffffffffffffffffffffffffffffffff1614156200035b57620002586040805190810160405280600881526020017f626172652d6b697400000000000000000000000000000000000000000000000081525062000493640100000000026401000000009004565b90506200027481620005bf640100000000026401000000009004565b73ffffffffffffffffffffffffffffffffffffffff1663c3b314726040518163ffffffff167c0100000000000000000000000000000000000000000000000000000000028152600401602060405180830381600087803b158015620002d857600080fd5b505af1158015620002ed573d6000803e3d6000fd5b505050506040513d60208110156200030457600080fd5b8101908080519060200190929190505050600160006101000a81548173ffffffffffffffffffffffffffffffffffffffff021916908373ffffffffffffffffffffffffffffffffffffffff1602179055506200039d565b82600160006101000a81548173ffffffffffffffffffffffffffffffffffffffff021916908373ffffffffffffffffffffffffffffffffffffffff1602179055505b505050620003aa62000921565b604051809103906000f080158015620003c7573d6000803e3d6000fd5b50600260006101000a81548173ffffffffffffffffffffffffffffffffffffffff021916908373ffffffffffffffffffffffffffffffffffffffff16021790555081600360006101000a81548173ffffffffffffffffffffffffffffffffffffffff021916908373ffffffffffffffffffffffffffffffffffffffff16021790555080600460006101000a81548173ffffffffffffffffffffffffffffffffffffffff021916908373ffffffffffffffffffffffffffffffffffffffff1602179055505050506200095a565b60007f9065c3e7f7b7ef1ef4e53d2d0b8e0cef02874ab020c1ece79d5f0d3d0111c0ba600102826040518082805190602001908083835b602083101515620004f15780518252602082019150602081019050602083039250620004ca565b6001836020036101000a03801982511681845116808217855250505050505090500191505060405180910390206040516020018083600019166000191681526020018260001916600019168152602001925050506040516020818303038152906040526040518082805190602001908083835b6020831015156200058b578051825260208201915060208101905060208303925062000564565b6001836020036101000a03801982511681845116808217855250505050505090500191505060405180910390209050919050565b6000806000809054906101000a900473ffffffffffffffffffffffffffffffffffffffff1673ffffffffffffffffffffffffffffffffffffffff16630178b8bf846040518263ffffffff167c0100000000000000000000000000000000000000000000000000000000028152600401808260001916600019168152602001915050602060405180830381600087803b1580156200065b57600080fd5b505af115801562000670573d6000803e3d6000fd5b505050506040513d60208110156200068757600080fd5b810190808051906020019092919050505073ffffffffffffffffffffffffffffffffffffffff16633b3b57de846040518263ffffffff167c0100000000000000000000000000000000000000000000000000000000028152600401808260001916600019168152602001915050602060405180830381600087803b1580156200070f57600080fd5b505af115801562000724573d6000803e3d6000fd5b505050506040513d60208110156200073b57600080fd5b810190808051906020019092919050505090508073ffffffffffffffffffffffffffffffffffffffff1663c36af4606040518163ffffffff167c0100000000000000000000000000000000000000000000000000000000028152600401600060405180830381600087803b158015620007b357600080fd5b505af1158015620007c8573d6000803e3d6000fd5b505050506040513d6000823e3d601f19601f8201168201806040525060a0811015620007f357600080fd5b810190809190826060018051906020019092919080516401000000008111156200081c57600080fd5b828101905060208101848111156200083357600080fd5b81518560018202830111640100000000821117156200085157600080fd5b5050929190505050909150508092505081915050919050565b828054828255906000526020600020908101928215620008b7579160200282015b82811115620008b6578251829069ffffffffffffffffffff169055916020019190600101906200088b565b5b509050620008c6919062000932565b5090565b8280548282559060005260206000209081019282156200090e579160200282015b828111156200090d578251829060ff16905591602001919060010190620008eb565b5b5090506200091d919062000932565b5090565b6040516132bb8062003a7883390190565b6200095791905b808211156200095357600081600090555060010162000939565b5090565b90565b61310e806200096a6000396000f300608060405260043610610062576000357c0100000000000000000000000000000000000000000000000000000000900463ffffffff1680633f15457f146100675780635219cfa5146100be578063c3b31472146100d5578063c6d2c7171461012c575b600080fd5b34801561007357600080fd5b5061007c61019d565b604051808273ffffffffffffffffffffffffffffffffffffffff1673ffffffffffffffffffffffffffffffffffffffff16815260200191505060405180910390f35b3480156100ca57600080fd5b506100d36101c2565b005b3480156100e157600080fd5b506100ea6105db565b604051808273ffffffffffffffffffffffffffffffffffffffff1673ffffffffffffffffffffffffffffffffffffffff16815260200191505060405180910390f35b34801561013857600080fd5b5061015b6004803603810190808035600019169060200190929190505050610601565b604051808273ffffffffffffffffffffffffffffffffffffffff1673ffffffffffffffffffffffffffffffffffffffff16815260200191505060405180910390f35b6000809054906101000a900473ffffffffffffffffffffffffffffffffffffffff1681565b600080600080600080600080600160009054906101000a900473ffffffffffffffffffffffffffffffffffffffff1673ffffffffffffffffffffffffffffffffffffffff166321687444306040518263ffffffff167c0100000000000000000000000000000000000000000000000000000000028152600401808273ffffffffffffffffffffffffffffffffffffffff1673ffffffffffffffffffffffffffffffffffffffff168152602001915050602060405180830381600087803b15801561028b57600080fd5b505af115801561029f573d6000803e3d6000fd5b505050506040513d60208110156102b557600080fd5b810190808051906020019092919050505097508773ffffffffffffffffffffffffffffffffffffffff1663de2873596040518163ffffffff167c0100000000000000000000000000000000000000000000000000000000028152600401602060405180830381600087803b15801561032c57600080fd5b505af1158015610340573d6000803e3d6000fd5b505050506040513d602081101561035657600080fd5b810190808051906020019092919050505096508673ffffffffffffffffffffffffffffffffffffffff1663be038478308a8b73ffffffffffffffffffffffffffffffffffffffff16638ea8dc9d6040518163ffffffff167c0100000000000000000000000000000000000000000000000000000000028152600401602060405180830381600087803b1580156103eb57600080fd5b505af11580156103ff573d6000803e3d6000fd5b505050506040513d602081101561041557600080fd5b8101908080519060200190929190505050306040518563ffffffff167c0100000000000000000000000000000000000000000000000000000000028152600401808573ffffffffffffffffffffffffffffffffffffffff1673ffffffffffffffffffffffffffffffffffffffff1681526020018473ffffffffffffffffffffffffffffffffffffffff1673ffffffffffffffffffffffffffffffffffffffff16815260200183600019166000191681526020018273ffffffffffffffffffffffffffffffffffffffff1673ffffffffffffffffffffffffffffffffffffffff168152602001945050505050600060405180830381600087803b15801561051a57600080fd5b505af115801561052e573d6000803e3d6000fd5b5050505061053b886108a0565b95509550955061054a88610c6d565b92509250925061055e868686848787611127565b61056e88888886898988336117ea565b7f8f42a14c9fe9e09f4fe8eeee69ae878731c838b6497425d4c30e1d09336cf34b88604051808273ffffffffffffffffffffffffffffffffffffffff1673ffffffffffffffffffffffffffffffffffffffff16815260200191505060405180910390a15050505050505050565b600160009054906101000a900473ffffffffffffffffffffffffffffffffffffffff1681565b6000806000809054906101000a900473ffffffffffffffffffffffffffffffffffffffff1673ffffffffffffffffffffffffffffffffffffffff16630178b8bf846040518263ffffffff167c0100000000000000000000000000000000000000000000000000000000028152600401808260001916600019168152602001915050602060405180830381600087803b15801561069c57600080fd5b505af11580156106b0573d6000803e3d6000fd5b505050506040513d60208110156106c657600080fd5b810190808051906020019092919050505073ffffffffffffffffffffffffffffffffffffffff16633b3b57de846040518263ffffffff167c0100000000000000000000000000000000000000000000000000000000028152600401808260001916600019168152602001915050602060405180830381600087803b15801561074d57600080fd5b505af1158015610761573d6000803e3d6000fd5b505050506040513d602081101561077757600080fd5b810190808051906020019092919050505090508073ffffffffffffffffffffffffffffffffffffffff1663c36af4606040518163ffffffff167c0100000000000000000000000000000000000000000000000000000000028152600401600060405180830381600087803b1580156107ee57600080fd5b505af1158015610802573d6000803e3d6000fd5b505050506040513d6000823e3d601f19601f8201168201806040525060a081101561082c57600080fd5b8101908091908260600180519060200190929190805164010000000081111561085457600080fd5b8281019050602081018481111561086a57600080fd5b815185600182028301116401000000008211171561088757600080fd5b5050929190505050909150508092505081915050919050565b6000806000806000806108e76040805190810160405280600681526020017f766f74696e670000000000000000000000000000000000000000000000000000815250612fba565b92506109276040805190810160405280600581526020017f7661756c74000000000000000000000000000000000000000000000000000000815250612fba565b91506109676040805190810160405280600781526020017f66696e616e636500000000000000000000000000000000000000000000000000815250612fba565b90508673ffffffffffffffffffffffffffffffffffffffff1663397edd418361098f85610601565b60016040518463ffffffff167c01000000000000000000000000000000000000000000000000000000000281526004018084600019166000191681526020018373ffffffffffffffffffffffffffffffffffffffff1673ffffffffffffffffffffffffffffffffffffffff1681526020018060200183151515158152602001828103825260008152602001602001945050505050602060405180830381600087803b158015610a3d57600080fd5b505af1158015610a51573d6000803e3d6000fd5b505050506040513d6020811015610a6757600080fd5b810190808051906020019092919050505094508673ffffffffffffffffffffffffffffffffffffffff166380cd5ac382610aa084610601565b6040518363ffffffff167c01000000000000000000000000000000000000000000000000000000000281526004018083600019166000191681526020018273ffffffffffffffffffffffffffffffffffffffff1673ffffffffffffffffffffffffffffffffffffffff16815260200192505050602060405180830381600087803b158015610b2d57600080fd5b505af1158015610b41573d6000803e3d6000fd5b505050506040513d6020811015610b5757600080fd5b810190808051906020019092919050505093508673ffffffffffffffffffffffffffffffffffffffff166380cd5ac384610b9086610601565b6040518363ffffffff167c01000000000000000000000000000000000000000000000000000000000281526004018083600019166000191681526020018273ffffffffffffffffffffffffffffffffffffffff1673ffffffffffffffffffffffffffffffffffffffff16815260200192505050602060405180830381600087803b158015610c1d57600080fd5b505af1158015610c31573d6000803e3d6000fd5b505050506040513d6020811015610c4757600080fd5b810190808051906020019092919050505095508585859550955095505050509193909250565b6000806000806000610cb36040805190810160405280600881526020017f6d79746f6b656e73000000000000000000000000000000000000000000000000815250612fba565b9150610cf36040805190810160405280600481526020017f6d79696400000000000000000000000000000000000000000000000000000000815250612fba565b90508573ffffffffffffffffffffffffffffffffffffffff166380cd5ac383610d1b85610601565b6040518363ffffffff167c01000000000000000000000000000000000000000000000000000000000281526004018083600019166000191681526020018273ffffffffffffffffffffffffffffffffffffffff1673ffffffffffffffffffffffffffffffffffffffff16815260200192505050602060405180830381600087803b158015610da857600080fd5b505af1158015610dbc573d6000803e3d6000fd5b505050506040513d6020811015610dd257600080fd5b810190808051906020019092919050505094508573ffffffffffffffffffffffffffffffffffffffff166380cd5ac382610e0b84610601565b6040518363ffffffff167c01000000000000000000000000000000000000000000000000000000000281526004018083600019166000191681526020018273ffffffffffffffffffffffffffffffffffffffff1673ffffffffffffffffffffffffffffffffffffffff16815260200192505050602060405180830381600087803b158015610e9857600080fd5b505af1158015610eac573d6000803e3d6000fd5b505050506040513d6020811015610ec257600080fd5b81019080805190602001909291905050509350600260009054906101000a900473ffffffffffffffffffffffffffffffffffffffff1673ffffffffffffffffffffffffffffffffffffffff16635b7b72c16000806001806040518563ffffffff167c0100000000000000000000000000000000000000000000000000000000028152600401808573ffffffffffffffffffffffffffffffffffffffff1673ffffffffffffffffffffffffffffffffffffffff168152602001848152602001806020018460ff1681526020018060200184151515158152602001838103835260068152602001807f4d79566f74650000000000000000000000000000000000000000000000000000815250602001838103825260038152602001807f4d595600000000000000000000000000000000000000000000000000000000008152506020019650505050505050602060405180830381600087803b15801561102557600080fd5b505af1158015611039573d6000803e3d6000fd5b505050506040513d602081101561104f57600080fd5b810190808051906020019092919050505092508273ffffffffffffffffffffffffffffffffffffffff16633cebb823866040518263ffffffff167c0100000000000000000000000000000000000000000000000000000000028152600401808273ffffffffffffffffffffffffffffffffffffffff1673ffffffffffffffffffffffffffffffffffffffff168152602001915050600060405180830381600087803b1580156110fd57600080fd5b505af1158015611111573d6000803e3d6000fd5b5050505084848494509450945050509193909250565b8473ffffffffffffffffffffffffffffffffffffffff16638129fc1c6040518163ffffffff167c0100000000000000000000000000000000000000000000000000000000028152600401600060405180830381600087803b15801561118b57600080fd5b505af115801561119f573d6000803e3d6000fd5b505050508373ffffffffffffffffffffffffffffffffffffffff16631798de818662278d006040518363ffffffff167c0100000000000000000000000000000000000000000000000000000000028152600401808373ffffffffffffffffffffffffffffffffffffffff1673ffffffffffffffffffffffffffffffffffffffff1681526020018267ffffffffffffffff16815260200192505050600060405180830381600087803b15801561125357600080fd5b505af1158015611267573d6000803e3d6000fd5b505050508173ffffffffffffffffffffffffffffffffffffffff16633c31996b84600360009054906101000a900473ffffffffffffffffffffffffffffffffffffffff16600460009054906101000a900473ffffffffffffffffffffffffffffffffffffffff16856005600660076040518863ffffffff167c0100000000000000000000000000000000000000000000000000000000028152600401808873ffffffffffffffffffffffffffffffffffffffff1673ffffffffffffffffffffffffffffffffffffffff1681526020018773ffffffffffffffffffffffffffffffffffffffff1673ffffffffffffffffffffffffffffffffffffffff1681526020018673ffffffffffffffffffffffffffffffffffffffff1673ffffffffffffffffffffffffffffffffffffffff1681526020018573ffffffffffffffffffffffffffffffffffffffff1673ffffffffffffffffffffffffffffffffffffffff168152602001806020018060200180602001848103845287818154815260200191508054801561141557602002820191906000526020600020905b815481526020019060010190808311611401575b5050848103835286818154815260200191508054801561145457602002820191906000526020600020905b815481526020019060010190808311611440575b5050848103825285818154815260200191508054801561149357602002820191906000526020600020905b81548152602001906001019080831161147f575b50509a5050505050505050505050600060405180830381600087803b1580156114bb57600080fd5b505af11580156114cf573d6000803e3d6000fd5b505050508573ffffffffffffffffffffffffffffffffffffffff1663df3d3305846001662386f26fc1000060320201662386f26fc10000601402621275006040518563ffffffff167c0100000000000000000000000000000000000000000000000000000000028152600401808573ffffffffffffffffffffffffffffffffffffffff1673ffffffffffffffffffffffffffffffffffffffff1681526020018467ffffffffffffffff1667ffffffffffffffff1681526020018367ffffffffffffffff1667ffffffffffffffff1681526020018267ffffffffffffffff168152602001945050505050600060405180830381600087803b1580156115d257600080fd5b505af11580156115e6573d6000803e3d6000fd5b505050508073ffffffffffffffffffffffffffffffffffffffff166365e8e4f4848873b4124ceb3451635dacedd11767f004d8a28c6ee7606060405190810160405280602e81526020017f516d616e505258437a78585866697a6a6e57723746653578353747483467425481526020017f72464e396e5559317656644c43560000000000000000000000000000000000008152506040518563ffffffff167c0100000000000000000000000000000000000000000000000000000000028152600401808573ffffffffffffffffffffffffffffffffffffffff1673ffffffffffffffffffffffffffffffffffffffff1681526020018473ffffffffffffffffffffffffffffffffffffffff1673ffffffffffffffffffffffffffffffffffffffff1681526020018373ffffffffffffffffffffffffffffffffffffffff1673ffffffffffffffffffffffffffffffffffffffff16815260200180602001828103825283818151815260200191508051906020019080838360005b8381101561177b578082015181840152602081019050611760565b50505050905090810190601f1680156117a85780820380516001836020036101000a031916815260200191505b5095505050505050600060405180830381600087803b1580156117ca57600080fd5b505af11580156117de573d6000803e3d6000fd5b50505050505050505050565b8673ffffffffffffffffffffffffffffffffffffffff1663be03847886888973ffffffffffffffffffffffffffffffffffffffff1663be2c64d46040518163ffffffff167c0100000000000000000000000000000000000000000000000000000000028152600401602060405180830381600087803b15801561186c57600080fd5b505af1158015611880573d6000803e3d6000fd5b505050506040513d602081101561189657600080fd5b81019080805190602001909291905050508a6040518563ffffffff167c0100000000000000000000000000000000000000000000000000000000028152600401808573ffffffffffffffffffffffffffffffffffffffff1673ffffffffffffffffffffffffffffffffffffffff1681526020018473ffffffffffffffffffffffffffffffffffffffff1673ffffffffffffffffffffffffffffffffffffffff16815260200183600019166000191681526020018273ffffffffffffffffffffffffffffffffffffffff1673ffffffffffffffffffffffffffffffffffffffff168152602001945050505050600060405180830381600087803b15801561199b57600080fd5b505af11580156119af573d6000803e3d6000fd5b505050508673ffffffffffffffffffffffffffffffffffffffff1663be03847887848573ffffffffffffffffffffffffffffffffffffffff1663c562761f6040518163ffffffff167c0100000000000000000000000000000000000000000000000000000000028152600401602060405180830381600087803b158015611a3557600080fd5b505af1158015611a49573d6000803e3d6000fd5b505050506040513d6020811015611a5f57600080fd5b81019080805190602001909291905050508a6040518563ffffffff167c0100000000000000000000000000000000000000000000000000000000028152600401808573ffffffffffffffffffffffffffffffffffffffff1673ffffffffffffffffffffffffffffffffffffffff1681526020018473ffffffffffffffffffffffffffffffffffffffff1673ffffffffffffffffffffffffffffffffffffffff16815260200183600019166000191681526020018273ffffffffffffffffffffffffffffffffffffffff1673ffffffffffffffffffffffffffffffffffffffff168152602001945050505050600060405180830381600087803b158015611b6457600080fd5b505af1158015611b78573d6000803e3d6000fd5b505050508673ffffffffffffffffffffffffffffffffffffffff1663be03847887878873ffffffffffffffffffffffffffffffffffffffff1663b930908f6040518163ffffffff167c0100000000000000000000000000000000000000000000000000000000028152600401602060405180830381600087803b158015611bfe57600080fd5b505af1158015611c12573d6000803e3d6000fd5b505050506040513d6020811015611c2857600080fd5b81019080805190602001909291905050508a6040518563ffffffff167c0100000000000000000000000000000000000000000000000000000000028152600401808573ffffffffffffffffffffffffffffffffffffffff1673ffffffffffffffffffffffffffffffffffffffff1681526020018473ffffffffffffffffffffffffffffffffffffffff1673ffffffffffffffffffffffffffffffffffffffff16815260200183600019166000191681526020018273ffffffffffffffffffffffffffffffffffffffff1673ffffffffffffffffffffffffffffffffffffffff168152602001945050505050600060405180830381600087803b158015611d2d57600080fd5b505af1158015611d41573d6000803e3d6000fd5b505050508673ffffffffffffffffffffffffffffffffffffffff1663be03847887878873ffffffffffffffffffffffffffffffffffffffff1663ec87621c6040518163ffffffff167c0100000000000000000000000000000000000000000000000000000000028152600401602060405180830381600087803b158015611dc757600080fd5b505af1158015611ddb573d6000803e3d6000fd5b505050506040513d6020811015611df157600080fd5b81019080805190602001909291905050508a6040518563ffffffff167c0100000000000000000000000000000000000000000000000000000000028152600401808573ffffffffffffffffffffffffffffffffffffffff1673ffffffffffffffffffffffffffffffffffffffff1681526020018473ffffffffffffffffffffffffffffffffffffffff1673ffffffffffffffffffffffffffffffffffffffff16815260200183600019166000191681526020018273ffffffffffffffffffffffffffffffffffffffff1673ffffffffffffffffffffffffffffffffffffffff168152602001945050505050600060405180830381600087803b158015611ef657600080fd5b505af1158015611f0a573d6000803e3d6000fd5b505050508673ffffffffffffffffffffffffffffffffffffffff1663be03847884868773ffffffffffffffffffffffffffffffffffffffff1663206b60f96040518163ffffffff167c0100000000000000000000000000000000000000000000000000000000028152600401602060405180830381600087803b158015611f9057600080fd5b505af1158015611fa4573d6000803e3d6000fd5b505050506040513d6020811015611fba57600080fd5b81019080805190602001909291905050508a6040518563ffffffff167c0100000000000000000000000000000000000000000000000000000000028152600401808573ffffffffffffffffffffffffffffffffffffffff1673ffffffffffffffffffffffffffffffffffffffff1681526020018473ffffffffffffffffffffffffffffffffffffffff1673ffffffffffffffffffffffffffffffffffffffff16815260200183600019166000191681526020018273ffffffffffffffffffffffffffffffffffffffff1673ffffffffffffffffffffffffffffffffffffffff168152602001945050505050600060405180830381600087803b1580156120bf57600080fd5b505af11580156120d3573d6000803e3d6000fd5b505050508673ffffffffffffffffffffffffffffffffffffffff1663be03847887858673ffffffffffffffffffffffffffffffffffffffff16630842ace46040518163ffffffff167c0100000000000000000000000000000000000000000000000000000000028152600401602060405180830381600087803b15801561215957600080fd5b505af115801561216d573d6000803e3d6000fd5b505050506040513d602081101561218357600080fd5b81019080805190602001909291905050508a6040518563ffffffff167c0100000000000000000000000000000000000000000000000000000000028152600401808573ffffffffffffffffffffffffffffffffffffffff1673ffffffffffffffffffffffffffffffffffffffff1681526020018473ffffffffffffffffffffffffffffffffffffffff1673ffffffffffffffffffffffffffffffffffffffff16815260200183600019166000191681526020018273ffffffffffffffffffffffffffffffffffffffff1673ffffffffffffffffffffffffffffffffffffffff168152602001945050505050600060405180830381600087803b15801561228857600080fd5b505af115801561229c573d6000803e3d6000fd5b505050508673ffffffffffffffffffffffffffffffffffffffff1663be03847887858673ffffffffffffffffffffffffffffffffffffffff1663981cc3426040518163ffffffff167c0100000000000000000000000000000000000000000000000000000000028152600401602060405180830381600087803b15801561232257600080fd5b505af1158015612336573d6000803e3d6000fd5b505050506040513d602081101561234c57600080fd5b81019080805190602001909291905050508a6040518563ffffffff167c0100000000000000000000000000000000000000000000000000000000028152600401808573ffffffffffffffffffffffffffffffffffffffff1673ffffffffffffffffffffffffffffffffffffffff1681526020018473ffffffffffffffffffffffffffffffffffffffff1673ffffffffffffffffffffffffffffffffffffffff16815260200183600019166000191681526020018273ffffffffffffffffffffffffffffffffffffffff1673ffffffffffffffffffffffffffffffffffffffff168152602001945050505050600060405180830381600087803b15801561245157600080fd5b505af1158015612465573d6000803e3d6000fd5b505050508673ffffffffffffffffffffffffffffffffffffffff1663be03847887858673ffffffffffffffffffffffffffffffffffffffff1663e94ebac56040518163ffffffff167c0100000000000000000000000000000000000000000000000000000000028152600401602060405180830381600087803b1580156124eb57600080fd5b505af11580156124ff573d6000803e3d6000fd5b505050506040513d602081101561251557600080fd5b81019080805190602001909291905050508a6040518563ffffffff167c0100000000000000000000000000000000000000000000000000000000028152600401808573ffffffffffffffffffffffffffffffffffffffff1673ffffffffffffffffffffffffffffffffffffffff1681526020018473ffffffffffffffffffffffffffffffffffffffff1673ffffffffffffffffffffffffffffffffffffffff16815260200183600019166000191681526020018273ffffffffffffffffffffffffffffffffffffffff1673ffffffffffffffffffffffffffffffffffffffff168152602001945050505050600060405180830381600087803b15801561261a57600080fd5b505af115801561262e573d6000803e3d6000fd5b505050508673ffffffffffffffffffffffffffffffffffffffff16630a8ed3db828a8b73ffffffffffffffffffffffffffffffffffffffff16638ea8dc9d6040518163ffffffff167c0100000000000000000000000000000000000000000000000000000000028152600401602060405180830381600087803b1580156126b457600080fd5b505af11580156126c8573d6000803e3d6000fd5b505050506040513d60208110156126de57600080fd5b81019080805190602001909291905050506040518463ffffffff167c0100000000000000000000000000000000000000000000000000000000028152600401808473ffffffffffffffffffffffffffffffffffffffff1673ffffffffffffffffffffffffffffffffffffffff1681526020018373ffffffffffffffffffffffffffffffffffffffff1673ffffffffffffffffffffffffffffffffffffffff16815260200182600019166000191681526020019350505050600060405180830381600087803b1580156127af57600080fd5b505af11580156127c3573d6000803e3d6000fd5b505050508673ffffffffffffffffffffffffffffffffffffffff16639d0effdb308a8b73ffffffffffffffffffffffffffffffffffffffff16638ea8dc9d6040518163ffffffff167c0100000000000000000000000000000000000000000000000000000000028152600401602060405180830381600087803b15801561284957600080fd5b505af115801561285d573d6000803e3d6000fd5b505050506040513d602081101561287357600080fd5b81019080805190602001909291905050506040518463ffffffff167c0100000000000000000000000000000000000000000000000000000000028152600401808473ffffffffffffffffffffffffffffffffffffffff1673ffffffffffffffffffffffffffffffffffffffff1681526020018373ffffffffffffffffffffffffffffffffffffffff1673ffffffffffffffffffffffffffffffffffffffff16815260200182600019166000191681526020019350505050600060405180830381600087803b15801561294457600080fd5b505af1158015612958573d6000803e3d6000fd5b505050508673ffffffffffffffffffffffffffffffffffffffff1663afd925df828a8b73ffffffffffffffffffffffffffffffffffffffff16638ea8dc9d6040518163ffffffff167c0100000000000000000000000000000000000000000000000000000000028152600401602060405180830381600087803b1580156129de57600080fd5b505af11580156129f2573d6000803e3d6000fd5b505050506040513d6020811015612a0857600080fd5b81019080805190602001909291905050506040518463ffffffff167c0100000000000000000000000000000000000000000000000000000000028152600401808473ffffffffffffffffffffffffffffffffffffffff1673ffffffffffffffffffffffffffffffffffffffff1681526020018373ffffffffffffffffffffffffffffffffffffffff1673ffffffffffffffffffffffffffffffffffffffff16815260200182600019166000191681526020019350505050600060405180830381600087803b158015612ad957600080fd5b505af1158015612aed573d6000803e3d6000fd5b505050508673ffffffffffffffffffffffffffffffffffffffff16630a8ed3db82898a73ffffffffffffffffffffffffffffffffffffffff16633d6ab68f6040518163ffffffff167c0100000000000000000000000000000000000000000000000000000000028152600401602060405180830381600087803b158015612b7357600080fd5b505af1158015612b87573d6000803e3d6000fd5b505050506040513d6020811015612b9d57600080fd5b81019080805190602001909291905050506040518463ffffffff167c0100000000000000000000000000000000000000000000000000000000028152600401808473ffffffffffffffffffffffffffffffffffffffff1673ffffffffffffffffffffffffffffffffffffffff1681526020018373ffffffffffffffffffffffffffffffffffffffff1673ffffffffffffffffffffffffffffffffffffffff16815260200182600019166000191681526020019350505050600060405180830381600087803b158015612c6e57600080fd5b505af1158015612c82573d6000803e3d6000fd5b505050508673ffffffffffffffffffffffffffffffffffffffff16639d0effdb30898a73ffffffffffffffffffffffffffffffffffffffff16633d6ab68f6040518163ffffffff167c0100000000000000000000000000000000000000000000000000000000028152600401602060405180830381600087803b158015612d0857600080fd5b505af1158015612d1c573d6000803e3d6000fd5b505050506040513d6020811015612d3257600080fd5b81019080805190602001909291905050506040518463ffffffff167c0100000000000000000000000000000000000000000000000000000000028152600401808473ffffffffffffffffffffffffffffffffffffffff1673ffffffffffffffffffffffffffffffffffffffff1681526020018373ffffffffffffffffffffffffffffffffffffffff1673ffffffffffffffffffffffffffffffffffffffff16815260200182600019166000191681526020019350505050600060405180830381600087803b158015612e0357600080fd5b505af1158015612e17573d6000803e3d6000fd5b505050508673ffffffffffffffffffffffffffffffffffffffff1663afd925df82898a73ffffffffffffffffffffffffffffffffffffffff16633d6ab68f6040518163ffffffff167c0100000000000000000000000000000000000000000000000000000000028152600401602060405180830381600087803b158015612e9d57600080fd5b505af1158015612eb1573d6000803e3d6000fd5b505050506040513d6020811015612ec757600080fd5b81019080805190602001909291905050506040518463ffffffff167c0100000000000000000000000000000000000000000000000000000000028152600401808473ffffffffffffffffffffffffffffffffffffffff1673ffffffffffffffffffffffffffffffffffffffff1681526020018373ffffffffffffffffffffffffffffffffffffffff1673ffffffffffffffffffffffffffffffffffffffff16815260200182600019166000191681526020019350505050600060405180830381600087803b158015612f9857600080fd5b505af1158015612fac573d6000803e3d6000fd5b505050505050505050505050565b60007f9065c3e7f7b7ef1ef4e53d2d0b8e0cef02874ab020c1ece79d5f0d3d0111c0ba600102826040518082805190602001908083835b6020831015156130165780518252602082019150602081019050602083039250612ff1565b6001836020036101000a03801982511681845116808217855250505050505090500191505060405180910390206040516020018083600019166000191681526020018260001916600019168152602001925050506040516020818303038152906040526040518082805190602001908083835b6020831015156130ae5780518252602082019150602081019050602083039250613089565b6001836020036101000a038019825116818451168082178552505050505050905001915050604051809103902090509190505600a165627a7a72305820a1362627475eae4ce2362940c0d5387d0a6518201c37c9133b9a51f399ab78e90029608060405234801561001057600080fd5b5061329b806100206000396000f300608060405260043610610041576000357c0100000000000000000000000000000000000000000000000000000000900463ffffffff1680635b7b72c114610046575b600080fd5b34801561005257600080fd5b50610136600480360381019080803573ffffffffffffffffffffffffffffffffffffffff16906020019092919080359060200190929190803590602001908201803590602001908080601f0160208091040260200160405190810160405280939291908181526020018383808284378201915050505050509192919290803560ff169060200190929190803590602001908201803590602001908080601f0160208091040260200160405190810160405280939291908181526020018383808284378201915050505050509192919290803515159060200190929190505050610178565b604051808273ffffffffffffffffffffffffffffffffffffffff1673ffffffffffffffffffffffffffffffffffffffff16815260200191505060405180910390f35b6000803088888888888861018a6103ca565b808873ffffffffffffffffffffffffffffffffffffffff1673ffffffffffffffffffffffffffffffffffffffff1681526020018773ffffffffffffffffffffffffffffffffffffffff1673ffffffffffffffffffffffffffffffffffffffff168152602001868152602001806020018560ff1660ff1681526020018060200184151515158152602001838103835287818151815260200191508051906020019080838360005b8381101561024b578082015181840152602081019050610230565b50505050905090810190601f1680156102785780820380516001836020036101000a031916815260200191505b50838103825285818151815260200191508051906020019080838360005b838110156102b1578082015181840152602081019050610296565b50505050905090810190601f1680156102de5780820380516001836020036101000a031916815260200191505b509950505050505050505050604051809103906000f080158015610306573d6000803e3d6000fd5b5090508073ffffffffffffffffffffffffffffffffffffffff16633cebb823336040518263ffffffff167c0100000000000000000000000000000000000000000000000000000000028152600401808273ffffffffffffffffffffffffffffffffffffffff1673ffffffffffffffffffffffffffffffffffffffff168152602001915050600060405180830381600087803b1580156103a457600080fd5b505af11580156103b8573d6000803e3d6000fd5b50505050809150509695505050505050565b604051612e95806103db83390190560060806040526040805190810160405280600781526020017f4d4d545f302e3100000000000000000000000000000000000000000000000000815250600490805190602001906200005192919062000207565b503480156200005f57600080fd5b5060405162002e9538038062002e9583398101806040528101908080519060200190929190805190602001909291908051906020019092919080518201929190602001805190602001909291908051820192919060200180519060200190929190505050336000806101000a81548173ffffffffffffffffffffffffffffffffffffffff021916908373ffffffffffffffffffffffffffffffffffffffff16021790555086600b60016101000a81548173ffffffffffffffffffffffffffffffffffffffff021916908373ffffffffffffffffffffffffffffffffffffffff16021790555083600190805190602001906200015c92919062000207565b5082600260006101000a81548160ff021916908360ff16021790555081600390805190602001906200019092919062000207565b5085600560006101000a81548173ffffffffffffffffffffffffffffffffffffffff021916908373ffffffffffffffffffffffffffffffffffffffff1602179055508460068190555080600b60006101000a81548160ff0219169083151502179055504360078190555050505050505050620002b6565b828054600181600116156101000203166002900490600052602060002090601f016020900481019282601f106200024a57805160ff19168380011785556200027b565b828001600101855582156200027b579182015b828111156200027a5782518255916020019190600101906200025d565b5b5090506200028a91906200028e565b5090565b620002b391905b80821115620002af57600081600090555060010162000295565b5090565b90565b612bcf80620002c66000396000f300608060405260043610610149576000357c0100000000000000000000000000000000000000000000000000000000900463ffffffff16806306fdde031461028a578063095ea7b31461031a578063176345141461037f57806318160ddd146103aa57806323b872dd146103d5578063313ce5671461045a5780633cebb8231461048b5780634ee2cd7e146104ce57806354fd4d501461052f5780636638c087146105bf57806370a08231146106d157806380a5400114610728578063827f32c01461077f57806395d89b41146107e4578063981b24d014610874578063a9059cbb146108b5578063bef97c871461091a578063c5bcc4f114610949578063cae9ca5114610974578063d3ce77fe14610a1f578063dd62ed3e14610a84578063df8de3e714610afb578063e77772fe14610b3e578063f41e60c514610b95578063f77c479114610bc4575b6101736000809054906101000a900473ffffffffffffffffffffffffffffffffffffffff16610c1b565b151561017e57600080fd5b600115156000809054906101000a900473ffffffffffffffffffffffffffffffffffffffff1673ffffffffffffffffffffffffffffffffffffffff1663f48c305434336040518363ffffffff167c0100000000000000000000000000000000000000000000000000000000028152600401808273ffffffffffffffffffffffffffffffffffffffff1673ffffffffffffffffffffffffffffffffffffffff1681526020019150506020604051808303818588803b15801561023e57600080fd5b505af1158015610252573d6000803e3d6000fd5b50505050506040513d602081101561026957600080fd5b8101908080519060200190929190505050151514151561028857600080fd5b005b34801561029657600080fd5b5061029f610c57565b6040518080602001828103825283818151815260200191508051906020019080838360005b838110156102df5780820151818401526020810190506102c4565b50505050905090810190601f16801561030c5780820380516001836020036101000a031916815260200191505b509250505060405180910390f35b34801561032657600080fd5b50610365600480360381019080803573ffffffffffffffffffffffffffffffffffffffff16906020019092919080359060200190929190505050610cf5565b604051808215151515815260200191505060405180910390f35b34801561038b57600080fd5b5061039461100d565b6040518082815260200191505060405180910390f35b3480156103b657600080fd5b506103bf611013565b6040518082815260200191505060405180910390f35b3480156103e157600080fd5b50610440600480360381019080803573ffffffffffffffffffffffffffffffffffffffff169060200190929190803573ffffffffffffffffffffffffffffffffffffffff16906020019092919080359060200190929190505050611023565b604051808215151515815260200191505060405180910390f35b34801561046657600080fd5b5061046f6111c3565b604051808260ff1660ff16815260200191505060405180910390f35b34801561049757600080fd5b506104cc600480360381019080803573ffffffffffffffffffffffffffffffffffffffff1690602001909291905050506111d6565b005b3480156104da57600080fd5b50610519600480360381019080803573ffffffffffffffffffffffffffffffffffffffff16906020019092919080359060200190929190505050611274565b6040518082815260200191505060405180910390f35b34801561053b57600080fd5b50610544611500565b6040518080602001828103825283818151815260200191508051906020019080838360005b83811015610584578082015181840152602081019050610569565b50505050905090810190601f1680156105b15780820380516001836020036101000a031916815260200191505b509250505060405180910390f35b3480156105cb57600080fd5b5061068f600480360381019080803590602001908201803590602001908080601f0160208091040260200160405190810160405280939291908181526020018383808284378201915050505050509192919290803560ff169060200190929190803590602001908201803590602001908080601f01602080910402602001604051908101604052809392919081815260200183838082843782019150505050505091929192908035906020019092919080351515906020019092919050505061159e565b604051808273ffffffffffffffffffffffffffffffffffffffff1673ffffffffffffffffffffffffffffffffffffffff16815260200191505060405180910390f35b3480156106dd57600080fd5b50610712600480360381019080803573ffffffffffffffffffffffffffffffffffffffff1690602001909291905050506118bc565b6040518082815260200191505060405180910390f35b34801561073457600080fd5b5061073d6118cf565b604051808273ffffffffffffffffffffffffffffffffffffffff1673ffffffffffffffffffffffffffffffffffffffff16815260200191505060405180910390f35b34801561078b57600080fd5b506107ca600480360381019080803573ffffffffffffffffffffffffffffffffffffffff169060200190929190803590602001909291905050506118f5565b604051808215151515815260200191505060405180910390f35b3480156107f057600080fd5b506107f9611a3f565b6040518080602001828103825283818151815260200191508051906020019080838360005b8381101561083957808201518184015260208101905061081e565b50505050905090810190601f1680156108665780820380516001836020036101000a031916815260200191505b509250505060405180910390f35b34801561088057600080fd5b5061089f60048036038101908080359060200190929190505050611add565b6040518082815260200191505060405180910390f35b3480156108c157600080fd5b50610900600480360381019080803573ffffffffffffffffffffffffffffffffffffffff16906020019092919080359060200190929190505050611c7d565b604051808215151515815260200191505060405180910390f35b34801561092657600080fd5b5061092f611cad565b604051808215151515815260200191505060405180910390f35b34801561095557600080fd5b5061095e611cc0565b6040518082815260200191505060405180910390f35b34801561098057600080fd5b50610a05600480360381019080803573ffffffffffffffffffffffffffffffffffffffff16906020019092919080359060200190929190803590602001908201803590602001908080601f0160208091040260200160405190810160405280939291908181526020018383808284378201915050505050509192919290505050611cc6565b604051808215151515815260200191505060405180910390f35b348015610a2b57600080fd5b50610a6a600480360381019080803573ffffffffffffffffffffffffffffffffffffffff16906020019092919080359060200190929190505050611e44565b604051808215151515815260200191505060405180910390f35b348015610a9057600080fd5b50610ae5600480360381019080803573ffffffffffffffffffffffffffffffffffffffff169060200190929190803573ffffffffffffffffffffffffffffffffffffffff169060200190929190505050611f8a565b6040518082815260200191505060405180910390f35b348015610b0757600080fd5b50610b3c600480360381019080803573ffffffffffffffffffffffffffffffffffffffff169060200190929190505050612011565b005b348015610b4a57600080fd5b50610b53612379565b604051808273ffffffffffffffffffffffffffffffffffffffff1673ffffffffffffffffffffffffffffffffffffffff16815260200191505060405180910390f35b348015610ba157600080fd5b50610bc260048036038101908080351515906020019092919050505061239f565b005b348015610bd057600080fd5b50610bd9612417565b604051808273ffffffffffffffffffffffffffffffffffffffff1673ffffffffffffffffffffffffffffffffffffffff16815260200191505060405180910390f35b60008060008373ffffffffffffffffffffffffffffffffffffffff161415610c465760009150610c51565b823b90506000811191505b50919050565b60018054600181600116156101000203166002900480601f016020809104026020016040519081016040528092919081815260200182805460018160011615610100020316600290048015610ced5780601f10610cc257610100808354040283529160200191610ced565b820191906000526020600020905b815481529060010190602001808311610cd057829003601f168201915b505050505081565b6000600b60009054906101000a900460ff161515610d1257600080fd5b6000821480610d9d57506000600960003373ffffffffffffffffffffffffffffffffffffffff1673ffffffffffffffffffffffffffffffffffffffff16815260200190815260200160002060008573ffffffffffffffffffffffffffffffffffffffff1673ffffffffffffffffffffffffffffffffffffffff16815260200190815260200160002054145b1515610da857600080fd5b610dd26000809054906101000a900473ffffffffffffffffffffffffffffffffffffffff16610c1b565b15610f1d57600115156000809054906101000a900473ffffffffffffffffffffffffffffffffffffffff1673ffffffffffffffffffffffffffffffffffffffff1663da682aeb3386866040518463ffffffff167c0100000000000000000000000000000000000000000000000000000000028152600401808473ffffffffffffffffffffffffffffffffffffffff1673ffffffffffffffffffffffffffffffffffffffff1681526020018373ffffffffffffffffffffffffffffffffffffffff1673ffffffffffffffffffffffffffffffffffffffff1681526020018281526020019350505050602060405180830381600087803b158015610ed357600080fd5b505af1158015610ee7573d6000803e3d6000fd5b505050506040513d6020811015610efd57600080fd5b81019080805190602001909291905050501515141515610f1c57600080fd5b5b81600960003373ffffffffffffffffffffffffffffffffffffffff1673ffffffffffffffffffffffffffffffffffffffff16815260200190815260200160002060008573ffffffffffffffffffffffffffffffffffffffff1673ffffffffffffffffffffffffffffffffffffffff168152602001908152602001600020819055508273ffffffffffffffffffffffffffffffffffffffff163373ffffffffffffffffffffffffffffffffffffffff167f8c5be1e5ebec7d5bd14f71427d1e84f3dd0314c0f7b2291e5b200ac8c7c3b925846040518082815260200191505060405180910390a36001905092915050565b60075481565b600061101e43611add565b905090565b60008060009054906101000a900473ffffffffffffffffffffffffffffffffffffffff1673ffffffffffffffffffffffffffffffffffffffff163373ffffffffffffffffffffffffffffffffffffffff161415156111ae57600b60009054906101000a900460ff16151561109657600080fd5b81600960008673ffffffffffffffffffffffffffffffffffffffff1673ffffffffffffffffffffffffffffffffffffffff16815260200190815260200160002060003373ffffffffffffffffffffffffffffffffffffffff1673ffffffffffffffffffffffffffffffffffffffff16815260200190815260200160002054101561112357600090506111bc565b81600960008673ffffffffffffffffffffffffffffffffffffffff1673ffffffffffffffffffffffffffffffffffffffff16815260200190815260200160002060003373ffffffffffffffffffffffffffffffffffffffff1673ffffffffffffffffffffffffffffffffffffffff168152602001908152602001600020600082825403925050819055505b6111b984848461243c565b90505b9392505050565b600260009054906101000a900460ff1681565b6000809054906101000a900473ffffffffffffffffffffffffffffffffffffffff1673ffffffffffffffffffffffffffffffffffffffff163373ffffffffffffffffffffffffffffffffffffffff1614151561123157600080fd5b806000806101000a81548173ffffffffffffffffffffffffffffffffffffffff021916908373ffffffffffffffffffffffffffffffffffffffff16021790555050565b600080600860008573ffffffffffffffffffffffffffffffffffffffff1673ffffffffffffffffffffffffffffffffffffffff16815260200190815260200160002080549050148061134d575081600860008573ffffffffffffffffffffffffffffffffffffffff1673ffffffffffffffffffffffffffffffffffffffff168152602001908152602001600020600081548110151561130f57fe5b9060005260206000200160000160009054906101000a90046fffffffffffffffffffffffffffffffff166fffffffffffffffffffffffffffffffff16115b156114af576000600560009054906101000a900473ffffffffffffffffffffffffffffffffffffffff1673ffffffffffffffffffffffffffffffffffffffff161415156114a657600560009054906101000a900473ffffffffffffffffffffffffffffffffffffffff1673ffffffffffffffffffffffffffffffffffffffff16634ee2cd7e846113df85600654612776565b6040518363ffffffff167c0100000000000000000000000000000000000000000000000000000000028152600401808373ffffffffffffffffffffffffffffffffffffffff1673ffffffffffffffffffffffffffffffffffffffff16815260200182815260200192505050602060405180830381600087803b15801561146457600080fd5b505af1158015611478573d6000803e3d6000fd5b505050506040513d602081101561148e57600080fd5b810190808051906020019092919050505090506114fa565b600090506114fa565b6114f7600860008573ffffffffffffffffffffffffffffffffffffffff1673ffffffffffffffffffffffffffffffffffffffff1681526020019081526020016000208361278f565b90505b92915050565b60048054600181600116156101000203166002900480601f0160208091040260200160405190810160405280929190818152602001828054600181600116156101000203166002900480156115965780601f1061156b57610100808354040283529160200191611596565b820191906000526020600020905b81548152906001019060200180831161157957829003601f168201915b505050505081565b60008060008085146115b057846115b5565b600143035b9150600b60019054906101000a900473ffffffffffffffffffffffffffffffffffffffff1673ffffffffffffffffffffffffffffffffffffffff16635b7b72c130848b8b8b8a6040518763ffffffff167c0100000000000000000000000000000000000000000000000000000000028152600401808773ffffffffffffffffffffffffffffffffffffffff1673ffffffffffffffffffffffffffffffffffffffff168152602001868152602001806020018560ff1660ff1681526020018060200184151515158152602001838103835287818151815260200191508051906020019080838360005b838110156116b857808201518184015260208101905061169d565b50505050905090810190601f1680156116e55780820380516001836020036101000a031916815260200191505b50838103825285818151815260200191508051906020019080838360005b8381101561171e578082015181840152602081019050611703565b50505050905090810190601f16801561174b5780820380516001836020036101000a031916815260200191505b5098505050505050505050602060405180830381600087803b15801561177057600080fd5b505af1158015611784573d6000803e3d6000fd5b505050506040513d602081101561179a57600080fd5b810190808051906020019092919050505090508073ffffffffffffffffffffffffffffffffffffffff16633cebb823336040518263ffffffff167c0100000000000000000000000000000000000000000000000000000000028152600401808273ffffffffffffffffffffffffffffffffffffffff1673ffffffffffffffffffffffffffffffffffffffff168152602001915050600060405180830381600087803b15801561184857600080fd5b505af115801561185c573d6000803e3d6000fd5b505050508073ffffffffffffffffffffffffffffffffffffffff167f086c875b377f900b07ce03575813022f05dd10ed7640b5282cf6d3c3fc352ade836040518082815260200191505060405180910390a2809250505095945050505050565b60006118c88243611274565b9050919050565b600560009054906101000a900473ffffffffffffffffffffffffffffffffffffffff1681565b60008060008060009054906101000a900473ffffffffffffffffffffffffffffffffffffffff1673ffffffffffffffffffffffffffffffffffffffff163373ffffffffffffffffffffffffffffffffffffffff1614151561195557600080fd5b61195d611013565b9150818483011015151561197057600080fd5b611979856118bc565b9050808482011015151561198c57600080fd5b611999600a85840161299e565b6119e3600860008773ffffffffffffffffffffffffffffffffffffffff1673ffffffffffffffffffffffffffffffffffffffff16815260200190815260200160002085830161299e565b8473ffffffffffffffffffffffffffffffffffffffff1660007fddf252ad1be2c89b69c2b068fc378daa952ba7f163c4a11628f55a4df523b3ef866040518082815260200191505060405180910390a360019250505092915050565b60038054600181600116156101000203166002900480601f016020809104026020016040519081016040528092919081815260200182805460018160011615610100020316600290048015611ad55780601f10611aaa57610100808354040283529160200191611ad5565b820191906000526020600020905b815481529060010190602001808311611ab857829003601f168201915b505050505081565b600080600a805490501480611b3c575081600a6000815481101515611afe57fe5b9060005260206000200160000160009054906101000a90046fffffffffffffffffffffffffffffffff166fffffffffffffffffffffffffffffffff16115b15611c6a576000600560009054906101000a900473ffffffffffffffffffffffffffffffffffffffff1673ffffffffffffffffffffffffffffffffffffffff16141515611c6157600560009054906101000a900473ffffffffffffffffffffffffffffffffffffffff1673ffffffffffffffffffffffffffffffffffffffff1663981b24d0611bcd84600654612776565b6040518263ffffffff167c010000000000000000000000000000000000000000000000000000000002815260040180828152602001915050602060405180830381600087803b158015611c1f57600080fd5b505af1158015611c33573d6000803e3d6000fd5b505050506040513d6020811015611c4957600080fd5b81019080805190602001909291905050509050611c78565b60009050611c78565b611c75600a8361278f565b90505b919050565b6000600b60009054906101000a900460ff161515611c9a57600080fd5b611ca533848461243c565b905092915050565b600b60009054906101000a900460ff1681565b60065481565b6000611cd28484610cf5565b1515611cdd57600080fd5b8373ffffffffffffffffffffffffffffffffffffffff16638f4ffcb1338530866040518563ffffffff167c0100000000000000000000000000000000000000000000000000000000028152600401808573ffffffffffffffffffffffffffffffffffffffff1673ffffffffffffffffffffffffffffffffffffffff1681526020018481526020018373ffffffffffffffffffffffffffffffffffffffff1673ffffffffffffffffffffffffffffffffffffffff16815260200180602001828103825283818151815260200191508051906020019080838360005b83811015611dd2578082015181840152602081019050611db7565b50505050905090810190601f168015611dff5780820380516001836020036101000a031916815260200191505b5095505050505050600060405180830381600087803b158015611e2157600080fd5b505af1158015611e35573d6000803e3d6000fd5b50505050600190509392505050565b60008060008060009054906101000a900473ffffffffffffffffffffffffffffffffffffffff1673ffffffffffffffffffffffffffffffffffffffff163373ffffffffffffffffffffffffffffffffffffffff16141515611ea457600080fd5b611eac611013565b9150838210151515611ebd57600080fd5b611ec6856118bc565b9050838110151515611ed757600080fd5b611ee4600a85840361299e565b611f2e600860008773ffffffffffffffffffffffffffffffffffffffff1673ffffffffffffffffffffffffffffffffffffffff16815260200190815260200160002085830361299e565b60008573ffffffffffffffffffffffffffffffffffffffff167fddf252ad1be2c89b69c2b068fc378daa952ba7f163c4a11628f55a4df523b3ef866040518082815260200191505060405180910390a360019250505092915050565b6000600960008473ffffffffffffffffffffffffffffffffffffffff1673ffffffffffffffffffffffffffffffffffffffff16815260200190815260200160002060008373ffffffffffffffffffffffffffffffffffffffff1673ffffffffffffffffffffffffffffffffffffffff16815260200190815260200160002054905092915050565b6000806000809054906101000a900473ffffffffffffffffffffffffffffffffffffffff1673ffffffffffffffffffffffffffffffffffffffff163373ffffffffffffffffffffffffffffffffffffffff1614151561206f57600080fd5b60008373ffffffffffffffffffffffffffffffffffffffff161415612112576000809054906101000a900473ffffffffffffffffffffffffffffffffffffffff1673ffffffffffffffffffffffffffffffffffffffff166108fc3073ffffffffffffffffffffffffffffffffffffffff16319081150290604051600060405180830381858888f1935050505015801561210c573d6000803e3d6000fd5b50612374565b8291508173ffffffffffffffffffffffffffffffffffffffff166370a08231306040518263ffffffff167c0100000000000000000000000000000000000000000000000000000000028152600401808273ffffffffffffffffffffffffffffffffffffffff1673ffffffffffffffffffffffffffffffffffffffff168152602001915050602060405180830381600087803b1580156121b057600080fd5b505af11580156121c4573d6000803e3d6000fd5b505050506040513d60208110156121da57600080fd5b810190808051906020019092919050505090508173ffffffffffffffffffffffffffffffffffffffff1663a9059cbb6000809054906101000a900473ffffffffffffffffffffffffffffffffffffffff16836040518363ffffffff167c0100000000000000000000000000000000000000000000000000000000028152600401808373ffffffffffffffffffffffffffffffffffffffff1673ffffffffffffffffffffffffffffffffffffffff16815260200182815260200192505050602060405180830381600087803b1580156122b157600080fd5b505af11580156122c5573d6000803e3d6000fd5b505050506040513d60208110156122db57600080fd5b8101908080519060200190929190505050506000809054906101000a900473ffffffffffffffffffffffffffffffffffffffff1673ffffffffffffffffffffffffffffffffffffffff168373ffffffffffffffffffffffffffffffffffffffff167ff931edb47c50b4b4104c187b5814a9aef5f709e17e2ecf9617e860cacade929c836040518082815260200191505060405180910390a35b505050565b600b60019054906101000a900473ffffffffffffffffffffffffffffffffffffffff1681565b6000809054906101000a900473ffffffffffffffffffffffffffffffffffffffff1673ffffffffffffffffffffffffffffffffffffffff163373ffffffffffffffffffffffffffffffffffffffff161415156123fa57600080fd5b80600b60006101000a81548160ff02191690831515021790555050565b6000809054906101000a900473ffffffffffffffffffffffffffffffffffffffff1681565b600080600080841415612452576001925061276d565b4360065410151561246257600080fd5b60008573ffffffffffffffffffffffffffffffffffffffff16141580156124b557503073ffffffffffffffffffffffffffffffffffffffff168573ffffffffffffffffffffffffffffffffffffffff1614155b15156124c057600080fd5b6124ca8643611274565b9150838210156124dd576000925061276d565b6125076000809054906101000a900473ffffffffffffffffffffffffffffffffffffffff16610c1b565b1561265257600115156000809054906101000a900473ffffffffffffffffffffffffffffffffffffffff1673ffffffffffffffffffffffffffffffffffffffff16634a3931498888886040518463ffffffff167c0100000000000000000000000000000000000000000000000000000000028152600401808473ffffffffffffffffffffffffffffffffffffffff1673ffffffffffffffffffffffffffffffffffffffff1681526020018373ffffffffffffffffffffffffffffffffffffffff1673ffffffffffffffffffffffffffffffffffffffff1681526020018281526020019350505050602060405180830381600087803b15801561260857600080fd5b505af115801561261c573d6000803e3d6000fd5b505050506040513d602081101561263257600080fd5b8101908080519060200190929190505050151514151561265157600080fd5b5b61269c600860008873ffffffffffffffffffffffffffffffffffffffff1673ffffffffffffffffffffffffffffffffffffffff16815260200190815260200160002085840361299e565b6126a68543611274565b905080848201101515156126b957600080fd5b612703600860008773ffffffffffffffffffffffffffffffffffffffff1673ffffffffffffffffffffffffffffffffffffffff16815260200190815260200160002085830161299e565b8473ffffffffffffffffffffffffffffffffffffffff168673ffffffffffffffffffffffffffffffffffffffff167fddf252ad1be2c89b69c2b068fc378daa952ba7f163c4a11628f55a4df523b3ef866040518082815260200191505060405180910390a3600192505b50509392505050565b60008183106127855781612787565b825b905092915050565b6000806000806000868054905014156127ab5760009350612995565b8560018780549050038154811015156127c057fe5b9060005260206000200160000160009054906101000a90046fffffffffffffffffffffffffffffffff166fffffffffffffffffffffffffffffffff168510151561285c5785600187805490500381548110151561281957fe5b9060005260206000200160000160109054906101000a90046fffffffffffffffffffffffffffffffff166fffffffffffffffffffffffffffffffff169350612995565b85600081548110151561286b57fe5b9060005260206000200160000160009054906101000a90046fffffffffffffffffffffffffffffffff166fffffffffffffffffffffffffffffffff168510156128b75760009350612995565b60009250600186805490500391505b828211156129485760026001848401018115156128df57fe5b0490508486828154811015156128f157fe5b9060005260206000200160000160009054906101000a90046fffffffffffffffffffffffffffffffff166fffffffffffffffffffffffffffffffff1611151561293c57809250612943565b6001810391505b6128c6565b858381548110151561295657fe5b9060005260206000200160000160109054906101000a90046fffffffffffffffffffffffffffffffff166fffffffffffffffffffffffffffffffff1693505b50505092915050565b600080600084805490501480612a035750438460018680549050038154811015156129c557fe5b9060005260206000200160000160009054906101000a90046fffffffffffffffffffffffffffffffff166fffffffffffffffffffffffffffffffff16105b15612aaf5783848054809190600101612a1c9190612b12565b815481101515612a2857fe5b906000526020600020019150438260000160006101000a8154816fffffffffffffffffffffffffffffffff02191690836fffffffffffffffffffffffffffffffff160217905550828260000160106101000a8154816fffffffffffffffffffffffffffffffff02191690836fffffffffffffffffffffffffffffffff160217905550612b0c565b836001858054905003815481101515612ac457fe5b906000526020600020019050828160000160106101000a8154816fffffffffffffffffffffffffffffffff02191690836fffffffffffffffffffffffffffffffff1602179055505b50505050565b815481835581811115612b3957818360005260206000209182019101612b389190612b3e565b5b505050565b612ba091905b80821115612b9c57600080820160006101000a8154906fffffffffffffffffffffffffffffffff02191690556000820160106101000a8154906fffffffffffffffffffffffffffffffff021916905550600101612b44565b5090565b905600a165627a7a72305820c7b9b3063f6e29af3d8e5a96f48a9c504bc35143949f0e035d32872d06e0d9e30029a165627a7a723058204405d9ae04d7852aae252755b47489e8cb86fcd1581ccf7c3e686e0b2c68ef320029",
  "source": "/*\n * SPDX-License-Identitifer:    GPL-3.0-or-later\n *\n * This file requires contract dependencies which are licensed as\n * GPL-3.0-or-later, forcing it to also be licensed as such.\n *\n * This is the only file in your project that requires this license and\n * you are free to choose a different license for the rest of the project.\n */\n\npragma solidity 0.4.24;\n\nimport \"@aragon/os/contracts/factory/DAOFactory.sol\";\nimport \"@aragon/os/contracts/apm/Repo.sol\";\nimport \"@aragon/os/contracts/lib/ens/ENS.sol\";\nimport \"@aragon/os/contracts/lib/ens/PublicResolver.sol\";\nimport \"@aragon/os/contracts/apm/APMNamehash.sol\";\n\nimport \"@aragon/apps-voting/contracts/Voting.sol\";\nimport \"@aragon/apps-vault/contracts/Vault.sol\";\nimport \"@aragon/apps-finance/contracts/Finance.sol\";\nimport \"../../MyTokens/contracts/MyTokens.sol\";\nimport \"../../MyID/contracts/MyID.sol\";\nimport \"../../../contracts/StandardToken.sol\";\nimport \"../../../contracts/TokenSale.sol\";\nimport \"@aragon/apps-shared-minime/contracts/MiniMeToken.sol\";\n\ncontract TemplateBase is APMNamehash {\n    ENS public ens;\n    DAOFactory public fac;\n\n    event DeployInstance(address dao);\n    event InstalledApp(address appProxy, bytes32 appId);\n\n    constructor(DAOFactory _fac, ENS _ens) {\n        ens = _ens;\n\n        // If no factory is passed, get it from on-chain bare-kit\n        if (address(_fac) == address(0)) {\n            bytes32 bareKit = apmNamehash(\"bare-kit\");\n            fac = TemplateBase(latestVersionAppBase(bareKit)).fac();\n        } else {\n            fac = _fac;\n        }\n    }\n\n    function latestVersionAppBase(bytes32 appId) public view returns (address base) {\n        Repo repo = Repo(PublicResolver(ens.resolver(appId)).addr(appId));\n        (,base,) = repo.getLatest();\n\n        return base;\n    }\n}\n\ncontract MyBitTemplate is TemplateBase {\n    MiniMeTokenFactory tokenFactory;\n    address myb;\n    address tokensale;\n    //address constant myb = address(0x5d60d8d7eF6d37E16EBABc324de3bE57f135e0BC);\n    //address constant tokensale = address(0xCcA36039cfDd0753D3aA9F1B4Bf35b606c8Ed971);\n\n    uint64 constant PCT = 10 ** 16;\n\n    //address[] constant whitelist = [address(0x06134Ad890B6eDb42Bc0487c4e8dBbc17e3E0326)];\n    address constant whitelist = address(0xb4124cEB3451635DAcedd11767f004d8a28c6eE7);\n    string constant hashlist = 'QmanPRXCzxXXfizjnWr7Fe5x57GH4gBTrFN9nUY1vVdLCV';\n    uint256[] lockAmounts = [10**18, 10**23, 10**23, 10**23, 10**23];\n    uint256[] lockIntervals = [0, 3, 12, 24, 36];\n    uint256[] tokenIntervals = [10, 20, 50, 80, 130];\n\n    constructor(ENS ens, address _token, address _tokensale) TemplateBase(DAOFactory(0), ens) {\n        tokenFactory = new MiniMeTokenFactory();\n        myb = _token;\n        tokensale = _tokensale;\n    }\n\n    function newInstance() {\n        Kernel dao = fac.newDAO(this);\n        ACL acl = ACL(dao.acl());\n        acl.createPermission(this, dao, dao.APP_MANAGER_ROLE(), this);\n        (Voting voting, Vault vault, Finance finance) = setupAragonApps(dao);\n        (MyTokens myTokens, MyID myID, MiniMeToken token) = setupMyBitApps(dao);\n        initializeApps(voting, vault, finance, token, myTokens, myID);\n        setupPermissions(dao, acl, voting, myTokens, vault, finance, myID, msg.sender);\n        emit DeployInstance(dao);\n    }\n\n    function setupAragonApps(Kernel _dao) internal returns (Voting voting, Vault vault, Finance finance){\n      bytes32 votingAppId = apmNamehash(\"voting\");\n      bytes32 vaultAppId = apmNamehash(\"vault\");\n      bytes32 financeAppId = apmNamehash(\"finance\");\n\n      vault = Vault(_dao.newAppInstance(vaultAppId, latestVersionAppBase(vaultAppId), '', true));\n      finance = Finance(_dao.newAppInstance(financeAppId, latestVersionAppBase(financeAppId)));\n      voting = Voting(_dao.newAppInstance(votingAppId, latestVersionAppBase(votingAppId)));\n\n      return (voting, vault, finance);\n    }\n\n    function setupMyBitApps(Kernel _dao) internal returns (MyTokens myTokens, MyID myID, MiniMeToken token){\n      //bytes32 myTokensAppId = apmNamehash(\"mytokens.open.aragonpm.eth\");\n      //bytes32 myIDAppId = apmNamehash(\"myid.open.aragonpm.eth\");\n      bytes32 myTokensAppId = apmNamehash(\"mytokens\");\n      bytes32 myIDAppId = apmNamehash(\"myid\");\n\n      myTokens = MyTokens(_dao.newAppInstance(myTokensAppId, latestVersionAppBase(myTokensAppId)));\n      myID = MyID(_dao.newAppInstance(myIDAppId, latestVersionAppBase(myIDAppId)));\n\n      token = tokenFactory.createCloneToken(MiniMeToken(0), 0, \"MyVote\", 1, \"MYV\", true);\n      //token.generateTokens(msg.sender, 1);\n      token.changeController(myTokens);\n\n      //_acl.createPermission(this, myTokens, myTokens.LOCK_ROLE(), this);\n      //myTokens.mint(_root, 1); // Give one token to _root\n\n      //setupPermissions(_dao, _acl, voting, myTokens, vault, finance, myID, root);\n      return (myTokens, myID, token);\n    }\n\n    function initializeApps(Voting _voting, Vault _vault, Finance _finance, MiniMeToken _token, MyTokens _myTokens, MyID _myID) internal{\n      // Initialize apps\n      _vault.initialize();\n      _finance.initialize(_vault, 30 days);\n      _myTokens.initialize(_token, myb, tokensale, address(_myID), lockAmounts, lockIntervals, tokenIntervals);\n      _voting.initialize(_token, (50 * PCT)+1, 20 * PCT, 14 days);\n      _myID.initialize(address(_token), address(_voting), whitelist, hashlist);\n    }\n\n    function setupPermissions(Kernel _dao, ACL _acl, Voting _voting, MyTokens _myTokens, Vault _vault, Finance _finance, MyID _myID, address _root) internal{\n      _acl.createPermission(_myTokens, _voting, _voting.CREATE_VOTES_ROLE(), _voting);\n\n      _acl.createPermission(_voting, _myID, _myID.AUTHORIZE_ROLE(), _voting);\n      _acl.createPermission(_voting, _myTokens, _myTokens.BURN_ROLE(), _voting);\n      _acl.createPermission(_voting, _myTokens, _myTokens.MANAGER_ROLE(), _voting);\n      //_acl.createPermission(_voting, _vault, _vault.TRANSFER_ROLE(), _voting);\n\n      _acl.createPermission(_finance, _vault, _vault.TRANSFER_ROLE(), _voting);\n      _acl.createPermission(_voting, _finance, _finance.CREATE_PAYMENTS_ROLE(), _voting);\n      _acl.createPermission(_voting, _finance, _finance.EXECUTE_PAYMENTS_ROLE(), _voting);\n      _acl.createPermission(_voting, _finance, _finance.MANAGE_PAYMENTS_ROLE(), _voting);\n\n      // Clean up permissions\n      _acl.grantPermission(_root, _dao, _dao.APP_MANAGER_ROLE());\n      _acl.revokePermission(this, _dao, _dao.APP_MANAGER_ROLE());\n      _acl.setPermissionManager(_root, _dao, _dao.APP_MANAGER_ROLE());\n\n      _acl.grantPermission(_root, _acl, _acl.CREATE_PERMISSIONS_ROLE());\n      _acl.revokePermission(this, _acl, _acl.CREATE_PERMISSIONS_ROLE());\n      _acl.setPermissionManager(_root, _acl, _acl.CREATE_PERMISSIONS_ROLE());\n    }\n}\n",
  "sourcePath": "/home/peter/Documents/Work/MyBit/MyBit-DAO.tech/apps/MyBitTemplate/contracts/MyBitTemplate.sol",
  "compiler": {
    "name": "solc",
    "version": "0.4.24+commit.e67f0147.Emscripten.clang"
  },
  "schemaVersion": "2.0.1",
  "updatedAt": "2019-04-23T00:32:27.662Z"
}