{
  "contractName": "Vault",
  "abi": [
    {
      "constant": true,
      "inputs": [],
      "name": "hasInitialized",
      "outputs": [
        {
          "name": "",
          "type": "bool"
        }
      ],
      "payable": false,
      "stateMutability": "view",
      "type": "function"
    },
    {
      "constant": true,
      "inputs": [],
      "name": "TRANSFER_ROLE",
      "outputs": [
        {
          "name": "",
          "type": "bytes32"
        }
      ],
      "payable": false,
      "stateMutability": "view",
      "type": "function"
    },
    {
      "constant": true,
      "inputs": [
        {
          "name": "_script",
          "type": "bytes"
        }
      ],
      "name": "getEVMScriptExecutor",
      "outputs": [
        {
          "name": "",
          "type": "address"
        }
      ],
      "payable": false,
      "stateMutability": "view",
      "type": "function"
    },
    {
      "constant": true,
      "inputs": [],
      "name": "getRecoveryVault",
      "outputs": [
        {
          "name": "",
          "type": "address"
        }
      ],
      "payable": false,
      "stateMutability": "view",
      "type": "function"
    },
    {
      "constant": true,
      "inputs": [],
      "name": "isDepositable",
      "outputs": [
        {
          "name": "",
          "type": "bool"
        }
      ],
      "payable": false,
      "stateMutability": "view",
      "type": "function"
    },
    {
      "constant": true,
      "inputs": [],
      "name": "appId",
      "outputs": [
        {
          "name": "",
          "type": "bytes32"
        }
      ],
      "payable": false,
      "stateMutability": "view",
      "type": "function"
    },
    {
      "constant": true,
      "inputs": [],
      "name": "getInitializationBlock",
      "outputs": [
        {
          "name": "",
          "type": "uint256"
        }
      ],
      "payable": false,
      "stateMutability": "view",
      "type": "function"
    },
    {
      "constant": false,
      "inputs": [
        {
          "name": "_token",
          "type": "address"
        }
      ],
      "name": "transferToVault",
      "outputs": [],
      "payable": false,
      "stateMutability": "nonpayable",
      "type": "function"
    },
    {
      "constant": true,
      "inputs": [
        {
          "name": "_sender",
          "type": "address"
        },
        {
          "name": "_role",
          "type": "bytes32"
        },
        {
          "name": "_params",
          "type": "uint256[]"
        }
      ],
      "name": "canPerform",
      "outputs": [
        {
          "name": "",
          "type": "bool"
        }
      ],
      "payable": false,
      "stateMutability": "view",
      "type": "function"
    },
    {
      "constant": true,
      "inputs": [],
      "name": "getEVMScriptRegistry",
      "outputs": [
        {
          "name": "",
          "type": "address"
        }
      ],
      "payable": false,
      "stateMutability": "view",
      "type": "function"
    },
    {
      "constant": true,
      "inputs": [],
      "name": "kernel",
      "outputs": [
        {
          "name": "",
          "type": "address"
        }
      ],
      "payable": false,
      "stateMutability": "view",
      "type": "function"
    },
    {
      "constant": true,
      "inputs": [],
      "name": "isPetrified",
      "outputs": [
        {
          "name": "",
          "type": "bool"
        }
      ],
      "payable": false,
      "stateMutability": "view",
      "type": "function"
    },
    {
      "payable": true,
      "stateMutability": "payable",
      "type": "fallback"
    },
    {
      "anonymous": false,
      "inputs": [
        {
          "indexed": true,
          "name": "token",
          "type": "address"
        },
        {
          "indexed": true,
          "name": "to",
          "type": "address"
        },
        {
          "indexed": false,
          "name": "amount",
          "type": "uint256"
        }
      ],
      "name": "VaultTransfer",
      "type": "event"
    },
    {
      "anonymous": false,
      "inputs": [
        {
          "indexed": true,
          "name": "token",
          "type": "address"
        },
        {
          "indexed": true,
          "name": "sender",
          "type": "address"
        },
        {
          "indexed": false,
          "name": "amount",
          "type": "uint256"
        }
      ],
      "name": "VaultDeposit",
      "type": "event"
    },
    {
      "anonymous": false,
      "inputs": [
        {
          "indexed": true,
          "name": "executor",
          "type": "address"
        },
        {
          "indexed": false,
          "name": "script",
          "type": "bytes"
        },
        {
          "indexed": false,
          "name": "input",
          "type": "bytes"
        },
        {
          "indexed": false,
          "name": "returnData",
          "type": "bytes"
        }
      ],
      "name": "ScriptResult",
      "type": "event"
    },
    {
      "anonymous": false,
      "inputs": [
        {
          "indexed": true,
          "name": "vault",
          "type": "address"
        },
        {
          "indexed": true,
          "name": "token",
          "type": "address"
        },
        {
          "indexed": false,
          "name": "amount",
          "type": "uint256"
        }
      ],
      "name": "RecoverToVault",
      "type": "event"
    },
    {
      "constant": false,
      "inputs": [],
      "name": "initialize",
      "outputs": [],
      "payable": false,
      "stateMutability": "nonpayable",
      "type": "function"
    },
    {
      "constant": false,
      "inputs": [
        {
          "name": "_token",
          "type": "address"
        },
        {
          "name": "_value",
          "type": "uint256"
        }
      ],
      "name": "deposit",
      "outputs": [],
      "payable": true,
      "stateMutability": "payable",
      "type": "function"
    },
    {
      "constant": false,
      "inputs": [
        {
          "name": "_token",
          "type": "address"
        },
        {
          "name": "_to",
          "type": "address"
        },
        {
          "name": "_value",
          "type": "uint256"
        }
      ],
      "name": "transfer",
      "outputs": [],
      "payable": false,
      "stateMutability": "nonpayable",
      "type": "function"
    },
    {
      "constant": true,
      "inputs": [
        {
          "name": "_token",
          "type": "address"
        }
      ],
      "name": "balance",
      "outputs": [
        {
          "name": "",
          "type": "uint256"
        }
      ],
      "payable": false,
      "stateMutability": "view",
      "type": "function"
    },
    {
      "constant": true,
      "inputs": [
        {
          "name": "",
          "type": "address"
        }
      ],
      "name": "allowRecoverability",
      "outputs": [
        {
          "name": "",
          "type": "bool"
        }
      ],
      "payable": false,
      "stateMutability": "view",
      "type": "function"
    }
  ],
  "bytecode": "0x60806040526200001d62000023640100000000026401000000009004565b62000309565b60006200003e6200015e640100000000026401000000009004565b146040805190810160405280601881526020017f494e49545f414c52454144595f494e495449414c495a4544000000000000000081525090151562000121576040517f08c379a00000000000000000000000000000000000000000000000000000000081526004018080602001828103825283818151815260200191508051906020019080838360005b83811015620000e5578082015181840152602081019050620000c8565b50505050905090810190601f168015620001135780820380516001836020036101000a031916815260200191505b509250505060405180910390fd5b506200015c7fffffffffffffffffffffffffffffffffffffffffffffffffffffffffffffffff620001ab640100000000026401000000009004565b565b6000620001a67febb05b386a8d34882b8711d156f463690983dc47815980fb82aeeff1aa43579e60010260001916620002f764010000000002620020d6176401000000009004565b905090565b6000620001c66200015e640100000000026401000000009004565b146040805190810160405280601881526020017f494e49545f414c52454144595f494e495449414c495a45440000000000000000815250901515620002a9576040517f08c379a00000000000000000000000000000000000000000000000000000000081526004018080602001828103825283818151815260200191508051906020019080838360005b838110156200026d57808201518184015260208101905062000250565b50505050905090810190601f1680156200029b5780820380516001836020036101000a031916815260200191505b509250505060405180910390fd5b50620002f4817febb05b386a8d34882b8711d156f463690983dc47815980fb82aeeff1aa43579e600102600019166200030264010000000002620024a3179091906401000000009004565b50565b600081549050919050565b8082555050565b6125a880620003196000396000f3006080604052600436106100f1576000357c0100000000000000000000000000000000000000000000000000000000900463ffffffff1680630803fac0146102cb578063206b60f9146102fa5780632914b9bd1461032d57806332f0a3b5146103d657806347e7ef241461042d57806348a0c8dd1461046d5780637e7db6e11461049c57806380afdea8146104f75780638129fc1c1461052a5780638b3dd749146105415780639d4941d81461056c578063a1658fad146105af578063a479e5081461065b578063beabacc8146106b2578063d4aae0c41461071f578063de4796ed14610776578063e3d670d7146107a5575b6100f96107fc565b6040805190810160405280601481526020017f494e49545f4e4f545f494e495449414c495a45440000000000000000000000008152509015156101d7576040517f08c379a00000000000000000000000000000000000000000000000000000000081526004018080602001828103825283818151815260200191508051906020019080838360005b8381101561019c578082015181840152602081019050610181565b50505050905090810190601f1680156101c95780820380516001836020036101000a031916815260200191505b509250505060405180910390fd5b50600080369050146040805190810160405280601381526020017f5641554c545f444154415f4e4f4e5f5a45524f000000000000000000000000008152509015156102bd576040517f08c379a00000000000000000000000000000000000000000000000000000000081526004018080602001828103825283818151815260200191508051906020019080838360005b83811015610282578082015181840152602081019050610267565b50505050905090810190601f1680156102af5780820380516001836020036101000a031916815260200191505b509250505060405180910390fd5b506102c9600034610827565b005b3480156102d757600080fd5b506102e06107fc565b604051808215151515815260200191505060405180910390f35b34801561030657600080fd5b5061030f610c83565b60405180826000191660001916815260200191505060405180910390f35b34801561033957600080fd5b50610394600480360381019080803590602001908201803590602001908080601f0160208091040260200160405190810160405280939291908181526020018383808284378201915050505050509192919290505050610cbc565b604051808273ffffffffffffffffffffffffffffffffffffffff1673ffffffffffffffffffffffffffffffffffffffff16815260200191505060405180910390f35b3480156103e257600080fd5b506103eb610ddb565b604051808273ffffffffffffffffffffffffffffffffffffffff1673ffffffffffffffffffffffffffffffffffffffff16815260200191505060405180910390f35b61046b600480360381019080803573ffffffffffffffffffffffffffffffffffffffff16906020019092919080359060200190929190505050610e88565b005b34801561047957600080fd5b50610482610f7d565b604051808215151515815260200191505060405180910390f35b3480156104a857600080fd5b506104dd600480360381019080803573ffffffffffffffffffffffffffffffffffffffff169060200190929190505050610fb4565b604051808215151515815260200191505060405180910390f35b34801561050357600080fd5b5061050c610fbe565b60405180826000191660001916815260200191505060405180910390f35b34801561053657600080fd5b5061053f610ff5565b005b34801561054d57600080fd5b506105566110f3565b6040518082815260200191505060405180910390f35b34801561057857600080fd5b506105ad600480360381019080803573ffffffffffffffffffffffffffffffffffffffff16906020019092919050505061112a565b005b3480156105bb57600080fd5b50610641600480360381019080803573ffffffffffffffffffffffffffffffffffffffff169060200190929190803560001916906020019092919080359060200190820180359060200190808060200260200160405190810160405280939291908181526020018383602002808284378201915050505050509192919290505050611548565b604051808215151515815260200191505060405180910390f35b34801561066757600080fd5b50610670611744565b604051808273ffffffffffffffffffffffffffffffffffffffff1673ffffffffffffffffffffffffffffffffffffffff16815260200191505060405180910390f35b3480156106be57600080fd5b5061071d600480360381019080803573ffffffffffffffffffffffffffffffffffffffff169060200190929190803573ffffffffffffffffffffffffffffffffffffffff1690602001909291908035906020019092919050505061185f565b005b34801561072b57600080fd5b50610734611d32565b604051808273ffffffffffffffffffffffffffffffffffffffff1673ffffffffffffffffffffffffffffffffffffffff16815260200191505060405180910390f35b34801561078257600080fd5b5061078b611d69565b604051808215151515815260200191505060405180910390f35b3480156107b157600080fd5b506107e6600480360381019080803573ffffffffffffffffffffffffffffffffffffffff169060200190929190505050611d9a565b6040518082815260200191505060405180910390f35b6000806108076110f3565b90506000811415801561082157508061081e611e20565b10155b91505090565b61082f610f7d565b6040805190810160405280601581526020017f5641554c545f4e4f545f4445504f53495441424c45000000000000000000000081525090151561090d576040517f08c379a00000000000000000000000000000000000000000000000000000000081526004018080602001828103825283818151815260200191508051906020019080838360005b838110156108d25780820151818401526020810190506108b7565b50505050905090810190601f1680156108ff5780820380516001836020036101000a031916815260200191505b509250505060405180910390fd5b50600081116040805190810160405280601881526020017f5641554c545f4445504f5349545f56414c55455f5a45524f00000000000000008152509015156109f0576040517f08c379a00000000000000000000000000000000000000000000000000000000081526004018080602001828103825283818151815260200191508051906020019080838360005b838110156109b557808201518184015260208101905061099a565b50505050905090810190601f1680156109e25780820380516001836020036101000a031916815260200191505b509250505060405180910390fd5b50600073ffffffffffffffffffffffffffffffffffffffff168273ffffffffffffffffffffffffffffffffffffffff161415610b0d578034146040805190810160405280601481526020017f5641554c545f56414c55455f4d49534d41544348000000000000000000000000815250901515610b07576040517f08c379a00000000000000000000000000000000000000000000000000000000081526004018080602001828103825283818151815260200191508051906020019080838360005b83811015610acc578082015181840152602081019050610ab1565b50505050905090810190601f168015610af95780820380516001836020036101000a031916815260200191505b509250505060405180910390fd5b50610c1a565b610b3a3330838573ffffffffffffffffffffffffffffffffffffffff16611e28909392919063ffffffff16565b6040805190810160405280602081526020017f5641554c545f544f4b454e5f5452414e534645525f46524f4d5f524556455254815250901515610c18576040517f08c379a00000000000000000000000000000000000000000000000000000000081526004018080602001828103825283818151815260200191508051906020019080838360005b83811015610bdd578082015181840152602081019050610bc2565b50505050905090810190601f168015610c0a5780820380516001836020036101000a031916815260200191505b509250505060405180910390fd5b505b3373ffffffffffffffffffffffffffffffffffffffff168273ffffffffffffffffffffffffffffffffffffffff167f2790b90165fd3973ad7edde4eca71b4f8808dd4857a2a3a3e8ae5642a5cb196e836040518082815260200191505060405180910390a35050565b60405180807f5452414e534645525f524f4c4500000000000000000000000000000000000000815250600d019050604051809103902081565b6000610cc6611744565b73ffffffffffffffffffffffffffffffffffffffff166304bf2a7f836040518263ffffffff167c01000000000000000000000000000000000000000000000000000000000281526004018080602001828103825283818151815260200191508051906020019080838360005b83811015610d4d578082015181840152602081019050610d32565b50505050905090810190601f168015610d7a5780820380516001836020036101000a031916815260200191505b5092505050602060405180830381600087803b158015610d9957600080fd5b505af1158015610dad573d6000803e3d6000fd5b505050506040513d6020811015610dc357600080fd5b81019080805190602001909291905050509050919050565b6000610de5611d32565b73ffffffffffffffffffffffffffffffffffffffff166332f0a3b56040518163ffffffff167c0100000000000000000000000000000000000000000000000000000000028152600401602060405180830381600087803b158015610e4857600080fd5b505af1158015610e5c573d6000803e3d6000fd5b505050506040513d6020811015610e7257600080fd5b8101908080519060200190929190505050905090565b610e906107fc565b6040805190810160405280601481526020017f494e49545f4e4f545f494e495449414c495a4544000000000000000000000000815250901515610f6e576040517f08c379a00000000000000000000000000000000000000000000000000000000081526004018080602001828103825283818151815260200191508051906020019080838360005b83811015610f33578082015181840152602081019050610f18565b50505050905090810190601f168015610f605780820380516001836020036101000a031916815260200191505b509250505060405180910390fd5b50610f798282610827565b5050565b6000610faf7f665fd576fbbe6f247aff98f5c94a561e3f71ec2d3c988d56f12d342396c50cea60010260001916611f56565b905090565b6000809050919050565b6000610ff07fd625496217aa6a3453eecb9c3489dc5a53e6c67b444329ea2b2cbc9ff547639b60010260001916611f61565b905090565b6000610fff6110f3565b146040805190810160405280601881526020017f494e49545f414c52454144595f494e495449414c495a454400000000000000008152509015156110de576040517f08c379a00000000000000000000000000000000000000000000000000000000081526004018080602001828103825283818151815260200191508051906020019080838360005b838110156110a3578082015181840152602081019050611088565b50505050905090810190601f1680156110d05780820380516001836020036101000a031916815260200191505b509250505060405180910390fd5b506110e7611f6c565b6110f16001612099565b565b60006111257febb05b386a8d34882b8711d156f463690983dc47815980fb82aeeff1aa43579e600102600019166120d6565b905090565b600080600061113884610fb4565b6040805190810160405280601281526020017f5245434f5645525f444953414c4c4f5745440000000000000000000000000000815250901515611216576040517f08c379a00000000000000000000000000000000000000000000000000000000081526004018080602001828103825283818151815260200191508051906020019080838360005b838110156111db5780820151818401526020810190506111c0565b50505050905090810190601f1680156112085780820380516001836020036101000a031916815260200191505b509250505060405180910390fd5b5061121f610ddb565b925061122a836120e1565b6040805190810160405280601a81526020017f5245434f5645525f5641554c545f4e4f545f434f4e5452414354000000000000815250901515611308576040517f08c379a00000000000000000000000000000000000000000000000000000000081526004018080602001828103825283818151815260200191508051906020019080838360005b838110156112cd5780820151818401526020810190506112b2565b50505050905090810190601f1680156112fa5780820380516001836020036101000a031916815260200191505b509250505060405180910390fd5b50600073ffffffffffffffffffffffffffffffffffffffff168473ffffffffffffffffffffffffffffffffffffffff1614156113a4573073ffffffffffffffffffffffffffffffffffffffff163191508273ffffffffffffffffffffffffffffffffffffffff166108fc839081150290604051600060405180830381858888f1935050505015801561139e573d6000803e3d6000fd5b506114dd565b8390506113d0308273ffffffffffffffffffffffffffffffffffffffff1661213390919063ffffffff16565b91506113fd83838373ffffffffffffffffffffffffffffffffffffffff1661230d9092919063ffffffff16565b6040805190810160405280601d81526020017f5245434f5645525f544f4b454e5f5452414e534645525f4641494c45440000008152509015156114db576040517f08c379a00000000000000000000000000000000000000000000000000000000081526004018080602001828103825283818151815260200191508051906020019080838360005b838110156114a0578082015181840152602081019050611485565b50505050905090810190601f1680156114cd5780820380516001836020036101000a031916815260200191505b509250505060405180910390fd5b505b8373ffffffffffffffffffffffffffffffffffffffff168373ffffffffffffffffffffffffffffffffffffffff167f596caf56044b55fb8c4ca640089bbc2b63cae3e978b851f5745cbb7c5b288e02846040518082815260200191505060405180910390a350505050565b6000806115536107fc565b1515611562576000915061173c565b61156a611d32565b9050600073ffffffffffffffffffffffffffffffffffffffff168173ffffffffffffffffffffffffffffffffffffffff1614156115aa576000915061173c565b8073ffffffffffffffffffffffffffffffffffffffff1663fdef91068630876115d2886123ed565b6040518563ffffffff167c0100000000000000000000000000000000000000000000000000000000028152600401808573ffffffffffffffffffffffffffffffffffffffff1673ffffffffffffffffffffffffffffffffffffffff1681526020018473ffffffffffffffffffffffffffffffffffffffff1673ffffffffffffffffffffffffffffffffffffffff168152602001836000191660001916815260200180602001828103825283818151815260200191508051906020019080838360005b838110156116af578082015181840152602081019050611694565b50505050905090810190601f1680156116dc5780820380516001836020036101000a031916815260200191505b5095505050505050602060405180830381600087803b1580156116fe57600080fd5b505af1158015611712573d6000803e3d6000fd5b505050506040513d602081101561172857600080fd5b810190808051906020019092919050505091505b509392505050565b60008061174f611d32565b73ffffffffffffffffffffffffffffffffffffffff1663be00bbd87fd6f028ca0e8edb4a8c9757ca4fdccab25fa1e0317da1188108f7d2dee14902fb6001027fddbcfd564f642ab5627cf68b9b7d374fb4f8a36e941a75d89c87998cef03bd616001026040518363ffffffff167c0100000000000000000000000000000000000000000000000000000000028152600401808360001916600019168152602001826000191660001916815260200192505050602060405180830381600087803b15801561181b57600080fd5b505af115801561182f573d6000803e3d6000fd5b505050506040513d602081101561184557600080fd5b810190808051906020019092919050505090508091505090565b60405180807f5452414e534645525f524f4c4500000000000000000000000000000000000000815250600d01905060405180910390206118a0848484612404565b6118ab338383611548565b6040805190810160405280600f81526020017f4150505f415554485f4641494c45440000000000000000000000000000000000815250901515611989576040517f08c379a00000000000000000000000000000000000000000000000000000000081526004018080602001828103825283818151815260200191508051906020019080838360005b8381101561194e578082015181840152602081019050611933565b50505050905090810190601f16801561197b5780820380516001836020036101000a031916815260200191505b509250505060405180910390fd5b50600083116040805190810160405280601981526020017f5641554c545f5452414e534645525f56414c55455f5a45524f00000000000000815250901515611a6c576040517f08c379a00000000000000000000000000000000000000000000000000000000081526004018080602001828103825283818151815260200191508051906020019080838360005b83811015611a31578082015181840152602081019050611a16565b50505050905090810190601f168015611a5e5780820380516001836020036101000a031916815260200191505b509250505060405180910390fd5b50600073ffffffffffffffffffffffffffffffffffffffff168573ffffffffffffffffffffffffffffffffffffffff161415611bbb578373ffffffffffffffffffffffffffffffffffffffff166108fc849081150290604051600060405180830381858888f193505050506040805190810160405280601381526020017f5641554c545f53454e445f524556455254454400000000000000000000000000815250901515611bb5576040517f08c379a00000000000000000000000000000000000000000000000000000000081526004018080602001828103825283818151815260200191508051906020019080838360005b83811015611b7a578082015181840152602081019050611b5f565b50505050905090810190601f168015611ba75780820380516001836020036101000a031916815260200191505b509250505060405180910390fd5b50611cc6565b611be684848773ffffffffffffffffffffffffffffffffffffffff1661230d9092919063ffffffff16565b6040805190810160405280601d81526020017f5641554c545f544f4b454e5f5452414e534645525f5245564552544544000000815250901515611cc4576040517f08c379a00000000000000000000000000000000000000000000000000000000081526004018080602001828103825283818151815260200191508051906020019080838360005b83811015611c89578082015181840152602081019050611c6e565b50505050905090810190601f168015611cb65780820380516001836020036101000a031916815260200191505b509250505060405180910390fd5b505b8373ffffffffffffffffffffffffffffffffffffffff168573ffffffffffffffffffffffffffffffffffffffff167f239e7f6cdac8fb35a788a46b431b54da87de90b82448a2c294be5e92a6e579af856040518082815260200191505060405180910390a35050505050565b6000611d647f4172f0f7d2289153072b0a6ca36959e0cbe2efc3afe50fc81636caa96338137b60010260001916612446565b905090565b60007fffffffffffffffffffffffffffffffffffffffffffffffffffffffffffffffff611d946110f3565b14905090565b60008073ffffffffffffffffffffffffffffffffffffffff168273ffffffffffffffffffffffffffffffffffffffff161415611def573073ffffffffffffffffffffffffffffffffffffffff16319050611e1b565b611e18308373ffffffffffffffffffffffffffffffffffffffff1661213390919063ffffffff16565b90505b919050565b600043905090565b600060608573ffffffffffffffffffffffffffffffffffffffff166323b872dd90507c010000000000000000000000000000000000000000000000000000000002858585604051602401808473ffffffffffffffffffffffffffffffffffffffff1673ffffffffffffffffffffffffffffffffffffffff1681526020018373ffffffffffffffffffffffffffffffffffffffff1673ffffffffffffffffffffffffffffffffffffffff1681526020018281526020019350505050604051602081830303815290604052907bffffffffffffffffffffffffffffffffffffffffffffffffffffffff19166020820180517bffffffffffffffffffffffffffffffffffffffffffffffffffffffff83818316178352505050509050611f4b8682612451565b915050949350505050565b600081549050919050565b600081549050919050565b6000611f766110f3565b146040805190810160405280601881526020017f494e49545f414c52454144595f494e495449414c495a45440000000000000000815250901515612055576040517f08c379a00000000000000000000000000000000000000000000000000000000081526004018080602001828103825283818151815260200191508051906020019080838360005b8381101561201a578082015181840152602081019050611fff565b50505050905090810190601f1680156120475780820380516001836020036101000a031916815260200191505b509250505060405180910390fd5b50612097612061611e20565b7febb05b386a8d34882b8711d156f463690983dc47815980fb82aeeff1aa43579e600102600019166124a390919063ffffffff16565b565b6120d3817f665fd576fbbe6f247aff98f5c94a561e3f71ec2d3c988d56f12d342396c50cea600102600019166124aa90919063ffffffff16565b50565b600081549050919050565b600080600073ffffffffffffffffffffffffffffffffffffffff168373ffffffffffffffffffffffffffffffffffffffff161415612122576000915061212d565b823b90506000811191505b50919050565b600060606000808573ffffffffffffffffffffffffffffffffffffffff166370a0823190507c01000000000000000000000000000000000000000000000000000000000285604051602401808273ffffffffffffffffffffffffffffffffffffffff1673ffffffffffffffffffffffffffffffffffffffff168152602001915050604051602081830303815290604052907bffffffffffffffffffffffffffffffffffffffffffffffffffffffff19166020820180517bffffffffffffffffffffffffffffffffffffffffffffffffffffffff8381831617835250505050925061221d86846124b1565b91509150816040805190810160405280601c81526020017f534146455f4552435f32305f42414c414e43455f524556455254454400000000815250901515612300576040517f08c379a00000000000000000000000000000000000000000000000000000000081526004018080602001828103825283818151815260200191508051906020019080838360005b838110156122c55780820151818401526020810190506122aa565b50505050905090810190601f1680156122f25780820380516001836020036101000a031916815260200191505b509250505060405180910390fd5b5080935050505092915050565b6000606063a9059cbb7c0100000000000000000000000000000000000000000000000000000000028484604051602401808373ffffffffffffffffffffffffffffffffffffffff1673ffffffffffffffffffffffffffffffffffffffff16815260200182815260200192505050604051602081830303815290604052907bffffffffffffffffffffffffffffffffffffffffffffffffffffffff19166020820180517bffffffffffffffffffffffffffffffffffffffffffffffffffffffff838183161783525050505090506123e38582612451565b9150509392505050565b606060006020835102905082915080825250919050565b606061243d8473ffffffffffffffffffffffffffffffffffffffff168473ffffffffffffffffffffffffffffffffffffffff16846124e6565b90509392505050565b600081549050919050565b6000806040516020818551602087016000895af16000811115612497573d60008114612484576020811461248d57612495565b60019350612495565b600183511493505b505b50508091505092915050565b8082555050565b8082555050565b6000806000806040516020818751602089018a5afa925060008311156124d657805191505b5081819350935050509250929050565b606060036040519080825280602002602001820160405280156125185781602001602082028038833980820191505090505b5090508381600081518110151561252b57fe5b90602001906020020181815250508281600181518110151561254957fe5b90602001906020020181815250508181600281518110151561256757fe5b906020019060200201818152505093925050505600a165627a7a72305820438bb3f10199fb69f8c0cf91011f547d24eeeb77e87abd11d92f94d2d4920eee0029",
  "source": "pragma solidity 0.4.24;\n\nimport \"@aragon/os/contracts/apps/AragonApp.sol\";\nimport \"@aragon/os/contracts/common/DepositableStorage.sol\";\nimport \"@aragon/os/contracts/common/EtherTokenConstant.sol\";\nimport \"@aragon/os/contracts/common/SafeERC20.sol\";\nimport \"@aragon/os/contracts/lib/token/ERC20.sol\";\n\n\ncontract Vault is EtherTokenConstant, AragonApp, DepositableStorage {\n    using SafeERC20 for ERC20;\n\n    bytes32 public constant TRANSFER_ROLE = keccak256(\"TRANSFER_ROLE\");\n\n    string private constant ERROR_DATA_NON_ZERO = \"VAULT_DATA_NON_ZERO\";\n    string private constant ERROR_NOT_DEPOSITABLE = \"VAULT_NOT_DEPOSITABLE\";\n    string private constant ERROR_DEPOSIT_VALUE_ZERO = \"VAULT_DEPOSIT_VALUE_ZERO\";\n    string private constant ERROR_TRANSFER_VALUE_ZERO = \"VAULT_TRANSFER_VALUE_ZERO\";\n    string private constant ERROR_SEND_REVERTED = \"VAULT_SEND_REVERTED\";\n    string private constant ERROR_VALUE_MISMATCH = \"VAULT_VALUE_MISMATCH\";\n    string private constant ERROR_TOKEN_TRANSFER_FROM_REVERTED = \"VAULT_TOKEN_TRANSFER_FROM_REVERT\";\n    string private constant ERROR_TOKEN_TRANSFER_REVERTED = \"VAULT_TOKEN_TRANSFER_REVERTED\";\n\n    event VaultTransfer(address indexed token, address indexed to, uint256 amount);\n    event VaultDeposit(address indexed token, address indexed sender, uint256 amount);\n\n    /**\n    * @dev On a normal send() or transfer() this fallback is never executed as it will be\n    *      intercepted by the Proxy (see aragonOS#281)\n    */\n    function () external payable isInitialized {\n        require(msg.data.length == 0, ERROR_DATA_NON_ZERO);\n        _deposit(ETH, msg.value);\n    }\n\n    /**\n    * @notice Initialize Vault app\n    * @dev As an AragonApp it needs to be initialized in order for roles (`auth` and `authP`) to work\n    */\n    function initialize() external onlyInit {\n        initialized();\n        setDepositable(true);\n    }\n\n    /**\n    * @notice Deposit `_value` `_token` to the vault\n    * @param _token Address of the token being transferred\n    * @param _value Amount of tokens being transferred\n    */\n    function deposit(address _token, uint256 _value) external payable isInitialized {\n        _deposit(_token, _value);\n    }\n\n    /**\n    * @notice Transfer `_value` `_token` from the Vault to `_to`\n    * @param _token Address of the token being transferred\n    * @param _to Address of the recipient of tokens\n    * @param _value Amount of tokens being transferred\n    */\n    /* solium-disable-next-line function-order */\n    function transfer(address _token, address _to, uint256 _value)\n        external\n        authP(TRANSFER_ROLE, arr(_token, _to, _value))\n    {\n        require(_value > 0, ERROR_TRANSFER_VALUE_ZERO);\n\n        if (_token == ETH) {\n            require(_to.send(_value), ERROR_SEND_REVERTED);\n        } else {\n            require(ERC20(_token).safeTransfer(_to, _value), ERROR_TOKEN_TRANSFER_REVERTED);\n        }\n\n        emit VaultTransfer(_token, _to, _value);\n    }\n\n    function balance(address _token) public view returns (uint256) {\n        if (_token == ETH) {\n            return address(this).balance;\n        } else {\n            return ERC20(_token).staticBalanceOf(address(this));\n        }\n    }\n\n    /**\n    * @dev Disable recovery escape hatch, as it could be used\n    *      maliciously to transfer funds away from the vault\n    */\n    function allowRecoverability(address) public view returns (bool) {\n        return false;\n    }\n\n    function _deposit(address _token, uint256 _value) internal {\n        require(isDepositable(), ERROR_NOT_DEPOSITABLE);\n        require(_value > 0, ERROR_DEPOSIT_VALUE_ZERO);\n\n        if (_token == ETH) {\n            // Deposit is implicit in this case\n            require(msg.value == _value, ERROR_VALUE_MISMATCH);\n        } else {\n            require(\n                ERC20(_token).safeTransferFrom(msg.sender, address(this), _value),\n                ERROR_TOKEN_TRANSFER_FROM_REVERTED\n            );\n        }\n\n        emit VaultDeposit(_token, msg.sender, _value);\n    }\n}\n",
  "sourcePath": "@aragon/apps-vault/contracts/Vault.sol",
  "compiler": {
    "name": "solc",
    "version": "0.4.24+commit.e67f0147.Emscripten.clang"
  },
  "schemaVersion": "2.0.1",
  "updatedAt": "2019-04-22T19:37:14.333Z"
}