{
  "contractName": "EVMScriptRegistry",
  "abi": [
    {
      "constant": true,
      "inputs": [],
      "name": "hasInitialized",
      "outputs": [
        {
          "name": "",
          "type": "bool"
        }
      ],
      "payable": false,
      "stateMutability": "view",
      "type": "function"
    },
    {
      "constant": true,
      "inputs": [],
      "name": "REGISTRY_ADD_EXECUTOR_ROLE",
      "outputs": [
        {
          "name": "",
          "type": "bytes32"
        }
      ],
      "payable": false,
      "stateMutability": "view",
      "type": "function"
    },
    {
      "constant": true,
      "inputs": [
        {
          "name": "_script",
          "type": "bytes"
        }
      ],
      "name": "getEVMScriptExecutor",
      "outputs": [
        {
          "name": "",
          "type": "address"
        }
      ],
      "payable": false,
      "stateMutability": "view",
      "type": "function"
    },
    {
      "constant": true,
      "inputs": [],
      "name": "getRecoveryVault",
      "outputs": [
        {
          "name": "",
          "type": "address"
        }
      ],
      "payable": false,
      "stateMutability": "view",
      "type": "function"
    },
    {
      "constant": true,
      "inputs": [
        {
          "name": "token",
          "type": "address"
        }
      ],
      "name": "allowRecoverability",
      "outputs": [
        {
          "name": "",
          "type": "bool"
        }
      ],
      "payable": false,
      "stateMutability": "view",
      "type": "function"
    },
    {
      "constant": true,
      "inputs": [],
      "name": "appId",
      "outputs": [
        {
          "name": "",
          "type": "bytes32"
        }
      ],
      "payable": false,
      "stateMutability": "view",
      "type": "function"
    },
    {
      "constant": true,
      "inputs": [],
      "name": "getInitializationBlock",
      "outputs": [
        {
          "name": "",
          "type": "uint256"
        }
      ],
      "payable": false,
      "stateMutability": "view",
      "type": "function"
    },
    {
      "constant": false,
      "inputs": [
        {
          "name": "_token",
          "type": "address"
        }
      ],
      "name": "transferToVault",
      "outputs": [],
      "payable": false,
      "stateMutability": "nonpayable",
      "type": "function"
    },
    {
      "constant": true,
      "inputs": [
        {
          "name": "_sender",
          "type": "address"
        },
        {
          "name": "_role",
          "type": "bytes32"
        },
        {
          "name": "_params",
          "type": "uint256[]"
        }
      ],
      "name": "canPerform",
      "outputs": [
        {
          "name": "",
          "type": "bool"
        }
      ],
      "payable": false,
      "stateMutability": "view",
      "type": "function"
    },
    {
      "constant": true,
      "inputs": [],
      "name": "getEVMScriptRegistry",
      "outputs": [
        {
          "name": "",
          "type": "address"
        }
      ],
      "payable": false,
      "stateMutability": "view",
      "type": "function"
    },
    {
      "constant": true,
      "inputs": [],
      "name": "REGISTRY_MANAGER_ROLE",
      "outputs": [
        {
          "name": "",
          "type": "bytes32"
        }
      ],
      "payable": false,
      "stateMutability": "view",
      "type": "function"
    },
    {
      "constant": true,
      "inputs": [],
      "name": "kernel",
      "outputs": [
        {
          "name": "",
          "type": "address"
        }
      ],
      "payable": false,
      "stateMutability": "view",
      "type": "function"
    },
    {
      "constant": true,
      "inputs": [],
      "name": "isPetrified",
      "outputs": [
        {
          "name": "",
          "type": "bool"
        }
      ],
      "payable": false,
      "stateMutability": "view",
      "type": "function"
    },
    {
      "constant": true,
      "inputs": [
        {
          "name": "",
          "type": "uint256"
        }
      ],
      "name": "executors",
      "outputs": [
        {
          "name": "executor",
          "type": "address"
        },
        {
          "name": "enabled",
          "type": "bool"
        }
      ],
      "payable": false,
      "stateMutability": "view",
      "type": "function"
    },
    {
      "anonymous": false,
      "inputs": [
        {
          "indexed": true,
          "name": "executorId",
          "type": "uint256"
        },
        {
          "indexed": true,
          "name": "executorAddress",
          "type": "address"
        }
      ],
      "name": "EnableExecutor",
      "type": "event"
    },
    {
      "anonymous": false,
      "inputs": [
        {
          "indexed": true,
          "name": "executorId",
          "type": "uint256"
        },
        {
          "indexed": true,
          "name": "executorAddress",
          "type": "address"
        }
      ],
      "name": "DisableExecutor",
      "type": "event"
    },
    {
      "anonymous": false,
      "inputs": [
        {
          "indexed": true,
          "name": "executor",
          "type": "address"
        },
        {
          "indexed": false,
          "name": "script",
          "type": "bytes"
        },
        {
          "indexed": false,
          "name": "input",
          "type": "bytes"
        },
        {
          "indexed": false,
          "name": "returnData",
          "type": "bytes"
        }
      ],
      "name": "ScriptResult",
      "type": "event"
    },
    {
      "anonymous": false,
      "inputs": [
        {
          "indexed": true,
          "name": "vault",
          "type": "address"
        },
        {
          "indexed": true,
          "name": "token",
          "type": "address"
        },
        {
          "indexed": false,
          "name": "amount",
          "type": "uint256"
        }
      ],
      "name": "RecoverToVault",
      "type": "event"
    },
    {
      "constant": false,
      "inputs": [],
      "name": "initialize",
      "outputs": [],
      "payable": false,
      "stateMutability": "nonpayable",
      "type": "function"
    },
    {
      "constant": false,
      "inputs": [
        {
          "name": "_executor",
          "type": "address"
        }
      ],
      "name": "addScriptExecutor",
      "outputs": [
        {
          "name": "id",
          "type": "uint256"
        }
      ],
      "payable": false,
      "stateMutability": "nonpayable",
      "type": "function"
    },
    {
      "constant": false,
      "inputs": [
        {
          "name": "_executorId",
          "type": "uint256"
        }
      ],
      "name": "disableScriptExecutor",
      "outputs": [],
      "payable": false,
      "stateMutability": "nonpayable",
      "type": "function"
    },
    {
      "constant": false,
      "inputs": [
        {
          "name": "_executorId",
          "type": "uint256"
        }
      ],
      "name": "enableScriptExecutor",
      "outputs": [],
      "payable": false,
      "stateMutability": "nonpayable",
      "type": "function"
    },
    {
      "constant": true,
      "inputs": [
        {
          "name": "_script",
          "type": "bytes"
        }
      ],
      "name": "getScriptExecutor",
      "outputs": [
        {
          "name": "",
          "type": "address"
        }
      ],
      "payable": false,
      "stateMutability": "view",
      "type": "function"
    }
  ],
  "bytecode": "0x60806040526200001d62000023640100000000026401000000009004565b62000309565b60006200003e6200015e640100000000026401000000009004565b146040805190810160405280601881526020017f494e49545f414c52454144595f494e495449414c495a4544000000000000000081525090151562000121576040517f08c379a00000000000000000000000000000000000000000000000000000000081526004018080602001828103825283818151815260200191508051906020019080838360005b83811015620000e5578082015181840152602081019050620000c8565b50505050905090810190601f168015620001135780820380516001836020036101000a031916815260200191505b509250505060405180910390fd5b506200015c7fffffffffffffffffffffffffffffffffffffffffffffffffffffffffffffffff620001ab640100000000026401000000009004565b565b6000620001a67febb05b386a8d34882b8711d156f463690983dc47815980fb82aeeff1aa43579e60010260001916620002f76401000000000262001e52176401000000009004565b905090565b6000620001c66200015e640100000000026401000000009004565b146040805190810160405280601881526020017f494e49545f414c52454144595f494e495449414c495a45440000000000000000815250901515620002a9576040517f08c379a00000000000000000000000000000000000000000000000000000000081526004018080602001828103825283818151815260200191508051906020019080838360005b838110156200026d57808201518184015260208101905062000250565b50505050905090810190601f1680156200029b5780820380516001836020036101000a031916815260200191505b509250505060405180910390fd5b50620002f4817febb05b386a8d34882b8711d156f463690983dc47815980fb82aeeff1aa43579e600102600019166200030264010000000002620021e5179091906401000000009004565b50565b600081549050919050565b8082555050565b6122b080620003196000396000f300608060405260043610610107576000357c0100000000000000000000000000000000000000000000000000000000900463ffffffff16806304bf2a7f1461010c5780630803fac0146101b557806319f3d10f146101e45780632914b9bd1461021757806332f0a3b5146102c05780635ca4d4bb146103175780637e7db6e11461034457806380afdea81461039f5780638129fc1c146103d257806387a16f12146103e95780638b3dd749146104405780639d4941d81461046b578063a1658fad146104ae578063a479e5081461055a578063bd8fde1c146105b1578063cff606a0146105e4578063d4aae0c414610611578063de4796ed14610668578063f97a05df14610697575b600080fd5b34801561011857600080fd5b50610173600480360381019080803590602001908201803590602001908080601f016020809104026020016040519081016040528093929190818152602001838380828437820191505050505050919291929050505061070f565b604051808273ffffffffffffffffffffffffffffffffffffffff1673ffffffffffffffffffffffffffffffffffffffff16815260200191505060405180910390f35b3480156101c157600080fd5b506101ca61086b565b604051808215151515815260200191505060405180910390f35b3480156101f057600080fd5b506101f9610896565b60405180826000191660001916815260200191505060405180910390f35b34801561022357600080fd5b5061027e600480360381019080803590602001908201803590602001908080601f01602080910402602001604051908101604052809392919081815260200183838082843782019150505050505091929192905050506108bd565b604051808273ffffffffffffffffffffffffffffffffffffffff1673ffffffffffffffffffffffffffffffffffffffff16815260200191505060405180910390f35b3480156102cc57600080fd5b506102d56109dc565b604051808273ffffffffffffffffffffffffffffffffffffffff1673ffffffffffffffffffffffffffffffffffffffff16815260200191505060405180910390f35b34801561032357600080fd5b5061034260048036038101908080359060200190929190505050610a89565b005b34801561035057600080fd5b50610385600480360381019080803573ffffffffffffffffffffffffffffffffffffffff169060200190929190505050610d33565b604051808215151515815260200191505060405180910390f35b3480156103ab57600080fd5b506103b4610d3e565b60405180826000191660001916815260200191505060405180910390f35b3480156103de57600080fd5b506103e7610d75565b005b3480156103f557600080fd5b5061042a600480360381019080803573ffffffffffffffffffffffffffffffffffffffff169060200190929190505050610e71565b6040518082815260200191505060405180910390f35b34801561044c57600080fd5b506104556110bd565b6040518082815260200191505060405180910390f35b34801561047757600080fd5b506104ac600480360381019080803573ffffffffffffffffffffffffffffffffffffffff1690602001909291905050506110f4565b005b3480156104ba57600080fd5b50610540600480360381019080803573ffffffffffffffffffffffffffffffffffffffff169060200190929190803560001916906020019092919080359060200190820180359060200190808060200260200160405190810160405280939291908181526020018383602002808284378201915050505050509192919290505050611512565b604051808215151515815260200191505060405180910390f35b34801561056657600080fd5b5061056f61170e565b604051808273ffffffffffffffffffffffffffffffffffffffff1673ffffffffffffffffffffffffffffffffffffffff16815260200191505060405180910390f35b3480156105bd57600080fd5b506105c6611829565b60405180826000191660001916815260200191505060405180910390f35b3480156105f057600080fd5b5061060f60048036038101908080359060200190929190505050611850565b005b34801561061d57600080fd5b50610626611bed565b604051808273ffffffffffffffffffffffffffffffffffffffff1673ffffffffffffffffffffffffffffffffffffffff16815260200191505060405180910390f35b34801561067457600080fd5b5061067d611c24565b604051808215151515815260200191505060405180910390f35b3480156106a357600080fd5b506106c260048036038101908080359060200190929190505050611c55565b604051808373ffffffffffffffffffffffffffffffffffffffff1673ffffffffffffffffffffffffffffffffffffffff168152602001821515151581526020019250505060405180910390f35b60008060006004845110156040805190810160405280601e81526020017f45564d5245475f5343524950545f4c454e4754485f544f4f5f53484f525400008152509015156107f8576040517f08c379a00000000000000000000000000000000000000000000000000000000081526004018080602001828103825283818151815260200191508051906020019080838360005b838110156107bd5780820151818401526020810190506107a2565b50505050905090810190601f1680156107ea5780820380516001836020036101000a031916815260200191505b509250505060405180910390fd5b5061080284611ca6565b63ffffffff1691506001600083815260200190815260200160002090508060000160149054906101000a900460ff1661083c576000610862565b8060000160009054906101000a900473ffffffffffffffffffffffffffffffffffffffff165b92505050919050565b6000806108766110bd565b90506000811415801561089057508061088d611cba565b10155b91505090565b7fc4e90f38eea8c4212a009ca7b8947943ba4d4a58d19b683417f65291d1cd9ed260010281565b60006108c761170e565b73ffffffffffffffffffffffffffffffffffffffff166304bf2a7f836040518263ffffffff167c01000000000000000000000000000000000000000000000000000000000281526004018080602001828103825283818151815260200191508051906020019080838360005b8381101561094e578082015181840152602081019050610933565b50505050905090810190601f16801561097b5780820380516001836020036101000a031916815260200191505b5092505050602060405180830381600087803b15801561099a57600080fd5b505af11580156109ae573d6000803e3d6000fd5b505050506040513d60208110156109c457600080fd5b81019080805190602001909291905050509050919050565b60006109e6611bed565b73ffffffffffffffffffffffffffffffffffffffff166332f0a3b56040518163ffffffff167c0100000000000000000000000000000000000000000000000000000000028152600401602060405180830381600087803b158015610a4957600080fd5b505af1158015610a5d573d6000803e3d6000fd5b505050506040513d6020811015610a7357600080fd5b8101908080519060200190929190505050905090565b60007ff7a450ef335e1892cb42c8ca72e7242359d7711924b75db5717410da3f614aa3600102610ab883611cc2565b610ac3338383611512565b6040805190810160405280600f81526020017f4150505f415554485f4641494c45440000000000000000000000000000000000815250901515610ba1576040517f08c379a00000000000000000000000000000000000000000000000000000000081526004018080602001828103825283818151815260200191508051906020019080838360005b83811015610b66578082015181840152602081019050610b4b565b50505050905090810190601f168015610b935780820380516001836020036101000a031916815260200191505b509250505060405180910390fd5b506001600085815260200190815260200160002092508260000160149054906101000a900460ff166040805190810160405280601881526020017f45564d5245475f4558454355544f525f44495341424c45440000000000000000815250901515610ca7576040517f08c379a00000000000000000000000000000000000000000000000000000000081526004018080602001828103825283818151815260200191508051906020019080838360005b83811015610c6c578082015181840152602081019050610c51565b50505050905090810190601f168015610c995780820380516001836020036101000a031916815260200191505b509250505060405180910390fd5b5060008360000160146101000a81548160ff0219169083151502179055508260000160009054906101000a900473ffffffffffffffffffffffffffffffffffffffff1673ffffffffffffffffffffffffffffffffffffffff16847fc13cd9238f8ab1e5ab1f95cde77e89288fe5c328d04739adffd57b144b408fd160405160405180910390a350505050565b600060019050919050565b6000610d707fd625496217aa6a3453eecb9c3489dc5a53e6c67b444329ea2b2cbc9ff547639b60010260001916611d1a565b905090565b6000610d7f6110bd565b146040805190810160405280601881526020017f494e49545f414c52454144595f494e495449414c495a45440000000000000000815250901515610e5e576040517f08c379a00000000000000000000000000000000000000000000000000000000081526004018080602001828103825283818151815260200191508051906020019080838360005b83811015610e23578082015181840152602081019050610e08565b50505050905090810190601f168015610e505780820380516001836020036101000a031916815260200191505b509250505060405180910390fd5b50610e67611d25565b6001600081905550565b6000807fc4e90f38eea8c4212a009ca7b8947943ba4d4a58d19b683417f65291d1cd9ed2600102610ed333826000604051908082528060200260200182016040528015610ecd5781602001602082028038833980820191505090505b50611512565b6040805190810160405280600f81526020017f4150505f415554485f4641494c45440000000000000000000000000000000000815250901515610fb1576040517f08c379a00000000000000000000000000000000000000000000000000000000081526004018080602001828103825283818151815260200191508051906020019080838360005b83811015610f76578082015181840152602081019050610f5b565b50505050905090810190601f168015610fa35780820380516001836020036101000a031916815260200191505b509250505060405180910390fd5b5060008081548092919060010191905055915060408051908101604052808573ffffffffffffffffffffffffffffffffffffffff168152602001600115158152506001600084815260200190815260200160002060008201518160000160006101000a81548173ffffffffffffffffffffffffffffffffffffffff021916908373ffffffffffffffffffffffffffffffffffffffff16021790555060208201518160000160146101000a81548160ff0219169083151502179055509050508373ffffffffffffffffffffffffffffffffffffffff16827f7697fa3288629310075a63816e294207c84f3cfc18ccf8e18eb917ec0bb5669960405160405180910390a38192505050919050565b60006110ef7febb05b386a8d34882b8711d156f463690983dc47815980fb82aeeff1aa43579e60010260001916611e52565b905090565b600080600061110284610d33565b6040805190810160405280601281526020017f5245434f5645525f444953414c4c4f57454400000000000000000000000000008152509015156111e0576040517f08c379a00000000000000000000000000000000000000000000000000000000081526004018080602001828103825283818151815260200191508051906020019080838360005b838110156111a557808201518184015260208101905061118a565b50505050905090810190601f1680156111d25780820380516001836020036101000a031916815260200191505b509250505060405180910390fd5b506111e96109dc565b92506111f483611e5d565b6040805190810160405280601a81526020017f5245434f5645525f5641554c545f4e4f545f434f4e54524143540000000000008152509015156112d2576040517f08c379a00000000000000000000000000000000000000000000000000000000081526004018080602001828103825283818151815260200191508051906020019080838360005b8381101561129757808201518184015260208101905061127c565b50505050905090810190601f1680156112c45780820380516001836020036101000a031916815260200191505b509250505060405180910390fd5b50600073ffffffffffffffffffffffffffffffffffffffff168473ffffffffffffffffffffffffffffffffffffffff16141561136e573073ffffffffffffffffffffffffffffffffffffffff163191508273ffffffffffffffffffffffffffffffffffffffff166108fc839081150290604051600060405180830381858888f19350505050158015611368573d6000803e3d6000fd5b506114a7565b83905061139a308273ffffffffffffffffffffffffffffffffffffffff16611eaf90919063ffffffff16565b91506113c783838373ffffffffffffffffffffffffffffffffffffffff166120899092919063ffffffff16565b6040805190810160405280601d81526020017f5245434f5645525f544f4b454e5f5452414e534645525f4641494c45440000008152509015156114a5576040517f08c379a00000000000000000000000000000000000000000000000000000000081526004018080602001828103825283818151815260200191508051906020019080838360005b8381101561146a57808201518184015260208101905061144f565b50505050905090810190601f1680156114975780820380516001836020036101000a031916815260200191505b509250505060405180910390fd5b505b8373ffffffffffffffffffffffffffffffffffffffff168373ffffffffffffffffffffffffffffffffffffffff167f596caf56044b55fb8c4ca640089bbc2b63cae3e978b851f5745cbb7c5b288e02846040518082815260200191505060405180910390a350505050565b60008061151d61086b565b151561152c5760009150611706565b611534611bed565b9050600073ffffffffffffffffffffffffffffffffffffffff168173ffffffffffffffffffffffffffffffffffffffff1614156115745760009150611706565b8073ffffffffffffffffffffffffffffffffffffffff1663fdef910686308761159c88612169565b6040518563ffffffff167c0100000000000000000000000000000000000000000000000000000000028152600401808573ffffffffffffffffffffffffffffffffffffffff1673ffffffffffffffffffffffffffffffffffffffff1681526020018473ffffffffffffffffffffffffffffffffffffffff1673ffffffffffffffffffffffffffffffffffffffff168152602001836000191660001916815260200180602001828103825283818151815260200191508051906020019080838360005b8381101561167957808201518184015260208101905061165e565b50505050905090810190601f1680156116a65780820380516001836020036101000a031916815260200191505b5095505050505050602060405180830381600087803b1580156116c857600080fd5b505af11580156116dc573d6000803e3d6000fd5b505050506040513d60208110156116f257600080fd5b810190808051906020019092919050505091505b509392505050565b600080611719611bed565b73ffffffffffffffffffffffffffffffffffffffff1663be00bbd87fd6f028ca0e8edb4a8c9757ca4fdccab25fa1e0317da1188108f7d2dee14902fb6001027fddbcfd564f642ab5627cf68b9b7d374fb4f8a36e941a75d89c87998cef03bd616001026040518363ffffffff167c0100000000000000000000000000000000000000000000000000000000028152600401808360001916600019168152602001826000191660001916815260200192505050602060405180830381600087803b1580156117e557600080fd5b505af11580156117f9573d6000803e3d6000fd5b505050506040513d602081101561180f57600080fd5b810190808051906020019092919050505090508091505090565b7ff7a450ef335e1892cb42c8ca72e7242359d7711924b75db5717410da3f614aa360010281565b60007ff7a450ef335e1892cb42c8ca72e7242359d7711924b75db5717410da3f614aa360010261187f83611cc2565b61188a338383611512565b6040805190810160405280600f81526020017f4150505f415554485f4641494c45440000000000000000000000000000000000815250901515611968576040517f08c379a00000000000000000000000000000000000000000000000000000000081526004018080602001828103825283818151815260200191508051906020019080838360005b8381101561192d578082015181840152602081019050611912565b50505050905090810190601f16801561195a5780820380516001836020036101000a031916815260200191505b509250505060405180910390fd5b508360008111801561197b575060005481105b6040805190810160405280601a81526020017f45564d5245475f494e4558495354454e545f4558454355544f52000000000000815250901515611a59576040517f08c379a00000000000000000000000000000000000000000000000000000000081526004018080602001828103825283818151815260200191508051906020019080838360005b83811015611a1e578082015181840152602081019050611a03565b50505050905090810190601f168015611a4b5780820380516001836020036101000a031916815260200191505b509250505060405180910390fd5b506001600086815260200190815260200160002093508360000160149054906101000a900460ff16156040805190810160405280601781526020017f45564d5245475f4558454355544f525f454e41424c4544000000000000000000815250901515611b60576040517f08c379a00000000000000000000000000000000000000000000000000000000081526004018080602001828103825283818151815260200191508051906020019080838360005b83811015611b25578082015181840152602081019050611b0a565b50505050905090810190601f168015611b525780820380516001836020036101000a031916815260200191505b509250505060405180910390fd5b5060018460000160146101000a81548160ff0219169083151502179055508360000160009054906101000a900473ffffffffffffffffffffffffffffffffffffffff1673ffffffffffffffffffffffffffffffffffffffff16857f7697fa3288629310075a63816e294207c84f3cfc18ccf8e18eb917ec0bb5669960405160405180910390a35050505050565b6000611c1f7f4172f0f7d2289153072b0a6ca36959e0cbe2efc3afe50fc81636caa96338137b60010260001916612180565b905090565b60007fffffffffffffffffffffffffffffffffffffffffffffffffffffffffffffffff611c4f6110bd565b14905090565b60016020528060005260406000206000915090508060000160009054906101000a900473ffffffffffffffffffffffffffffffffffffffff16908060000160149054906101000a900460ff16905082565b6000611cb382600061218b565b9050919050565b600043905090565b60606001604051908082528060200260200182016040528015611cf45781602001602082028038833980820191505090505b50905081816000815181101515611d0757fe5b9060200190602002018181525050919050565b600081549050919050565b6000611d2f6110bd565b146040805190810160405280601881526020017f494e49545f414c52454144595f494e495449414c495a45440000000000000000815250901515611e0e576040517f08c379a00000000000000000000000000000000000000000000000000000000081526004018080602001828103825283818151815260200191508051906020019080838360005b83811015611dd3578082015181840152602081019050611db8565b50505050905090810190601f168015611e005780820380516001836020036101000a031916815260200191505b509250505060405180910390fd5b50611e50611e1a611cba565b7febb05b386a8d34882b8711d156f463690983dc47815980fb82aeeff1aa43579e600102600019166121e590919063ffffffff16565b565b600081549050919050565b600080600073ffffffffffffffffffffffffffffffffffffffff168373ffffffffffffffffffffffffffffffffffffffff161415611e9e5760009150611ea9565b823b90506000811191505b50919050565b600060606000808573ffffffffffffffffffffffffffffffffffffffff166370a0823190507c01000000000000000000000000000000000000000000000000000000000285604051602401808273ffffffffffffffffffffffffffffffffffffffff1673ffffffffffffffffffffffffffffffffffffffff168152602001915050604051602081830303815290604052907bffffffffffffffffffffffffffffffffffffffffffffffffffffffff19166020820180517bffffffffffffffffffffffffffffffffffffffffffffffffffffffff83818316178352505050509250611f9986846121ec565b91509150816040805190810160405280601c81526020017f534146455f4552435f32305f42414c414e43455f52455645525445440000000081525090151561207c576040517f08c379a00000000000000000000000000000000000000000000000000000000081526004018080602001828103825283818151815260200191508051906020019080838360005b83811015612041578082015181840152602081019050612026565b50505050905090810190601f16801561206e5780820380516001836020036101000a031916815260200191505b509250505060405180910390fd5b5080935050505092915050565b6000606063a9059cbb7c0100000000000000000000000000000000000000000000000000000000028484604051602401808373ffffffffffffffffffffffffffffffffffffffff1673ffffffffffffffffffffffffffffffffffffffff16815260200182815260200192505050604051602081830303815290604052907bffffffffffffffffffffffffffffffffffffffffffffffffffffffff19166020820180517bffffffffffffffffffffffffffffffffffffffffffffffffffffffff8381831617835250505050905061215f8582612221565b9150509392505050565b606060006020835102905082915080825250919050565b600081549050919050565b6000806121988484612273565b90507c01000000000000000000000000000000000000000000000000000000007fffffffff0000000000000000000000000000000000000000000000000000000082160491505092915050565b8082555050565b6000806000806040516020818751602089018a5afa9250600083111561221157805191505b5081819350935050509250929050565b6000806040516020818551602087016000895af16000811115612267573d60008114612254576020811461225d57612265565b60019350612265565b600183511493505b505b50508091505092915050565b6000816020018301519050929150505600a165627a7a723058208fc2ccd9155ee22306ba43de3d280ecd6472ff51e5eba026d055de64371d40c20029",
  "source": "pragma solidity 0.4.24;\n\nimport \"../apps/AragonApp.sol\";\nimport \"./ScriptHelpers.sol\";\nimport \"./IEVMScriptExecutor.sol\";\nimport \"./IEVMScriptRegistry.sol\";\n\n\n/* solium-disable function-order */\n// Allow public initialize() to be first\ncontract EVMScriptRegistry is IEVMScriptRegistry, EVMScriptRegistryConstants, AragonApp {\n    using ScriptHelpers for bytes;\n\n    /* Hardcoded constants to save gas\n    bytes32 public constant REGISTRY_ADD_EXECUTOR_ROLE = keccak256(\"REGISTRY_ADD_EXECUTOR_ROLE\");\n    bytes32 public constant REGISTRY_MANAGER_ROLE = keccak256(\"REGISTRY_MANAGER_ROLE\");\n    */\n    bytes32 public constant REGISTRY_ADD_EXECUTOR_ROLE = 0xc4e90f38eea8c4212a009ca7b8947943ba4d4a58d19b683417f65291d1cd9ed2;\n    // WARN: Manager can censor all votes and the like happening in an org\n    bytes32 public constant REGISTRY_MANAGER_ROLE = 0xf7a450ef335e1892cb42c8ca72e7242359d7711924b75db5717410da3f614aa3;\n\n    uint256 internal constant SCRIPT_START_LOCATION = 4;\n\n    string private constant ERROR_INEXISTENT_EXECUTOR = \"EVMREG_INEXISTENT_EXECUTOR\";\n    string private constant ERROR_EXECUTOR_ENABLED = \"EVMREG_EXECUTOR_ENABLED\";\n    string private constant ERROR_EXECUTOR_DISABLED = \"EVMREG_EXECUTOR_DISABLED\";\n    string private constant ERROR_SCRIPT_LENGTH_TOO_SHORT = \"EVMREG_SCRIPT_LENGTH_TOO_SHORT\";\n\n    struct ExecutorEntry {\n        IEVMScriptExecutor executor;\n        bool enabled;\n    }\n\n    uint256 private executorsNextIndex;\n    mapping (uint256 => ExecutorEntry) public executors;\n\n    event EnableExecutor(uint256 indexed executorId, address indexed executorAddress);\n    event DisableExecutor(uint256 indexed executorId, address indexed executorAddress);\n\n    modifier executorExists(uint256 _executorId) {\n        require(_executorId > 0 && _executorId < executorsNextIndex, ERROR_INEXISTENT_EXECUTOR);\n        _;\n    }\n\n    /**\n    * @notice Initialize the registry\n    */\n    function initialize() public onlyInit {\n        initialized();\n        // Create empty record to begin executor IDs at 1\n        executorsNextIndex = 1;\n    }\n\n    /**\n    * @notice Add a new script executor with address `_executor` to the registry\n    * @param _executor Address of the IEVMScriptExecutor that will be added to the registry\n    * @return id Identifier of the executor in the registry\n    */\n    function addScriptExecutor(IEVMScriptExecutor _executor) external auth(REGISTRY_ADD_EXECUTOR_ROLE) returns (uint256 id) {\n        uint256 executorId = executorsNextIndex++;\n        executors[executorId] = ExecutorEntry(_executor, true);\n        emit EnableExecutor(executorId, _executor);\n        return executorId;\n    }\n\n    /**\n    * @notice Disable script executor with ID `_executorId`\n    * @param _executorId Identifier of the executor in the registry\n    */\n    function disableScriptExecutor(uint256 _executorId)\n        external\n        authP(REGISTRY_MANAGER_ROLE, arr(_executorId))\n    {\n        // Note that we don't need to check for an executor's existence in this case, as only\n        // existing executors can be enabled\n        ExecutorEntry storage executorEntry = executors[_executorId];\n        require(executorEntry.enabled, ERROR_EXECUTOR_DISABLED);\n        executorEntry.enabled = false;\n        emit DisableExecutor(_executorId, executorEntry.executor);\n    }\n\n    /**\n    * @notice Enable script executor with ID `_executorId`\n    * @param _executorId Identifier of the executor in the registry\n    */\n    function enableScriptExecutor(uint256 _executorId)\n        external\n        authP(REGISTRY_MANAGER_ROLE, arr(_executorId))\n        executorExists(_executorId)\n    {\n        ExecutorEntry storage executorEntry = executors[_executorId];\n        require(!executorEntry.enabled, ERROR_EXECUTOR_ENABLED);\n        executorEntry.enabled = true;\n        emit EnableExecutor(_executorId, executorEntry.executor);\n    }\n\n    /**\n    * @dev Get the script executor that can execute a particular script based on its first 4 bytes\n    * @param _script EVMScript being inspected\n    */\n    function getScriptExecutor(bytes _script) public view returns (IEVMScriptExecutor) {\n        require(_script.length >= SCRIPT_START_LOCATION, ERROR_SCRIPT_LENGTH_TOO_SHORT);\n        uint256 id = _script.getSpecId();\n\n        // Note that we don't need to check for an executor's existence in this case, as only\n        // existing executors can be enabled\n        ExecutorEntry storage entry = executors[id];\n        return entry.enabled ? entry.executor : IEVMScriptExecutor(0);\n    }\n}\n",
  "sourcePath": "@aragon/os/contracts/evmscript/EVMScriptRegistry.sol",
  "compiler": {
    "name": "solc",
    "version": "0.4.24+commit.e67f0147.Emscripten.clang"
  },
  "schemaVersion": "2.0.1",
  "updatedAt": "2019-04-25T22:12:33.117Z"
}