{
  "contractName": "FakeIdentity",
  "abi": [
    {
      "constant": true,
      "inputs": [
        {
          "name": "",
          "type": "address"
        }
      ],
      "name": "whitelist",
      "outputs": [
        {
          "name": "",
          "type": "bool"
        }
      ],
      "payable": false,
      "stateMutability": "view",
      "type": "function"
    },
    {
      "constant": true,
      "inputs": [],
      "name": "AUTHORIZE_ROLE",
      "outputs": [
        {
          "name": "",
          "type": "bytes32"
        }
      ],
      "payable": false,
      "stateMutability": "view",
      "type": "function"
    },
    {
      "constant": false,
      "inputs": [
        {
          "name": "_whitelist",
          "type": "address[]"
        }
      ],
      "name": "initialize",
      "outputs": [],
      "payable": false,
      "stateMutability": "nonpayable",
      "type": "function"
    },
    {
      "constant": true,
      "inputs": [
        {
          "name": "_user",
          "type": "address"
        }
      ],
      "name": "checkWhitelist",
      "outputs": [
        {
          "name": "",
          "type": "bool"
        }
      ],
      "payable": false,
      "stateMutability": "view",
      "type": "function"
    }
  ],
  "bytecode": "0x608060405234801561001057600080fd5b50610324806100206000396000f300608060405260043610610062576000357c0100000000000000000000000000000000000000000000000000000000900463ffffffff1680631950c218146100675780639b19251a146100c2578063a224cee71461011d578063c562761f14610183575b600080fd5b34801561007357600080fd5b506100a8600480360381019080803573ffffffffffffffffffffffffffffffffffffffff1690602001909291905050506101b6565b604051808215151515815260200191505060405180910390f35b3480156100ce57600080fd5b50610103600480360381019080803573ffffffffffffffffffffffffffffffffffffffff16906020019092919050505061020b565b604051808215151515815260200191505060405180910390f35b34801561012957600080fd5b506101816004803603810190808035906020019082018035906020019080806020026020016040519081016040528093929190818152602001838360200280828437820191505050505050919291929050505061022b565b005b34801561018f57600080fd5b506101986102bf565b60405180826000191660001916815260200191505060405180910390f35b60008060008373ffffffffffffffffffffffffffffffffffffffff1673ffffffffffffffffffffffffffffffffffffffff16815260200190815260200160002060009054906101000a900460ff169050919050565b60006020528060005260406000206000915054906101000a900460ff1681565b60008090505b81518160ff1610156102bb576001600080848460ff1681518110151561025357fe5b9060200190602002015173ffffffffffffffffffffffffffffffffffffffff1673ffffffffffffffffffffffffffffffffffffffff16815260200190815260200160002060006101000a81548160ff0219169083151502179055508080600101915050610231565b5050565b60405180807f415554484f52495a455f524f4c45000000000000000000000000000000000000815250600e0190506040518091039020815600a165627a7a723058201935af002bd904d385ae192f911593a5a0e8198ac3fe3e985ba30bc4f057640a0029",
  "source": "pragma solidity ^0.4.24;\n\nimport \"@aragon/apps-shared-minime/contracts/MiniMeToken.sol\";\n\ncontract FakeIdentity{\n    mapping (address => bool) public whitelist;\n\n    /// ACL\n    bytes32 constant public AUTHORIZE_ROLE = keccak256(\"AUTHORIZE_ROLE\");\n\n    function initialize(address[] _whitelist) public {\n      for(uint8 i=0; i<_whitelist.length; i++){\n        whitelist[_whitelist[i]] = true;\n      }\n    }\n\n    function checkWhitelist(address _user)\n    external\n    view\n    returns (bool){\n      return whitelist[_user];\n    }\n}\n",
  "sourcePath": "/home/peter/Documents/Work/MyBit/MyBit-DAO.tech/apps/MyTokens/contracts/FakeIdentity.sol",
  "compiler": {
    "name": "solc",
    "version": "0.4.24+commit.e67f0147.Emscripten.clang"
  },
  "schemaVersion": "2.0.1",
  "updatedAt": "2019-04-22T20:29:30.406Z"
}