{
  "contractName": "Initializable",
  "abi": [
    {
      "constant": true,
      "inputs": [],
      "name": "getInitializationBlock",
      "outputs": [
        {
          "name": "",
          "type": "uint256"
        }
      ],
      "payable": false,
      "stateMutability": "view",
      "type": "function"
    },
    {
      "constant": true,
      "inputs": [],
      "name": "hasInitialized",
      "outputs": [
        {
          "name": "",
          "type": "bool"
        }
      ],
      "payable": false,
      "stateMutability": "view",
      "type": "function"
    }
  ],
  "bytecode": "0x608060405234801561001057600080fd5b5061014c806100206000396000f30060806040526004361061004c576000357c0100000000000000000000000000000000000000000000000000000000900463ffffffff1680630803fac0146100515780638b3dd74914610080575b600080fd5b34801561005d57600080fd5b506100666100ab565b604051808215151515815260200191505060405180910390f35b34801561008c57600080fd5b506100956100d6565b6040518082815260200191505060405180910390f35b6000806100b66100d6565b9050600081141580156100d05750806100cd61010d565b10155b91505090565b60006101087febb05b386a8d34882b8711d156f463690983dc47815980fb82aeeff1aa43579e60010260001916610115565b905090565b600043905090565b6000815490509190505600a165627a7a7230582003235bdef5f1b1c775cc9962ee746a289ff485d2468ae1cfd6749a1852f3f7c10029",
  "source": "/*\n * SPDX-License-Identitifer:    MIT\n */\n\npragma solidity ^0.4.24;\n\nimport \"./TimeHelpers.sol\";\nimport \"./UnstructuredStorage.sol\";\n\n\ncontract Initializable is TimeHelpers {\n    using UnstructuredStorage for bytes32;\n\n    // keccak256(\"aragonOS.initializable.initializationBlock\")\n    bytes32 internal constant INITIALIZATION_BLOCK_POSITION = 0xebb05b386a8d34882b8711d156f463690983dc47815980fb82aeeff1aa43579e;\n\n    string private constant ERROR_ALREADY_INITIALIZED = \"INIT_ALREADY_INITIALIZED\";\n    string private constant ERROR_NOT_INITIALIZED = \"INIT_NOT_INITIALIZED\";\n\n    modifier onlyInit {\n        require(getInitializationBlock() == 0, ERROR_ALREADY_INITIALIZED);\n        _;\n    }\n\n    modifier isInitialized {\n        require(hasInitialized(), ERROR_NOT_INITIALIZED);\n        _;\n    }\n\n    /**\n    * @return Block number in which the contract was initialized\n    */\n    function getInitializationBlock() public view returns (uint256) {\n        return INITIALIZATION_BLOCK_POSITION.getStorageUint256();\n    }\n\n    /**\n    * @return Whether the contract has been initialized by the time of the current block\n    */\n    function hasInitialized() public view returns (bool) {\n        uint256 initializationBlock = getInitializationBlock();\n        return initializationBlock != 0 && getBlockNumber() >= initializationBlock;\n    }\n\n    /**\n    * @dev Function to be called by top level contract after initialization has finished.\n    */\n    function initialized() internal onlyInit {\n        INITIALIZATION_BLOCK_POSITION.setStorageUint256(getBlockNumber());\n    }\n\n    /**\n    * @dev Function to be called by top level contract after initialization to enable the contract\n    *      at a future block number rather than immediately.\n    */\n    function initializedAt(uint256 _blockNumber) internal onlyInit {\n        INITIALIZATION_BLOCK_POSITION.setStorageUint256(_blockNumber);\n    }\n}\n",
  "sourcePath": "@aragon/os/contracts/common/Initializable.sol",
  "compiler": {
    "name": "solc",
    "version": "0.4.24+commit.e67f0147.Emscripten.clang"
  },
  "schemaVersion": "2.0.1",
  "updatedAt": "2019-04-22T20:29:30.665Z"
}