{
  "contractName": "Kit",
  "abi": [
    {
      "constant": true,
      "inputs": [],
      "name": "ens",
      "outputs": [
        {
          "name": "",
          "type": "address"
        }
      ],
      "payable": false,
      "stateMutability": "view",
      "type": "function"
    },
    {
      "constant": true,
      "inputs": [],
      "name": "fac",
      "outputs": [
        {
          "name": "",
          "type": "address"
        }
      ],
      "payable": false,
      "stateMutability": "view",
      "type": "function"
    },
    {
      "constant": true,
      "inputs": [
        {
          "name": "appId",
          "type": "bytes32"
        }
      ],
      "name": "latestVersionAppBase",
      "outputs": [
        {
          "name": "base",
          "type": "address"
        }
      ],
      "payable": false,
      "stateMutability": "view",
      "type": "function"
    },
    {
      "inputs": [
        {
          "name": "ens",
          "type": "address"
        }
      ],
      "payable": false,
      "stateMutability": "nonpayable",
      "type": "constructor"
    },
    {
      "anonymous": false,
      "inputs": [
        {
          "indexed": false,
          "name": "dao",
          "type": "address"
        }
      ],
      "name": "DeployInstance",
      "type": "event"
    },
    {
      "anonymous": false,
      "inputs": [
        {
          "indexed": false,
          "name": "appProxy",
          "type": "address"
        },
        {
          "indexed": false,
          "name": "appId",
          "type": "bytes32"
        }
      ],
      "name": "InstalledApp",
      "type": "event"
    },
    {
      "constant": false,
      "inputs": [],
      "name": "newInstance",
      "outputs": [],
      "payable": false,
      "stateMutability": "nonpayable",
      "type": "function"
    }
  ],
  "bytecode": "0x6080604052608060405190810160405280670de0b6b3a764000069ffffffffffffffffffff16815260200169152d02c7e14af680000069ffffffffffffffffffff16815260200169152d02c7e14af680000069ffffffffffffffffffff16815260200169152d02c7e14af680000069ffffffffffffffffffff1681525060039060046200008e9291906200084a565b50608060405190810160405280600060ff168152602001600360ff168152602001600660ff168152602001600c60ff168152506004906004620000d3929190620008aa565b50608060405190810160405280600a60ff168152602001600f60ff168152602001601460ff168152602001601e60ff16815250600590600462000118929190620008aa565b50604080519081016040528073b4124ceb3451635dacedd11767f004d8a28c6ee773ffffffffffffffffffffffffffffffffffffffff1673ffffffffffffffffffffffffffffffffffffffff168152602001738401eb5ff34cc943f096a32ef3d5113febe8d4eb73ffffffffffffffffffffffffffffffffffffffff1673ffffffffffffffffffffffffffffffffffffffff168152506006906002620001c092919062000901565b50348015620001ce57600080fd5b5060405160208062008298833981018060405281019080805190602001909291905050506000816000816000806101000a81548173ffffffffffffffffffffffffffffffffffffffff021916908373ffffffffffffffffffffffffffffffffffffffff160217905550600073ffffffffffffffffffffffffffffffffffffffff168373ffffffffffffffffffffffffffffffffffffffff161415620003bf57620002bc6040805190810160405280600881526020017f626172652d6b697400000000000000000000000000000000000000000000000081525062000473640100000000026401000000009004565b9050620002d8816200059f640100000000026401000000009004565b73ffffffffffffffffffffffffffffffffffffffff1663c3b314726040518163ffffffff167c0100000000000000000000000000000000000000000000000000000000028152600401602060405180830381600087803b1580156200033c57600080fd5b505af115801562000351573d6000803e3d6000fd5b505050506040513d60208110156200036857600080fd5b8101908080519060200190929190505050600160006101000a81548173ffffffffffffffffffffffffffffffffffffffff021916908373ffffffffffffffffffffffffffffffffffffffff16021790555062000401565b82600160006101000a81548173ffffffffffffffffffffffffffffffffffffffff021916908373ffffffffffffffffffffffffffffffffffffffff1602179055505b5050506200040e62000990565b604051809103906000f0801580156200042b573d6000803e3d6000fd5b50600260006101000a81548173ffffffffffffffffffffffffffffffffffffffff021916908373ffffffffffffffffffffffffffffffffffffffff1602179055505062000a0f565b60007f9065c3e7f7b7ef1ef4e53d2d0b8e0cef02874ab020c1ece79d5f0d3d0111c0ba600102826040518082805190602001908083835b602083101515620004d15780518252602082019150602081019050602083039250620004aa565b6001836020036101000a03801982511681845116808217855250505050505090500191505060405180910390206040516020018083600019166000191681526020018260001916600019168152602001925050506040516020818303038152906040526040518082805190602001908083835b6020831015156200056b578051825260208201915060208101905060208303925062000544565b6001836020036101000a03801982511681845116808217855250505050505090500191505060405180910390209050919050565b6000806000809054906101000a900473ffffffffffffffffffffffffffffffffffffffff1673ffffffffffffffffffffffffffffffffffffffff16630178b8bf846040518263ffffffff167c0100000000000000000000000000000000000000000000000000000000028152600401808260001916600019168152602001915050602060405180830381600087803b1580156200063b57600080fd5b505af115801562000650573d6000803e3d6000fd5b505050506040513d60208110156200066757600080fd5b810190808051906020019092919050505073ffffffffffffffffffffffffffffffffffffffff16633b3b57de846040518263ffffffff167c0100000000000000000000000000000000000000000000000000000000028152600401808260001916600019168152602001915050602060405180830381600087803b158015620006ef57600080fd5b505af115801562000704573d6000803e3d6000fd5b505050506040513d60208110156200071b57600080fd5b810190808051906020019092919050505090508073ffffffffffffffffffffffffffffffffffffffff1663c36af4606040518163ffffffff167c0100000000000000000000000000000000000000000000000000000000028152600401600060405180830381600087803b1580156200079357600080fd5b505af1158015620007a8573d6000803e3d6000fd5b505050506040513d6000823e3d601f19601f8201168201806040525060a0811015620007d357600080fd5b81019080919082606001805190602001909291908051640100000000811115620007fc57600080fd5b828101905060208101848111156200081357600080fd5b81518560018202830111640100000000821117156200083157600080fd5b5050929190505050909150508092505081915050919050565b82805482825590600052602060002090810192821562000897579160200282015b8281111562000896578251829069ffffffffffffffffffff169055916020019190600101906200086b565b5b509050620008a69190620009a1565b5090565b828054828255906000526020600020908101928215620008ee579160200282015b82811115620008ed578251829060ff16905591602001919060010190620008cb565b5b509050620008fd9190620009a1565b5090565b8280548282559060005260206000209081019282156200097d579160200282015b828111156200097c5782518260006101000a81548173ffffffffffffffffffffffffffffffffffffffff021916908373ffffffffffffffffffffffffffffffffffffffff1602179055509160200191906001019062000922565b5b5090506200098c9190620009c9565b5090565b6040516132bb8062004fdd83390190565b620009c691905b80821115620009c2576000816000905550600101620009a8565b5090565b90565b62000a0c91905b8082111562000a0857600081816101000a81549073ffffffffffffffffffffffffffffffffffffffff021916905550600101620009d0565b5090565b90565b6145be8062000a1f6000396000f30060806040526004361062000067576000357c0100000000000000000000000000000000000000000000000000000000900463ffffffff1680633f15457f146200006c5780635219cfa514620000c6578063c3b3147214620000e0578063c6d2c717146200013a575b600080fd5b3480156200007957600080fd5b5062000084620001ae565b604051808273ffffffffffffffffffffffffffffffffffffffff1673ffffffffffffffffffffffffffffffffffffffff16815260200191505060405180910390f35b348015620000d357600080fd5b50620000de620001d3565b005b348015620000ed57600080fd5b50620000f862000387565b604051808273ffffffffffffffffffffffffffffffffffffffff1673ffffffffffffffffffffffffffffffffffffffff16815260200191505060405180910390f35b3480156200014757600080fd5b506200016c6004803603810190808035600019169060200190929190505050620003ad565b604051808273ffffffffffffffffffffffffffffffffffffffff1673ffffffffffffffffffffffffffffffffffffffff16815260200191505060405180910390f35b6000809054906101000a900473ffffffffffffffffffffffffffffffffffffffff1681565b600080600160009054906101000a900473ffffffffffffffffffffffffffffffffffffffff1673ffffffffffffffffffffffffffffffffffffffff166321687444306040518263ffffffff167c0100000000000000000000000000000000000000000000000000000000028152600401808273ffffffffffffffffffffffffffffffffffffffff1673ffffffffffffffffffffffffffffffffffffffff168152602001915050602060405180830381600087803b1580156200029457600080fd5b505af1158015620002a9573d6000803e3d6000fd5b505050506040513d6020811015620002c057600080fd5b810190808051906020019092919050505091508173ffffffffffffffffffffffffffffffffffffffff1663de2873596040518163ffffffff167c0100000000000000000000000000000000000000000000000000000000028152600401602060405180830381600087803b1580156200033857600080fd5b505af11580156200034d573d6000803e3d6000fd5b505050506040513d60208110156200036457600080fd5b8101908080519060200190929190505050905062000383828262000658565b5050565b600160009054906101000a900473ffffffffffffffffffffffffffffffffffffffff1681565b6000806000809054906101000a900473ffffffffffffffffffffffffffffffffffffffff1673ffffffffffffffffffffffffffffffffffffffff16630178b8bf846040518263ffffffff167c0100000000000000000000000000000000000000000000000000000000028152600401808260001916600019168152602001915050602060405180830381600087803b1580156200044957600080fd5b505af11580156200045e573d6000803e3d6000fd5b505050506040513d60208110156200047557600080fd5b810190808051906020019092919050505073ffffffffffffffffffffffffffffffffffffffff16633b3b57de846040518263ffffffff167c0100000000000000000000000000000000000000000000000000000000028152600401808260001916600019168152602001915050602060405180830381600087803b158015620004fd57600080fd5b505af115801562000512573d6000803e3d6000fd5b505050506040513d60208110156200052957600080fd5b810190808051906020019092919050505090508073ffffffffffffffffffffffffffffffffffffffff1663c36af4606040518163ffffffff167c0100000000000000000000000000000000000000000000000000000000028152600401600060405180830381600087803b158015620005a157600080fd5b505af1158015620005b6573d6000803e3d6000fd5b505050506040513d6000823e3d601f19601f8201168201806040525060a0811015620005e157600080fd5b810190809190826060018051906020019092919080516401000000008111156200060a57600080fd5b828101905060208101848111156200062157600080fd5b81518560018202830111640100000000821117156200063f57600080fd5b5050929190505050909150508092505081915050919050565b6000806000806000806000806000808a73ffffffffffffffffffffffffffffffffffffffff1663be038478308e8f73ffffffffffffffffffffffffffffffffffffffff16638ea8dc9d6040518163ffffffff167c0100000000000000000000000000000000000000000000000000000000028152600401602060405180830381600087803b158015620006ea57600080fd5b505af1158015620006ff573d6000803e3d6000fd5b505050506040513d60208110156200071657600080fd5b8101908080519060200190929190505050306040518563ffffffff167c0100000000000000000000000000000000000000000000000000000000028152600401808573ffffffffffffffffffffffffffffffffffffffff1673ffffffffffffffffffffffffffffffffffffffff1681526020018473ffffffffffffffffffffffffffffffffffffffff1673ffffffffffffffffffffffffffffffffffffffff16815260200183600019166000191681526020018273ffffffffffffffffffffffffffffffffffffffff1673ffffffffffffffffffffffffffffffffffffffff168152602001945050505050600060405180830381600087803b1580156200081c57600080fd5b505af115801562000831573d6000803e3d6000fd5b50505050339950620008786040805190810160405280600581526020017f7661756c7400000000000000000000000000000000000000000000000000000081525062001558565b9850620008ba6040805190810160405280600781526020017f66696e616e63650000000000000000000000000000000000000000000000000081525062001558565b9750620008fc6040805190810160405280600c81526020017f6d796269742d746f6b656e73000000000000000000000000000000000000000081525062001558565b96508b73ffffffffffffffffffffffffffffffffffffffff1663397edd418a620009268c620003ad565b60016040518463ffffffff167c01000000000000000000000000000000000000000000000000000000000281526004018084600019166000191681526020018373ffffffffffffffffffffffffffffffffffffffff1673ffffffffffffffffffffffffffffffffffffffff1681526020018060200183151515158152602001828103825260008152602001602001945050505050602060405180830381600087803b158015620009d557600080fd5b505af1158015620009ea573d6000803e3d6000fd5b505050506040513d602081101562000a0157600080fd5b810190808051906020019092919050505095508b73ffffffffffffffffffffffffffffffffffffffff166380cd5ac38962000a3c8b620003ad565b6040518363ffffffff167c01000000000000000000000000000000000000000000000000000000000281526004018083600019166000191681526020018273ffffffffffffffffffffffffffffffffffffffff1673ffffffffffffffffffffffffffffffffffffffff16815260200192505050602060405180830381600087803b15801562000aca57600080fd5b505af115801562000adf573d6000803e3d6000fd5b505050506040513d602081101562000af657600080fd5b810190808051906020019092919050505094508b73ffffffffffffffffffffffffffffffffffffffff166380cd5ac38862000b318a620003ad565b6040518363ffffffff167c01000000000000000000000000000000000000000000000000000000000281526004018083600019166000191681526020018273ffffffffffffffffffffffffffffffffffffffff1673ffffffffffffffffffffffffffffffffffffffff16815260200192505050602060405180830381600087803b15801562000bbf57600080fd5b505af115801562000bd4573d6000803e3d6000fd5b505050506040513d602081101562000beb57600080fd5b8101908080519060200190929190505050935062000c0862002b5f565b604051809103906000f08015801562000c25573d6000803e3d6000fd5b509250600260009054906101000a900473ffffffffffffffffffffffffffffffffffffffff1673ffffffffffffffffffffffffffffffffffffffff16635b7b72c16000806001806040518563ffffffff167c0100000000000000000000000000000000000000000000000000000000028152600401808573ffffffffffffffffffffffffffffffffffffffff1673ffffffffffffffffffffffffffffffffffffffff168152602001848152602001806020018460ff1681526020018060200184151515158152602001838103835260068152602001807f4d79566f74650000000000000000000000000000000000000000000000000000815250602001838103825260038152602001807f4d595600000000000000000000000000000000000000000000000000000000008152506020019650505050505050602060405180830381600087803b15801562000d7957600080fd5b505af115801562000d8e573d6000803e3d6000fd5b505050506040513d602081101562000da557600080fd5b810190808051906020019092919050505091508173ffffffffffffffffffffffffffffffffffffffff16633cebb823856040518263ffffffff167c0100000000000000000000000000000000000000000000000000000000028152600401808273ffffffffffffffffffffffffffffffffffffffff1673ffffffffffffffffffffffffffffffffffffffff168152602001915050600060405180830381600087803b15801562000e5457600080fd5b505af115801562000e69573d6000803e3d6000fd5b5050505060126c0c9f2c9cd04674edea4000000062000e8762002b70565b8080602001806020018560ff168152602001848152602001838103835260058152602001807f4d79426974000000000000000000000000000000000000000000000000000000815250602001838103825260038152602001807f4d59420000000000000000000000000000000000000000000000000000000000815250602001945050505050604051809103906000f08015801562000f2a573d6000803e3d6000fd5b5090508073ffffffffffffffffffffffffffffffffffffffff1663a9059cbb3360046c0c9f2c9cd04674edea4000000081151562000f6457fe5b046040518363ffffffff167c0100000000000000000000000000000000000000000000000000000000028152600401808373ffffffffffffffffffffffffffffffffffffffff1673ffffffffffffffffffffffffffffffffffffffff16815260200182815260200192505050602060405180830381600087803b15801562000feb57600080fd5b505af115801562001000573d6000803e3d6000fd5b505050506040513d60208110156200101757600080fd5b8101908080519060200190929190505050508073ffffffffffffffffffffffffffffffffffffffff1663a9059cbb738401eb5ff34cc943f096a32ef3d5113febe8d4eb60046c0c9f2c9cd04674edea400000008115156200107457fe5b046040518363ffffffff167c0100000000000000000000000000000000000000000000000000000000028152600401808373ffffffffffffffffffffffffffffffffffffffff1673ffffffffffffffffffffffffffffffffffffffff16815260200182815260200192505050602060405180830381600087803b158015620010fb57600080fd5b505af115801562001110573d6000803e3d6000fd5b505050506040513d60208110156200112757600080fd5b8101908080519060200190929190505050508473ffffffffffffffffffffffffffffffffffffffff16631798de818762278d006040518363ffffffff167c0100000000000000000000000000000000000000000000000000000000028152600401808373ffffffffffffffffffffffffffffffffffffffff1673ffffffffffffffffffffffffffffffffffffffff1681526020018267ffffffffffffffff1667ffffffffffffffff16815260200192505050600060405180830381600087803b158015620011f457600080fd5b505af115801562001209573d6000803e3d6000fd5b505050508373ffffffffffffffffffffffffffffffffffffffff16633c31996b83836000876003600460056040518863ffffffff167c0100000000000000000000000000000000000000000000000000000000028152600401808873ffffffffffffffffffffffffffffffffffffffff1673ffffffffffffffffffffffffffffffffffffffff1681526020018773ffffffffffffffffffffffffffffffffffffffff1673ffffffffffffffffffffffffffffffffffffffff1681526020018673ffffffffffffffffffffffffffffffffffffffff1673ffffffffffffffffffffffffffffffffffffffff1681526020018573ffffffffffffffffffffffffffffffffffffffff1673ffffffffffffffffffffffffffffffffffffffff16815260200180602001806020018060200184810384528781815481526020019150805480156200137657602002820191906000526020600020905b81548152602001906001019080831162001361575b50508481038352868181548152602001915080548015620013b757602002820191906000526020600020905b815481526020019060010190808311620013a2575b50508481038252858181548152602001915080548015620013f857602002820191906000526020600020905b815481526020019060010190808311620013e3575b50509a5050505050505050505050600060405180830381600087803b1580156200142157600080fd5b505af115801562001436573d6000803e3d6000fd5b505050508273ffffffffffffffffffffffffffffffffffffffff1663a224cee760066040518263ffffffff167c0100000000000000000000000000000000000000000000000000000000028152600401808060200182810382528381815481526020019150805480156200150057602002820191906000526020600020905b8160009054906101000a900473ffffffffffffffffffffffffffffffffffffffff1673ffffffffffffffffffffffffffffffffffffffff1681526020019060010190808311620014b5575b505092505050600060405180830381600087803b1580156200152157600080fd5b505af115801562001536573d6000803e3d6000fd5b505050506200154a8c8c8689898f62001684565b505050505050505050505050565b60007f9065c3e7f7b7ef1ef4e53d2d0b8e0cef02874ab020c1ece79d5f0d3d0111c0ba600102826040518082805190602001908083835b602083101515620015b657805182526020820191506020810190506020830392506200158f565b6001836020036101000a03801982511681845116808217855250505050505090500191505060405180910390206040516020018083600019166000191681526020018260001916600019168152602001925050506040516020818303038152906040526040518082805190602001908083835b60208310151562001650578051825260208201915060208101905060208303925062001629565b6001836020036101000a03801982511681845116808217855250505050505090500191505060405180910390209050919050565b8473ffffffffffffffffffffffffffffffffffffffff1663be03847885868773ffffffffffffffffffffffffffffffffffffffff1663b930908f6040518163ffffffff167c0100000000000000000000000000000000000000000000000000000000028152600401602060405180830381600087803b1580156200170757600080fd5b505af11580156200171c573d6000803e3d6000fd5b505050506040513d60208110156200173357600080fd5b8101908080519060200190929190505050886040518563ffffffff167c0100000000000000000000000000000000000000000000000000000000028152600401808573ffffffffffffffffffffffffffffffffffffffff1673ffffffffffffffffffffffffffffffffffffffff1681526020018473ffffffffffffffffffffffffffffffffffffffff1673ffffffffffffffffffffffffffffffffffffffff16815260200183600019166000191681526020018273ffffffffffffffffffffffffffffffffffffffff1673ffffffffffffffffffffffffffffffffffffffff168152602001945050505050600060405180830381600087803b1580156200183957600080fd5b505af11580156200184e573d6000803e3d6000fd5b505050508473ffffffffffffffffffffffffffffffffffffffff1663be03847885868773ffffffffffffffffffffffffffffffffffffffff1663ec87621c6040518163ffffffff167c0100000000000000000000000000000000000000000000000000000000028152600401602060405180830381600087803b158015620018d557600080fd5b505af1158015620018ea573d6000803e3d6000fd5b505050506040513d60208110156200190157600080fd5b8101908080519060200190929190505050886040518563ffffffff167c0100000000000000000000000000000000000000000000000000000000028152600401808573ffffffffffffffffffffffffffffffffffffffff1673ffffffffffffffffffffffffffffffffffffffff1681526020018473ffffffffffffffffffffffffffffffffffffffff1673ffffffffffffffffffffffffffffffffffffffff16815260200183600019166000191681526020018273ffffffffffffffffffffffffffffffffffffffff1673ffffffffffffffffffffffffffffffffffffffff168152602001945050505050600060405180830381600087803b15801562001a0757600080fd5b505af115801562001a1c573d6000803e3d6000fd5b505050508473ffffffffffffffffffffffffffffffffffffffff1663be03847883858673ffffffffffffffffffffffffffffffffffffffff1663206b60f96040518163ffffffff167c0100000000000000000000000000000000000000000000000000000000028152600401602060405180830381600087803b15801562001aa357600080fd5b505af115801562001ab8573d6000803e3d6000fd5b505050506040513d602081101562001acf57600080fd5b8101908080519060200190929190505050886040518563ffffffff167c0100000000000000000000000000000000000000000000000000000000028152600401808573ffffffffffffffffffffffffffffffffffffffff1673ffffffffffffffffffffffffffffffffffffffff1681526020018473ffffffffffffffffffffffffffffffffffffffff1673ffffffffffffffffffffffffffffffffffffffff16815260200183600019166000191681526020018273ffffffffffffffffffffffffffffffffffffffff1673ffffffffffffffffffffffffffffffffffffffff168152602001945050505050600060405180830381600087803b15801562001bd557600080fd5b505af115801562001bea573d6000803e3d6000fd5b505050508473ffffffffffffffffffffffffffffffffffffffff1663be03847885848573ffffffffffffffffffffffffffffffffffffffff16630842ace46040518163ffffffff167c0100000000000000000000000000000000000000000000000000000000028152600401602060405180830381600087803b15801562001c7157600080fd5b505af115801562001c86573d6000803e3d6000fd5b505050506040513d602081101562001c9d57600080fd5b8101908080519060200190929190505050886040518563ffffffff167c0100000000000000000000000000000000000000000000000000000000028152600401808573ffffffffffffffffffffffffffffffffffffffff1673ffffffffffffffffffffffffffffffffffffffff1681526020018473ffffffffffffffffffffffffffffffffffffffff1673ffffffffffffffffffffffffffffffffffffffff16815260200183600019166000191681526020018273ffffffffffffffffffffffffffffffffffffffff1673ffffffffffffffffffffffffffffffffffffffff168152602001945050505050600060405180830381600087803b15801562001da357600080fd5b505af115801562001db8573d6000803e3d6000fd5b505050508473ffffffffffffffffffffffffffffffffffffffff1663be03847885848573ffffffffffffffffffffffffffffffffffffffff1663981cc3426040518163ffffffff167c0100000000000000000000000000000000000000000000000000000000028152600401602060405180830381600087803b15801562001e3f57600080fd5b505af115801562001e54573d6000803e3d6000fd5b505050506040513d602081101562001e6b57600080fd5b8101908080519060200190929190505050886040518563ffffffff167c0100000000000000000000000000000000000000000000000000000000028152600401808573ffffffffffffffffffffffffffffffffffffffff1673ffffffffffffffffffffffffffffffffffffffff1681526020018473ffffffffffffffffffffffffffffffffffffffff1673ffffffffffffffffffffffffffffffffffffffff16815260200183600019166000191681526020018273ffffffffffffffffffffffffffffffffffffffff1673ffffffffffffffffffffffffffffffffffffffff168152602001945050505050600060405180830381600087803b15801562001f7157600080fd5b505af115801562001f86573d6000803e3d6000fd5b505050508473ffffffffffffffffffffffffffffffffffffffff1663be03847885848573ffffffffffffffffffffffffffffffffffffffff1663e94ebac56040518163ffffffff167c0100000000000000000000000000000000000000000000000000000000028152600401602060405180830381600087803b1580156200200d57600080fd5b505af115801562002022573d6000803e3d6000fd5b505050506040513d60208110156200203957600080fd5b8101908080519060200190929190505050886040518563ffffffff167c0100000000000000000000000000000000000000000000000000000000028152600401808573ffffffffffffffffffffffffffffffffffffffff1673ffffffffffffffffffffffffffffffffffffffff1681526020018473ffffffffffffffffffffffffffffffffffffffff1673ffffffffffffffffffffffffffffffffffffffff16815260200183600019166000191681526020018273ffffffffffffffffffffffffffffffffffffffff1673ffffffffffffffffffffffffffffffffffffffff168152602001945050505050600060405180830381600087803b1580156200213f57600080fd5b505af115801562002154573d6000803e3d6000fd5b505050508473ffffffffffffffffffffffffffffffffffffffff16630a8ed3db82888973ffffffffffffffffffffffffffffffffffffffff16638ea8dc9d6040518163ffffffff167c0100000000000000000000000000000000000000000000000000000000028152600401602060405180830381600087803b158015620021db57600080fd5b505af1158015620021f0573d6000803e3d6000fd5b505050506040513d60208110156200220757600080fd5b81019080805190602001909291905050506040518463ffffffff167c0100000000000000000000000000000000000000000000000000000000028152600401808473ffffffffffffffffffffffffffffffffffffffff1673ffffffffffffffffffffffffffffffffffffffff1681526020018373ffffffffffffffffffffffffffffffffffffffff1673ffffffffffffffffffffffffffffffffffffffff16815260200182600019166000191681526020019350505050600060405180830381600087803b158015620022d957600080fd5b505af1158015620022ee573d6000803e3d6000fd5b505050508473ffffffffffffffffffffffffffffffffffffffff16639d0effdb30888973ffffffffffffffffffffffffffffffffffffffff16638ea8dc9d6040518163ffffffff167c0100000000000000000000000000000000000000000000000000000000028152600401602060405180830381600087803b1580156200237557600080fd5b505af11580156200238a573d6000803e3d6000fd5b505050506040513d6020811015620023a157600080fd5b81019080805190602001909291905050506040518463ffffffff167c0100000000000000000000000000000000000000000000000000000000028152600401808473ffffffffffffffffffffffffffffffffffffffff1673ffffffffffffffffffffffffffffffffffffffff1681526020018373ffffffffffffffffffffffffffffffffffffffff1673ffffffffffffffffffffffffffffffffffffffff16815260200182600019166000191681526020019350505050600060405180830381600087803b1580156200247357600080fd5b505af115801562002488573d6000803e3d6000fd5b505050508473ffffffffffffffffffffffffffffffffffffffff1663afd925df82888973ffffffffffffffffffffffffffffffffffffffff16638ea8dc9d6040518163ffffffff167c0100000000000000000000000000000000000000000000000000000000028152600401602060405180830381600087803b1580156200250f57600080fd5b505af115801562002524573d6000803e3d6000fd5b505050506040513d60208110156200253b57600080fd5b81019080805190602001909291905050506040518463ffffffff167c0100000000000000000000000000000000000000000000000000000000028152600401808473ffffffffffffffffffffffffffffffffffffffff1673ffffffffffffffffffffffffffffffffffffffff1681526020018373ffffffffffffffffffffffffffffffffffffffff1673ffffffffffffffffffffffffffffffffffffffff16815260200182600019166000191681526020019350505050600060405180830381600087803b1580156200260d57600080fd5b505af115801562002622573d6000803e3d6000fd5b505050508473ffffffffffffffffffffffffffffffffffffffff16630a8ed3db82878873ffffffffffffffffffffffffffffffffffffffff16633d6ab68f6040518163ffffffff167c0100000000000000000000000000000000000000000000000000000000028152600401602060405180830381600087803b158015620026a957600080fd5b505af1158015620026be573d6000803e3d6000fd5b505050506040513d6020811015620026d557600080fd5b81019080805190602001909291905050506040518463ffffffff167c0100000000000000000000000000000000000000000000000000000000028152600401808473ffffffffffffffffffffffffffffffffffffffff1673ffffffffffffffffffffffffffffffffffffffff1681526020018373ffffffffffffffffffffffffffffffffffffffff1673ffffffffffffffffffffffffffffffffffffffff16815260200182600019166000191681526020019350505050600060405180830381600087803b158015620027a757600080fd5b505af1158015620027bc573d6000803e3d6000fd5b505050508473ffffffffffffffffffffffffffffffffffffffff16639d0effdb30878873ffffffffffffffffffffffffffffffffffffffff16633d6ab68f6040518163ffffffff167c0100000000000000000000000000000000000000000000000000000000028152600401602060405180830381600087803b1580156200284357600080fd5b505af115801562002858573d6000803e3d6000fd5b505050506040513d60208110156200286f57600080fd5b81019080805190602001909291905050506040518463ffffffff167c0100000000000000000000000000000000000000000000000000000000028152600401808473ffffffffffffffffffffffffffffffffffffffff1673ffffffffffffffffffffffffffffffffffffffff1681526020018373ffffffffffffffffffffffffffffffffffffffff1673ffffffffffffffffffffffffffffffffffffffff16815260200182600019166000191681526020019350505050600060405180830381600087803b1580156200294157600080fd5b505af115801562002956573d6000803e3d6000fd5b505050508473ffffffffffffffffffffffffffffffffffffffff1663afd925df82878873ffffffffffffffffffffffffffffffffffffffff16633d6ab68f6040518163ffffffff167c0100000000000000000000000000000000000000000000000000000000028152600401602060405180830381600087803b158015620029dd57600080fd5b505af1158015620029f2573d6000803e3d6000fd5b505050506040513d602081101562002a0957600080fd5b81019080805190602001909291905050506040518463ffffffff167c0100000000000000000000000000000000000000000000000000000000028152600401808473ffffffffffffffffffffffffffffffffffffffff1673ffffffffffffffffffffffffffffffffffffffff1681526020018373ffffffffffffffffffffffffffffffffffffffff1673ffffffffffffffffffffffffffffffffffffffff16815260200182600019166000191681526020019350505050600060405180830381600087803b15801562002adb57600080fd5b505af115801562002af0573d6000803e3d6000fd5b505050507f8f42a14c9fe9e09f4fe8eeee69ae878731c838b6497425d4c30e1d09336cf34b86604051808273ffffffffffffffffffffffffffffffffffffffff1673ffffffffffffffffffffffffffffffffffffffff16815260200191505060405180910390a1505050505050565b6040516103448062002b8283390190565b6040516116cd8062002ec6833901905600608060405234801561001057600080fd5b50610324806100206000396000f300608060405260043610610062576000357c0100000000000000000000000000000000000000000000000000000000900463ffffffff1680631950c218146100675780639b19251a146100c2578063a224cee71461011d578063c562761f14610183575b600080fd5b34801561007357600080fd5b506100a8600480360381019080803573ffffffffffffffffffffffffffffffffffffffff1690602001909291905050506101b6565b604051808215151515815260200191505060405180910390f35b3480156100ce57600080fd5b50610103600480360381019080803573ffffffffffffffffffffffffffffffffffffffff16906020019092919050505061020b565b604051808215151515815260200191505060405180910390f35b34801561012957600080fd5b506101816004803603810190808035906020019082018035906020019080806020026020016040519081016040528093929190818152602001838360200280828437820191505050505050919291929050505061022b565b005b34801561018f57600080fd5b506101986102bf565b60405180826000191660001916815260200191505060405180910390f35b60008060008373ffffffffffffffffffffffffffffffffffffffff1673ffffffffffffffffffffffffffffffffffffffff16815260200190815260200160002060009054906101000a900460ff169050919050565b60006020528060005260406000206000915054906101000a900460ff1681565b60008090505b81518160ff1610156102bb576001600080848460ff1681518110151561025357fe5b9060200190602002015173ffffffffffffffffffffffffffffffffffffffff1673ffffffffffffffffffffffffffffffffffffffff16815260200190815260200160002060006101000a81548160ff0219169083151502179055508080600101915050610231565b5050565b60405180807f415554484f52495a455f524f4c45000000000000000000000000000000000000815250600e0190506040518091039020815600a165627a7a723058201935af002bd904d385ae192f911593a5a0e8198ac3fe3e985ba30bc4f057640a002960806040523480156200001157600080fd5b50604051620016cd380380620016cd83398101806040528101908080518201929190602001805182019291906020018051906020019092919080519060200190929190505050806002819055508360039080519060200190620000769291906200015e565b5082600490805190602001906200008f9291906200015e565b5081600560006101000a81548160ff021916908360ff160217905550806000803373ffffffffffffffffffffffffffffffffffffffff1673ffffffffffffffffffffffffffffffffffffffff168152602001908152602001600020819055503373ffffffffffffffffffffffffffffffffffffffff16600073ffffffffffffffffffffffffffffffffffffffff167fddf252ad1be2c89b69c2b068fc378daa952ba7f163c4a11628f55a4df523b3ef836040518082815260200191505060405180910390a3505050506200020d565b828054600181600116156101000203166002900490600052602060002090601f016020900481019282601f10620001a157805160ff1916838001178555620001d2565b82800160010185558215620001d2579182015b82811115620001d1578251825591602001919060010190620001b4565b5b509050620001e19190620001e5565b5090565b6200020a91905b8082111562000206576000816000905550600101620001ec565b5090565b90565b6114b0806200021d6000396000f3006080604052600436106100af576000357c0100000000000000000000000000000000000000000000000000000000900463ffffffff16806306fdde03146100b4578063095ea7b31461014457806318160ddd146101a957806323b872dd146101d4578063313ce56714610259578063661884631461028a57806370a08231146102ef57806395d89b4114610346578063a9059cbb146103d6578063d73dd6231461043b578063dd62ed3e146104a0575b600080fd5b3480156100c057600080fd5b506100c9610517565b6040518080602001828103825283818151815260200191508051906020019080838360005b838110156101095780820151818401526020810190506100ee565b50505050905090810190601f1680156101365780820380516001836020036101000a031916815260200191505b509250505060405180910390f35b34801561015057600080fd5b5061018f600480360381019080803573ffffffffffffffffffffffffffffffffffffffff169060200190929190803590602001909291905050506105b5565b604051808215151515815260200191505060405180910390f35b3480156101b557600080fd5b506101be6106a7565b6040518082815260200191505060405180910390f35b3480156101e057600080fd5b5061023f600480360381019080803573ffffffffffffffffffffffffffffffffffffffff169060200190929190803573ffffffffffffffffffffffffffffffffffffffff169060200190929190803590602001909291905050506106b1565b604051808215151515815260200191505060405180910390f35b34801561026557600080fd5b5061026e610a6c565b604051808260ff1660ff16815260200191505060405180910390f35b34801561029657600080fd5b506102d5600480360381019080803573ffffffffffffffffffffffffffffffffffffffff16906020019092919080359060200190929190505050610a7f565b604051808215151515815260200191505060405180910390f35b3480156102fb57600080fd5b50610330600480360381019080803573ffffffffffffffffffffffffffffffffffffffff169060200190929190505050610d11565b6040518082815260200191505060405180910390f35b34801561035257600080fd5b5061035b610d59565b6040518080602001828103825283818151815260200191508051906020019080838360005b8381101561039b578082015181840152602081019050610380565b50505050905090810190601f1680156103c85780820380516001836020036101000a031916815260200191505b509250505060405180910390f35b3480156103e257600080fd5b50610421600480360381019080803573ffffffffffffffffffffffffffffffffffffffff16906020019092919080359060200190929190505050610df7565b604051808215151515815260200191505060405180910390f35b34801561044757600080fd5b50610486600480360381019080803573ffffffffffffffffffffffffffffffffffffffff16906020019092919080359060200190929190505050611017565b604051808215151515815260200191505060405180910390f35b3480156104ac57600080fd5b50610501600480360381019080803573ffffffffffffffffffffffffffffffffffffffff169060200190929190803573ffffffffffffffffffffffffffffffffffffffff169060200190929190505050611213565b6040518082815260200191505060405180910390f35b60038054600181600116156101000203166002900480601f0160208091040260200160405190810160405280929190818152602001828054600181600116156101000203166002900480156105ad5780601f10610582576101008083540402835291602001916105ad565b820191906000526020600020905b81548152906001019060200180831161059057829003601f168201915b505050505081565b600081600160003373ffffffffffffffffffffffffffffffffffffffff1673ffffffffffffffffffffffffffffffffffffffff16815260200190815260200160002060008573ffffffffffffffffffffffffffffffffffffffff1673ffffffffffffffffffffffffffffffffffffffff168152602001908152602001600020819055508273ffffffffffffffffffffffffffffffffffffffff163373ffffffffffffffffffffffffffffffffffffffff167f8c5be1e5ebec7d5bd14f71427d1e84f3dd0314c0f7b2291e5b200ac8c7c3b925846040518082815260200191505060405180910390a36001905092915050565b6000600254905090565b60008060008573ffffffffffffffffffffffffffffffffffffffff1673ffffffffffffffffffffffffffffffffffffffff16815260200190815260200160002054821115151561070057600080fd5b600160008573ffffffffffffffffffffffffffffffffffffffff1673ffffffffffffffffffffffffffffffffffffffff16815260200190815260200160002060003373ffffffffffffffffffffffffffffffffffffffff1673ffffffffffffffffffffffffffffffffffffffff16815260200190815260200160002054821115151561078b57600080fd5b600073ffffffffffffffffffffffffffffffffffffffff168373ffffffffffffffffffffffffffffffffffffffff16141515156107c757600080fd5b610818826000808773ffffffffffffffffffffffffffffffffffffffff1673ffffffffffffffffffffffffffffffffffffffff1681526020019081526020016000205461129a90919063ffffffff16565b6000808673ffffffffffffffffffffffffffffffffffffffff1673ffffffffffffffffffffffffffffffffffffffff168152602001908152602001600020819055506108ab826000808673ffffffffffffffffffffffffffffffffffffffff1673ffffffffffffffffffffffffffffffffffffffff1681526020019081526020016000205461138f90919063ffffffff16565b6000808573ffffffffffffffffffffffffffffffffffffffff1673ffffffffffffffffffffffffffffffffffffffff1681526020019081526020016000208190555061097c82600160008773ffffffffffffffffffffffffffffffffffffffff1673ffffffffffffffffffffffffffffffffffffffff16815260200190815260200160002060003373ffffffffffffffffffffffffffffffffffffffff1673ffffffffffffffffffffffffffffffffffffffff1681526020019081526020016000205461129a90919063ffffffff16565b600160008673ffffffffffffffffffffffffffffffffffffffff1673ffffffffffffffffffffffffffffffffffffffff16815260200190815260200160002060003373ffffffffffffffffffffffffffffffffffffffff1673ffffffffffffffffffffffffffffffffffffffff168152602001908152602001600020819055508273ffffffffffffffffffffffffffffffffffffffff168473ffffffffffffffffffffffffffffffffffffffff167fddf252ad1be2c89b69c2b068fc378daa952ba7f163c4a11628f55a4df523b3ef846040518082815260200191505060405180910390a3600190509392505050565b600560009054906101000a900460ff1681565b600080600160003373ffffffffffffffffffffffffffffffffffffffff1673ffffffffffffffffffffffffffffffffffffffff16815260200190815260200160002060008573ffffffffffffffffffffffffffffffffffffffff1673ffffffffffffffffffffffffffffffffffffffff1681526020019081526020016000205490508083101515610b91576000600160003373ffffffffffffffffffffffffffffffffffffffff1673ffffffffffffffffffffffffffffffffffffffff16815260200190815260200160002060008673ffffffffffffffffffffffffffffffffffffffff1673ffffffffffffffffffffffffffffffffffffffff16815260200190815260200160002081905550610c25565b610ba4838261129a90919063ffffffff16565b600160003373ffffffffffffffffffffffffffffffffffffffff1673ffffffffffffffffffffffffffffffffffffffff16815260200190815260200160002060008673ffffffffffffffffffffffffffffffffffffffff1673ffffffffffffffffffffffffffffffffffffffff168152602001908152602001600020819055505b8373ffffffffffffffffffffffffffffffffffffffff163373ffffffffffffffffffffffffffffffffffffffff167f8c5be1e5ebec7d5bd14f71427d1e84f3dd0314c0f7b2291e5b200ac8c7c3b925600160003373ffffffffffffffffffffffffffffffffffffffff1673ffffffffffffffffffffffffffffffffffffffff16815260200190815260200160002060008873ffffffffffffffffffffffffffffffffffffffff1673ffffffffffffffffffffffffffffffffffffffff168152602001908152602001600020546040518082815260200191505060405180910390a3600191505092915050565b60008060008373ffffffffffffffffffffffffffffffffffffffff1673ffffffffffffffffffffffffffffffffffffffff168152602001908152602001600020549050919050565b60048054600181600116156101000203166002900480601f016020809104026020016040519081016040528092919081815260200182805460018160011615610100020316600290048015610def5780601f10610dc457610100808354040283529160200191610def565b820191906000526020600020905b815481529060010190602001808311610dd257829003601f168201915b505050505081565b60008060003373ffffffffffffffffffffffffffffffffffffffff1673ffffffffffffffffffffffffffffffffffffffff168152602001908152602001600020548211151515610e4657600080fd5b600073ffffffffffffffffffffffffffffffffffffffff168373ffffffffffffffffffffffffffffffffffffffff1614151515610e8257600080fd5b610ed3826000803373ffffffffffffffffffffffffffffffffffffffff1673ffffffffffffffffffffffffffffffffffffffff1681526020019081526020016000205461129a90919063ffffffff16565b6000803373ffffffffffffffffffffffffffffffffffffffff1673ffffffffffffffffffffffffffffffffffffffff16815260200190815260200160002081905550610f66826000808673ffffffffffffffffffffffffffffffffffffffff1673ffffffffffffffffffffffffffffffffffffffff1681526020019081526020016000205461138f90919063ffffffff16565b6000808573ffffffffffffffffffffffffffffffffffffffff1673ffffffffffffffffffffffffffffffffffffffff168152602001908152602001600020819055508273ffffffffffffffffffffffffffffffffffffffff163373ffffffffffffffffffffffffffffffffffffffff167fddf252ad1be2c89b69c2b068fc378daa952ba7f163c4a11628f55a4df523b3ef846040518082815260200191505060405180910390a36001905092915050565b60006110a882600160003373ffffffffffffffffffffffffffffffffffffffff1673ffffffffffffffffffffffffffffffffffffffff16815260200190815260200160002060008673ffffffffffffffffffffffffffffffffffffffff1673ffffffffffffffffffffffffffffffffffffffff1681526020019081526020016000205461138f90919063ffffffff16565b600160003373ffffffffffffffffffffffffffffffffffffffff1673ffffffffffffffffffffffffffffffffffffffff16815260200190815260200160002060008573ffffffffffffffffffffffffffffffffffffffff1673ffffffffffffffffffffffffffffffffffffffff168152602001908152602001600020819055508273ffffffffffffffffffffffffffffffffffffffff163373ffffffffffffffffffffffffffffffffffffffff167f8c5be1e5ebec7d5bd14f71427d1e84f3dd0314c0f7b2291e5b200ac8c7c3b925600160003373ffffffffffffffffffffffffffffffffffffffff1673ffffffffffffffffffffffffffffffffffffffff16815260200190815260200160002060008773ffffffffffffffffffffffffffffffffffffffff1673ffffffffffffffffffffffffffffffffffffffff168152602001908152602001600020546040518082815260200191505060405180910390a36001905092915050565b6000600160008473ffffffffffffffffffffffffffffffffffffffff1673ffffffffffffffffffffffffffffffffffffffff16815260200190815260200160002060008373ffffffffffffffffffffffffffffffffffffffff1673ffffffffffffffffffffffffffffffffffffffff16815260200190815260200160002054905092915050565b600080838311156040805190810160405280601281526020017f4d4154485f5355425f554e444552464c4f57000000000000000000000000000081525090151561137f576040517f08c379a00000000000000000000000000000000000000000000000000000000081526004018080602001828103825283818151815260200191508051906020019080838360005b83811015611344578082015181840152602081019050611329565b50505050905090810190601f1680156113715780820380516001836020036101000a031916815260200191505b509250505060405180910390fd5b5082840390508091505092915050565b6000808284019050838110156040805190810160405280601181526020017f4d4154485f4144445f4f564552464c4f57000000000000000000000000000000815250901515611479576040517f08c379a00000000000000000000000000000000000000000000000000000000081526004018080602001828103825283818151815260200191508051906020019080838360005b8381101561143e578082015181840152602081019050611423565b50505050905090810190601f16801561146b5780820380516001836020036101000a031916815260200191505b509250505060405180910390fd5b5080915050929150505600a165627a7a723058204dee096f7093c67d7ecde16100f8c86167982ff660fda270c64607762a5495460029a165627a7a72305820f4e6f1ac37b85f84257734d5845ea1d85cd2d89b73a44c20b63ec1c5bd4141c60029608060405234801561001057600080fd5b5061329b806100206000396000f300608060405260043610610041576000357c0100000000000000000000000000000000000000000000000000000000900463ffffffff1680635b7b72c114610046575b600080fd5b34801561005257600080fd5b50610136600480360381019080803573ffffffffffffffffffffffffffffffffffffffff16906020019092919080359060200190929190803590602001908201803590602001908080601f0160208091040260200160405190810160405280939291908181526020018383808284378201915050505050509192919290803560ff169060200190929190803590602001908201803590602001908080601f0160208091040260200160405190810160405280939291908181526020018383808284378201915050505050509192919290803515159060200190929190505050610178565b604051808273ffffffffffffffffffffffffffffffffffffffff1673ffffffffffffffffffffffffffffffffffffffff16815260200191505060405180910390f35b6000803088888888888861018a6103ca565b808873ffffffffffffffffffffffffffffffffffffffff1673ffffffffffffffffffffffffffffffffffffffff1681526020018773ffffffffffffffffffffffffffffffffffffffff1673ffffffffffffffffffffffffffffffffffffffff168152602001868152602001806020018560ff1660ff1681526020018060200184151515158152602001838103835287818151815260200191508051906020019080838360005b8381101561024b578082015181840152602081019050610230565b50505050905090810190601f1680156102785780820380516001836020036101000a031916815260200191505b50838103825285818151815260200191508051906020019080838360005b838110156102b1578082015181840152602081019050610296565b50505050905090810190601f1680156102de5780820380516001836020036101000a031916815260200191505b509950505050505050505050604051809103906000f080158015610306573d6000803e3d6000fd5b5090508073ffffffffffffffffffffffffffffffffffffffff16633cebb823336040518263ffffffff167c0100000000000000000000000000000000000000000000000000000000028152600401808273ffffffffffffffffffffffffffffffffffffffff1673ffffffffffffffffffffffffffffffffffffffff168152602001915050600060405180830381600087803b1580156103a457600080fd5b505af11580156103b8573d6000803e3d6000fd5b50505050809150509695505050505050565b604051612e95806103db83390190560060806040526040805190810160405280600781526020017f4d4d545f302e3100000000000000000000000000000000000000000000000000815250600490805190602001906200005192919062000207565b503480156200005f57600080fd5b5060405162002e9538038062002e9583398101806040528101908080519060200190929190805190602001909291908051906020019092919080518201929190602001805190602001909291908051820192919060200180519060200190929190505050336000806101000a81548173ffffffffffffffffffffffffffffffffffffffff021916908373ffffffffffffffffffffffffffffffffffffffff16021790555086600b60016101000a81548173ffffffffffffffffffffffffffffffffffffffff021916908373ffffffffffffffffffffffffffffffffffffffff16021790555083600190805190602001906200015c92919062000207565b5082600260006101000a81548160ff021916908360ff16021790555081600390805190602001906200019092919062000207565b5085600560006101000a81548173ffffffffffffffffffffffffffffffffffffffff021916908373ffffffffffffffffffffffffffffffffffffffff1602179055508460068190555080600b60006101000a81548160ff0219169083151502179055504360078190555050505050505050620002b6565b828054600181600116156101000203166002900490600052602060002090601f016020900481019282601f106200024a57805160ff19168380011785556200027b565b828001600101855582156200027b579182015b828111156200027a5782518255916020019190600101906200025d565b5b5090506200028a91906200028e565b5090565b620002b391905b80821115620002af57600081600090555060010162000295565b5090565b90565b612bcf80620002c66000396000f300608060405260043610610149576000357c0100000000000000000000000000000000000000000000000000000000900463ffffffff16806306fdde031461028a578063095ea7b31461031a578063176345141461037f57806318160ddd146103aa57806323b872dd146103d5578063313ce5671461045a5780633cebb8231461048b5780634ee2cd7e146104ce57806354fd4d501461052f5780636638c087146105bf57806370a08231146106d157806380a5400114610728578063827f32c01461077f57806395d89b41146107e4578063981b24d014610874578063a9059cbb146108b5578063bef97c871461091a578063c5bcc4f114610949578063cae9ca5114610974578063d3ce77fe14610a1f578063dd62ed3e14610a84578063df8de3e714610afb578063e77772fe14610b3e578063f41e60c514610b95578063f77c479114610bc4575b6101736000809054906101000a900473ffffffffffffffffffffffffffffffffffffffff16610c1b565b151561017e57600080fd5b600115156000809054906101000a900473ffffffffffffffffffffffffffffffffffffffff1673ffffffffffffffffffffffffffffffffffffffff1663f48c305434336040518363ffffffff167c0100000000000000000000000000000000000000000000000000000000028152600401808273ffffffffffffffffffffffffffffffffffffffff1673ffffffffffffffffffffffffffffffffffffffff1681526020019150506020604051808303818588803b15801561023e57600080fd5b505af1158015610252573d6000803e3d6000fd5b50505050506040513d602081101561026957600080fd5b8101908080519060200190929190505050151514151561028857600080fd5b005b34801561029657600080fd5b5061029f610c57565b6040518080602001828103825283818151815260200191508051906020019080838360005b838110156102df5780820151818401526020810190506102c4565b50505050905090810190601f16801561030c5780820380516001836020036101000a031916815260200191505b509250505060405180910390f35b34801561032657600080fd5b50610365600480360381019080803573ffffffffffffffffffffffffffffffffffffffff16906020019092919080359060200190929190505050610cf5565b604051808215151515815260200191505060405180910390f35b34801561038b57600080fd5b5061039461100d565b6040518082815260200191505060405180910390f35b3480156103b657600080fd5b506103bf611013565b6040518082815260200191505060405180910390f35b3480156103e157600080fd5b50610440600480360381019080803573ffffffffffffffffffffffffffffffffffffffff169060200190929190803573ffffffffffffffffffffffffffffffffffffffff16906020019092919080359060200190929190505050611023565b604051808215151515815260200191505060405180910390f35b34801561046657600080fd5b5061046f6111c3565b604051808260ff1660ff16815260200191505060405180910390f35b34801561049757600080fd5b506104cc600480360381019080803573ffffffffffffffffffffffffffffffffffffffff1690602001909291905050506111d6565b005b3480156104da57600080fd5b50610519600480360381019080803573ffffffffffffffffffffffffffffffffffffffff16906020019092919080359060200190929190505050611274565b6040518082815260200191505060405180910390f35b34801561053b57600080fd5b50610544611500565b6040518080602001828103825283818151815260200191508051906020019080838360005b83811015610584578082015181840152602081019050610569565b50505050905090810190601f1680156105b15780820380516001836020036101000a031916815260200191505b509250505060405180910390f35b3480156105cb57600080fd5b5061068f600480360381019080803590602001908201803590602001908080601f0160208091040260200160405190810160405280939291908181526020018383808284378201915050505050509192919290803560ff169060200190929190803590602001908201803590602001908080601f01602080910402602001604051908101604052809392919081815260200183838082843782019150505050505091929192908035906020019092919080351515906020019092919050505061159e565b604051808273ffffffffffffffffffffffffffffffffffffffff1673ffffffffffffffffffffffffffffffffffffffff16815260200191505060405180910390f35b3480156106dd57600080fd5b50610712600480360381019080803573ffffffffffffffffffffffffffffffffffffffff1690602001909291905050506118bc565b6040518082815260200191505060405180910390f35b34801561073457600080fd5b5061073d6118cf565b604051808273ffffffffffffffffffffffffffffffffffffffff1673ffffffffffffffffffffffffffffffffffffffff16815260200191505060405180910390f35b34801561078b57600080fd5b506107ca600480360381019080803573ffffffffffffffffffffffffffffffffffffffff169060200190929190803590602001909291905050506118f5565b604051808215151515815260200191505060405180910390f35b3480156107f057600080fd5b506107f9611a3f565b6040518080602001828103825283818151815260200191508051906020019080838360005b8381101561083957808201518184015260208101905061081e565b50505050905090810190601f1680156108665780820380516001836020036101000a031916815260200191505b509250505060405180910390f35b34801561088057600080fd5b5061089f60048036038101908080359060200190929190505050611add565b6040518082815260200191505060405180910390f35b3480156108c157600080fd5b50610900600480360381019080803573ffffffffffffffffffffffffffffffffffffffff16906020019092919080359060200190929190505050611c7d565b604051808215151515815260200191505060405180910390f35b34801561092657600080fd5b5061092f611cad565b604051808215151515815260200191505060405180910390f35b34801561095557600080fd5b5061095e611cc0565b6040518082815260200191505060405180910390f35b34801561098057600080fd5b50610a05600480360381019080803573ffffffffffffffffffffffffffffffffffffffff16906020019092919080359060200190929190803590602001908201803590602001908080601f0160208091040260200160405190810160405280939291908181526020018383808284378201915050505050509192919290505050611cc6565b604051808215151515815260200191505060405180910390f35b348015610a2b57600080fd5b50610a6a600480360381019080803573ffffffffffffffffffffffffffffffffffffffff16906020019092919080359060200190929190505050611e44565b604051808215151515815260200191505060405180910390f35b348015610a9057600080fd5b50610ae5600480360381019080803573ffffffffffffffffffffffffffffffffffffffff169060200190929190803573ffffffffffffffffffffffffffffffffffffffff169060200190929190505050611f8a565b6040518082815260200191505060405180910390f35b348015610b0757600080fd5b50610b3c600480360381019080803573ffffffffffffffffffffffffffffffffffffffff169060200190929190505050612011565b005b348015610b4a57600080fd5b50610b53612379565b604051808273ffffffffffffffffffffffffffffffffffffffff1673ffffffffffffffffffffffffffffffffffffffff16815260200191505060405180910390f35b348015610ba157600080fd5b50610bc260048036038101908080351515906020019092919050505061239f565b005b348015610bd057600080fd5b50610bd9612417565b604051808273ffffffffffffffffffffffffffffffffffffffff1673ffffffffffffffffffffffffffffffffffffffff16815260200191505060405180910390f35b60008060008373ffffffffffffffffffffffffffffffffffffffff161415610c465760009150610c51565b823b90506000811191505b50919050565b60018054600181600116156101000203166002900480601f016020809104026020016040519081016040528092919081815260200182805460018160011615610100020316600290048015610ced5780601f10610cc257610100808354040283529160200191610ced565b820191906000526020600020905b815481529060010190602001808311610cd057829003601f168201915b505050505081565b6000600b60009054906101000a900460ff161515610d1257600080fd5b6000821480610d9d57506000600960003373ffffffffffffffffffffffffffffffffffffffff1673ffffffffffffffffffffffffffffffffffffffff16815260200190815260200160002060008573ffffffffffffffffffffffffffffffffffffffff1673ffffffffffffffffffffffffffffffffffffffff16815260200190815260200160002054145b1515610da857600080fd5b610dd26000809054906101000a900473ffffffffffffffffffffffffffffffffffffffff16610c1b565b15610f1d57600115156000809054906101000a900473ffffffffffffffffffffffffffffffffffffffff1673ffffffffffffffffffffffffffffffffffffffff1663da682aeb3386866040518463ffffffff167c0100000000000000000000000000000000000000000000000000000000028152600401808473ffffffffffffffffffffffffffffffffffffffff1673ffffffffffffffffffffffffffffffffffffffff1681526020018373ffffffffffffffffffffffffffffffffffffffff1673ffffffffffffffffffffffffffffffffffffffff1681526020018281526020019350505050602060405180830381600087803b158015610ed357600080fd5b505af1158015610ee7573d6000803e3d6000fd5b505050506040513d6020811015610efd57600080fd5b81019080805190602001909291905050501515141515610f1c57600080fd5b5b81600960003373ffffffffffffffffffffffffffffffffffffffff1673ffffffffffffffffffffffffffffffffffffffff16815260200190815260200160002060008573ffffffffffffffffffffffffffffffffffffffff1673ffffffffffffffffffffffffffffffffffffffff168152602001908152602001600020819055508273ffffffffffffffffffffffffffffffffffffffff163373ffffffffffffffffffffffffffffffffffffffff167f8c5be1e5ebec7d5bd14f71427d1e84f3dd0314c0f7b2291e5b200ac8c7c3b925846040518082815260200191505060405180910390a36001905092915050565b60075481565b600061101e43611add565b905090565b60008060009054906101000a900473ffffffffffffffffffffffffffffffffffffffff1673ffffffffffffffffffffffffffffffffffffffff163373ffffffffffffffffffffffffffffffffffffffff161415156111ae57600b60009054906101000a900460ff16151561109657600080fd5b81600960008673ffffffffffffffffffffffffffffffffffffffff1673ffffffffffffffffffffffffffffffffffffffff16815260200190815260200160002060003373ffffffffffffffffffffffffffffffffffffffff1673ffffffffffffffffffffffffffffffffffffffff16815260200190815260200160002054101561112357600090506111bc565b81600960008673ffffffffffffffffffffffffffffffffffffffff1673ffffffffffffffffffffffffffffffffffffffff16815260200190815260200160002060003373ffffffffffffffffffffffffffffffffffffffff1673ffffffffffffffffffffffffffffffffffffffff168152602001908152602001600020600082825403925050819055505b6111b984848461243c565b90505b9392505050565b600260009054906101000a900460ff1681565b6000809054906101000a900473ffffffffffffffffffffffffffffffffffffffff1673ffffffffffffffffffffffffffffffffffffffff163373ffffffffffffffffffffffffffffffffffffffff1614151561123157600080fd5b806000806101000a81548173ffffffffffffffffffffffffffffffffffffffff021916908373ffffffffffffffffffffffffffffffffffffffff16021790555050565b600080600860008573ffffffffffffffffffffffffffffffffffffffff1673ffffffffffffffffffffffffffffffffffffffff16815260200190815260200160002080549050148061134d575081600860008573ffffffffffffffffffffffffffffffffffffffff1673ffffffffffffffffffffffffffffffffffffffff168152602001908152602001600020600081548110151561130f57fe5b9060005260206000200160000160009054906101000a90046fffffffffffffffffffffffffffffffff166fffffffffffffffffffffffffffffffff16115b156114af576000600560009054906101000a900473ffffffffffffffffffffffffffffffffffffffff1673ffffffffffffffffffffffffffffffffffffffff161415156114a657600560009054906101000a900473ffffffffffffffffffffffffffffffffffffffff1673ffffffffffffffffffffffffffffffffffffffff16634ee2cd7e846113df85600654612776565b6040518363ffffffff167c0100000000000000000000000000000000000000000000000000000000028152600401808373ffffffffffffffffffffffffffffffffffffffff1673ffffffffffffffffffffffffffffffffffffffff16815260200182815260200192505050602060405180830381600087803b15801561146457600080fd5b505af1158015611478573d6000803e3d6000fd5b505050506040513d602081101561148e57600080fd5b810190808051906020019092919050505090506114fa565b600090506114fa565b6114f7600860008573ffffffffffffffffffffffffffffffffffffffff1673ffffffffffffffffffffffffffffffffffffffff1681526020019081526020016000208361278f565b90505b92915050565b60048054600181600116156101000203166002900480601f0160208091040260200160405190810160405280929190818152602001828054600181600116156101000203166002900480156115965780601f1061156b57610100808354040283529160200191611596565b820191906000526020600020905b81548152906001019060200180831161157957829003601f168201915b505050505081565b60008060008085146115b057846115b5565b600143035b9150600b60019054906101000a900473ffffffffffffffffffffffffffffffffffffffff1673ffffffffffffffffffffffffffffffffffffffff16635b7b72c130848b8b8b8a6040518763ffffffff167c0100000000000000000000000000000000000000000000000000000000028152600401808773ffffffffffffffffffffffffffffffffffffffff1673ffffffffffffffffffffffffffffffffffffffff168152602001868152602001806020018560ff1660ff1681526020018060200184151515158152602001838103835287818151815260200191508051906020019080838360005b838110156116b857808201518184015260208101905061169d565b50505050905090810190601f1680156116e55780820380516001836020036101000a031916815260200191505b50838103825285818151815260200191508051906020019080838360005b8381101561171e578082015181840152602081019050611703565b50505050905090810190601f16801561174b5780820380516001836020036101000a031916815260200191505b5098505050505050505050602060405180830381600087803b15801561177057600080fd5b505af1158015611784573d6000803e3d6000fd5b505050506040513d602081101561179a57600080fd5b810190808051906020019092919050505090508073ffffffffffffffffffffffffffffffffffffffff16633cebb823336040518263ffffffff167c0100000000000000000000000000000000000000000000000000000000028152600401808273ffffffffffffffffffffffffffffffffffffffff1673ffffffffffffffffffffffffffffffffffffffff168152602001915050600060405180830381600087803b15801561184857600080fd5b505af115801561185c573d6000803e3d6000fd5b505050508073ffffffffffffffffffffffffffffffffffffffff167f086c875b377f900b07ce03575813022f05dd10ed7640b5282cf6d3c3fc352ade836040518082815260200191505060405180910390a2809250505095945050505050565b60006118c88243611274565b9050919050565b600560009054906101000a900473ffffffffffffffffffffffffffffffffffffffff1681565b60008060008060009054906101000a900473ffffffffffffffffffffffffffffffffffffffff1673ffffffffffffffffffffffffffffffffffffffff163373ffffffffffffffffffffffffffffffffffffffff1614151561195557600080fd5b61195d611013565b9150818483011015151561197057600080fd5b611979856118bc565b9050808482011015151561198c57600080fd5b611999600a85840161299e565b6119e3600860008773ffffffffffffffffffffffffffffffffffffffff1673ffffffffffffffffffffffffffffffffffffffff16815260200190815260200160002085830161299e565b8473ffffffffffffffffffffffffffffffffffffffff1660007fddf252ad1be2c89b69c2b068fc378daa952ba7f163c4a11628f55a4df523b3ef866040518082815260200191505060405180910390a360019250505092915050565b60038054600181600116156101000203166002900480601f016020809104026020016040519081016040528092919081815260200182805460018160011615610100020316600290048015611ad55780601f10611aaa57610100808354040283529160200191611ad5565b820191906000526020600020905b815481529060010190602001808311611ab857829003601f168201915b505050505081565b600080600a805490501480611b3c575081600a6000815481101515611afe57fe5b9060005260206000200160000160009054906101000a90046fffffffffffffffffffffffffffffffff166fffffffffffffffffffffffffffffffff16115b15611c6a576000600560009054906101000a900473ffffffffffffffffffffffffffffffffffffffff1673ffffffffffffffffffffffffffffffffffffffff16141515611c6157600560009054906101000a900473ffffffffffffffffffffffffffffffffffffffff1673ffffffffffffffffffffffffffffffffffffffff1663981b24d0611bcd84600654612776565b6040518263ffffffff167c010000000000000000000000000000000000000000000000000000000002815260040180828152602001915050602060405180830381600087803b158015611c1f57600080fd5b505af1158015611c33573d6000803e3d6000fd5b505050506040513d6020811015611c4957600080fd5b81019080805190602001909291905050509050611c78565b60009050611c78565b611c75600a8361278f565b90505b919050565b6000600b60009054906101000a900460ff161515611c9a57600080fd5b611ca533848461243c565b905092915050565b600b60009054906101000a900460ff1681565b60065481565b6000611cd28484610cf5565b1515611cdd57600080fd5b8373ffffffffffffffffffffffffffffffffffffffff16638f4ffcb1338530866040518563ffffffff167c0100000000000000000000000000000000000000000000000000000000028152600401808573ffffffffffffffffffffffffffffffffffffffff1673ffffffffffffffffffffffffffffffffffffffff1681526020018481526020018373ffffffffffffffffffffffffffffffffffffffff1673ffffffffffffffffffffffffffffffffffffffff16815260200180602001828103825283818151815260200191508051906020019080838360005b83811015611dd2578082015181840152602081019050611db7565b50505050905090810190601f168015611dff5780820380516001836020036101000a031916815260200191505b5095505050505050600060405180830381600087803b158015611e2157600080fd5b505af1158015611e35573d6000803e3d6000fd5b50505050600190509392505050565b60008060008060009054906101000a900473ffffffffffffffffffffffffffffffffffffffff1673ffffffffffffffffffffffffffffffffffffffff163373ffffffffffffffffffffffffffffffffffffffff16141515611ea457600080fd5b611eac611013565b9150838210151515611ebd57600080fd5b611ec6856118bc565b9050838110151515611ed757600080fd5b611ee4600a85840361299e565b611f2e600860008773ffffffffffffffffffffffffffffffffffffffff1673ffffffffffffffffffffffffffffffffffffffff16815260200190815260200160002085830361299e565b60008573ffffffffffffffffffffffffffffffffffffffff167fddf252ad1be2c89b69c2b068fc378daa952ba7f163c4a11628f55a4df523b3ef866040518082815260200191505060405180910390a360019250505092915050565b6000600960008473ffffffffffffffffffffffffffffffffffffffff1673ffffffffffffffffffffffffffffffffffffffff16815260200190815260200160002060008373ffffffffffffffffffffffffffffffffffffffff1673ffffffffffffffffffffffffffffffffffffffff16815260200190815260200160002054905092915050565b6000806000809054906101000a900473ffffffffffffffffffffffffffffffffffffffff1673ffffffffffffffffffffffffffffffffffffffff163373ffffffffffffffffffffffffffffffffffffffff1614151561206f57600080fd5b60008373ffffffffffffffffffffffffffffffffffffffff161415612112576000809054906101000a900473ffffffffffffffffffffffffffffffffffffffff1673ffffffffffffffffffffffffffffffffffffffff166108fc3073ffffffffffffffffffffffffffffffffffffffff16319081150290604051600060405180830381858888f1935050505015801561210c573d6000803e3d6000fd5b50612374565b8291508173ffffffffffffffffffffffffffffffffffffffff166370a08231306040518263ffffffff167c0100000000000000000000000000000000000000000000000000000000028152600401808273ffffffffffffffffffffffffffffffffffffffff1673ffffffffffffffffffffffffffffffffffffffff168152602001915050602060405180830381600087803b1580156121b057600080fd5b505af11580156121c4573d6000803e3d6000fd5b505050506040513d60208110156121da57600080fd5b810190808051906020019092919050505090508173ffffffffffffffffffffffffffffffffffffffff1663a9059cbb6000809054906101000a900473ffffffffffffffffffffffffffffffffffffffff16836040518363ffffffff167c0100000000000000000000000000000000000000000000000000000000028152600401808373ffffffffffffffffffffffffffffffffffffffff1673ffffffffffffffffffffffffffffffffffffffff16815260200182815260200192505050602060405180830381600087803b1580156122b157600080fd5b505af11580156122c5573d6000803e3d6000fd5b505050506040513d60208110156122db57600080fd5b8101908080519060200190929190505050506000809054906101000a900473ffffffffffffffffffffffffffffffffffffffff1673ffffffffffffffffffffffffffffffffffffffff168373ffffffffffffffffffffffffffffffffffffffff167ff931edb47c50b4b4104c187b5814a9aef5f709e17e2ecf9617e860cacade929c836040518082815260200191505060405180910390a35b505050565b600b60019054906101000a900473ffffffffffffffffffffffffffffffffffffffff1681565b6000809054906101000a900473ffffffffffffffffffffffffffffffffffffffff1673ffffffffffffffffffffffffffffffffffffffff163373ffffffffffffffffffffffffffffffffffffffff161415156123fa57600080fd5b80600b60006101000a81548160ff02191690831515021790555050565b6000809054906101000a900473ffffffffffffffffffffffffffffffffffffffff1681565b600080600080841415612452576001925061276d565b4360065410151561246257600080fd5b60008573ffffffffffffffffffffffffffffffffffffffff16141580156124b557503073ffffffffffffffffffffffffffffffffffffffff168573ffffffffffffffffffffffffffffffffffffffff1614155b15156124c057600080fd5b6124ca8643611274565b9150838210156124dd576000925061276d565b6125076000809054906101000a900473ffffffffffffffffffffffffffffffffffffffff16610c1b565b1561265257600115156000809054906101000a900473ffffffffffffffffffffffffffffffffffffffff1673ffffffffffffffffffffffffffffffffffffffff16634a3931498888886040518463ffffffff167c0100000000000000000000000000000000000000000000000000000000028152600401808473ffffffffffffffffffffffffffffffffffffffff1673ffffffffffffffffffffffffffffffffffffffff1681526020018373ffffffffffffffffffffffffffffffffffffffff1673ffffffffffffffffffffffffffffffffffffffff1681526020018281526020019350505050602060405180830381600087803b15801561260857600080fd5b505af115801561261c573d6000803e3d6000fd5b505050506040513d602081101561263257600080fd5b8101908080519060200190929190505050151514151561265157600080fd5b5b61269c600860008873ffffffffffffffffffffffffffffffffffffffff1673ffffffffffffffffffffffffffffffffffffffff16815260200190815260200160002085840361299e565b6126a68543611274565b905080848201101515156126b957600080fd5b612703600860008773ffffffffffffffffffffffffffffffffffffffff1673ffffffffffffffffffffffffffffffffffffffff16815260200190815260200160002085830161299e565b8473ffffffffffffffffffffffffffffffffffffffff168673ffffffffffffffffffffffffffffffffffffffff167fddf252ad1be2c89b69c2b068fc378daa952ba7f163c4a11628f55a4df523b3ef866040518082815260200191505060405180910390a3600192505b50509392505050565b60008183106127855781612787565b825b905092915050565b6000806000806000868054905014156127ab5760009350612995565b8560018780549050038154811015156127c057fe5b9060005260206000200160000160009054906101000a90046fffffffffffffffffffffffffffffffff166fffffffffffffffffffffffffffffffff168510151561285c5785600187805490500381548110151561281957fe5b9060005260206000200160000160109054906101000a90046fffffffffffffffffffffffffffffffff166fffffffffffffffffffffffffffffffff169350612995565b85600081548110151561286b57fe5b9060005260206000200160000160009054906101000a90046fffffffffffffffffffffffffffffffff166fffffffffffffffffffffffffffffffff168510156128b75760009350612995565b60009250600186805490500391505b828211156129485760026001848401018115156128df57fe5b0490508486828154811015156128f157fe5b9060005260206000200160000160009054906101000a90046fffffffffffffffffffffffffffffffff166fffffffffffffffffffffffffffffffff1611151561293c57809250612943565b6001810391505b6128c6565b858381548110151561295657fe5b9060005260206000200160000160109054906101000a90046fffffffffffffffffffffffffffffffff166fffffffffffffffffffffffffffffffff1693505b50505092915050565b600080600084805490501480612a035750438460018680549050038154811015156129c557fe5b9060005260206000200160000160009054906101000a90046fffffffffffffffffffffffffffffffff166fffffffffffffffffffffffffffffffff16105b15612aaf5783848054809190600101612a1c9190612b12565b815481101515612a2857fe5b906000526020600020019150438260000160006101000a8154816fffffffffffffffffffffffffffffffff02191690836fffffffffffffffffffffffffffffffff160217905550828260000160106101000a8154816fffffffffffffffffffffffffffffffff02191690836fffffffffffffffffffffffffffffffff160217905550612b0c565b836001858054905003815481101515612ac457fe5b906000526020600020019050828160000160106101000a8154816fffffffffffffffffffffffffffffffff02191690836fffffffffffffffffffffffffffffffff1602179055505b50505050565b815481835581811115612b3957818360005260206000209182019101612b389190612b3e565b5b505050565b612ba091905b80821115612b9c57600080820160006101000a8154906fffffffffffffffffffffffffffffffff02191690556000820160106101000a8154906fffffffffffffffffffffffffffffffff021916905550600101612b44565b5090565b905600a165627a7a723058201969b5f5fc28ef64d864a716432a485a8f20d07f6ba9d359fc3456f30d49a88b0029a165627a7a72305820804e688eb507ecafc93338656b819c2830b172df6ede3d8f98edda5a7692b4ed0029",
  "source": "/*\n * SPDX-License-Identitifer:    GPL-3.0-or-later\n *\n * This file requires contract dependencies which are licensed as\n * GPL-3.0-or-later, forcing it to also be licensed as such.\n *\n * This is the only file in your project that requires this license and\n * you are free to choose a different license for the rest of the project.\n */\n\npragma solidity 0.4.24;\n\nimport \"@aragon/os/contracts/factory/DAOFactory.sol\";\nimport \"@aragon/os/contracts/apm/Repo.sol\";\nimport \"@aragon/os/contracts/lib/ens/ENS.sol\";\nimport \"@aragon/os/contracts/lib/ens/PublicResolver.sol\";\nimport \"@aragon/os/contracts/apm/APMNamehash.sol\";\n\n//import \"@aragon/apps-voting/contracts/Voting.sol\";\nimport \"@aragon/apps-vault/contracts/Vault.sol\";\nimport \"@aragon/apps-finance/contracts/Finance.sol\";\nimport \"./MyTokens.sol\";\nimport \"../../../contracts/StandardToken.sol\";\nimport \"../../../contracts/TokenSale.sol\";\nimport \"./FakeIdentity.sol\";\nimport \"@aragon/apps-shared-minime/contracts/MiniMeToken.sol\";\n\ncontract KitBase is APMNamehash {\n    ENS public ens;\n    DAOFactory public fac;\n\n    event DeployInstance(address dao);\n    event InstalledApp(address appProxy, bytes32 appId);\n\n    constructor(DAOFactory _fac, ENS _ens) {\n        ens = _ens;\n\n        // If no factory is passed, get it from on-chain bare-kit\n        if (address(_fac) == address(0)) {\n            bytes32 bareKit = apmNamehash(\"bare-kit\");\n            fac = KitBase(latestVersionAppBase(bareKit)).fac();\n        } else {\n            fac = _fac;\n        }\n    }\n\n    function latestVersionAppBase(bytes32 appId) public view returns (address base) {\n        Repo repo = Repo(PublicResolver(ens.resolver(appId)).addr(appId));\n        (,base,) = repo.getLatest();\n\n        return base;\n    }\n}\n\ncontract Kit is KitBase {\n    MiniMeTokenFactory tokenFactory;\n\n    uint64 constant PCT = 10 ** 16;\n    address constant ANY_ENTITY = address(-1);\n    uint64 constant PERIOD = 2592000; //30 days\n    uint256 constant TOKEN_SUPPLY = 10**30;\n\n    uint256[] lockAmounts = [10**18, 10**23, 10**23, 10**23];\n    uint256[] lockIntervals = [0, 3, 6, 12];\n    uint256[] tokenIntervals = [10, 15, 20, 30];\n    address[] whitelist = [address(0xb4124cEB3451635DAcedd11767f004d8a28c6eE7), address(0x8401Eb5ff34cc943f096A32EF3d5113FEbE8D4Eb)];\n\n    constructor(ENS ens) KitBase(DAOFactory(0), ens) {\n        tokenFactory = new MiniMeTokenFactory();\n    }\n\n    function newInstance() {\n        Kernel dao = fac.newDAO(this);\n        ACL acl = ACL(dao.acl());\n        setupDAO(dao, acl);\n    }\n\n    function setupDAO(Kernel _dao, ACL _acl) internal {\n      _acl.createPermission(this, _dao, _dao.APP_MANAGER_ROLE(), this);\n      address root = msg.sender;\n      //bytes32 votingAppId = apmNamehash(\"voting\");\n      bytes32 vaultAppId = apmNamehash(\"vault\");\n      bytes32 financeAppId = apmNamehash(\"finance\");\n      bytes32 tokenLockerAppId = apmNamehash(\"mybit-tokens\");\n\n      Vault vault = Vault(_dao.newAppInstance(vaultAppId, latestVersionAppBase(vaultAppId), '', true));\n      //vault.initialize();\n      Finance finance = Finance(_dao.newAppInstance(financeAppId, latestVersionAppBase(financeAppId)));\n      //Voting voting = Voting(_dao.newAppInstance(votingAppId, latestVersionAppBase(votingAppId)));\n      MyTokens tokenLocker = MyTokens(_dao.newAppInstance(tokenLockerAppId, latestVersionAppBase(tokenLockerAppId)));\n      FakeIdentity myID = new FakeIdentity();\n      //_dao.setRecoveryVaultAppId(vaultAppId);\n\n\n      MiniMeToken token = tokenFactory.createCloneToken(MiniMeToken(0), 0, \"MyVote\", 1, \"MYV\", true);\n      //token.generateTokens(msg.sender, 1);\n      token.changeController(tokenLocker);\n\n      StandardToken erc20 = new StandardToken(\"MyBit\", \"MYB\", 18, TOKEN_SUPPLY);\n      //TokenSale tokensale = new TokenSale(address(erc20), address(0), address(0));\n      erc20.transfer(msg.sender, TOKEN_SUPPLY/4);\n      erc20.transfer(address(0x8401Eb5ff34cc943f096A32EF3d5113FEbE8D4Eb), TOKEN_SUPPLY/4);\n      //erc20.approve(address(tokensale), TOKEN_SUPPLY/2);\n      //tokensale.startSale(now);\n      //tokensale.fund(0, 10**18, address(0xb4124cEB3451635DAcedd11767f004d8a28c6eE7));\n      //tokensale.fund(1, 10**18, address(0x8401Eb5ff34cc943f096A32EF3d5113FEbE8D4Eb));\n\n      // Initialize apps\n\n      finance.initialize(vault, PERIOD);\n      tokenLocker.initialize(token, address(erc20), address(0), address(myID), lockAmounts, lockIntervals, tokenIntervals);\n      //voting.initialize(token, 50 * PCT, 20 * PCT, 1 days);\n      myID.initialize(whitelist);\n\n\n      //_acl.createPermission(this, tokenLocker, tokenLocker.LOCK_ROLE(), this);\n      //tokenLocker.mint(root, 1); // Give one token to root\n\n      setupPermissions(_dao, _acl, /*voting,*/ tokenLocker, vault, finance, root);\n    }\n\n    function setupPermissions(Kernel _dao, ACL _acl, /*Voting _voting,*/ MyTokens _tokenLocker, Vault _vault, Finance _finance, address _root) internal{\n      //_acl.createPermission(ANY_ENTITY, _voting, _voting.CREATE_VOTES_ROLE(), _root);\n      _acl.createPermission(_tokenLocker, _tokenLocker, _tokenLocker.BURN_ROLE(), _tokenLocker);\n      _acl.createPermission(_tokenLocker, _tokenLocker, _tokenLocker.MANAGER_ROLE(), _tokenLocker);\n      //_acl.createPermission(_voting, _vault, _vault.TRANSFER_ROLE(), _voting);\n\n      _acl.createPermission(_finance, _vault, _vault.TRANSFER_ROLE(), _tokenLocker);\n      _acl.createPermission(_tokenLocker, _finance, _finance.CREATE_PAYMENTS_ROLE(), _tokenLocker);\n      _acl.createPermission(_tokenLocker, _finance, _finance.EXECUTE_PAYMENTS_ROLE(), _tokenLocker);\n      _acl.createPermission(_tokenLocker, _finance, _finance.MANAGE_PAYMENTS_ROLE(), _tokenLocker);\n\n\n      // Clean up permissions\n      _acl.grantPermission(_root, _dao, _dao.APP_MANAGER_ROLE());\n      _acl.revokePermission(this, _dao, _dao.APP_MANAGER_ROLE());\n      _acl.setPermissionManager(_root, _dao, _dao.APP_MANAGER_ROLE());\n\n      _acl.grantPermission(_root, _acl, _acl.CREATE_PERMISSIONS_ROLE());\n      _acl.revokePermission(this, _acl, _acl.CREATE_PERMISSIONS_ROLE());\n      _acl.setPermissionManager(_root, _acl, _acl.CREATE_PERMISSIONS_ROLE());\n\n      emit DeployInstance(_dao);\n    }\n}\n",
  "sourcePath": "/home/peter/Documents/Work/MyBit/MyBit-DAO.tech/apps/MyTokens/contracts/Kit.sol",
  "compiler": {
    "name": "solc",
    "version": "0.4.24+commit.e67f0147.Emscripten.clang"
  },
  "schemaVersion": "2.0.1",
  "updatedAt": "2019-04-22T20:29:30.419Z"
}