{
  "contractName": "TemplateBase",
  "abi": [
    {
      "constant": true,
      "inputs": [],
      "name": "ens",
      "outputs": [
        {
          "name": "",
          "type": "address"
        }
      ],
      "payable": false,
      "stateMutability": "view",
      "type": "function"
    },
    {
      "constant": true,
      "inputs": [],
      "name": "fac",
      "outputs": [
        {
          "name": "",
          "type": "address"
        }
      ],
      "payable": false,
      "stateMutability": "view",
      "type": "function"
    },
    {
      "inputs": [
        {
          "name": "_fac",
          "type": "address"
        },
        {
          "name": "_ens",
          "type": "address"
        }
      ],
      "payable": false,
      "stateMutability": "nonpayable",
      "type": "constructor"
    },
    {
      "anonymous": false,
      "inputs": [
        {
          "indexed": false,
          "name": "dao",
          "type": "address"
        }
      ],
      "name": "DeployInstance",
      "type": "event"
    },
    {
      "anonymous": false,
      "inputs": [
        {
          "indexed": false,
          "name": "appProxy",
          "type": "address"
        },
        {
          "indexed": false,
          "name": "appId",
          "type": "bytes32"
        }
      ],
      "name": "InstalledApp",
      "type": "event"
    },
    {
      "constant": true,
      "inputs": [
        {
          "name": "appId",
          "type": "bytes32"
        }
      ],
      "name": "latestVersionAppBase",
      "outputs": [
        {
          "name": "base",
          "type": "address"
        }
      ],
      "payable": false,
      "stateMutability": "view",
      "type": "function"
    }
  ],
  "bytecode": "0x608060405234801561001057600080fd5b50604051604080610aaf83398101806040528101908080519060200190929190805190602001909291905050506000816000806101000a81548173ffffffffffffffffffffffffffffffffffffffff021916908373ffffffffffffffffffffffffffffffffffffffff160217905550600073ffffffffffffffffffffffffffffffffffffffff168373ffffffffffffffffffffffffffffffffffffffff1614156101fe576101016040805190810160405280600881526020017f626172652d6b6974000000000000000000000000000000000000000000000000815250610248640100000000026401000000009004565b905061011b81610370640100000000026401000000009004565b73ffffffffffffffffffffffffffffffffffffffff1663c3b314726040518163ffffffff167c0100000000000000000000000000000000000000000000000000000000028152600401602060405180830381600087803b15801561017e57600080fd5b505af1158015610192573d6000803e3d6000fd5b505050506040513d60208110156101a857600080fd5b8101908080519060200190929190505050600160006101000a81548173ffffffffffffffffffffffffffffffffffffffff021916908373ffffffffffffffffffffffffffffffffffffffff160217905550610240565b82600160006101000a81548173ffffffffffffffffffffffffffffffffffffffff021916908373ffffffffffffffffffffffffffffffffffffffff1602179055505b50505061060f565b60007f9065c3e7f7b7ef1ef4e53d2d0b8e0cef02874ab020c1ece79d5f0d3d0111c0ba600102826040518082805190602001908083835b6020831015156102a4578051825260208201915060208101905060208303925061027f565b6001836020036101000a03801982511681845116808217855250505050505090500191505060405180910390206040516020018083600019166000191681526020018260001916600019168152602001925050506040516020818303038152906040526040518082805190602001908083835b60208310151561033c5780518252602082019150602081019050602083039250610317565b6001836020036101000a03801982511681845116808217855250505050505090500191505060405180910390209050919050565b6000806000809054906101000a900473ffffffffffffffffffffffffffffffffffffffff1673ffffffffffffffffffffffffffffffffffffffff16630178b8bf846040518263ffffffff167c0100000000000000000000000000000000000000000000000000000000028152600401808260001916600019168152602001915050602060405180830381600087803b15801561040b57600080fd5b505af115801561041f573d6000803e3d6000fd5b505050506040513d602081101561043557600080fd5b810190808051906020019092919050505073ffffffffffffffffffffffffffffffffffffffff16633b3b57de846040518263ffffffff167c0100000000000000000000000000000000000000000000000000000000028152600401808260001916600019168152602001915050602060405180830381600087803b1580156104bc57600080fd5b505af11580156104d0573d6000803e3d6000fd5b505050506040513d60208110156104e657600080fd5b810190808051906020019092919050505090508073ffffffffffffffffffffffffffffffffffffffff1663c36af4606040518163ffffffff167c0100000000000000000000000000000000000000000000000000000000028152600401600060405180830381600087803b15801561055d57600080fd5b505af1158015610571573d6000803e3d6000fd5b505050506040513d6000823e3d601f19601f8201168201806040525060a081101561059b57600080fd5b810190809190826060018051906020019092919080516401000000008111156105c357600080fd5b828101905060208101848111156105d957600080fd5b81518560018202830111640100000000821117156105f657600080fd5b5050929190505050909150508092505081915050919050565b6104918061061e6000396000f300608060405260043610610057576000357c0100000000000000000000000000000000000000000000000000000000900463ffffffff1680633f15457f1461005c578063c3b31472146100b3578063c6d2c7171461010a575b600080fd5b34801561006857600080fd5b5061007161017b565b604051808273ffffffffffffffffffffffffffffffffffffffff1673ffffffffffffffffffffffffffffffffffffffff16815260200191505060405180910390f35b3480156100bf57600080fd5b506100c86101a0565b604051808273ffffffffffffffffffffffffffffffffffffffff1673ffffffffffffffffffffffffffffffffffffffff16815260200191505060405180910390f35b34801561011657600080fd5b5061013960048036038101908080356000191690602001909291905050506101c6565b604051808273ffffffffffffffffffffffffffffffffffffffff1673ffffffffffffffffffffffffffffffffffffffff16815260200191505060405180910390f35b6000809054906101000a900473ffffffffffffffffffffffffffffffffffffffff1681565b600160009054906101000a900473ffffffffffffffffffffffffffffffffffffffff1681565b6000806000809054906101000a900473ffffffffffffffffffffffffffffffffffffffff1673ffffffffffffffffffffffffffffffffffffffff16630178b8bf846040518263ffffffff167c0100000000000000000000000000000000000000000000000000000000028152600401808260001916600019168152602001915050602060405180830381600087803b15801561026157600080fd5b505af1158015610275573d6000803e3d6000fd5b505050506040513d602081101561028b57600080fd5b810190808051906020019092919050505073ffffffffffffffffffffffffffffffffffffffff16633b3b57de846040518263ffffffff167c0100000000000000000000000000000000000000000000000000000000028152600401808260001916600019168152602001915050602060405180830381600087803b15801561031257600080fd5b505af1158015610326573d6000803e3d6000fd5b505050506040513d602081101561033c57600080fd5b810190808051906020019092919050505090508073ffffffffffffffffffffffffffffffffffffffff1663c36af4606040518163ffffffff167c0100000000000000000000000000000000000000000000000000000000028152600401600060405180830381600087803b1580156103b357600080fd5b505af11580156103c7573d6000803e3d6000fd5b505050506040513d6000823e3d601f19601f8201168201806040525060a08110156103f157600080fd5b8101908091908260600180519060200190929190805164010000000081111561041957600080fd5b8281019050602081018481111561042f57600080fd5b815185600182028301116401000000008211171561044c57600080fd5b50509291905050509091505080925050819150509190505600a165627a7a723058203cfb52f57a7ab50d68343221cbf83541e0cb8eac2b393d1548ba00895135de070029",
  "source": "/*\n * SPDX-License-Identitifer:    GPL-3.0-or-later\n *\n * This file requires contract dependencies which are licensed as\n * GPL-3.0-or-later, forcing it to also be licensed as such.\n *\n * This is the only file in your project that requires this license and\n * you are free to choose a different license for the rest of the project.\n */\n\npragma solidity 0.4.24;\n\nimport \"@aragon/os/contracts/factory/DAOFactory.sol\";\nimport \"@aragon/os/contracts/apm/Repo.sol\";\nimport \"@aragon/os/contracts/lib/ens/ENS.sol\";\nimport \"@aragon/os/contracts/lib/ens/PublicResolver.sol\";\nimport \"@aragon/os/contracts/apm/APMNamehash.sol\";\n\nimport \"@aragon/apps-voting/contracts/Voting.sol\";\nimport \"@aragon/apps-vault/contracts/Vault.sol\";\nimport \"@aragon/apps-finance/contracts/Finance.sol\";\nimport \"./MyTokens.sol\";\nimport \"./MyID.sol\";\nimport \"./StandardToken.sol\";\nimport \"./TokenSale.sol\";\nimport \"@aragon/apps-shared-minime/contracts/MiniMeToken.sol\";\n\ncontract TemplateBase is APMNamehash {\n    ENS public ens;\n    DAOFactory public fac;\n\n    event DeployInstance(address dao);\n    event InstalledApp(address appProxy, bytes32 appId);\n\n    constructor(DAOFactory _fac, ENS _ens) {\n        ens = _ens;\n\n        // If no factory is passed, get it from on-chain bare-kit\n        if (address(_fac) == address(0)) {\n            bytes32 bareKit = apmNamehash(\"bare-kit\");\n            fac = TemplateBase(latestVersionAppBase(bareKit)).fac();\n        } else {\n            fac = _fac;\n        }\n    }\n\n    function latestVersionAppBase(bytes32 appId) public view returns (address base) {\n        Repo repo = Repo(PublicResolver(ens.resolver(appId)).addr(appId));\n        (,base,) = repo.getLatest();\n\n        return base;\n    }\n}\n\ncontract MyBitTemplate is TemplateBase {\n    MiniMeTokenFactory tokenFactory;\n\n    uint64 constant PCT = 10 ** 16;\n    //address constant ANY_ENTITY = address(-1);\n    //uint64 constant PERIOD = 2592000; //30 days\n\n    uint256 constant TOKEN_SUPPLY = 10**30;\n    //address constant myb = address(0x5d60d8d7eF6d37E16EBABc324de3bE57f135e0BC);\n    //address constant tokensale = address(0xCcA36039cfDd0753D3aA9F1B4Bf35b606c8Ed971);\n    address constant myb = address(0x0ED303a63921124a24F19156BC5fe8535eb03586);\n    address constant tokensale = address(0x15D7AdC7d6283d57D45017512567985e3A768B83);\n    //address[] constant whitelist = [address(0x06134Ad890B6eDb42Bc0487c4e8dBbc17e3E0326)];\n    address constant whitelist = address(0xb4124cEB3451635DAcedd11767f004d8a28c6eE7);\n    string constant hashlist = 'QmanPRXCzxXXfizjnWr7Fe5x57GH4gBTrFN9nUY1vVdLCV';\n    uint256[] lockAmounts = [10**18, 10**23, 10**23, 10**23, 10**23];\n    uint256[] lockIntervals = [0, 3, 12, 24, 36];\n    uint256[] tokenIntervals = [10, 20, 50, 80, 130];\n\n    constructor(ENS ens) TemplateBase(DAOFactory(0), ens) {\n        tokenFactory = new MiniMeTokenFactory();\n    }\n\n    function newInstance() {\n        Kernel dao = fac.newDAO(this);\n        ACL acl = ACL(dao.acl());\n        acl.createPermission(this, dao, dao.APP_MANAGER_ROLE(), this);\n        (Voting voting1, Voting voting2, Vault vault, Finance finance) = setupAragonApps(dao);\n        (MyTokens myTokens, MyID myID, MiniMeToken token) = setupMyBitApps(dao);\n        initializeApps(voting1, voting2, vault, finance, token, myTokens, myID);\n        setupPermissions(dao, acl, voting1, voting2, myTokens, vault, finance, myID, msg.sender);\n        emit DeployInstance(dao);\n    }\n\n    function setupAragonApps(Kernel _dao) internal returns (Voting voting1, Voting voting2, Vault vault, Finance finance){\n      bytes32 votingAppId = apmNamehash(\"voting\");\n      bytes32 vaultAppId = apmNamehash(\"vault\");\n      bytes32 financeAppId = apmNamehash(\"finance\");\n\n      vault = Vault(_dao.newAppInstance(vaultAppId, latestVersionAppBase(vaultAppId), '', true));\n      finance = Finance(_dao.newAppInstance(financeAppId, latestVersionAppBase(financeAppId)));\n      voting1 = Voting(_dao.newAppInstance(votingAppId, latestVersionAppBase(votingAppId)));\n      voting2 = Voting(_dao.newAppInstance(votingAppId, latestVersionAppBase(votingAppId)));\n\n      return (voting1, voting2, vault, finance);\n    }\n\n    function setupMyBitApps(Kernel _dao) internal returns (MyTokens myTokens, MyID myID, MiniMeToken token){\n      //bytes32 myTokensAppId = apmNamehash(\"mytokens.open.aragonpm.eth\");\n      //bytes32 myIDAppId = apmNamehash(\"myid.open.aragonpm.eth\");\n      bytes32 myTokensAppId = apmNamehash(\"mytokens\");\n      bytes32 myIDAppId = apmNamehash(\"myid\");\n\n      myTokens = MyTokens(_dao.newAppInstance(myTokensAppId, latestVersionAppBase(myTokensAppId)));\n      myID = MyID(_dao.newAppInstance(myIDAppId, latestVersionAppBase(myIDAppId)));\n\n      token = tokenFactory.createCloneToken(MiniMeToken(0), 0, \"MyVote\", 1, \"MYV\", true);\n      //token.generateTokens(msg.sender, 1);\n      token.changeController(myTokens);\n\n      //_acl.createPermission(this, myTokens, myTokens.LOCK_ROLE(), this);\n      //myTokens.mint(_root, 1); // Give one token to _root\n\n      //setupPermissions(_dao, _acl, voting1, voting2, myTokens, vault, finance, myID, root);\n      return (myTokens, myID, token);\n    }\n\n    function initializeApps(Voting _voting1, Voting _voting2, Vault _vault, Finance _finance, MiniMeToken _token, MyTokens _myTokens, MyID _myID) internal{\n      // Initialize apps\n      //vault.initialize();\n      _finance.initialize(_vault, 30 days);\n      _myTokens.initialize(_token, myb, tokensale, address(_myID), lockAmounts, lockIntervals, tokenIntervals);\n      _voting1.initialize(_token, (50 * PCT)+1, 20 * PCT, 14 days);\n      _voting2.initialize(_token, 67 * PCT, 5 * PCT, 5 days);\n      _myID.initialize(address(_token), address(_voting2), whitelist, hashlist);\n    }\n\n    function setupPermissions(Kernel _dao, ACL _acl, Voting _voting1, Voting _voting2, MyTokens _myTokens, Vault _vault, Finance _finance, MyID _myID, address _root) internal{\n      _acl.createPermission(_myTokens, _voting1, _voting1.CREATE_VOTES_ROLE(), _voting1);\n      _acl.createPermission(_myTokens, _voting2, _voting2.CREATE_VOTES_ROLE(), _voting2);\n\n      _acl.createPermission(_voting2, _myID, _myID.AUTHORIZE_ROLE(), _voting1);\n      _acl.createPermission(_voting1, _myTokens, _myTokens.BURN_ROLE(), _voting1);\n      _acl.createPermission(_voting1, _myTokens, _myTokens.MANAGER_ROLE(), _voting1);\n      //_acl.createPermission(_voting1, _vault, _vault.TRANSFER_ROLE(), _voting1);\n\n      _acl.createPermission(_finance, _vault, _vault.TRANSFER_ROLE(), _voting1);\n      _acl.createPermission(_voting1, _finance, _finance.CREATE_PAYMENTS_ROLE(), _voting1);\n      _acl.createPermission(_voting1, _finance, _finance.EXECUTE_PAYMENTS_ROLE(), _voting1);\n      _acl.createPermission(_voting1, _finance, _finance.MANAGE_PAYMENTS_ROLE(), _voting1);\n\n      // Clean up permissions\n      _acl.grantPermission(_root, _dao, _dao.APP_MANAGER_ROLE());\n      _acl.revokePermission(this, _dao, _dao.APP_MANAGER_ROLE());\n      _acl.setPermissionManager(_root, _dao, _dao.APP_MANAGER_ROLE());\n\n      _acl.grantPermission(_root, _acl, _acl.CREATE_PERMISSIONS_ROLE());\n      _acl.revokePermission(this, _acl, _acl.CREATE_PERMISSIONS_ROLE());\n      _acl.setPermissionManager(_root, _acl, _acl.CREATE_PERMISSIONS_ROLE());\n    }\n}\n",
  "sourcePath": "/home/peter/Documents/Work/MyBit/MyBit-Tokens.dao/contracts/MyBitTemplate.sol",
  "compiler": {
    "name": "solc",
    "version": "0.4.24+commit.e67f0147.Emscripten.clang"
  },
  "schemaVersion": "2.0.1",
  "updatedAt": "2019-04-20T22:48:43.659Z"
}