{
  "contractName": "TokenSale",
  "abi": [
    {
      "constant": true,
      "inputs": [],
      "name": "mybitFoundation",
      "outputs": [
        {
          "name": "",
          "type": "address"
        }
      ],
      "payable": false,
      "stateMutability": "view",
      "type": "function"
    },
    {
      "constant": true,
      "inputs": [],
      "name": "developmentFund",
      "outputs": [
        {
          "name": "",
          "type": "address"
        }
      ],
      "payable": false,
      "stateMutability": "view",
      "type": "function"
    },
    {
      "constant": true,
      "inputs": [],
      "name": "owner",
      "outputs": [
        {
          "name": "",
          "type": "address"
        }
      ],
      "payable": false,
      "stateMutability": "view",
      "type": "function"
    },
    {
      "constant": true,
      "inputs": [],
      "name": "tokensPerDay",
      "outputs": [
        {
          "name": "",
          "type": "uint256"
        }
      ],
      "payable": false,
      "stateMutability": "view",
      "type": "function"
    },
    {
      "constant": true,
      "inputs": [
        {
          "name": "",
          "type": "uint16"
        }
      ],
      "name": "day",
      "outputs": [
        {
          "name": "totalWeiContributed",
          "type": "uint256"
        }
      ],
      "payable": false,
      "stateMutability": "view",
      "type": "function"
    },
    {
      "constant": true,
      "inputs": [],
      "name": "start",
      "outputs": [
        {
          "name": "",
          "type": "uint256"
        }
      ],
      "payable": false,
      "stateMutability": "view",
      "type": "function"
    },
    {
      "inputs": [
        {
          "name": "_mybToken",
          "type": "address"
        },
        {
          "name": "_mybFoundation",
          "type": "address"
        },
        {
          "name": "_developmentFund",
          "type": "address"
        }
      ],
      "payable": false,
      "stateMutability": "nonpayable",
      "type": "constructor"
    },
    {
      "payable": true,
      "stateMutability": "payable",
      "type": "fallback"
    },
    {
      "anonymous": false,
      "inputs": [
        {
          "indexed": false,
          "name": "_owner",
          "type": "address"
        },
        {
          "indexed": false,
          "name": "_mybFoundation",
          "type": "address"
        },
        {
          "indexed": false,
          "name": "_developmentFund",
          "type": "address"
        },
        {
          "indexed": false,
          "name": "_totalMYB",
          "type": "uint256"
        },
        {
          "indexed": false,
          "name": "_startTime",
          "type": "uint256"
        }
      ],
      "name": "LogSaleStarted",
      "type": "event"
    },
    {
      "anonymous": false,
      "inputs": [
        {
          "indexed": false,
          "name": "_mybFoundation",
          "type": "address"
        },
        {
          "indexed": false,
          "name": "_amount",
          "type": "uint256"
        },
        {
          "indexed": false,
          "name": "_day",
          "type": "uint16"
        }
      ],
      "name": "LogFoundationWithdraw",
      "type": "event"
    },
    {
      "anonymous": false,
      "inputs": [
        {
          "indexed": true,
          "name": "_contributor",
          "type": "address"
        },
        {
          "indexed": false,
          "name": "_amount",
          "type": "uint256"
        },
        {
          "indexed": true,
          "name": "_day",
          "type": "uint16"
        }
      ],
      "name": "LogTokensPurchased",
      "type": "event"
    },
    {
      "anonymous": false,
      "inputs": [
        {
          "indexed": true,
          "name": "_contributor",
          "type": "address"
        },
        {
          "indexed": false,
          "name": "_amount",
          "type": "uint256"
        },
        {
          "indexed": true,
          "name": "_day",
          "type": "uint16"
        }
      ],
      "name": "LogTokensCollected",
      "type": "event"
    },
    {
      "constant": false,
      "inputs": [
        {
          "name": "_timestamp",
          "type": "uint256"
        }
      ],
      "name": "startSale",
      "outputs": [
        {
          "name": "",
          "type": "bool"
        }
      ],
      "payable": false,
      "stateMutability": "nonpayable",
      "type": "function"
    },
    {
      "constant": false,
      "inputs": [
        {
          "name": "_day",
          "type": "uint16"
        },
        {
          "name": "_amount",
          "type": "uint256"
        },
        {
          "name": "_user",
          "type": "address"
        }
      ],
      "name": "fund",
      "outputs": [
        {
          "name": "",
          "type": "bool"
        }
      ],
      "payable": false,
      "stateMutability": "nonpayable",
      "type": "function"
    },
    {
      "constant": false,
      "inputs": [
        {
          "name": "_day",
          "type": "uint16[]"
        }
      ],
      "name": "batchFund",
      "outputs": [
        {
          "name": "",
          "type": "bool"
        }
      ],
      "payable": true,
      "stateMutability": "payable",
      "type": "function"
    },
    {
      "constant": false,
      "inputs": [
        {
          "name": "_day",
          "type": "uint16"
        }
      ],
      "name": "withdraw",
      "outputs": [
        {
          "name": "",
          "type": "bool"
        }
      ],
      "payable": false,
      "stateMutability": "nonpayable",
      "type": "function"
    },
    {
      "constant": false,
      "inputs": [
        {
          "name": "_day",
          "type": "uint16[]"
        }
      ],
      "name": "batchWithdraw",
      "outputs": [
        {
          "name": "",
          "type": "bool"
        }
      ],
      "payable": false,
      "stateMutability": "nonpayable",
      "type": "function"
    },
    {
      "constant": false,
      "inputs": [
        {
          "name": "_amount",
          "type": "uint256"
        }
      ],
      "name": "foundationWithdraw",
      "outputs": [
        {
          "name": "",
          "type": "bool"
        }
      ],
      "payable": false,
      "stateMutability": "nonpayable",
      "type": "function"
    },
    {
      "constant": true,
      "inputs": [
        {
          "name": "_contributor",
          "type": "address"
        },
        {
          "name": "_day",
          "type": "uint16"
        }
      ],
      "name": "getTokensOwed",
      "outputs": [
        {
          "name": "",
          "type": "uint256"
        }
      ],
      "payable": false,
      "stateMutability": "view",
      "type": "function"
    },
    {
      "constant": true,
      "inputs": [
        {
          "name": "_contributor",
          "type": "address"
        },
        {
          "name": "_days",
          "type": "uint16[]"
        }
      ],
      "name": "getTotalTokensOwed",
      "outputs": [
        {
          "name": "amount",
          "type": "uint256"
        }
      ],
      "payable": false,
      "stateMutability": "view",
      "type": "function"
    },
    {
      "constant": true,
      "inputs": [
        {
          "name": "_day",
          "type": "uint16"
        },
        {
          "name": "_contributor",
          "type": "address"
        }
      ],
      "name": "getWeiContributed",
      "outputs": [
        {
          "name": "",
          "type": "uint256"
        }
      ],
      "payable": false,
      "stateMutability": "view",
      "type": "function"
    },
    {
      "constant": true,
      "inputs": [
        {
          "name": "_day",
          "type": "uint16"
        }
      ],
      "name": "getTotalWeiContributed",
      "outputs": [
        {
          "name": "",
          "type": "uint256"
        }
      ],
      "payable": false,
      "stateMutability": "view",
      "type": "function"
    },
    {
      "constant": true,
      "inputs": [
        {
          "name": "_timestamp",
          "type": "uint256"
        }
      ],
      "name": "dayFor",
      "outputs": [
        {
          "name": "",
          "type": "uint16"
        }
      ],
      "payable": false,
      "stateMutability": "view",
      "type": "function"
    },
    {
      "constant": true,
      "inputs": [
        {
          "name": "_day",
          "type": "uint16"
        }
      ],
      "name": "dayFinished",
      "outputs": [
        {
          "name": "",
          "type": "bool"
        }
      ],
      "payable": false,
      "stateMutability": "view",
      "type": "function"
    },
    {
      "constant": true,
      "inputs": [
        {
          "name": "_day",
          "type": "uint16"
        }
      ],
      "name": "duringSale",
      "outputs": [
        {
          "name": "",
          "type": "bool"
        }
      ],
      "payable": false,
      "stateMutability": "view",
      "type": "function"
    },
    {
      "constant": true,
      "inputs": [],
      "name": "currentDay",
      "outputs": [
        {
          "name": "",
          "type": "uint16"
        }
      ],
      "payable": false,
      "stateMutability": "view",
      "type": "function"
    }
  ],
  "bytecode": "0x608060405234801561001057600080fd5b50604051606080611e95833981018060405281019080805190602001909291908051906020019092919080519060200190929190505050826000806101000a81548173ffffffffffffffffffffffffffffffffffffffff021916908373ffffffffffffffffffffffffffffffffffffffff16021790555080600360006101000a81548173ffffffffffffffffffffffffffffffffffffffff021916908373ffffffffffffffffffffffffffffffffffffffff16021790555081600260006101000a81548173ffffffffffffffffffffffffffffffffffffffff021916908373ffffffffffffffffffffffffffffffffffffffff16021790555033600160006101000a81548173ffffffffffffffffffffffffffffffffffffffff021916908373ffffffffffffffffffffffffffffffffffffffff160217905550505050611d398061015c6000396000f300608060405260043610610112576000357c0100000000000000000000000000000000000000000000000000000000900463ffffffff1680630e3ab61d1461013157806312635d2614610176578063132e8bee146101bb5780631ca899531461020e5780631ea6b97f14610254578063279c7425146102ee578063388f6196146103535780633d972839146103c65780635c9302c91461040f5780636110e614146104425780637db02c8b1461048b5780638a2381d7146104e25780638da5cb5b1461053957806390497c66146105905780639e211ee8146105bb578063bd7255b014610604578063be9a655514610649578063cedcd77014610674578063cf5e36df146106b9578063d90c17591461071e575b610124333461011f610767565b610777565b151561012f57600080fd5b005b34801561013d57600080fd5b5061015c60048036038101908080359060200190929190505050610a21565b604051808215151515815260200191505060405180910390f35b34801561018257600080fd5b506101a5600480360381019080803561ffff169060200190929190505050610e21565b6040518082815260200191505060405180910390f35b3480156101c757600080fd5b506101f4600480360381019080803590602001908201803590602001919091929391929390505050610e49565b604051808215151515815260200191505060405180910390f35b61023a6004803603810190808035906020019082018035906020019190919293919293905050506110e2565b604051808215151515815260200191505060405180910390f35b34801561026057600080fd5b506102d8600480360381019080803573ffffffffffffffffffffffffffffffffffffffff169060200190929190803590602001908201803590602001908080602002602001604051908101604052809392919081815260200183836020028082843782019150505050505091929192905050506111a1565b6040518082815260200191505060405180910390f35b3480156102fa57600080fd5b5061033d600480360381019080803573ffffffffffffffffffffffffffffffffffffffff169060200190929190803561ffff169060200190929190505050611216565b6040518082815260200191505060405180910390f35b34801561035f57600080fd5b506103ac600480360381019080803561ffff16906020019092919080359060200190929190803573ffffffffffffffffffffffffffffffffffffffff16906020019092919050505061130d565b604051808215151515815260200191505060405180910390f35b3480156103d257600080fd5b506103f5600480360381019080803561ffff169060200190929190505050611330565b604051808215151515815260200191505060405180910390f35b34801561041b57600080fd5b50610424610767565b604051808261ffff1661ffff16815260200191505060405180910390f35b34801561044e57600080fd5b50610471600480360381019080803561ffff16906020019092919050505061157e565b604051808215151515815260200191505060405180910390f35b34801561049757600080fd5b506104a06115a2565b604051808273ffffffffffffffffffffffffffffffffffffffff1673ffffffffffffffffffffffffffffffffffffffff16815260200191505060405180910390f35b3480156104ee57600080fd5b506104f76115c8565b604051808273ffffffffffffffffffffffffffffffffffffffff1673ffffffffffffffffffffffffffffffffffffffff16815260200191505060405180910390f35b34801561054557600080fd5b5061054e6115ee565b604051808273ffffffffffffffffffffffffffffffffffffffff1673ffffffffffffffffffffffffffffffffffffffff16815260200191505060405180910390f35b34801561059c57600080fd5b506105a5611614565b6040518082815260200191505060405180910390f35b3480156105c757600080fd5b506105ea600480360381019080803561ffff169060200190929190505050611622565b604051808215151515815260200191505060405180910390f35b34801561061057600080fd5b50610633600480360381019080803561ffff169060200190929190505050611653565b6040518082815260200191505060405180910390f35b34801561065557600080fd5b5061065e611671565b6040518082815260200191505060405180910390f35b34801561068057600080fd5b5061069f60048036038101908080359060200190929190505050611677565b604051808215151515815260200191505060405180910390f35b3480156106c557600080fd5b50610708600480360381019080803561ffff169060200190929190803573ffffffffffffffffffffffffffffffffffffffff169060200190929190505050611869565b6040518082815260200191505060405180910390f35b34801561072a57600080fd5b50610749600480360381019080803590602001909291905050506118cf565b604051808261ffff1661ffff16815260200191505060405180910390f35b6000610772426118cf565b905090565b6000806000841115156107f2576040517f08c379a000000000000000000000000000000000000000000000000000000000815260040180806020018281038252601d8152602001807f6d7573742073656e642065746865722077697468207468652063616c6c00000081525060200191505060405180910390fd5b6107fb8361157e565b151561086f576040517f08c379a000000000000000000000000000000000000000000000000000000000815260040180806020018281038252601a8152602001807f646179206973206e6f7420647572696e67207468652073616c6500000000000081525060200191505060405180910390fd5b61087883611622565b1515156108ed576040517f08c379a00000000000000000000000000000000000000000000000000000000081526004018080602001828103825260188152602001807f6461792068617320616c72656164792066696e6973686564000000000000000081525060200191505060405180910390fd5b600560008461ffff1661ffff168152602001908152602001600020905061092184826000015461191390919063ffffffff16565b816000018190555061097d848260010160008873ffffffffffffffffffffffffffffffffffffffff1673ffffffffffffffffffffffffffffffffffffffff1681526020019081526020016000205461191390919063ffffffff16565b8160010160008773ffffffffffffffffffffffffffffffffffffffff1673ffffffffffffffffffffffffffffffffffffffff168152602001908152602001600020819055508261ffff168573ffffffffffffffffffffffffffffffffffffffff167fd498819977fb9763f29bab6e4eee516c4cf59053922eb6a9fe59370a7bc28b3d866040518082815260200191505060405180910390a360019150509392505050565b600080600160009054906101000a900473ffffffffffffffffffffffffffffffffffffffff1673ffffffffffffffffffffffffffffffffffffffff163373ffffffffffffffffffffffffffffffffffffffff16141515610a8057600080fd5b6000600454141515610afa576040517f08c379a000000000000000000000000000000000000000000000000000000000815260040180806020018281038252600f8152602001807f416c72656164792073746172746564000000000000000000000000000000000081525060200191505060405180910390fd5b428310158015610b1e575062278d00610b1c4285611a0890919063ffffffff16565b105b1515610b92576040517f08c379a00000000000000000000000000000000000000000000000000000000081526004018080602001828103825260178152602001807f53746172742074696d65206e6f7420696e2072616e676500000000000000000081525060200191505060405180910390fd5b610bb161016d69152d02c7e14af6800000611afd90919063ffffffff16565b90506000809054906101000a900473ffffffffffffffffffffffffffffffffffffffff1673ffffffffffffffffffffffffffffffffffffffff166323b872dd3330846040518463ffffffff167c0100000000000000000000000000000000000000000000000000000000028152600401808473ffffffffffffffffffffffffffffffffffffffff1673ffffffffffffffffffffffffffffffffffffffff1681526020018373ffffffffffffffffffffffffffffffffffffffff1673ffffffffffffffffffffffffffffffffffffffff1681526020018281526020019350505050602060405180830381600087803b158015610cab57600080fd5b505af1158015610cbf573d6000803e3d6000fd5b505050506040513d6020811015610cd557600080fd5b81019080805190602001909291905050501515610cf157600080fd5b826004819055507f8374e91c2472351bc5eb07c7e6292d3b801d821ce30fefbff40e013a94af7f9433600260009054906101000a900473ffffffffffffffffffffffffffffffffffffffff16600360009054906101000a900473ffffffffffffffffffffffffffffffffffffffff168487604051808673ffffffffffffffffffffffffffffffffffffffff1673ffffffffffffffffffffffffffffffffffffffff1681526020018573ffffffffffffffffffffffffffffffffffffffff1673ffffffffffffffffffffffffffffffffffffffff1681526020018473ffffffffffffffffffffffffffffffffffffffff1673ffffffffffffffffffffffffffffffffffffffff1681526020018381526020018281526020019550505050505060405180910390a16001915050919050565b6000600560008361ffff1661ffff168152602001908152602001600020600001549050919050565b60008060008060328686905011151515610e6257600080fd5b600091505b858590508260ff161015610fd557610e9986868460ff168181101515610e8957fe5b9050602002013561ffff16611622565b1515610ea457600080fd5b610ec93387878560ff168181101515610eb957fe5b9050602002013561ffff16611216565b9050610ede818461191390919063ffffffff16565b92506005600087878560ff168181101515610ef557fe5b9050602002013561ffff1661ffff1661ffff16815260200190815260200160002060010160003373ffffffffffffffffffffffffffffffffffffffff1673ffffffffffffffffffffffffffffffffffffffff1681526020019081526020016000206000905585858360ff168181101515610f6b57fe5b9050602002013561ffff1661ffff163373ffffffffffffffffffffffffffffffffffffffff167f33a4ae6c0627280fcb7aaf7e07deb59bbce49aa4808ee5457f8622f77ab5d28c836040518082815260200191505060405180910390a38180600101925050610e67565b6000809054906101000a900473ffffffffffffffffffffffffffffffffffffffff1673ffffffffffffffffffffffffffffffffffffffff1663a9059cbb33856040518363ffffffff167c0100000000000000000000000000000000000000000000000000000000028152600401808373ffffffffffffffffffffffffffffffffffffffff1673ffffffffffffffffffffffffffffffffffffffff16815260200182815260200192505050602060405180830381600087803b15801561109957600080fd5b505af11580156110ad573d6000803e3d6000fd5b505050506040513d60208110156110c357600080fd5b8101908080519060200190929190505050506001935050505092915050565b6000806000603285859050111515156110fa57600080fd5b84849050341015151561110c57600080fd5b6111228585905034611c0f90919063ffffffff16565b91503461113b8686905084611afd90919063ffffffff16565b14151561114457fe5b600090505b848490508160ff1610156111955761117d338387878560ff16818110151561116d57fe5b9050602002013561ffff16610777565b151561118857600080fd5b8080600101915050611149565b60019250505092915050565b600080606483511015156111b457600080fd5b600090505b82518161ffff16101561120c576111fd6111ee85858461ffff168151811015156111df57fe5b90602001906020020151611216565b8361191390919063ffffffff16565b915080806001019150506111b9565b8191505092915050565b600080600061122484611622565b151561122f57600080fd5b600560008561ffff1661ffff16815260200190815260200160002091506112c482600001546112b66d04ee2d6d415b85acef81000000008560010160008a73ffffffffffffffffffffffffffffffffffffffff1673ffffffffffffffffffffffffffffffffffffffff16815260200190815260200160002054611afd90919063ffffffff16565b611c0f90919063ffffffff16565b90506113036d04ee2d6d415b85acef81000000006112f569152d02c7e14af680000084611afd90919063ffffffff16565b611c0f90919063ffffffff16565b9250505092915050565b600061131a828486610777565b151561132557600080fd5b600190509392505050565b600080600061133e84611622565b15156113b2576040517f08c379a000000000000000000000000000000000000000000000000000000000815260040180806020018281038252601c8152602001807f64617920686173206e6f742066696e69736865642066756e64696e670000000081525060200191505060405180910390fd5b600560008561ffff1661ffff16815260200190815260200160002091506113d93385611216565b90508160010160003373ffffffffffffffffffffffffffffffffffffffff1673ffffffffffffffffffffffffffffffffffffffff168152602001908152602001600020600090556000809054906101000a900473ffffffffffffffffffffffffffffffffffffffff1673ffffffffffffffffffffffffffffffffffffffff1663a9059cbb33836040518363ffffffff167c0100000000000000000000000000000000000000000000000000000000028152600401808373ffffffffffffffffffffffffffffffffffffffff1673ffffffffffffffffffffffffffffffffffffffff16815260200182815260200192505050602060405180830381600087803b1580156114e457600080fd5b505af11580156114f8573d6000803e3d6000fd5b505050506040513d602081101561150e57600080fd5b8101908080519060200190929190505050508361ffff163373ffffffffffffffffffffffffffffffffffffffff167f33a4ae6c0627280fcb7aaf7e07deb59bbce49aa4808ee5457f8622f77ab5d28c836040518082815260200191505060405180910390a3600192505050919050565b60008060045411801561159b575061016c61ffff168261ffff1611155b9050919050565b600260009054906101000a900473ffffffffffffffffffffffffffffffffffffffff1681565b600360009054906101000a900473ffffffffffffffffffffffffffffffffffffffff1681565b600160009054906101000a900473ffffffffffffffffffffffffffffffffffffffff1681565b69152d02c7e14af680000081565b600060045442111515611638576000905061164e565b8161ffff16611646426118cf565b61ffff161190505b919050565b60056020528060005260406000206000915090508060000154905081565b60045481565b600080600160009054906101000a900473ffffffffffffffffffffffffffffffffffffffff1673ffffffffffffffffffffffffffffffffffffffff163373ffffffffffffffffffffffffffffffffffffffff161415156116d657600080fd5b6116ea600284611c0f90919063ffffffff16565b905082611701600283611afd90919063ffffffff16565b14151561170a57fe5b600260009054906101000a900473ffffffffffffffffffffffffffffffffffffffff1673ffffffffffffffffffffffffffffffffffffffff166108fc829081150290604051600060405180830381858888f19350505050158015611772573d6000803e3d6000fd5b50600360009054906101000a900473ffffffffffffffffffffffffffffffffffffffff1673ffffffffffffffffffffffffffffffffffffffff166108fc829081150290604051600060405180830381858888f193505050501580156117db573d6000803e3d6000fd5b507fe56726172348e334b8fff79c722777489b247ed7148d44486ab67b65c1a54f1f3384611808426118cf565b604051808473ffffffffffffffffffffffffffffffffffffffff1673ffffffffffffffffffffffffffffffffffffffff1681526020018381526020018261ffff1661ffff168152602001935050505060405180910390a16001915050919050565b6000600560008461ffff1661ffff16815260200190815260200160002060010160008373ffffffffffffffffffffffffffffffffffffffff1673ffffffffffffffffffffffffffffffffffffffff16815260200190815260200160002054905092915050565b600060045482101515156118e257600080fd5b61190c620151806118fe60045485611a0890919063ffffffff16565b611c0f90919063ffffffff16565b9050919050565b6000808284019050838110156040805190810160405280601181526020017f4d4154485f4144445f4f564552464c4f570000000000000000000000000000008152509015156119fd576040517f08c379a00000000000000000000000000000000000000000000000000000000081526004018080602001828103825283818151815260200191508051906020019080838360005b838110156119c25780820151818401526020810190506119a7565b50505050905090810190601f1680156119ef5780820380516001836020036101000a031916815260200191505b509250505060405180910390fd5b508091505092915050565b600080838311156040805190810160405280601281526020017f4d4154485f5355425f554e444552464c4f570000000000000000000000000000815250901515611aed576040517f08c379a00000000000000000000000000000000000000000000000000000000081526004018080602001828103825283818151815260200191508051906020019080838360005b83811015611ab2578082015181840152602081019050611a97565b50505050905090810190601f168015611adf5780820380516001836020036101000a031916815260200191505b509250505060405180910390fd5b5082840390508091505092915050565b6000806000841415611b125760009150611c08565b8284029050828482811515611b2357fe5b04146040805190810160405280601181526020017f4d4154485f4d554c5f4f564552464c4f57000000000000000000000000000000815250901515611c03576040517f08c379a00000000000000000000000000000000000000000000000000000000081526004018080602001828103825283818151815260200191508051906020019080838360005b83811015611bc8578082015181840152602081019050611bad565b50505050905090810190601f168015611bf55780820380516001836020036101000a031916815260200191505b509250505060405180910390fd5b508091505b5092915050565b600080600083116040805190810160405280600d81526020017f4d4154485f4449565f5a45524f00000000000000000000000000000000000000815250901515611cf4576040517f08c379a00000000000000000000000000000000000000000000000000000000081526004018080602001828103825283818151815260200191508051906020019080838360005b83811015611cb9578082015181840152602081019050611c9e565b50505050905090810190601f168015611ce65780820380516001836020036101000a031916815260200191505b509250505060405180910390fd5b508284811515611d0057fe5b04905080915050929150505600a165627a7a72305820d7bbefa53281bfd811bbb17e1eaf7091902f8ed5685f76dbb93a511c49de827d0029",
  "source": "pragma solidity 0.4.24;\n\nimport \"@aragon/os/contracts/lib/math/SafeMath.sol\";\nimport \"@aragon/os/contracts/lib/token/ERC20.sol\";\n\n// @title MyBit Tokensale\n// @notice A tokensale extending for 365 days. (0....364)\n// @notice 100,000 MYB are releases everyday and split proportionaly to funders of that day\n// @notice Anyone can fund the current or future days with ETH\n// @dev The current day is (timestamp - startTimestamp) / 24 hours\n// @author Kyle Dewhurst, MyBit Foundation\ncontract TokenSale {\n  using SafeMath for *;\n\n  ERC20 mybToken;\n\n  struct Day {\n    uint totalWeiContributed;\n    mapping (address => uint) weiContributed;\n  }\n\n  // Constants\n  uint256 constant internal scalingFactor = 10**32;      // helps avoid rounding errors\n  uint256 constant public tokensPerDay = 10**23;    // 100,000 MYB\n\n  // MyBit addresses\n  address public owner;\n  address public mybitFoundation;\n  address public developmentFund;\n\n  uint256 public start;      // The timestamp when sale starts\n\n  mapping (uint16 => Day) public day;\n\n  constructor(address _mybToken, address _mybFoundation, address _developmentFund)\n  public {\n    mybToken = ERC20(_mybToken);\n    developmentFund = _developmentFund;\n    mybitFoundation = _mybFoundation;\n    owner = msg.sender;\n  }\n\n  // @notice owner can start the sale by transferring in required amount of MYB\n  // @dev the start time is used to determine which day the sale is on (day 0 = first day)\n  function startSale(uint _timestamp)\n  external\n  onlyOwner\n  returns (bool){\n    require(start == 0, 'Already started');\n    require(_timestamp >= now  && _timestamp.sub(now) < 2592000, 'Start time not in range');\n    uint saleAmount = tokensPerDay.mul(365);\n    require(mybToken.transferFrom(msg.sender, address(this), saleAmount));\n    start = _timestamp;\n    emit LogSaleStarted(msg.sender, mybitFoundation, developmentFund, saleAmount, _timestamp);\n    return true;\n  }\n\n\n  // @notice contributor can contribute wei to sale on any current/future _day\n  // @dev only accepts contributions between days 0 - 364\n  function fund(uint16 _day, uint256 _amount, address _user)\n  public\n  returns (bool) {\n      require(addContribution(_user, _amount, _day));\n      return true;\n  }\n\n  // @notice Send an index of days and your payment will be divided equally among them\n  // @dev WEI sent must divide equally into number of days.\n  function batchFund(uint16[] _day)\n  payable\n  external\n  returns (bool) {\n    require(_day.length <= 50);       // Limit to 50 days to avoid exceeding blocklimit\n    require(msg.value >= _day.length);   // need at least 1 wei per day\n    uint256 amountPerDay = msg.value.div(_day.length);\n    assert (amountPerDay.mul(_day.length) == msg.value);   // Don't allow any rounding error\n    for (uint8 i = 0; i < _day.length; i++){\n      require(addContribution(msg.sender, amountPerDay, _day[i]));\n    }\n    return true;\n  }\n\n\n  // @notice Updates claimableTokens, sends all wei to the token holder\n  function withdraw(uint16 _day)\n  external\n  returns (bool) {\n      require(dayFinished(_day), \"day has not finished funding\");\n      Day storage thisDay = day[_day];\n      uint256 amount = getTokensOwed(msg.sender, _day);\n      delete thisDay.weiContributed[msg.sender];\n      mybToken.transfer(msg.sender, amount);\n      emit LogTokensCollected(msg.sender, amount, _day);\n      return true;\n  }\n\n  // @notice Updates claimableTokens, sends all tokens to contributor from previous days\n  // @param (uint16[]) _day, list of token sale days msg.sender contributed wei towards\n  function batchWithdraw(uint16[] _day)\n  external\n  returns (bool) {\n    uint256 amount;\n    require(_day.length <= 50);     // Limit to 50 days to avoid exceeding blocklimit\n    for (uint8 i = 0; i < _day.length; i++){\n      require(dayFinished(_day[i]));\n      uint256 amountToAdd = getTokensOwed(msg.sender, _day[i]);\n      amount = amount.add(amountToAdd);\n      delete day[_day[i]].weiContributed[msg.sender];\n      emit LogTokensCollected(msg.sender, amountToAdd, _day[i]);\n    }\n    mybToken.transfer(msg.sender, amount);\n    return true;\n  }\n\n  // @notice owner can withdraw funds to the foundation wallet and ddf wallet\n  // @param (uint) _amount, The amount of wei to withdraw\n  // @dev must put in an _amount equally divisible by 2\n  function foundationWithdraw(uint _amount)\n  external\n  onlyOwner\n  returns (bool){\n    uint256 half = _amount.div(2);\n    assert (half.mul(2) == _amount);   // check for rounding error\n    mybitFoundation.transfer(half);\n    developmentFund.transfer(half);\n    emit LogFoundationWithdraw(msg.sender, _amount, dayFor(now));\n    return true;\n  }\n\n  // @notice updates ledger with the contribution from _investor\n  // @param (address) _investor: The sender of WEI to the contract\n  // @param (uint) _amount: The amount of WEI to add to _day\n  // @param (uint16) _day: The day to fund\n  function addContribution(address _investor, uint _amount, uint16 _day)\n  internal\n  returns (bool) {\n    require(_amount > 0, \"must send ether with the call\");\n    require(duringSale(_day), \"day is not during the sale\");\n    require(!dayFinished(_day), \"day has already finished\");\n    Day storage today = day[_day];\n    today.totalWeiContributed = today.totalWeiContributed.add(_amount);\n    today.weiContributed[_investor] = today.weiContributed[_investor].add(_amount);\n    emit LogTokensPurchased(_investor, _amount, _day);\n    return true;\n  }\n\n  // @notice Calculates how many tokens user is owed. (userContribution / totalContribution) * tokensPerDay\n  function getTokensOwed(address _contributor, uint16 _day)\n  public\n  view\n  returns (uint256) {\n      require(dayFinished(_day));\n      Day storage thisDay = day[_day];\n      uint256 percentage = thisDay.weiContributed[_contributor].mul(scalingFactor).div(thisDay.totalWeiContributed);\n      return percentage.mul(tokensPerDay).div(scalingFactor);\n  }\n\n  // @notice gets the total amount of mybit owed to the contributor\n  // @dev this function doesn't check for duplicate days. Output may not reflect actual amount owed if this happens.\n  function getTotalTokensOwed(address _contributor, uint16[] _days)\n  public\n  view\n  returns (uint256 amount) {\n    require(_days.length < 100);          // Limit to 100 days to avoid exceeding block gas limit\n    for (uint16 i = 0; i < _days.length; i++){\n      amount = amount.add(getTokensOwed(_contributor, _days[i]));\n    }\n    return amount;\n  }\n\n  // @notice returns the amount of wei contributed by _contributor on _day\n  function getWeiContributed(uint16 _day, address _contributor)\n  public\n  view\n  returns (uint256) {\n    return day[_day].weiContributed[_contributor];\n  }\n\n  // @notice returns amount of wei contributed on _day\n  // @dev if _day is outside of tokensale range it will return 0\n  function getTotalWeiContributed(uint16 _day)\n  public\n  view\n  returns (uint256) {\n    return day[_day].totalWeiContributed;\n  }\n\n  // @notice return the day associated with this timestamp\n  function dayFor(uint _timestamp)\n  public\n  view\n  returns (uint16) {\n      require(_timestamp >= start);\n      return uint16(_timestamp.sub(start).div(86400));\n  }\n\n  // @notice returns true if _day is finished\n  function dayFinished(uint16 _day)\n  public\n  view\n  returns (bool) {\n    if (now <= start) { return false; }   // hasn't yet reached first day, so cannot be finished\n    return dayFor(now) > _day;\n  }\n\n  // @notice reverts if the current day isn't less than 365\n  function duringSale(uint16 _day)\n  public\n  view\n  returns (bool){\n    return start > 0 && _day <= uint16(364);\n  }\n\n\n  // @notice return the current day\n  function currentDay()\n  public\n  view\n  returns (uint16) {\n    return dayFor(now);\n  }\n\n  // @notice Fallback function: Purchases contributor stake in the tokens for the current day\n  // @dev rejects contributions by means of the fallback function until timestamp > start\n  function ()\n  external\n  payable {\n      require(addContribution(msg.sender, msg.value, currentDay()));\n  }\n\n  // @notice only owner address can call\n  modifier onlyOwner {\n    require(msg.sender == owner);\n    _;\n  }\n\n  event LogSaleStarted(address _owner, address _mybFoundation, address _developmentFund, uint _totalMYB, uint _startTime);\n  event LogFoundationWithdraw(address _mybFoundation, uint _amount, uint16 _day);\n  event LogTokensPurchased(address indexed _contributor, uint _amount, uint16 indexed _day);\n  event LogTokensCollected(address indexed _contributor, uint _amount, uint16 indexed _day);\n\n}\n",
  "sourcePath": "/home/peter/Documents/Work/MyBit/MyBit-DAO.tech/contracts/TokenSale.sol",
  "compiler": {
    "name": "solc",
    "version": "0.4.24+commit.e67f0147.Emscripten.clang"
  },
  "schemaVersion": "2.0.1",
  "updatedAt": "2019-04-25T22:12:33.058Z"
}