{
  "contractName": "Voting",
  "abi": [
    {
      "constant": true,
      "inputs": [],
      "name": "hasInitialized",
      "outputs": [
        {
          "name": "",
          "type": "bool"
        }
      ],
      "payable": false,
      "stateMutability": "view",
      "type": "function"
    },
    {
      "constant": true,
      "inputs": [
        {
          "name": "_script",
          "type": "bytes"
        }
      ],
      "name": "getEVMScriptExecutor",
      "outputs": [
        {
          "name": "",
          "type": "address"
        }
      ],
      "payable": false,
      "stateMutability": "view",
      "type": "function"
    },
    {
      "constant": true,
      "inputs": [],
      "name": "getRecoveryVault",
      "outputs": [
        {
          "name": "",
          "type": "address"
        }
      ],
      "payable": false,
      "stateMutability": "view",
      "type": "function"
    },
    {
      "constant": true,
      "inputs": [],
      "name": "MODIFY_QUORUM_ROLE",
      "outputs": [
        {
          "name": "",
          "type": "bytes32"
        }
      ],
      "payable": false,
      "stateMutability": "view",
      "type": "function"
    },
    {
      "constant": true,
      "inputs": [],
      "name": "MODIFY_SUPPORT_ROLE",
      "outputs": [
        {
          "name": "",
          "type": "bytes32"
        }
      ],
      "payable": false,
      "stateMutability": "view",
      "type": "function"
    },
    {
      "constant": true,
      "inputs": [
        {
          "name": "token",
          "type": "address"
        }
      ],
      "name": "allowRecoverability",
      "outputs": [
        {
          "name": "",
          "type": "bool"
        }
      ],
      "payable": false,
      "stateMutability": "view",
      "type": "function"
    },
    {
      "constant": true,
      "inputs": [],
      "name": "appId",
      "outputs": [
        {
          "name": "",
          "type": "bytes32"
        }
      ],
      "payable": false,
      "stateMutability": "view",
      "type": "function"
    },
    {
      "constant": true,
      "inputs": [],
      "name": "getInitializationBlock",
      "outputs": [
        {
          "name": "",
          "type": "uint256"
        }
      ],
      "payable": false,
      "stateMutability": "view",
      "type": "function"
    },
    {
      "constant": false,
      "inputs": [
        {
          "name": "_token",
          "type": "address"
        }
      ],
      "name": "transferToVault",
      "outputs": [],
      "payable": false,
      "stateMutability": "nonpayable",
      "type": "function"
    },
    {
      "constant": true,
      "inputs": [
        {
          "name": "_sender",
          "type": "address"
        },
        {
          "name": "_role",
          "type": "bytes32"
        },
        {
          "name": "_params",
          "type": "uint256[]"
        }
      ],
      "name": "canPerform",
      "outputs": [
        {
          "name": "",
          "type": "bool"
        }
      ],
      "payable": false,
      "stateMutability": "view",
      "type": "function"
    },
    {
      "constant": true,
      "inputs": [],
      "name": "getEVMScriptRegistry",
      "outputs": [
        {
          "name": "",
          "type": "address"
        }
      ],
      "payable": false,
      "stateMutability": "view",
      "type": "function"
    },
    {
      "constant": true,
      "inputs": [],
      "name": "voteTime",
      "outputs": [
        {
          "name": "",
          "type": "uint64"
        }
      ],
      "payable": false,
      "stateMutability": "view",
      "type": "function"
    },
    {
      "constant": true,
      "inputs": [],
      "name": "CREATE_VOTES_ROLE",
      "outputs": [
        {
          "name": "",
          "type": "bytes32"
        }
      ],
      "payable": false,
      "stateMutability": "view",
      "type": "function"
    },
    {
      "constant": true,
      "inputs": [],
      "name": "kernel",
      "outputs": [
        {
          "name": "",
          "type": "address"
        }
      ],
      "payable": false,
      "stateMutability": "view",
      "type": "function"
    },
    {
      "constant": true,
      "inputs": [],
      "name": "minAcceptQuorumPct",
      "outputs": [
        {
          "name": "",
          "type": "uint64"
        }
      ],
      "payable": false,
      "stateMutability": "view",
      "type": "function"
    },
    {
      "constant": true,
      "inputs": [],
      "name": "isPetrified",
      "outputs": [
        {
          "name": "",
          "type": "bool"
        }
      ],
      "payable": false,
      "stateMutability": "view",
      "type": "function"
    },
    {
      "constant": true,
      "inputs": [],
      "name": "votesLength",
      "outputs": [
        {
          "name": "",
          "type": "uint256"
        }
      ],
      "payable": false,
      "stateMutability": "view",
      "type": "function"
    },
    {
      "constant": true,
      "inputs": [],
      "name": "supportRequiredPct",
      "outputs": [
        {
          "name": "",
          "type": "uint64"
        }
      ],
      "payable": false,
      "stateMutability": "view",
      "type": "function"
    },
    {
      "constant": true,
      "inputs": [],
      "name": "token",
      "outputs": [
        {
          "name": "",
          "type": "address"
        }
      ],
      "payable": false,
      "stateMutability": "view",
      "type": "function"
    },
    {
      "constant": true,
      "inputs": [],
      "name": "PCT_BASE",
      "outputs": [
        {
          "name": "",
          "type": "uint64"
        }
      ],
      "payable": false,
      "stateMutability": "view",
      "type": "function"
    },
    {
      "anonymous": false,
      "inputs": [
        {
          "indexed": true,
          "name": "voteId",
          "type": "uint256"
        },
        {
          "indexed": true,
          "name": "creator",
          "type": "address"
        },
        {
          "indexed": false,
          "name": "metadata",
          "type": "string"
        }
      ],
      "name": "StartVote",
      "type": "event"
    },
    {
      "anonymous": false,
      "inputs": [
        {
          "indexed": true,
          "name": "voteId",
          "type": "uint256"
        },
        {
          "indexed": true,
          "name": "voter",
          "type": "address"
        },
        {
          "indexed": false,
          "name": "supports",
          "type": "bool"
        },
        {
          "indexed": false,
          "name": "stake",
          "type": "uint256"
        }
      ],
      "name": "CastVote",
      "type": "event"
    },
    {
      "anonymous": false,
      "inputs": [
        {
          "indexed": true,
          "name": "voteId",
          "type": "uint256"
        }
      ],
      "name": "ExecuteVote",
      "type": "event"
    },
    {
      "anonymous": false,
      "inputs": [
        {
          "indexed": false,
          "name": "supportRequiredPct",
          "type": "uint64"
        }
      ],
      "name": "ChangeSupportRequired",
      "type": "event"
    },
    {
      "anonymous": false,
      "inputs": [
        {
          "indexed": false,
          "name": "minAcceptQuorumPct",
          "type": "uint64"
        }
      ],
      "name": "ChangeMinQuorum",
      "type": "event"
    },
    {
      "anonymous": false,
      "inputs": [
        {
          "indexed": true,
          "name": "executor",
          "type": "address"
        },
        {
          "indexed": false,
          "name": "script",
          "type": "bytes"
        },
        {
          "indexed": false,
          "name": "input",
          "type": "bytes"
        },
        {
          "indexed": false,
          "name": "returnData",
          "type": "bytes"
        }
      ],
      "name": "ScriptResult",
      "type": "event"
    },
    {
      "anonymous": false,
      "inputs": [
        {
          "indexed": true,
          "name": "vault",
          "type": "address"
        },
        {
          "indexed": true,
          "name": "token",
          "type": "address"
        },
        {
          "indexed": false,
          "name": "amount",
          "type": "uint256"
        }
      ],
      "name": "RecoverToVault",
      "type": "event"
    },
    {
      "constant": false,
      "inputs": [
        {
          "name": "_token",
          "type": "address"
        },
        {
          "name": "_supportRequiredPct",
          "type": "uint64"
        },
        {
          "name": "_minAcceptQuorumPct",
          "type": "uint64"
        },
        {
          "name": "_voteTime",
          "type": "uint64"
        }
      ],
      "name": "initialize",
      "outputs": [],
      "payable": false,
      "stateMutability": "nonpayable",
      "type": "function"
    },
    {
      "constant": false,
      "inputs": [
        {
          "name": "_supportRequiredPct",
          "type": "uint64"
        }
      ],
      "name": "changeSupportRequiredPct",
      "outputs": [],
      "payable": false,
      "stateMutability": "nonpayable",
      "type": "function"
    },
    {
      "constant": false,
      "inputs": [
        {
          "name": "_minAcceptQuorumPct",
          "type": "uint64"
        }
      ],
      "name": "changeMinAcceptQuorumPct",
      "outputs": [],
      "payable": false,
      "stateMutability": "nonpayable",
      "type": "function"
    },
    {
      "constant": false,
      "inputs": [
        {
          "name": "_executionScript",
          "type": "bytes"
        },
        {
          "name": "_metadata",
          "type": "string"
        }
      ],
      "name": "newVote",
      "outputs": [
        {
          "name": "voteId",
          "type": "uint256"
        }
      ],
      "payable": false,
      "stateMutability": "nonpayable",
      "type": "function"
    },
    {
      "constant": false,
      "inputs": [
        {
          "name": "_executionScript",
          "type": "bytes"
        },
        {
          "name": "_metadata",
          "type": "string"
        },
        {
          "name": "_castVote",
          "type": "bool"
        },
        {
          "name": "_executesIfDecided",
          "type": "bool"
        }
      ],
      "name": "newVote",
      "outputs": [
        {
          "name": "voteId",
          "type": "uint256"
        }
      ],
      "payable": false,
      "stateMutability": "nonpayable",
      "type": "function"
    },
    {
      "constant": false,
      "inputs": [
        {
          "name": "_voteId",
          "type": "uint256"
        },
        {
          "name": "_supports",
          "type": "bool"
        },
        {
          "name": "_executesIfDecided",
          "type": "bool"
        }
      ],
      "name": "vote",
      "outputs": [],
      "payable": false,
      "stateMutability": "nonpayable",
      "type": "function"
    },
    {
      "constant": false,
      "inputs": [
        {
          "name": "_voteId",
          "type": "uint256"
        }
      ],
      "name": "executeVote",
      "outputs": [],
      "payable": false,
      "stateMutability": "nonpayable",
      "type": "function"
    },
    {
      "constant": true,
      "inputs": [],
      "name": "isForwarder",
      "outputs": [
        {
          "name": "",
          "type": "bool"
        }
      ],
      "payable": false,
      "stateMutability": "pure",
      "type": "function"
    },
    {
      "constant": false,
      "inputs": [
        {
          "name": "_evmScript",
          "type": "bytes"
        }
      ],
      "name": "forward",
      "outputs": [],
      "payable": false,
      "stateMutability": "nonpayable",
      "type": "function"
    },
    {
      "constant": true,
      "inputs": [
        {
          "name": "_sender",
          "type": "address"
        },
        {
          "name": "",
          "type": "bytes"
        }
      ],
      "name": "canForward",
      "outputs": [
        {
          "name": "",
          "type": "bool"
        }
      ],
      "payable": false,
      "stateMutability": "view",
      "type": "function"
    },
    {
      "constant": true,
      "inputs": [
        {
          "name": "_voteId",
          "type": "uint256"
        },
        {
          "name": "_voter",
          "type": "address"
        }
      ],
      "name": "canVote",
      "outputs": [
        {
          "name": "",
          "type": "bool"
        }
      ],
      "payable": false,
      "stateMutability": "view",
      "type": "function"
    },
    {
      "constant": true,
      "inputs": [
        {
          "name": "_voteId",
          "type": "uint256"
        }
      ],
      "name": "canExecute",
      "outputs": [
        {
          "name": "",
          "type": "bool"
        }
      ],
      "payable": false,
      "stateMutability": "view",
      "type": "function"
    },
    {
      "constant": true,
      "inputs": [
        {
          "name": "_voteId",
          "type": "uint256"
        }
      ],
      "name": "getVote",
      "outputs": [
        {
          "name": "open",
          "type": "bool"
        },
        {
          "name": "executed",
          "type": "bool"
        },
        {
          "name": "startDate",
          "type": "uint64"
        },
        {
          "name": "snapshotBlock",
          "type": "uint64"
        },
        {
          "name": "supportRequired",
          "type": "uint64"
        },
        {
          "name": "minAcceptQuorum",
          "type": "uint64"
        },
        {
          "name": "yea",
          "type": "uint256"
        },
        {
          "name": "nay",
          "type": "uint256"
        },
        {
          "name": "votingPower",
          "type": "uint256"
        },
        {
          "name": "script",
          "type": "bytes"
        }
      ],
      "payable": false,
      "stateMutability": "view",
      "type": "function"
    },
    {
      "constant": true,
      "inputs": [
        {
          "name": "_voteId",
          "type": "uint256"
        },
        {
          "name": "_voter",
          "type": "address"
        }
      ],
      "name": "getVoterState",
      "outputs": [
        {
          "name": "",
          "type": "uint8"
        }
      ],
      "payable": false,
      "stateMutability": "view",
      "type": "function"
    }
  ],
  "bytecode": "0x60806040526200001d62000023640100000000026401000000009004565b62000309565b60006200003e6200015e640100000000026401000000009004565b146040805190810160405280601881526020017f494e49545f414c52454144595f494e495449414c495a4544000000000000000081525090151562000121576040517f08c379a00000000000000000000000000000000000000000000000000000000081526004018080602001828103825283818151815260200191508051906020019080838360005b83811015620000e5578082015181840152602081019050620000c8565b50505050905090810190601f168015620001135780820380516001836020036101000a031916815260200191505b509250505060405180910390fd5b506200015c7fffffffffffffffffffffffffffffffffffffffffffffffffffffffffffffffff620001ab640100000000026401000000009004565b565b6000620001a67febb05b386a8d34882b8711d156f463690983dc47815980fb82aeeff1aa43579e60010260001916620002f764010000000002620034c6176401000000009004565b905090565b6000620001c66200015e640100000000026401000000009004565b146040805190810160405280601881526020017f494e49545f414c52454144595f494e495449414c495a45440000000000000000815250901515620002a9576040517f08c379a00000000000000000000000000000000000000000000000000000000081526004018080602001828103825283818151815260200191508051906020019080838360005b838110156200026d57808201518184015260208101905062000250565b50505050905090810190601f1680156200029b5780820380516001836020036101000a031916815260200191505b509250505060405180910390fd5b50620002f4817febb05b386a8d34882b8711d156f463690983dc47815980fb82aeeff1aa43579e60010260001916620003026401000000000262004727179091906401000000009004565b50565b600081549050919050565b8082555050565b61515580620003196000396000f3006080604052600436106101ac576000357c0100000000000000000000000000000000000000000000000000000000900463ffffffff1680630803fac0146101b15780632914b9bd146101e057806332f0a3b5146102895780633c624c75146102e05780634b12311c146103135780635a55c1f0146103825780635eb24332146104bf57806362de7e5a146104f65780637c1d0b87146105295780637e7db6e11461056057806380afdea8146105bb5780638b3dd749146105ee5780639d4941d814610619578063a1658fad1461065c578063a479e50814610708578063bcf93dd61461075f578063be2c64d41461079e578063c0774df3146107d1578063cc63604a14610872578063cdb2867b146108b7578063d4aae0c41461091c578063d5db2c8014610973578063d948d468146109da578063dc474b1a14610a43578063de4796ed14610a82578063de4f634714610ab1578063df133bca14610adc578063df3d330514610b21578063f4b0051314610ba0578063f98a4eca14610c1f578063fad167ab14610c4c578063fc0c546a14610c8b578063fc157cb414610ce2578063fd64eccb14610d21575b600080fd5b3480156101bd57600080fd5b506101c6610d50565b604051808215151515815260200191505060405180910390f35b3480156101ec57600080fd5b50610247600480360381019080803590602001908201803590602001908080601f0160208091040260200160405190810160405280939291908181526020018383808284378201915050505050509192919290505050610d7b565b604051808273ffffffffffffffffffffffffffffffffffffffff1673ffffffffffffffffffffffffffffffffffffffff16815260200191505060405180910390f35b34801561029557600080fd5b5061029e610e9a565b604051808273ffffffffffffffffffffffffffffffffffffffff1673ffffffffffffffffffffffffffffffffffffffff16815260200191505060405180910390f35b3480156102ec57600080fd5b506102f5610f47565b60405180826000191660001916815260200191505060405180910390f35b34801561031f57600080fd5b5061035e60048036038101908080359060200190929190803573ffffffffffffffffffffffffffffffffffffffff169060200190929190505050610f80565b6040518082600281111561036e57fe5b60ff16815260200191505060405180910390f35b34801561038e57600080fd5b506103ad600480360381019080803590602001909291905050506110d1565b604051808b1515151581526020018a1515151581526020018967ffffffffffffffff1667ffffffffffffffff1681526020018867ffffffffffffffff1667ffffffffffffffff1681526020018767ffffffffffffffff1667ffffffffffffffff1681526020018667ffffffffffffffff1667ffffffffffffffff16815260200185815260200184815260200183815260200180602001828103825283818151815260200191508051906020019080838360005b8381101561047b578082015181840152602081019050610460565b50505050905090810190601f1680156104a85780820380516001836020036101000a031916815260200191505b509b50505050505050505050505060405180910390f35b3480156104cb57600080fd5b506104f4600480360381019080803567ffffffffffffffff16906020019092919050505061132b565b005b34801561050257600080fd5b5061050b611605565b60405180826000191660001916815260200191505060405180910390f35b34801561053557600080fd5b5061055e600480360381019080803567ffffffffffffffff16906020019092919050505061163e565b005b34801561056c57600080fd5b506105a1600480360381019080803573ffffffffffffffffffffffffffffffffffffffff169060200190929190505050611a16565b604051808215151515815260200191505060405180910390f35b3480156105c757600080fd5b506105d0611a21565b60405180826000191660001916815260200191505060405180910390f35b3480156105fa57600080fd5b50610603611a58565b6040518082815260200191505060405180910390f35b34801561062557600080fd5b5061065a600480360381019080803573ffffffffffffffffffffffffffffffffffffffff169060200190929190505050611a8f565b005b34801561066857600080fd5b506106ee600480360381019080803573ffffffffffffffffffffffffffffffffffffffff169060200190929190803560001916906020019092919080359060200190820180359060200190808060200260200160405190810160405280939291908181526020018383602002808284378201915050505050509192919290505050611ead565b604051808215151515815260200191505060405180910390f35b34801561071457600080fd5b5061071d6120a9565b604051808273ffffffffffffffffffffffffffffffffffffffff1673ffffffffffffffffffffffffffffffffffffffff16815260200191505060405180910390f35b34801561076b57600080fd5b506107746121c4565b604051808267ffffffffffffffff1667ffffffffffffffff16815260200191505060405180910390f35b3480156107aa57600080fd5b506107b36121de565b60405180826000191660001916815260200191505060405180910390f35b3480156107dd57600080fd5b50610858600480360381019080803573ffffffffffffffffffffffffffffffffffffffff169060200190929190803590602001908201803590602001908080601f0160208091040260200160405190810160405280939291908181526020018383808284378201915050505050509192919290505050612217565b604051808215151515815260200191505060405180910390f35b34801561087e57600080fd5b5061089d60048036038101908080359060200190929190505050612268565b604051808215151515815260200191505060405180910390f35b3480156108c357600080fd5b5061090260048036038101908080359060200190929190803573ffffffffffffffffffffffffffffffffffffffff16906020019092919050505061248f565b604051808215151515815260200191505060405180910390f35b34801561092857600080fd5b506109316126cb565b604051808273ffffffffffffffffffffffffffffffffffffffff1673ffffffffffffffffffffffffffffffffffffffff16815260200191505060405180910390f35b34801561097f57600080fd5b506109c4600480360381019080803590602001908201803590602001919091929391929390803590602001908201803590602001919091929391929390505050612702565b6040518082815260200191505060405180910390f35b3480156109e657600080fd5b50610a41600480360381019080803590602001908201803590602001908080601f01602080910402602001604051908101604052809392919081815260200183838082843782019150505050505091929192905050506128d0565b005b348015610a4f57600080fd5b50610a586129da565b604051808267ffffffffffffffff1667ffffffffffffffff16815260200191505060405180910390f35b348015610a8e57600080fd5b50610a976129f4565b604051808215151515815260200191505060405180910390f35b348015610abd57600080fd5b50610ac6612a25565b6040518082815260200191505060405180910390f35b348015610ae857600080fd5b50610b1f60048036038101908080359060200190929190803515159060200190929190803515159060200190929190505050612a2b565b005b348015610b2d57600080fd5b50610b9e600480360381019080803573ffffffffffffffffffffffffffffffffffffffff169060200190929190803567ffffffffffffffff169060200190929190803567ffffffffffffffff169060200190929190803567ffffffffffffffff169060200190929190505050612c0b565b005b348015610bac57600080fd5b50610c09600480360381019080803590602001908201803590602001919091929391929390803590602001908201803590602001919091929391929390803515159060200190929190803515159060200190929190505050612fb3565b6040518082815260200191505060405180910390f35b348015610c2b57600080fd5b50610c4a60048036038101908080359060200190929190505050613182565b005b348015610c5857600080fd5b50610c6161335c565b604051808267ffffffffffffffff1667ffffffffffffffff16815260200191505060405180910390f35b348015610c9757600080fd5b50610ca0613376565b604051808273ffffffffffffffffffffffffffffffffffffffff1673ffffffffffffffffffffffffffffffffffffffff16815260200191505060405180910390f35b348015610cee57600080fd5b50610cf761339b565b604051808267ffffffffffffffff1667ffffffffffffffff16815260200191505060405180910390f35b348015610d2d57600080fd5b50610d366133a7565b604051808215151515815260200191505060405180910390f35b600080610d5b611a58565b905060008114158015610d75575080610d726133b0565b10155b91505090565b6000610d856120a9565b73ffffffffffffffffffffffffffffffffffffffff166304bf2a7f836040518263ffffffff167c01000000000000000000000000000000000000000000000000000000000281526004018080602001828103825283818151815260200191508051906020019080838360005b83811015610e0c578082015181840152602081019050610df1565b50505050905090810190601f168015610e395780820380516001836020036101000a031916815260200191505b5092505050602060405180830381600087803b158015610e5857600080fd5b505af1158015610e6c573d6000803e3d6000fd5b505050506040513d6020811015610e8257600080fd5b81019080805190602001909291905050509050919050565b6000610ea46126cb565b73ffffffffffffffffffffffffffffffffffffffff166332f0a3b56040518163ffffffff167c0100000000000000000000000000000000000000000000000000000000028152600401602060405180830381600087803b158015610f0757600080fd5b505af1158015610f1b573d6000803e3d6000fd5b505050506040513d6020811015610f3157600080fd5b8101908080519060200190929190505050905090565b60405180807f4d4f444946595f51554f52554d5f524f4c4500000000000000000000000000008152506012019050604051809103902081565b60008260035481106040805190810160405280600e81526020017f564f54494e475f4e4f5f564f5445000000000000000000000000000000000000815250901515611066576040517f08c379a00000000000000000000000000000000000000000000000000000000081526004018080602001828103825283818151815260200191508051906020019080838360005b8381101561102b578082015181840152602081019050611010565b50505050905090810190601f1680156110585780820380516001836020036101000a031916815260200191505b509250505060405180910390fd5b506002600085815260200190815260200160002060060160008473ffffffffffffffffffffffffffffffffffffffff1673ffffffffffffffffffffffffffffffffffffffff16815260200190815260200160002060009054906101000a900460ff1691505092915050565b6000806000806000806000806000606060008b60035481106040805190810160405280600e81526020017f564f54494e475f4e4f5f564f54450000000000000000000000000000000000008152509015156111c7576040517f08c379a00000000000000000000000000000000000000000000000000000000081526004018080602001828103825283818151815260200191508051906020019080838360005b8381101561118c578082015181840152602081019050611171565b50505050905090810190601f1680156111b95780820380516001836020036101000a031916815260200191505b509250505060405180910390fd5b50600260008e815260200190815260200160002091506111e6826133b8565b9b508160000160009054906101000a900460ff169a508160000160019054906101000a900467ffffffffffffffff1699508160000160099054906101000a900467ffffffffffffffff1698508160000160119054906101000a900467ffffffffffffffff1697508160010160009054906101000a900467ffffffffffffffff169650816002015495508160030154945081600401549350816005018054600181600116156101000203166002900480601f0160208091040260200160405190810160405280929190818152602001828054600181600116156101000203166002900480156113155780601f106112ea57610100808354040283529160200191611315565b820191906000526020600020905b8154815290600101906020018083116112f857829003601f168201915b5050505050925050509193959799509193959799565b60405180807f4d4f444946595f51554f52554d5f524f4c450000000000000000000000000000815250601201905060405180910390206113958267ffffffffffffffff16600160009054906101000a900467ffffffffffffffff1667ffffffffffffffff16613444565b6113a0338383611ead565b6040805190810160405280600f81526020017f4150505f415554485f4641494c4544000000000000000000000000000000000081525090151561147e576040517f08c379a00000000000000000000000000000000000000000000000000000000081526004018080602001828103825283818151815260200191508051906020019080838360005b83811015611443578082015181840152602081019050611428565b50505050905090810190601f1680156114705780820380516001836020036101000a031916815260200191505b509250505060405180910390fd5b50600060149054906101000a900467ffffffffffffffff1667ffffffffffffffff168367ffffffffffffffff1611156040805190810160405280601981526020017f564f54494e475f4348414e47455f51554f52554d5f504354530000000000000081525090151561158b576040517f08c379a00000000000000000000000000000000000000000000000000000000081526004018080602001828103825283818151815260200191508051906020019080838360005b83811015611550578082015181840152602081019050611535565b50505050905090810190601f16801561157d5780820380516001836020036101000a031916815260200191505b509250505060405180910390fd5b5082600160006101000a81548167ffffffffffffffff021916908367ffffffffffffffff1602179055507f3172f2e9273c729c2a47cc8bf7e7f18506e3e3035126d562602bd2155bc78a5083604051808267ffffffffffffffff1667ffffffffffffffff16815260200191505060405180910390a1505050565b60405180807f4d4f444946595f535550504f52545f524f4c45000000000000000000000000008152506013019050604051809103902081565b60405180807f4d4f444946595f535550504f52545f524f4c4500000000000000000000000000815250601301905060405180910390206116a88267ffffffffffffffff16600060149054906101000a900467ffffffffffffffff1667ffffffffffffffff16613444565b6116b3338383611ead565b6040805190810160405280600f81526020017f4150505f415554485f4641494c45440000000000000000000000000000000000815250901515611791576040517f08c379a00000000000000000000000000000000000000000000000000000000081526004018080602001828103825283818151815260200191508051906020019080838360005b8381101561175657808201518184015260208101905061173b565b50505050905090810190601f1680156117835780820380516001836020036101000a031916815260200191505b509250505060405180910390fd5b508267ffffffffffffffff16600160009054906101000a900467ffffffffffffffff1667ffffffffffffffff1611156040805190810160405280601a81526020017f564f54494e475f4348414e47455f535550504f52545f5043545300000000000081525090151561189e576040517f08c379a00000000000000000000000000000000000000000000000000000000081526004018080602001828103825283818151815260200191508051906020019080838360005b83811015611863578082015181840152602081019050611848565b50505050905090810190601f1680156118905780820380516001836020036101000a031916815260200191505b509250505060405180910390fd5b50670de0b6b3a764000067ffffffffffffffff168367ffffffffffffffff16106040805190810160405280601a81526020017f564f54494e475f4348414e47455f535550505f544f4f5f42494700000000000081525090151561199c576040517f08c379a00000000000000000000000000000000000000000000000000000000081526004018080602001828103825283818151815260200191508051906020019080838360005b83811015611961578082015181840152602081019050611946565b50505050905090810190601f16801561198e5780820380516001836020036101000a031916815260200191505b509250505060405180910390fd5b5082600060146101000a81548167ffffffffffffffff021916908367ffffffffffffffff1602179055507f903b617f7f36eb047a29b89d1bf7885fdae31d250c3320fccf11d045c11b396e83604051808267ffffffffffffffff1667ffffffffffffffff16815260200191505060405180910390a1505050565b600060019050919050565b6000611a537fd625496217aa6a3453eecb9c3489dc5a53e6c67b444329ea2b2cbc9ff547639b600102600019166134bb565b905090565b6000611a8a7febb05b386a8d34882b8711d156f463690983dc47815980fb82aeeff1aa43579e600102600019166134c6565b905090565b6000806000611a9d84611a16565b6040805190810160405280601281526020017f5245434f5645525f444953414c4c4f5745440000000000000000000000000000815250901515611b7b576040517f08c379a00000000000000000000000000000000000000000000000000000000081526004018080602001828103825283818151815260200191508051906020019080838360005b83811015611b40578082015181840152602081019050611b25565b50505050905090810190601f168015611b6d5780820380516001836020036101000a031916815260200191505b509250505060405180910390fd5b50611b84610e9a565b9250611b8f836134d1565b6040805190810160405280601a81526020017f5245434f5645525f5641554c545f4e4f545f434f4e5452414354000000000000815250901515611c6d576040517f08c379a00000000000000000000000000000000000000000000000000000000081526004018080602001828103825283818151815260200191508051906020019080838360005b83811015611c32578082015181840152602081019050611c17565b50505050905090810190601f168015611c5f5780820380516001836020036101000a031916815260200191505b509250505060405180910390fd5b50600073ffffffffffffffffffffffffffffffffffffffff168473ffffffffffffffffffffffffffffffffffffffff161415611d09573073ffffffffffffffffffffffffffffffffffffffff163191508273ffffffffffffffffffffffffffffffffffffffff166108fc839081150290604051600060405180830381858888f19350505050158015611d03573d6000803e3d6000fd5b50611e42565b839050611d35308273ffffffffffffffffffffffffffffffffffffffff1661352390919063ffffffff16565b9150611d6283838373ffffffffffffffffffffffffffffffffffffffff166136fd9092919063ffffffff16565b6040805190810160405280601d81526020017f5245434f5645525f544f4b454e5f5452414e534645525f4641494c4544000000815250901515611e40576040517f08c379a00000000000000000000000000000000000000000000000000000000081526004018080602001828103825283818151815260200191508051906020019080838360005b83811015611e05578082015181840152602081019050611dea565b50505050905090810190601f168015611e325780820380516001836020036101000a031916815260200191505b509250505060405180910390fd5b505b8373ffffffffffffffffffffffffffffffffffffffff168373ffffffffffffffffffffffffffffffffffffffff167f596caf56044b55fb8c4ca640089bbc2b63cae3e978b851f5745cbb7c5b288e02846040518082815260200191505060405180910390a350505050565b600080611eb8610d50565b1515611ec757600091506120a1565b611ecf6126cb565b9050600073ffffffffffffffffffffffffffffffffffffffff168173ffffffffffffffffffffffffffffffffffffffff161415611f0f57600091506120a1565b8073ffffffffffffffffffffffffffffffffffffffff1663fdef9106863087611f37886137dd565b6040518563ffffffff167c0100000000000000000000000000000000000000000000000000000000028152600401808573ffffffffffffffffffffffffffffffffffffffff1673ffffffffffffffffffffffffffffffffffffffff1681526020018473ffffffffffffffffffffffffffffffffffffffff1673ffffffffffffffffffffffffffffffffffffffff168152602001836000191660001916815260200180602001828103825283818151815260200191508051906020019080838360005b83811015612014578082015181840152602081019050611ff9565b50505050905090810190601f1680156120415780820380516001836020036101000a031916815260200191505b5095505050505050602060405180830381600087803b15801561206357600080fd5b505af1158015612077573d6000803e3d6000fd5b505050506040513d602081101561208d57600080fd5b810190808051906020019092919050505091505b509392505050565b6000806120b46126cb565b73ffffffffffffffffffffffffffffffffffffffff1663be00bbd87fd6f028ca0e8edb4a8c9757ca4fdccab25fa1e0317da1188108f7d2dee14902fb6001027fddbcfd564f642ab5627cf68b9b7d374fb4f8a36e941a75d89c87998cef03bd616001026040518363ffffffff167c0100000000000000000000000000000000000000000000000000000000028152600401808360001916600019168152602001826000191660001916815260200192505050602060405180830381600087803b15801561218057600080fd5b505af1158015612194573d6000803e3d6000fd5b505050506040513d60208110156121aa57600080fd5b810190808051906020019092919050505090508091505090565b600160089054906101000a900467ffffffffffffffff1681565b60405180807f4352454154455f564f5445535f524f4c450000000000000000000000000000008152506011019050604051809103902081565b60006122608360405180807f4352454154455f564f5445535f524f4c450000000000000000000000000000008152506011019050604051809103902061225b6137f4565b611ead565b905092915050565b60008060008360035481106040805190810160405280600e81526020017f564f54494e475f4e4f5f564f5445000000000000000000000000000000000000815250901515612351576040517f08c379a00000000000000000000000000000000000000000000000000000000081526004018080602001828103825283818151815260200191508051906020019080838360005b838110156123165780820151818401526020810190506122fb565b50505050905090810190601f1680156123435780820380516001836020036101000a031916815260200191505b509250505060405180910390fd5b506002600086815260200190815260200160002092508260000160009054906101000a900460ff16156123875760009350612487565b6123bc836002015484600401548560000160119054906101000a900467ffffffffffffffff1667ffffffffffffffff1661382c565b156123ca5760019350612487565b6123e58360030154846002015461388190919063ffffffff16565b91506123f0836133b8565b156123fe5760009350612487565b61242f8360020154838560000160119054906101000a900467ffffffffffffffff1667ffffffffffffffff1661382c565b151561243e5760009350612487565b612473836002015484600401548560010160009054906101000a900467ffffffffffffffff1667ffffffffffffffff1661382c565b15156124825760009350612487565b600193505b505050919050565b6000808360035481106040805190810160405280600e81526020017f564f54494e475f4e4f5f564f5445000000000000000000000000000000000000815250901515612576576040517f08c379a00000000000000000000000000000000000000000000000000000000081526004018080602001828103825283818151815260200191508051906020019080838360005b8381101561253b578082015181840152602081019050612520565b50505050905090810190601f1680156125685780820380516001836020036101000a031916815260200191505b509250505060405180910390fd5b50600260008681526020019081526020016000209150612595826133b8565b80156126c1575060008060009054906101000a900473ffffffffffffffffffffffffffffffffffffffff1673ffffffffffffffffffffffffffffffffffffffff16634ee2cd7e868560000160099054906101000a900467ffffffffffffffff166040518363ffffffff167c0100000000000000000000000000000000000000000000000000000000028152600401808373ffffffffffffffffffffffffffffffffffffffff1673ffffffffffffffffffffffffffffffffffffffff1681526020018267ffffffffffffffff16815260200192505050602060405180830381600087803b15801561268457600080fd5b505af1158015612698573d6000803e3d6000fd5b505050506040513d60208110156126ae57600080fd5b8101908080519060200190929190505050115b9250505092915050565b60006126fd7f4172f0f7d2289153072b0a6ca36959e0cbe2efc3afe50fc81636caa96338137b60010260001916613976565b905090565b600060405180807f4352454154455f564f5445535f524f4c45000000000000000000000000000000815250601101905060405180910390206127753382600060405190808252806020026020018201604052801561276f5781602001602082028038833980820191505090505b50611ead565b6040805190810160405280600f81526020017f4150505f415554485f4641494c45440000000000000000000000000000000000815250901515612853576040517f08c379a00000000000000000000000000000000000000000000000000000000081526004018080602001828103825283818151815260200191508051906020019080838360005b838110156128185780820151818401526020810190506127fd565b50505050905090810190601f1680156128455780820380516001836020036101000a031916815260200191505b509250505060405180910390fd5b506128c586868080601f01602080910402602001604051908101604052809392919081815260200183838082843782019150505050505085858080601f016020809104026020016040519081016040528093929190818152602001838380828437820191505050505050600180613981565b915050949350505050565b6128da3382612217565b6040805190810160405280601681526020017f564f54494e475f43414e5f4e4f545f464f5257415244000000000000000000008152509015156129b8576040517f08c379a00000000000000000000000000000000000000000000000000000000081526004018080602001828103825283818151815260200191508051906020019080838360005b8381101561297d578082015181840152602081019050612962565b50505050905090810190601f1680156129aa5780820380516001836020036101000a031916815260200191505b509250505060405180910390fd5b506129d6816020604051908101604052806000815250600180613981565b5050565b600160009054906101000a900467ffffffffffffffff1681565b60007fffffffffffffffffffffffffffffffffffffffffffffffffffffffffffffffff612a1f611a58565b14905090565b60035481565b8260035481106040805190810160405280600e81526020017f564f54494e475f4e4f5f564f5445000000000000000000000000000000000000815250901515612b0f576040517f08c379a00000000000000000000000000000000000000000000000000000000081526004018080602001828103825283818151815260200191508051906020019080838360005b83811015612ad4578082015181840152602081019050612ab9565b50505050905090810190601f168015612b015780820380516001836020036101000a031916815260200191505b509250505060405180910390fd5b50612b1a843361248f565b6040805190810160405280601381526020017f564f54494e475f43414e5f4e4f545f564f544500000000000000000000000000815250901515612bf8576040517f08c379a00000000000000000000000000000000000000000000000000000000081526004018080602001828103825283818151815260200191508051906020019080838360005b83811015612bbd578082015181840152602081019050612ba2565b50505050905090810190601f168015612bea5780820380516001836020036101000a031916815260200191505b509250505060405180910390fd5b50612c0584843385613d6f565b50505050565b6000612c15611a58565b146040805190810160405280601881526020017f494e49545f414c52454144595f494e495449414c495a45440000000000000000815250901515612cf4576040517f08c379a00000000000000000000000000000000000000000000000000000000081526004018080602001828103825283818151815260200191508051906020019080838360005b83811015612cb9578082015181840152602081019050612c9e565b50505050905090810190601f168015612ce65780820380516001836020036101000a031916815260200191505b509250505060405180910390fd5b50612cfd6140be565b8267ffffffffffffffff168267ffffffffffffffff1611156040805190810160405280601081526020017f564f54494e475f494e49545f5043545300000000000000000000000000000000815250901515612df3576040517f08c379a00000000000000000000000000000000000000000000000000000000081526004018080602001828103825283818151815260200191508051906020019080838360005b83811015612db8578082015181840152602081019050612d9d565b50505050905090810190601f168015612de55780820380516001836020036101000a031916815260200191505b509250505060405180910390fd5b50670de0b6b3a764000067ffffffffffffffff168367ffffffffffffffff16106040805190810160405280601b81526020017f564f54494e475f494e49545f535550504f52545f544f4f5f4249470000000000815250901515612ef1576040517f08c379a00000000000000000000000000000000000000000000000000000000081526004018080602001828103825283818151815260200191508051906020019080838360005b83811015612eb6578082015181840152602081019050612e9b565b50505050905090810190601f168015612ee35780820380516001836020036101000a031916815260200191505b509250505060405180910390fd5b50836000806101000a81548173ffffffffffffffffffffffffffffffffffffffff021916908373ffffffffffffffffffffffffffffffffffffffff16021790555082600060146101000a81548167ffffffffffffffff021916908367ffffffffffffffff16021790555081600160006101000a81548167ffffffffffffffff021916908367ffffffffffffffff16021790555080600160086101000a81548167ffffffffffffffff021916908367ffffffffffffffff16021790555050505050565b600060405180807f4352454154455f564f5445535f524f4c4500000000000000000000000000000081525060110190506040518091039020613026338260006040519080825280602002602001820160405280156130205781602001602082028038833980820191505090505b50611ead565b6040805190810160405280600f81526020017f4150505f415554485f4641494c45440000000000000000000000000000000000815250901515613104576040517f08c379a00000000000000000000000000000000000000000000000000000000081526004018080602001828103825283818151815260200191508051906020019080838360005b838110156130c95780820151818401526020810190506130ae565b50505050905090810190601f1680156130f65780820380516001836020036101000a031916815260200191505b509250505060405180910390fd5b5061317588888080601f01602080910402602001604051908101604052809392919081815260200183838082843782019150505050505087878080601f0160208091040260200160405190810160405280939291908181526020018383808284378201915050505050508686613981565b9150509695505050505050565b8060035481106040805190810160405280600e81526020017f564f54494e475f4e4f5f564f5445000000000000000000000000000000000000815250901515613266576040517f08c379a00000000000000000000000000000000000000000000000000000000081526004018080602001828103825283818151815260200191508051906020019080838360005b8381101561322b578082015181840152602081019050613210565b50505050905090810190601f1680156132585780820380516001836020036101000a031916815260200191505b509250505060405180910390fd5b5061327082612268565b6040805190810160405280601681526020017f564f54494e475f43414e5f4e4f545f455845435554450000000000000000000081525090151561334e576040517f08c379a00000000000000000000000000000000000000000000000000000000081526004018080602001828103825283818151815260200191508051906020019080838360005b838110156133135780820151818401526020810190506132f8565b50505050905090810190601f1680156133405780820380516001836020036101000a031916815260200191505b509250505060405180910390fd5b50613358826141eb565b5050565b600060149054906101000a900467ffffffffffffffff1681565b6000809054906101000a900473ffffffffffffffffffffffffffffffffffffffff1681565b670de0b6b3a764000081565b60006001905090565b600043905090565b6000613405600160089054906101000a900467ffffffffffffffff168360000160019054906101000a900467ffffffffffffffff1667ffffffffffffffff1661436290919063ffffffff16565b67ffffffffffffffff1661341761446b565b67ffffffffffffffff1610801561343d57508160000160009054906101000a900460ff16155b9050919050565b606060026040519080825280602002602001820160405280156134765781602001602082028038833980820191505090505b5090508281600081518110151561348957fe5b9060200190602002018181525050818160018151811015156134a757fe5b906020019060200201818152505092915050565b600081549050919050565b600081549050919050565b600080600073ffffffffffffffffffffffffffffffffffffffff168373ffffffffffffffffffffffffffffffffffffffff161415613512576000915061351d565b823b90506000811191505b50919050565b600060606000808573ffffffffffffffffffffffffffffffffffffffff166370a0823190507c01000000000000000000000000000000000000000000000000000000000285604051602401808273ffffffffffffffffffffffffffffffffffffffff1673ffffffffffffffffffffffffffffffffffffffff168152602001915050604051602081830303815290604052907bffffffffffffffffffffffffffffffffffffffffffffffffffffffff19166020820180517bffffffffffffffffffffffffffffffffffffffffffffffffffffffff8381831617835250505050925061360d8684614482565b91509150816040805190810160405280601c81526020017f534146455f4552435f32305f42414c414e43455f5245564552544544000000008152509015156136f0576040517f08c379a00000000000000000000000000000000000000000000000000000000081526004018080602001828103825283818151815260200191508051906020019080838360005b838110156136b557808201518184015260208101905061369a565b50505050905090810190601f1680156136e25780820380516001836020036101000a031916815260200191505b509250505060405180910390fd5b5080935050505092915050565b6000606063a9059cbb7c0100000000000000000000000000000000000000000000000000000000028484604051602401808373ffffffffffffffffffffffffffffffffffffffff1673ffffffffffffffffffffffffffffffffffffffff16815260200182815260200192505050604051602081830303815290604052907bffffffffffffffffffffffffffffffffffffffffffffffffffffffff19166020820180517bffffffffffffffffffffffffffffffffffffffffffffffffffffffff838183161783525050505090506137d385826144b7565b9150509392505050565b606060006020835102905082915080825250919050565b606060006040519080825280602002602001820160405280156138265781602001602082028038833980820191505090505b50905090565b60008060008414156138415760009150613879565b83613867670de0b6b3a764000067ffffffffffffffff168761450990919063ffffffff16565b81151561387057fe5b04905082811191505b509392505050565b6000808284019050838110156040805190810160405280601181526020017f4d4154485f4144445f4f564552464c4f5700000000000000000000000000000081525090151561396b576040517f08c379a00000000000000000000000000000000000000000000000000000000081526004018080602001828103825283818151815260200191508051906020019080838360005b83811015613930578082015181840152602081019050613915565b50505050905090810190601f16801561395d5780820380516001836020036101000a031916815260200191505b509250505060405180910390fd5b508091505092915050565b600081549050919050565b60008060008060009054906101000a900473ffffffffffffffffffffffffffffffffffffffff1673ffffffffffffffffffffffffffffffffffffffff1663981b24d08260000160099054906101000a900467ffffffffffffffff166040518263ffffffff167c0100000000000000000000000000000000000000000000000000000000028152600401808267ffffffffffffffff168152602001915050602060405180830381600087803b158015613a3857600080fd5b505af1158015613a4c573d6000803e3d6000fd5b505050506040513d6020811015613a6257600080fd5b81019080805190602001909291905050509150600082116040805190810160405280601681526020017f564f54494e475f4e4f5f564f54494e475f504f57455200000000000000000000815250901515613b57576040517f08c379a00000000000000000000000000000000000000000000000000000000081526004018080602001828103825283818151815260200191508051906020019080838360005b83811015613b1c578082015181840152602081019050613b01565b50505050905090810190601f168015613b495780820380516001836020036101000a031916815260200191505b509250505060405180910390fd5b5060036000815480929190600101919050559250600260008481526020019081526020016000209050613b8861446b565b8160000160016101000a81548167ffffffffffffffff021916908367ffffffffffffffff1602179055506001613bbc61461b565b038160000160096101000a81548167ffffffffffffffff021916908367ffffffffffffffff160217905550600060149054906101000a900467ffffffffffffffff168160000160116101000a81548167ffffffffffffffff021916908367ffffffffffffffff160217905550600160009054906101000a900467ffffffffffffffff168160010160006101000a81548167ffffffffffffffff021916908367ffffffffffffffff16021790555081816004018190555086816005019080519060200190613c8a929190615084565b503373ffffffffffffffffffffffffffffffffffffffff16837f4d72fe0577a3a3f7da968d7b892779dde102519c25527b29cf7054f245c791b9886040518080602001828103825283818151815260200191508051906020019080838360005b83811015613d05578082015181840152602081019050613cea565b50505050905090810190601f168015613d325780820380516001836020036101000a031916815260200191505b509250505060405180910390a3848015613d525750613d51833361248f565b5b15613d6557613d648360013387613d6f565b5b5050949350505050565b60008060006002600088815260200190815260200160002092506000809054906101000a900473ffffffffffffffffffffffffffffffffffffffff1673ffffffffffffffffffffffffffffffffffffffff16634ee2cd7e868560000160099054906101000a900467ffffffffffffffff166040518363ffffffff167c0100000000000000000000000000000000000000000000000000000000028152600401808373ffffffffffffffffffffffffffffffffffffffff1673ffffffffffffffffffffffffffffffffffffffff1681526020018267ffffffffffffffff16815260200192505050602060405180830381600087803b158015613e6f57600080fd5b505af1158015613e83573d6000803e3d6000fd5b505050506040513d6020811015613e9957600080fd5b810190808051906020019092919050505091508260060160008673ffffffffffffffffffffffffffffffffffffffff1673ffffffffffffffffffffffffffffffffffffffff16815260200190815260200160002060009054906101000a900460ff16905060016002811115613f0a57fe5b816002811115613f1657fe5b1415613f4057613f3382846002015461463290919063ffffffff16565b8360020181905550613f7f565b600280811115613f4c57fe5b816002811115613f5857fe5b1415613f7e57613f7582846003015461463290919063ffffffff16565b83600301819055505b5b8515613fa957613f9c82846002015461388190919063ffffffff16565b8360020181905550613fc9565b613fc082846003015461388190919063ffffffff16565b83600301819055505b85613fd5576002613fd8565b60015b8360060160008773ffffffffffffffffffffffffffffffffffffffff1673ffffffffffffffffffffffffffffffffffffffff16815260200190815260200160002060006101000a81548160ff0219169083600281111561403457fe5b02179055508473ffffffffffffffffffffffffffffffffffffffff16877fb34ee265e3d4f5ec4e8b52d59b2a9be8fceca2f274ebc080d8fba797fea9391f888560405180831515151581526020018281526020019250505060405180910390a38380156140a657506140a587612268565b5b156140b5576140b4876141eb565b5b50505050505050565b60006140c8611a58565b146040805190810160405280601881526020017f494e49545f414c52454144595f494e495449414c495a454400000000000000008152509015156141a7576040517f08c379a00000000000000000000000000000000000000000000000000000000081526004018080602001828103825283818151815260200191508051906020019080838360005b8381101561416c578082015181840152602081019050614151565b50505050905090810190601f1680156141995780820380516001836020036101000a031916815260200191505b509250505060405180910390fd5b506141e96141b36133b0565b7febb05b386a8d34882b8711d156f463690983dc47815980fb82aeeff1aa43579e6001026000191661472790919063ffffffff16565b565b6000606060026000848152602001908152602001600020915060018260000160006101000a81548160ff02191690831515021790555060006040519080825280601f01601f1916602001820160405280156142555781602001602082028038833980820191505090505b50905061432f826005018054600181600116156101000203166002900480601f0160208091040260200160405190810160405280929190818152602001828054600181600116156101000203166002900480156142f35780601f106142c8576101008083540402835291602001916142f3565b820191906000526020600020905b8154815290600101906020018083116142d657829003601f168201915b50505050508260006040519080825280602002602001820160405280156143295781602001602082028038833980820191505090505b5061472e565b50827fbf8e2b108bb7c980e08903a8a46527699d5e84905a082d56dacb4150725c8cab60405160405180910390a2505050565b60008082840190508367ffffffffffffffff168167ffffffffffffffff1610156040805190810160405280601381526020017f4d41544836345f4144445f4f564552464c4f5700000000000000000000000000815250901515614460576040517f08c379a00000000000000000000000000000000000000000000000000000000081526004018080602001828103825283818151815260200191508051906020019080838360005b8381101561442557808201518184015260208101905061440a565b50505050905090810190601f1680156144525780820380516001836020036101000a031916815260200191505b509250505060405180910390fd5b508091505092915050565b600061447d614478614f65565b614f6d565b905090565b6000806000806040516020818751602089018a5afa925060008311156144a757805191505b5081819350935050509250929050565b6000806040516020818551602087016000895af160008111156144fd573d600081146144ea57602081146144f3576144fb565b600193506144fb565b600183511493505b505b50508091505092915050565b600080600084141561451e5760009150614614565b828402905082848281151561452f57fe5b04146040805190810160405280601181526020017f4d4154485f4d554c5f4f564552464c4f5700000000000000000000000000000081525090151561460f576040517f08c379a00000000000000000000000000000000000000000000000000000000081526004018080602001828103825283818151815260200191508051906020019080838360005b838110156145d45780820151818401526020810190506145b9565b50505050905090810190601f1680156146015780820380516001836020036101000a031916815260200191505b509250505060405180910390fd5b508091505b5092915050565b600061462d6146286133b0565b614f6d565b905090565b600080838311156040805190810160405280601281526020017f4d4154485f5355425f554e444552464c4f570000000000000000000000000000815250901515614717576040517f08c379a00000000000000000000000000000000000000000000000000000000081526004018080602001828103825283818151815260200191508051906020019080838360005b838110156146dc5780820151818401526020810190506146c1565b50505050905090810190601f1680156147095780820380516001836020036101000a031916815260200191505b509250505060405180910390fd5b5082840390508091505092915050565b8082555050565b606060008060608061473e610d50565b6040805190810160405280601481526020017f494e49545f4e4f545f494e495449414c495a454400000000000000000000000081525090151561481c576040517f08c379a00000000000000000000000000000000000000000000000000000000081526004018080602001828103825283818151815260200191508051906020019080838360005b838110156147e15780820151818401526020810190506147c6565b50505050905090810190601f16801561480e5780820380516001836020036101000a031916815260200191505b509250505060405180910390fd5b506000806148286126cb565b9150614832611a21565b905061483d8a610d7b565b9550600073ffffffffffffffffffffffffffffffffffffffff168673ffffffffffffffffffffffffffffffffffffffff1614156040805190810160405280601b81526020017f45564d52554e5f4558454355544f525f554e415641494c41424c45000000000081525090151561494e576040517f08c379a00000000000000000000000000000000000000000000000000000000081526004018080602001828103825283818151815260200191508051906020019080838360005b838110156149135780820151818401526020810190506148f8565b50505050905090810190601f1680156149405780820380516001836020036101000a031916815260200191505b509250505060405180910390fd5b508573ffffffffffffffffffffffffffffffffffffffff1663279cea3590507c0100000000000000000000000000000000000000000000000000000000029450848a8a8a60405160240180806020018060200180602001848103845287818151815260200191508051906020019080838360005b838110156149dd5780820151818401526020810190506149c2565b50505050905090810190601f168015614a0a5780820380516001836020036101000a031916815260200191505b50848103835286818151815260200191508051906020019080838360005b83811015614a43578082015181840152602081019050614a28565b50505050905090810190601f168015614a705780820380516001836020036101000a031916815260200191505b50848103825285818151815260200191508051906020019060200280838360005b83811015614aac578082015181840152602081019050614a91565b505050509050019650505050505050604051602081830303815290604052907bffffffffffffffffffffffffffffffffffffffffffffffffffffffff19166020820180517bffffffffffffffffffffffffffffffffffffffffffffffffffffffff83818316178352505050509350600080855160208701895af460405193508060008114614bb757603f3d1160008114614b555760203d03806020883e80870160405250614bb1565b7f08c379a000000000000000000000000000000000000000000000000000000000865260206004870152601e60248701527f45564d52554e5f4558454355544f525f494e56414c49445f52455455524e00006044870152606486fd5b50614bc0565b3d6000863e3d85fd5b50508573ffffffffffffffffffffffffffffffffffffffff167f5229a5dba83a54ae8cb5b51bdd6de9474cacbe9dd332f5185f3a4f4f2e3f4ad98b8b8660405180806020018060200180602001848103845287818151815260200191508051906020019080838360005b83811015614c45578082015181840152602081019050614c2a565b50505050905090810190601f168015614c725780820380516001836020036101000a031916815260200191505b50848103835286818151815260200191508051906020019080838360005b83811015614cab578082015181840152602081019050614c90565b50505050905090810190601f168015614cd85780820380516001836020036101000a031916815260200191505b50848103825285818151815260200191508051906020019080838360005b83811015614d11578082015181840152602081019050614cf6565b50505050905090810190601f168015614d3e5780820380516001836020036101000a031916815260200191505b50965050505050505060405180910390a28296508173ffffffffffffffffffffffffffffffffffffffff16614d716126cb565b73ffffffffffffffffffffffffffffffffffffffff16146040805190810160405280601f81526020017f45564d52554e5f50524f5445435445445f53544154455f4d4f44494649454400815250901515614e66576040517f08c379a00000000000000000000000000000000000000000000000000000000081526004018080602001828103825283818151815260200191508051906020019080838360005b83811015614e2b578082015181840152602081019050614e10565b50505050905090810190601f168015614e585780820380516001836020036101000a031916815260200191505b509250505060405180910390fd5b508060001916614e74611a21565b60001916146040805190810160405280601f81526020017f45564d52554e5f50524f5445435445445f53544154455f4d4f44494649454400815250901515614f57576040517f08c379a00000000000000000000000000000000000000000000000000000000081526004018080602001828103825283818151815260200191508051906020019080838360005b83811015614f1c578082015181840152602081019050614f01565b50505050905090810190601f168015614f495780820380516001836020036101000a031916815260200191505b509250505060405180910390fd5b505050505050509392505050565b600042905090565b60007fffffffffffffffffffffffffffffffffffffffffffffffffffffffffffffffff67ffffffffffffffff168211156040805190810160405280601581526020017f55494e5436345f4e554d4245525f544f4f5f424947000000000000000000000081525090151561507b576040517f08c379a00000000000000000000000000000000000000000000000000000000081526004018080602001828103825283818151815260200191508051906020019080838360005b83811015615040578082015181840152602081019050615025565b50505050905090810190601f16801561506d5780820380516001836020036101000a031916815260200191505b509250505060405180910390fd5b50819050919050565b828054600181600116156101000203166002900490600052602060002090601f016020900481019282601f106150c557805160ff19168380011785556150f3565b828001600101855582156150f3579182015b828111156150f25782518255916020019190600101906150d7565b5b5090506151009190615104565b5090565b61512691905b8082111561512257600081600090555060010161510a565b5090565b905600a165627a7a7230582050cfab08a693049234731356313c2852d83c5673f7119d02c7044cd36bb749640029",
  "source": "/*\n * SPDX-License-Identitifer:    GPL-3.0-or-later\n */\n\npragma solidity 0.4.24;\n\nimport \"@aragon/os/contracts/apps/AragonApp.sol\";\nimport \"@aragon/os/contracts/common/IForwarder.sol\";\n\nimport \"@aragon/os/contracts/lib/math/SafeMath.sol\";\nimport \"@aragon/os/contracts/lib/math/SafeMath64.sol\";\n\nimport \"@aragon/apps-shared-minime/contracts/MiniMeToken.sol\";\n\n\ncontract Voting is IForwarder, AragonApp {\n    using SafeMath for uint256;\n    using SafeMath64 for uint64;\n\n    bytes32 public constant CREATE_VOTES_ROLE = keccak256(\"CREATE_VOTES_ROLE\");\n    bytes32 public constant MODIFY_SUPPORT_ROLE = keccak256(\"MODIFY_SUPPORT_ROLE\");\n    bytes32 public constant MODIFY_QUORUM_ROLE = keccak256(\"MODIFY_QUORUM_ROLE\");\n\n    uint64 public constant PCT_BASE = 10 ** 18; // 0% = 0; 1% = 10^16; 100% = 10^18\n\n    string private constant ERROR_NO_VOTE = \"VOTING_NO_VOTE\";\n    string private constant ERROR_INIT_PCTS = \"VOTING_INIT_PCTS\";\n    string private constant ERROR_CHANGE_SUPPORT_PCTS = \"VOTING_CHANGE_SUPPORT_PCTS\";\n    string private constant ERROR_CHANGE_QUORUM_PCTS = \"VOTING_CHANGE_QUORUM_PCTS\";\n    string private constant ERROR_INIT_SUPPORT_TOO_BIG = \"VOTING_INIT_SUPPORT_TOO_BIG\";\n    string private constant ERROR_CHANGE_SUPPORT_TOO_BIG = \"VOTING_CHANGE_SUPP_TOO_BIG\";\n    string private constant ERROR_CAN_NOT_VOTE = \"VOTING_CAN_NOT_VOTE\";\n    string private constant ERROR_CAN_NOT_EXECUTE = \"VOTING_CAN_NOT_EXECUTE\";\n    string private constant ERROR_CAN_NOT_FORWARD = \"VOTING_CAN_NOT_FORWARD\";\n    string private constant ERROR_NO_VOTING_POWER = \"VOTING_NO_VOTING_POWER\";\n\n    enum VoterState { Absent, Yea, Nay }\n\n    struct Vote {\n        bool executed;\n        uint64 startDate;\n        uint64 snapshotBlock;\n        uint64 supportRequiredPct;\n        uint64 minAcceptQuorumPct;\n        uint256 yea;\n        uint256 nay;\n        uint256 votingPower;\n        bytes executionScript;\n        mapping (address => VoterState) voters;\n    }\n\n    MiniMeToken public token;\n    uint64 public supportRequiredPct;\n    uint64 public minAcceptQuorumPct;\n    uint64 public voteTime;\n\n    // We are mimicing an array, we use a mapping instead to make app upgrade more graceful\n    mapping (uint256 => Vote) internal votes;\n    uint256 public votesLength;\n\n    event StartVote(uint256 indexed voteId, address indexed creator, string metadata);\n    event CastVote(uint256 indexed voteId, address indexed voter, bool supports, uint256 stake);\n    event ExecuteVote(uint256 indexed voteId);\n    event ChangeSupportRequired(uint64 supportRequiredPct);\n    event ChangeMinQuorum(uint64 minAcceptQuorumPct);\n\n    modifier voteExists(uint256 _voteId) {\n        require(_voteId < votesLength, ERROR_NO_VOTE);\n        _;\n    }\n\n    /**\n    * @notice Initialize Voting app with `_token.symbol(): string` for governance, minimum support of `@formatPct(_supportRequiredPct)`%, minimum acceptance quorum of `@formatPct(_minAcceptQuorumPct)`%, and a voting duration of `@transformTime(_voteTime)`\n    * @param _token MiniMeToken Address that will be used as governance token\n    * @param _supportRequiredPct Percentage of yeas in casted votes for a vote to succeed (expressed as a percentage of 10^18; eg. 10^16 = 1%, 10^18 = 100%)\n    * @param _minAcceptQuorumPct Percentage of yeas in total possible votes for a vote to succeed (expressed as a percentage of 10^18; eg. 10^16 = 1%, 10^18 = 100%)\n    * @param _voteTime Seconds that a vote will be open for token holders to vote (unless enough yeas or nays have been cast to make an early decision)\n    */\n    function initialize(\n        MiniMeToken _token,\n        uint64 _supportRequiredPct,\n        uint64 _minAcceptQuorumPct,\n        uint64 _voteTime\n    )\n        external\n        onlyInit\n    {\n        initialized();\n\n        require(_minAcceptQuorumPct <= _supportRequiredPct, ERROR_INIT_PCTS);\n        require(_supportRequiredPct < PCT_BASE, ERROR_INIT_SUPPORT_TOO_BIG);\n\n        token = _token;\n        supportRequiredPct = _supportRequiredPct;\n        minAcceptQuorumPct = _minAcceptQuorumPct;\n        voteTime = _voteTime;\n    }\n\n    /**\n    * @notice Change required support to `@formatPct(_supportRequiredPct)`%\n    * @param _supportRequiredPct New required support\n    */\n    function changeSupportRequiredPct(uint64 _supportRequiredPct)\n        external\n        authP(MODIFY_SUPPORT_ROLE, arr(uint256(_supportRequiredPct), uint256(supportRequiredPct)))\n    {\n        require(minAcceptQuorumPct <= _supportRequiredPct, ERROR_CHANGE_SUPPORT_PCTS);\n        require(_supportRequiredPct < PCT_BASE, ERROR_CHANGE_SUPPORT_TOO_BIG);\n        supportRequiredPct = _supportRequiredPct;\n\n        emit ChangeSupportRequired(_supportRequiredPct);\n    }\n\n    /**\n    * @notice Change minimum acceptance quorum to `@formatPct(_minAcceptQuorumPct)`%\n    * @param _minAcceptQuorumPct New acceptance quorum\n    */\n    function changeMinAcceptQuorumPct(uint64 _minAcceptQuorumPct)\n        external\n        authP(MODIFY_QUORUM_ROLE, arr(uint256(_minAcceptQuorumPct), uint256(minAcceptQuorumPct)))\n    {\n        require(_minAcceptQuorumPct <= supportRequiredPct, ERROR_CHANGE_QUORUM_PCTS);\n        minAcceptQuorumPct = _minAcceptQuorumPct;\n\n        emit ChangeMinQuorum(_minAcceptQuorumPct);\n    }\n\n    /**\n    * @notice Create a new vote about \"`_metadata`\"\n    * @param _executionScript EVM script to be executed on approval\n    * @param _metadata Vote metadata\n    * @return voteId Id for newly created vote\n    */\n    function newVote(bytes _executionScript, string _metadata) external auth(CREATE_VOTES_ROLE) returns (uint256 voteId) {\n        return _newVote(_executionScript, _metadata, true, true);\n    }\n\n    /**\n    * @notice Create a new vote about \"`_metadata`\"\n    * @param _executionScript EVM script to be executed on approval\n    * @param _metadata Vote metadata\n    * @param _castVote Whether to also cast newly created vote\n    * @param _executesIfDecided Whether to also immediately execute newly created vote if decided\n    * @return voteId id for newly created vote\n    */\n    function newVote(bytes _executionScript, string _metadata, bool _castVote, bool _executesIfDecided)\n        external\n        auth(CREATE_VOTES_ROLE)\n        returns (uint256 voteId)\n    {\n        return _newVote(_executionScript, _metadata, _castVote, _executesIfDecided);\n    }\n\n    /**\n    * @notice Vote `_supports ? 'yea' : 'nay'` in vote #`_voteId`\n    * @dev Initialization check is implicitly provided by `voteExists()` as new votes can only be\n    *      created via `newVote(),` which requires initialization\n    * @param _voteId Id for vote\n    * @param _supports Whether voter supports the vote\n    * @param _executesIfDecided Whether the vote should execute its action if it becomes decided\n    */\n    function vote(uint256 _voteId, bool _supports, bool _executesIfDecided) external voteExists(_voteId) {\n        require(canVote(_voteId, msg.sender), ERROR_CAN_NOT_VOTE);\n        _vote(_voteId, _supports, msg.sender, _executesIfDecided);\n    }\n\n    /**\n    * @notice Execute vote #`_voteId`\n    * @dev Initialization check is implicitly provided by `voteExists()` as new votes can only be\n    *      created via `newVote(),` which requires initialization\n    * @param _voteId Id for vote\n    */\n    function executeVote(uint256 _voteId) external voteExists(_voteId) {\n        require(canExecute(_voteId), ERROR_CAN_NOT_EXECUTE);\n        _executeVote(_voteId);\n    }\n\n    function isForwarder() public pure returns (bool) {\n        return true;\n    }\n\n    /**\n    * @notice Creates a vote to execute the desired action, and casts a support vote if possible\n    * @dev IForwarder interface conformance\n    * @param _evmScript Start vote with script\n    */\n    function forward(bytes _evmScript) public {\n        require(canForward(msg.sender, _evmScript), ERROR_CAN_NOT_FORWARD);\n        _newVote(_evmScript, \"\", true, true);\n    }\n\n    function canForward(address _sender, bytes) public view returns (bool) {\n        // Note that `canPerform()` implicitly does an initialization check itself\n        return canPerform(_sender, CREATE_VOTES_ROLE, arr());\n    }\n\n    function canVote(uint256 _voteId, address _voter) public view voteExists(_voteId) returns (bool) {\n        Vote storage vote_ = votes[_voteId];\n\n        return _isVoteOpen(vote_) && token.balanceOfAt(_voter, vote_.snapshotBlock) > 0;\n    }\n\n    function canExecute(uint256 _voteId) public view voteExists(_voteId) returns (bool) {\n        Vote storage vote_ = votes[_voteId];\n\n        if (vote_.executed) {\n            return false;\n        }\n\n        // Voting is already decided\n        if (_isValuePct(vote_.yea, vote_.votingPower, vote_.supportRequiredPct)) {\n            return true;\n        }\n\n        uint256 totalVotes = vote_.yea.add(vote_.nay);\n\n        // Vote ended?\n        if (_isVoteOpen(vote_)) {\n            return false;\n        }\n        // Has enough support?\n        if (!_isValuePct(vote_.yea, totalVotes, vote_.supportRequiredPct)) {\n            return false;\n        }\n        // Has min quorum?\n        if (!_isValuePct(vote_.yea, vote_.votingPower, vote_.minAcceptQuorumPct)) {\n            return false;\n        }\n\n        return true;\n    }\n\n    function getVote(uint256 _voteId)\n        public\n        view\n        voteExists(_voteId)\n        returns (\n            bool open,\n            bool executed,\n            uint64 startDate,\n            uint64 snapshotBlock,\n            uint64 supportRequired,\n            uint64 minAcceptQuorum,\n            uint256 yea,\n            uint256 nay,\n            uint256 votingPower,\n            bytes script\n        )\n    {\n        Vote storage vote_ = votes[_voteId];\n\n        open = _isVoteOpen(vote_);\n        executed = vote_.executed;\n        startDate = vote_.startDate;\n        snapshotBlock = vote_.snapshotBlock;\n        supportRequired = vote_.supportRequiredPct;\n        minAcceptQuorum = vote_.minAcceptQuorumPct;\n        yea = vote_.yea;\n        nay = vote_.nay;\n        votingPower = vote_.votingPower;\n        script = vote_.executionScript;\n    }\n\n    function getVoterState(uint256 _voteId, address _voter) public view voteExists(_voteId) returns (VoterState) {\n        return votes[_voteId].voters[_voter];\n    }\n\n    function _newVote(bytes _executionScript, string _metadata, bool _castVote, bool _executesIfDecided)\n        internal\n        returns (uint256 voteId)\n    {\n        uint256 votingPower = token.totalSupplyAt(vote_.snapshotBlock);\n        require(votingPower > 0, ERROR_NO_VOTING_POWER);\n\n        voteId = votesLength++;\n        Vote storage vote_ = votes[voteId];\n        vote_.startDate = getTimestamp64();\n        vote_.snapshotBlock = getBlockNumber64() - 1; // avoid double voting in this very block\n        vote_.supportRequiredPct = supportRequiredPct;\n        vote_.minAcceptQuorumPct = minAcceptQuorumPct;\n        vote_.votingPower = votingPower;\n        vote_.executionScript = _executionScript;\n\n        emit StartVote(voteId, msg.sender, _metadata);\n\n        if (_castVote && canVote(voteId, msg.sender)) {\n            _vote(voteId, true, msg.sender, _executesIfDecided);\n        }\n    }\n\n    function _vote(\n        uint256 _voteId,\n        bool _supports,\n        address _voter,\n        bool _executesIfDecided\n    ) internal\n    {\n        Vote storage vote_ = votes[_voteId];\n\n        // This could re-enter, though we can assume the governance token is not malicious\n        uint256 voterStake = token.balanceOfAt(_voter, vote_.snapshotBlock);\n        VoterState state = vote_.voters[_voter];\n\n        // If voter had previously voted, decrease count\n        if (state == VoterState.Yea) {\n            vote_.yea = vote_.yea.sub(voterStake);\n        } else if (state == VoterState.Nay) {\n            vote_.nay = vote_.nay.sub(voterStake);\n        }\n\n        if (_supports) {\n            vote_.yea = vote_.yea.add(voterStake);\n        } else {\n            vote_.nay = vote_.nay.add(voterStake);\n        }\n\n        vote_.voters[_voter] = _supports ? VoterState.Yea : VoterState.Nay;\n\n        emit CastVote(_voteId, _voter, _supports, voterStake);\n\n        if (_executesIfDecided && canExecute(_voteId)) {\n            _executeVote(_voteId);\n        }\n    }\n\n    function _executeVote(uint256 _voteId) internal {\n        Vote storage vote_ = votes[_voteId];\n\n        vote_.executed = true;\n\n        bytes memory input = new bytes(0); // TODO: Consider input for voting scripts\n        runScript(vote_.executionScript, input, new address[](0));\n\n        emit ExecuteVote(_voteId);\n    }\n\n    function _isVoteOpen(Vote storage vote_) internal view returns (bool) {\n        return getTimestamp64() < vote_.startDate.add(voteTime) && !vote_.executed;\n    }\n\n    /**\n    * @dev Calculates whether `_value` is more than a percentage `_pct` of `_total`\n    */\n    function _isValuePct(uint256 _value, uint256 _total, uint256 _pct) internal pure returns (bool) {\n        if (_total == 0) {\n            return false;\n        }\n\n        uint256 computedPct = _value.mul(PCT_BASE) / _total;\n        return computedPct > _pct;\n    }\n}\n",
  "sourcePath": "@aragon/apps-voting/contracts/Voting.sol",
  "compiler": {
    "name": "solc",
    "version": "0.4.24+commit.e67f0147.Emscripten.clang"
  },
  "schemaVersion": "2.0.1",
  "updatedAt": "2019-04-20T22:48:43.750Z"
}